{
  "_format": "hh-sol-artifact-1",
  "contractName": "NodeRegistry",
  "sourceName": "contracts/NodeRegistry.sol",
  "abi": [
    {
      "inputs": [
        {
          "internalType": "address",
          "name": "_ottToken",
          "type": "address"
        }
      ],
      "stateMutability": "nonpayable",
      "type": "constructor"
    },
    {
      "inputs": [
        {
          "internalType": "address",
          "name": "owner",
          "type": "address"
        }
      ],
      "name": "OwnableInvalidOwner",
      "type": "error"
    },
    {
      "inputs": [
        {
          "internalType": "address",
          "name": "account",
          "type": "address"
        }
      ],
      "name": "OwnableUnauthorizedAccount",
      "type": "error"
    },
    {
      "inputs": [],
      "name": "ReentrancyGuardReentrantCall",
      "type": "error"
    },
    {
      "inputs": [
        {
          "internalType": "address",
          "name": "token",
          "type": "address"
        }
      ],
      "name": "SafeERC20FailedOperation",
      "type": "error"
    },
    {
      "anonymous": false,
      "inputs": [
        {
          "indexed": true,
          "internalType": "bytes32",
          "name": "nodeId",
          "type": "bytes32"
        },
        {
          "indexed": false,
          "internalType": "uint256",
          "name": "seconds_",
          "type": "uint256"
        },
        {
          "indexed": false,
          "internalType": "uint256",
          "name": "reward",
          "type": "uint256"
        }
      ],
      "name": "ComputeReported",
      "type": "event"
    },
    {
      "anonymous": false,
      "inputs": [
        {
          "indexed": true,
          "internalType": "bytes32",
          "name": "nodeId",
          "type": "bytes32"
        }
      ],
      "name": "NodeDeactivated",
      "type": "event"
    },
    {
      "anonymous": false,
      "inputs": [
        {
          "indexed": true,
          "internalType": "bytes32",
          "name": "nodeId",
          "type": "bytes32"
        }
      ],
      "name": "NodeReactivated",
      "type": "event"
    },
    {
      "anonymous": false,
      "inputs": [
        {
          "indexed": true,
          "internalType": "bytes32",
          "name": "nodeId",
          "type": "bytes32"
        },
        {
          "indexed": true,
          "internalType": "address",
          "name": "owner",
          "type": "address"
        },
        {
          "indexed": false,
          "internalType": "uint256",
          "name": "stake",
          "type": "uint256"
        }
      ],
      "name": "NodeRegistered",
      "type": "event"
    },
    {
      "anonymous": false,
      "inputs": [
        {
          "indexed": true,
          "internalType": "address",
          "name": "previousOwner",
          "type": "address"
        },
        {
          "indexed": true,
          "internalType": "address",
          "name": "newOwner",
          "type": "address"
        }
      ],
      "name": "OwnershipTransferred",
      "type": "event"
    },
    {
      "anonymous": false,
      "inputs": [
        {
          "indexed": true,
          "internalType": "address",
          "name": "reporter",
          "type": "address"
        }
      ],
      "name": "ReporterAdded",
      "type": "event"
    },
    {
      "anonymous": false,
      "inputs": [
        {
          "indexed": true,
          "internalType": "address",
          "name": "reporter",
          "type": "address"
        }
      ],
      "name": "ReporterRemoved",
      "type": "event"
    },
    {
      "anonymous": false,
      "inputs": [
        {
          "indexed": true,
          "internalType": "bytes32",
          "name": "nodeId",
          "type": "bytes32"
        },
        {
          "indexed": true,
          "internalType": "address",
          "name": "to",
          "type": "address"
        },
        {
          "indexed": false,
          "internalType": "uint256",
          "name": "amount",
          "type": "uint256"
        }
      ],
      "name": "RewardsClaimed",
      "type": "event"
    },
    {
      "anonymous": false,
      "inputs": [
        {
          "indexed": true,
          "internalType": "bytes32",
          "name": "nodeId",
          "type": "bytes32"
        },
        {
          "indexed": false,
          "internalType": "uint256",
          "name": "amount",
          "type": "uint256"
        }
      ],
      "name": "StakeAdded",
      "type": "event"
    },
    {
      "anonymous": false,
      "inputs": [
        {
          "indexed": true,
          "internalType": "bytes32",
          "name": "nodeId",
          "type": "bytes32"
        },
        {
          "indexed": false,
          "internalType": "uint256",
          "name": "amount",
          "type": "uint256"
        }
      ],
      "name": "StakeWithdrawn",
      "type": "event"
    },
    {
      "inputs": [
        {
          "internalType": "address",
          "name": "reporter",
          "type": "address"
        }
      ],
      "name": "addReporter",
      "outputs": [],
      "stateMutability": "nonpayable",
      "type": "function"
    },
    {
      "inputs": [
        {
          "internalType": "bytes32",
          "name": "nodeId",
          "type": "bytes32"
        },
        {
          "internalType": "uint256",
          "name": "amount",
          "type": "uint256"
        }
      ],
      "name": "addStake",
      "outputs": [],
      "stateMutability": "nonpayable",
      "type": "function"
    },
    {
      "inputs": [
        {
          "internalType": "uint256",
          "name": "",
          "type": "uint256"
        }
      ],
      "name": "allNodeIds",
      "outputs": [
        {
          "internalType": "bytes32",
          "name": "",
          "type": "bytes32"
        }
      ],
      "stateMutability": "view",
      "type": "function"
    },
    {
      "inputs": [
        {
          "internalType": "address",
          "name": "",
          "type": "address"
        }
      ],
      "name": "authorizedReporters",
      "outputs": [
        {
          "internalType": "bool",
          "name": "",
          "type": "bool"
        }
      ],
      "stateMutability": "view",
      "type": "function"
    },
    {
      "inputs": [
        {
          "internalType": "bytes32",
          "name": "nodeId",
          "type": "bytes32"
        }
      ],
      "name": "claimRewards",
      "outputs": [],
      "stateMutability": "nonpayable",
      "type": "function"
    },
    {
      "inputs": [
        {
          "internalType": "bytes32",
          "name": "nodeId",
          "type": "bytes32"
        }
      ],
      "name": "deactivateNode",
      "outputs": [],
      "stateMutability": "nonpayable",
      "type": "function"
    },
    {
      "inputs": [
        {
          "internalType": "bytes32",
          "name": "nodeId",
          "type": "bytes32"
        }
      ],
      "name": "getNode",
      "outputs": [
        {
          "components": [
            {
              "internalType": "address",
              "name": "owner",
              "type": "address"
            },
            {
              "internalType": "uint256",
              "name": "stakedAmount",
              "type": "uint256"
            },
            {
              "internalType": "uint256",
              "name": "pendingRewards",
              "type": "uint256"
            },
            {
              "internalType": "uint256",
              "name": "totalEarned",
              "type": "uint256"
            },
            {
              "internalType": "uint256",
              "name": "totalComputeSeconds",
              "type": "uint256"
            },
            {
              "internalType": "uint256",
              "name": "reputation",
              "type": "uint256"
            },
            {
              "internalType": "uint256",
              "name": "registeredAt",
              "type": "uint256"
            },
            {
              "internalType": "uint256",
              "name": "lastActiveAt",
              "type": "uint256"
            },
            {
              "internalType": "bool",
              "name": "isActive",
              "type": "bool"
            },
            {
              "internalType": "bool",
              "name": "isSlashed",
              "type": "bool"
            },
            {
              "components": [
                {
                  "internalType": "uint32",
                  "name": "cpuCores",
                  "type": "uint32"
                },
                {
                  "internalType": "uint32",
                  "name": "memoryMb",
                  "type": "uint32"
                },
                {
                  "internalType": "uint32",
                  "name": "gpuCount",
                  "type": "uint32"
                },
                {
                  "internalType": "uint32",
                  "name": "gpuVramMb",
                  "type": "uint32"
                },
                {
                  "internalType": "bool",
                  "name": "hasOllama",
                  "type": "bool"
                },
                {
                  "internalType": "bool",
                  "name": "hasSandbox",
                  "type": "bool"
                }
              ],
              "internalType": "struct NodeRegistry.Capabilities",
              "name": "capabilities",
              "type": "tuple"
            },
            {
              "internalType": "string",
              "name": "endpoint",
              "type": "string"
            }
          ],
          "internalType": "struct NodeRegistry.Node",
          "name": "",
          "type": "tuple"
        }
      ],
      "stateMutability": "view",
      "type": "function"
    },
    {
      "inputs": [
        {
          "internalType": "address",
          "name": "owner_",
          "type": "address"
        }
      ],
      "name": "getOwnerNodes",
      "outputs": [
        {
          "internalType": "bytes32[]",
          "name": "",
          "type": "bytes32[]"
        }
      ],
      "stateMutability": "view",
      "type": "function"
    },
    {
      "inputs": [],
      "name": "getTotalNodes",
      "outputs": [
        {
          "internalType": "uint256",
          "name": "",
          "type": "uint256"
        }
      ],
      "stateMutability": "view",
      "type": "function"
    },
    {
      "inputs": [
        {
          "internalType": "bytes32",
          "name": "nodeId",
          "type": "bytes32"
        }
      ],
      "name": "isNodeEligible",
      "outputs": [
        {
          "internalType": "bool",
          "name": "",
          "type": "bool"
        }
      ],
      "stateMutability": "view",
      "type": "function"
    },
    {
      "inputs": [],
      "name": "minStake",
      "outputs": [
        {
          "internalType": "uint256",
          "name": "",
          "type": "uint256"
        }
      ],
      "stateMutability": "view",
      "type": "function"
    },
    {
      "inputs": [],
      "name": "ottToken",
      "outputs": [
        {
          "internalType": "contract IERC20",
          "name": "",
          "type": "address"
        }
      ],
      "stateMutability": "view",
      "type": "function"
    },
    {
      "inputs": [],
      "name": "owner",
      "outputs": [
        {
          "internalType": "address",
          "name": "",
          "type": "address"
        }
      ],
      "stateMutability": "view",
      "type": "function"
    },
    {
      "inputs": [
        {
          "internalType": "address",
          "name": "",
          "type": "address"
        },
        {
          "internalType": "uint256",
          "name": "",
          "type": "uint256"
        }
      ],
      "name": "ownerNodes",
      "outputs": [
        {
          "internalType": "bytes32",
          "name": "",
          "type": "bytes32"
        }
      ],
      "stateMutability": "view",
      "type": "function"
    },
    {
      "inputs": [
        {
          "internalType": "bytes32",
          "name": "nodeId",
          "type": "bytes32"
        }
      ],
      "name": "reactivateNode",
      "outputs": [],
      "stateMutability": "nonpayable",
      "type": "function"
    },
    {
      "inputs": [
        {
          "components": [
            {
              "internalType": "uint32",
              "name": "cpuCores",
              "type": "uint32"
            },
            {
              "internalType": "uint32",
              "name": "memoryMb",
              "type": "uint32"
            },
            {
              "internalType": "uint32",
              "name": "gpuCount",
              "type": "uint32"
            },
            {
              "internalType": "uint32",
              "name": "gpuVramMb",
              "type": "uint32"
            },
            {
              "internalType": "bool",
              "name": "hasOllama",
              "type": "bool"
            },
            {
              "internalType": "bool",
              "name": "hasSandbox",
              "type": "bool"
            }
          ],
          "internalType": "struct NodeRegistry.Capabilities",
          "name": "capabilities",
          "type": "tuple"
        },
        {
          "internalType": "string",
          "name": "endpoint",
          "type": "string"
        },
        {
          "internalType": "uint256",
          "name": "stakeAmount",
          "type": "uint256"
        }
      ],
      "name": "registerNode",
      "outputs": [
        {
          "internalType": "bytes32",
          "name": "",
          "type": "bytes32"
        }
      ],
      "stateMutability": "nonpayable",
      "type": "function"
    },
    {
      "inputs": [
        {
          "internalType": "address",
          "name": "reporter",
          "type": "address"
        }
      ],
      "name": "removeReporter",
      "outputs": [],
      "stateMutability": "nonpayable",
      "type": "function"
    },
    {
      "inputs": [],
      "name": "renounceOwnership",
      "outputs": [],
      "stateMutability": "nonpayable",
      "type": "function"
    },
    {
      "inputs": [
        {
          "internalType": "bytes32",
          "name": "nodeId",
          "type": "bytes32"
        },
        {
          "internalType": "uint256",
          "name": "computeSeconds",
          "type": "uint256"
        }
      ],
      "name": "reportCompute",
      "outputs": [],
      "stateMutability": "nonpayable",
      "type": "function"
    },
    {
      "inputs": [],
      "name": "rewardRate",
      "outputs": [
        {
          "internalType": "uint256",
          "name": "",
          "type": "uint256"
        }
      ],
      "stateMutability": "view",
      "type": "function"
    },
    {
      "inputs": [
        {
          "internalType": "uint256",
          "name": "_minStake",
          "type": "uint256"
        }
      ],
      "name": "setMinStake",
      "outputs": [],
      "stateMutability": "nonpayable",
      "type": "function"
    },
    {
      "inputs": [
        {
          "internalType": "uint256",
          "name": "_rewardRate",
          "type": "uint256"
        }
      ],
      "name": "setRewardRate",
      "outputs": [],
      "stateMutability": "nonpayable",
      "type": "function"
    },
    {
      "inputs": [
        {
          "internalType": "address",
          "name": "newOwner",
          "type": "address"
        }
      ],
      "name": "transferOwnership",
      "outputs": [],
      "stateMutability": "nonpayable",
      "type": "function"
    },
    {
      "inputs": [
        {
          "internalType": "bytes32",
          "name": "nodeId",
          "type": "bytes32"
        },
        {
          "components": [
            {
              "internalType": "uint32",
              "name": "cpuCores",
              "type": "uint32"
            },
            {
              "internalType": "uint32",
              "name": "memoryMb",
              "type": "uint32"
            },
            {
              "internalType": "uint32",
              "name": "gpuCount",
              "type": "uint32"
            },
            {
              "internalType": "uint32",
              "name": "gpuVramMb",
              "type": "uint32"
            },
            {
              "internalType": "bool",
              "name": "hasOllama",
              "type": "bool"
            },
            {
              "internalType": "bool",
              "name": "hasSandbox",
              "type": "bool"
            }
          ],
          "internalType": "struct NodeRegistry.Capabilities",
          "name": "capabilities",
          "type": "tuple"
        }
      ],
      "name": "updateCapabilities",
      "outputs": [],
      "stateMutability": "nonpayable",
      "type": "function"
    },
    {
      "inputs": [
        {
          "internalType": "bytes32",
          "name": "nodeId",
          "type": "bytes32"
        },
        {
          "internalType": "string",
          "name": "endpoint",
          "type": "string"
        }
      ],
      "name": "updateEndpoint",
      "outputs": [],
      "stateMutability": "nonpayable",
      "type": "function"
    },
    {
      "inputs": [
        {
          "internalType": "bytes32",
          "name": "nodeId",
          "type": "bytes32"
        },
        {
          "internalType": "uint256",
          "name": "amount",
          "type": "uint256"
        }
      ],
      "name": "withdrawStake",
      "outputs": [],
      "stateMutability": "nonpayable",
      "type": "function"
    }
  ],
  "bytecode": "0x60a060405268056bc75e2d6310000060025566038d7ea4c680006003553480156200002957600080fd5b5060405162001ddc38038062001ddc8339810160408190526200004c91620000e5565b33806200007357604051631e4fbdf760e01b81526000600482015260240160405180910390fd5b6200007e8162000095565b50600180556001600160a01b031660805262000117565b600080546001600160a01b038381166001600160a01b0319831681178455604051919092169283917f8be0079c531659141344cd1fd0a4f28419497f9722a3daafe3b4186f6b6457e09190a35050565b600060208284031215620000f857600080fd5b81516001600160a01b03811681146200011057600080fd5b9392505050565b608051611c8d6200014f600039600081816103840152818161066501528181610a3001528181610af5015261117c0152611c8d6000f3fe608060405234801561001057600080fd5b506004361061018e5760003560e01c80638bc41246116100de578063a583497111610097578063c84654a811610071578063c84654a81461036c578063cb1b4ac31461037f578063dd8755f2146103a6578063f2fde38b146103b957600080fd5b8063a583497114610326578063acbfd09e14610339578063b59d3bea1461034c57600080fd5b80638bc41246146102a25780638c80fd90146102b55780638da5cb5b146102c85780639e447fc6146102ed578063a244439014610300578063a4b104b81461031357600080fd5b80635de5c2121161014b5780637790ddc6116101255780637790ddc6146102605780637851a0f4146102735780637b0a47ee1461028657806384251dc61461028f57600080fd5b80635de5c2121461023d57806363584ecd14610250578063715018a61461025857600080fd5b80630b55b348146101935780630fac2618146101a857806319dc5716146101bb578063375b3c0a146101ce5780633a41429a146101ea57806350c946fe1461021d575b600080fd5b6101a66101a1366004611495565b6103cc565b005b6101a66101b63660046114e1565b61042d565b6101a66101c93660046114e1565b610571565b6101d760025481565b6040519081526020015b60405180910390f35b61020d6101f836600461151f565b60066020526000908152604090205460ff1681565b60405190151581526020016101e1565b61023061022b36600461153a565b6106d4565b6040516101e19190611599565b6101a661024b36600461151f565b61091c565b6007546101d7565b6101a661096d565b6101a661026e36600461153a565b610981565b6101d76102813660046116b7565b610a9c565b6101d760035481565b6101a661029d366004611713565b610e3e565b6101a66102b036600461153a565b610e91565b6101a66102c336600461153a565b610f9b565b6000546001600160a01b03165b6040516001600160a01b0390911681526020016101e1565b6101a66102fb36600461153a565b610fa8565b6101a661030e36600461153a565b610fb5565b6101d7610321366004611740565b61102e565b6101d761033436600461153a565b61105f565b61020d61034736600461153a565b611080565b61035f61035a36600461151f565b6110c5565b6040516101e1919061176a565b6101a661037a3660046114e1565b611131565b6102d57f000000000000000000000000000000000000000000000000000000000000000081565b6101a66103b436600461151f565b611208565b6101a66103c736600461151f565b61125c565b6000838152600460205260409020546001600160a01b0316331461040b5760405162461bcd60e51b8152600401610402906117ae565b60405180910390fd5b6000838152600460205260409020600a01610427828483611869565b50505050565b3360009081526006602052604090205460ff168061045557506000546001600160a01b031633145b6104905760405162461bcd60e51b815260206004820152600c60248201526b2737ba103932b837b93a32b960a11b6044820152606401610402565b6000828152600460205260409020600881015460ff166104e45760405162461bcd60e51b815260206004820152600f60248201526e4e6f6465206e6f742061637469766560881b6044820152606401610402565b6000600354836104f49190611940565b90508082600201600082825461050a919061195d565b9250508190555082826004016000828254610525919061195d565b9091555050426007830155604080518481526020810183905285917fe81908488df376dab241bc0b86f37bc59ce308713e0ca1974deb29493862a182910160405180910390a250505050565b610579611297565b600082815260046020526040902080546001600160a01b031633146105b05760405162461bcd60e51b8152600401610402906117ae565b81816001015410156105f95760405162461bcd60e51b8152602060048201526012602482015271496e73756666696369656e74207374616b6560701b6044820152606401610402565b8181600101600082825461060d9190611970565b9091555050600254600182015410156106585760088101805460ff1916905560405183907f62b30865c6dddf92caa7594e1394397e7119c9947678e4faba379edb7c0ed6fc90600090a25b61068c6001600160a01b037f00000000000000000000000000000000000000000000000000000000000000001633846112c1565b827f80f371db73b1f2c178035e1597e63905a3394128bc8a687e663b27e8a6dc3234836040516106be91815260200190565b60405180910390a2506106d060018055565b5050565b6107656040805161018081018252600080825260208083018290528284018290526060808401839052608080850184905260a080860185905260c080870186905260e087018690526101008701869052610120870186905287519081018852858152938401859052958301849052908201839052810182905292830152906101408201908152602001606081525090565b60008281526004602081815260409283902083516101808101855281546001600160a01b03168152600182015481840152600282015481860152600382015460608083019190915293820154608080830191909152600583015460a080840191909152600684015460c080850191909152600785015460e0850152600885015460ff8082161515610100808801919091529091048116151561012086015288519182018952600986015463ffffffff80821684526401000000008204811698840198909852600160401b8104881699830199909952600160601b890490961696810196909652600160801b87048516151591860191909152600160881b909504909216151593830193909352610140810191909152600a8201805491929161016084019190610893906117e7565b80601f01602080910402602001604051908101604052809291908181526020018280546108bf906117e7565b801561090c5780601f106108e15761010080835404028352916020019161090c565b820191906000526020600020905b8154815290600101906020018083116108ef57829003601f168201915b5050505050815250509050919050565b610924611325565b6001600160a01b038116600081815260066020526040808220805460ff19169055517ff125aa5e6cb22c17ea0de4e1f86d2ff289ddd6a37e791b9ad29d0091cba06ac89190a250565b610975611325565b61097f6000611352565b565b610989611297565b600081815260046020526040902080546001600160a01b031633146109c05760405162461bcd60e51b8152600401610402906117ae565b6002810154806109ff5760405162461bcd60e51b815260206004820152600a6024820152694e6f207265776172647360b01b6044820152606401610402565b6000826002018190555080826003016000828254610a1d919061195d565b90915550610a5790506001600160a01b037f00000000000000000000000000000000000000000000000000000000000000001633836112c1565b604051818152339084907ffec539b3c42d74cd492c3ecf7966bf014b327beef98e935cdc3ec5e54a6901c79060200160405180910390a35050610a9960018055565b50565b6000610aa6611297565b600254821015610ae85760405162461bcd60e51b815260206004820152600d60248201526c5374616b6520746f6f206c6f7760981b6044820152606401610402565b610b1d6001600160a01b037f0000000000000000000000000000000000000000000000000000000000000000163330856113a2565b60088054906000610b2d83611983565b90915550506008546040516bffffffffffffffffffffffff193360601b1660208201524260348201526054810191909152600090607401604051602081830303815290604052805190602001209050604051806101800160405280336001600160a01b03168152602001848152602001600081526020016000815260200160008152602001612710815260200142815260200142815260200160011515815260200160001515815260200187803603810190610be991906119d2565b815260200186868080601f016020809104026020016040519081016040528093929190818152602001838380828437600092018290525093909452505083815260046020818152604092839020855181546001600160a01b0319166001600160a01b0390911617815585820151600182015585840151600282015560608087015160038301556080808801519483019490945560a080880151600584015560c0880151600684015560e08801516007840155610100808901516008850180546101208c015161ffff1990911692151561ff00191692909217911515909202179055610140880151805160098501805496830151988301519483015197830151929093015163ffffffff91821667ffffffffffffffff199097169690961764010000000098821698909802979097176fffffffffffffffff00000000000000001916600160401b9388169390930263ffffffff60601b191692909217600160601b96909516959095029390931761ffff60801b1916600160801b9315159390930260ff60881b191692909217600160881b9115159190910217909155610160830151909150600a820190610d9c9082611a77565b5050336000818152600560209081526040808320805460018082018355918552838520018790556007805491820181559093527fa66cc928b5edb82af9bd49922954155ab7b0942694bea4ce44661d9a8736c688909201859055905186815291925083917f11a7b6b912db49220c71a4c83b477f565c6b1319c7146faa80e15453fc185cb8910160405180910390a39050610e3660018055565b949350505050565b6000828152600460205260409020546001600160a01b03163314610e745760405162461bcd60e51b8152600401610402906117ae565b600082815260046020526040902081906009016104278282611b44565b600081815260046020526040902080546001600160a01b03163314610ec85760405162461bcd60e51b8152600401610402906117ae565b60025481600101541015610f0e5760405162461bcd60e51b815260206004820152600d60248201526c5374616b6520746f6f206c6f7760981b6044820152606401610402565b6008810154610100900460ff1615610f575760405162461bcd60e51b815260206004820152600c60248201526b139bd919481cdb185cda195960a21b6044820152606401610402565b60088101805460ff1916600117905542600782015560405182907f2b1bf495d62934b9fac0c071c5bf75863b0c4957da79692e4c206888ef7794c590600090a25050565b610fa3611325565b600255565b610fb0611325565b600355565b6000818152600460205260409020546001600160a01b03163314610feb5760405162461bcd60e51b8152600401610402906117ae565b600081815260046020526040808220600801805460ff191690555182917f62b30865c6dddf92caa7594e1394397e7119c9947678e4faba379edb7c0ed6fc91a250565b6005602052816000526040600020818154811061104a57600080fd5b90600052602060002001600091509150505481565b6007818154811061106f57600080fd5b600091825260209091200154905081565b6000818152600460205260408120600881015460ff1680156110ac57506008810154610100900460ff16155b80156110be5750600254816001015410155b9392505050565b6001600160a01b03811660009081526005602090815260409182902080548351818402810184019094528084526060939283018282801561112557602002820191906000526020600020905b815481526020019060010190808311611111575b50505050509050919050565b611139611297565b6000828152600460205260409020546001600160a01b0316331461116f5760405162461bcd60e51b8152600401610402906117ae565b6111a46001600160a01b037f0000000000000000000000000000000000000000000000000000000000000000163330846113a2565b600082815260046020526040812060010180548392906111c590849061195d565b909155505060405181815282907f3b15de13514518fa0748d88dd85871f44eccc587c2d80d51faaf99bed8e7aa939060200160405180910390a26106d060018055565b611210611325565b6001600160a01b038116600081815260066020526040808220805460ff19166001179055517f52824c4a4d431c73d6d24a91f775d722860111c6d30da30b0b21e062fb4c73659190a250565b611264611325565b6001600160a01b03811661128e57604051631e4fbdf760e01b815260006004820152602401610402565b610a9981611352565b6002600154036112ba57604051633ee5aeb560e01b815260040160405180910390fd5b6002600155565b6040516001600160a01b0383811660248301526044820183905261132091859182169063a9059cbb906064015b604051602081830303815290604052915060e01b6020820180516001600160e01b0383818316178352505050506113db565b505050565b6000546001600160a01b0316331461097f5760405163118cdaa760e01b8152336004820152602401610402565b600080546001600160a01b038381166001600160a01b0319831681178455604051919092169283917f8be0079c531659141344cd1fd0a4f28419497f9722a3daafe3b4186f6b6457e09190a35050565b6040516001600160a01b0384811660248301528381166044830152606482018390526104279186918216906323b872dd906084016112ee565b600080602060008451602086016000885af1806113fe576040513d6000823e3d81fd5b50506000513d91508115611416578060011415611423565b6001600160a01b0384163b155b1561042757604051635274afe760e01b81526001600160a01b0385166004820152602401610402565b60008083601f84011261145e57600080fd5b50813567ffffffffffffffff81111561147657600080fd5b60208301915083602082850101111561148e57600080fd5b9250929050565b6000806000604084860312156114aa57600080fd5b83359250602084013567ffffffffffffffff8111156114c857600080fd5b6114d48682870161144c565b9497909650939450505050565b600080604083850312156114f457600080fd5b50508035926020909101359150565b80356001600160a01b038116811461151a57600080fd5b919050565b60006020828403121561153157600080fd5b6110be82611503565b60006020828403121561154c57600080fd5b5035919050565b6000815180845260005b818110156115795760208185018101518683018201520161155d565b506000602082860101526020601f19601f83011685010191505092915050565b602081526115b36020820183516001600160a01b03169052565b602082015160408201526040820151606082015260608201516080820152608082015160a082015260a082015160c082015260c082015160e0820152600060e08301516101008181850152808501519150506101206116158185018315159052565b840151905061014061162a8482018315159052565b84015190506101606116858482018363ffffffff8082511683528060208301511660208401528060408301511660408401528060608301511660608401525060808101511515608083015260a0810151151560a08301525050565b840151610220848101529050610e36610240840182611553565b600060c082840312156116b157600080fd5b50919050565b60008060008061010085870312156116ce57600080fd5b6116d8868661169f565b935060c085013567ffffffffffffffff8111156116f457600080fd5b6117008782880161144c565b9598909750949560e00135949350505050565b60008060e0838503121561172657600080fd5b82359150611737846020850161169f565b90509250929050565b6000806040838503121561175357600080fd5b61175c83611503565b946020939093013593505050565b6020808252825182820181905260009190848201906040850190845b818110156117a257835183529284019291840191600101611786565b50909695505050505050565b6020808252600990820152682737ba1037bbb732b960b91b604082015260600190565b634e487b7160e01b600052604160045260246000fd5b600181811c908216806117fb57607f821691505b6020821081036116b157634e487b7160e01b600052602260045260246000fd5b601f82111561132057600081815260208120601f850160051c810160208610156118425750805b601f850160051c820191505b818110156118615782815560010161184e565b505050505050565b67ffffffffffffffff831115611881576118816117d1565b6118958361188f83546117e7565b8361181b565b6000601f8411600181146118c957600085156118b15750838201355b600019600387901b1c1916600186901b178355611923565b600083815260209020601f19861690835b828110156118fa57868501358255602094850194600190920191016118da565b50868210156119175760001960f88860031b161c19848701351681555b505060018560011b0183555b5050505050565b634e487b7160e01b600052601160045260246000fd5b80820281158282048414176119575761195761192a565b92915050565b808201808211156119575761195761192a565b818103818111156119575761195761192a565b6000600182016119955761199561192a565b5060010190565b63ffffffff81168114610a9957600080fd5b803561151a8161199c565b8015158114610a9957600080fd5b803561151a816119b9565b600060c082840312156119e457600080fd5b60405160c0810181811067ffffffffffffffff82111715611a0757611a076117d1565b6040528235611a158161199c565b81526020830135611a258161199c565b60208201526040830135611a388161199c565b6040820152611a49606084016119ae565b6060820152611a5a608084016119c7565b6080820152611a6b60a084016119c7565b60a08201529392505050565b815167ffffffffffffffff811115611a9157611a916117d1565b611aa581611a9f84546117e7565b8461181b565b602080601f831160018114611ada5760008415611ac25750858301515b600019600386901b1c1916600185901b178555611861565b600085815260208120601f198616915b82811015611b0957888601518255948401946001909101908401611aea565b5085821015611b275787850151600019600388901b60f8161c191681555b5050505050600190811b01905550565b60008135611957816119b9565b8135611b4f8161199c565b63ffffffff8116905081548163ffffffff1982161783556020840135611b748161199c565b67ffffffff000000008160201b169050808367ffffffffffffffff198416171784556040850135611ba48161199c565b6bffffffff00000000000000008160401b16846bffffffffffffffffffffffff198516178317178555505050506060820135611bdf8161199c565b815463ffffffff60601b1916606082901b63ffffffff60601b1617825550611c2a611c0c60808401611b37565b82805460ff60801b191691151560801b60ff60801b16919091179055565b6106d0611c3960a08401611b37565b82805460ff60881b191691151560881b60ff60881b1691909117905556fea2646970667358221220c2d9ae96790f145894bc55d098ec6cb7fa42d95ded1a3331ec1df7f7f84fd30e64736f6c63430008140033",
  "linkReferences": {},
  "deployedLinkReferences": {}
}