{
  "_format": "hh-sol-artifact-1",
  "contractName": "NodeRegistry",
  "sourceName": "contracts/NodeRegistry.sol",
  "abi": [
    {
      "inputs": [
        {
          "internalType": "address",
          "name": "_ottToken",
          "type": "address"
        }
      ],
      "stateMutability": "nonpayable",
      "type": "constructor"
    },
    {
      "inputs": [
        {
          "internalType": "address",
          "name": "owner",
          "type": "address"
        }
      ],
      "name": "OwnableInvalidOwner",
      "type": "error"
    },
    {
      "inputs": [
        {
          "internalType": "address",
          "name": "account",
          "type": "address"
        }
      ],
      "name": "OwnableUnauthorizedAccount",
      "type": "error"
    },
    {
      "inputs": [],
      "name": "ReentrancyGuardReentrantCall",
      "type": "error"
    },
    {
      "inputs": [
        {
          "internalType": "address",
          "name": "token",
          "type": "address"
        }
      ],
      "name": "SafeERC20FailedOperation",
      "type": "error"
    },
    {
      "anonymous": false,
      "inputs": [
        {
          "indexed": true,
          "internalType": "bytes32",
          "name": "nodeId",
          "type": "bytes32"
        },
        {
          "indexed": false,
          "internalType": "uint256",
          "name": "units",
          "type": "uint256"
        },
        {
          "indexed": false,
          "internalType": "uint256",
          "name": "reward",
          "type": "uint256"
        }
      ],
      "name": "ComputeReported",
      "type": "event"
    },
    {
      "anonymous": false,
      "inputs": [
        {
          "indexed": true,
          "internalType": "bytes32",
          "name": "nodeId",
          "type": "bytes32"
        }
      ],
      "name": "NodeDeactivated",
      "type": "event"
    },
    {
      "anonymous": false,
      "inputs": [
        {
          "indexed": true,
          "internalType": "bytes32",
          "name": "nodeId",
          "type": "bytes32"
        }
      ],
      "name": "NodeReactivated",
      "type": "event"
    },
    {
      "anonymous": false,
      "inputs": [
        {
          "indexed": true,
          "internalType": "bytes32",
          "name": "nodeId",
          "type": "bytes32"
        },
        {
          "indexed": true,
          "internalType": "address",
          "name": "owner",
          "type": "address"
        },
        {
          "indexed": false,
          "internalType": "uint256",
          "name": "stake",
          "type": "uint256"
        }
      ],
      "name": "NodeRegistered",
      "type": "event"
    },
    {
      "anonymous": false,
      "inputs": [
        {
          "indexed": true,
          "internalType": "bytes32",
          "name": "nodeId",
          "type": "bytes32"
        },
        {
          "indexed": false,
          "internalType": "uint256",
          "name": "amount",
          "type": "uint256"
        },
        {
          "indexed": false,
          "internalType": "string",
          "name": "reason",
          "type": "string"
        }
      ],
      "name": "NodeSlashed",
      "type": "event"
    },
    {
      "anonymous": false,
      "inputs": [
        {
          "indexed": true,
          "internalType": "address",
          "name": "previousOwner",
          "type": "address"
        },
        {
          "indexed": true,
          "internalType": "address",
          "name": "newOwner",
          "type": "address"
        }
      ],
      "name": "OwnershipTransferred",
      "type": "event"
    },
    {
      "anonymous": false,
      "inputs": [
        {
          "indexed": true,
          "internalType": "address",
          "name": "reporter",
          "type": "address"
        }
      ],
      "name": "ReporterAdded",
      "type": "event"
    },
    {
      "anonymous": false,
      "inputs": [
        {
          "indexed": true,
          "internalType": "address",
          "name": "reporter",
          "type": "address"
        }
      ],
      "name": "ReporterRemoved",
      "type": "event"
    },
    {
      "anonymous": false,
      "inputs": [
        {
          "indexed": true,
          "internalType": "bytes32",
          "name": "nodeId",
          "type": "bytes32"
        },
        {
          "indexed": true,
          "internalType": "address",
          "name": "to",
          "type": "address"
        },
        {
          "indexed": false,
          "internalType": "uint256",
          "name": "amount",
          "type": "uint256"
        }
      ],
      "name": "RewardsClaimed",
      "type": "event"
    },
    {
      "anonymous": false,
      "inputs": [
        {
          "indexed": true,
          "internalType": "bytes32",
          "name": "nodeId",
          "type": "bytes32"
        },
        {
          "indexed": false,
          "internalType": "uint256",
          "name": "amount",
          "type": "uint256"
        }
      ],
      "name": "StakeAdded",
      "type": "event"
    },
    {
      "anonymous": false,
      "inputs": [
        {
          "indexed": true,
          "internalType": "bytes32",
          "name": "nodeId",
          "type": "bytes32"
        },
        {
          "indexed": false,
          "internalType": "uint256",
          "name": "amount",
          "type": "uint256"
        }
      ],
      "name": "StakeWithdrawn",
      "type": "event"
    },
    {
      "inputs": [
        {
          "internalType": "address",
          "name": "reporter",
          "type": "address"
        }
      ],
      "name": "addReporter",
      "outputs": [],
      "stateMutability": "nonpayable",
      "type": "function"
    },
    {
      "inputs": [
        {
          "internalType": "bytes32",
          "name": "nodeId",
          "type": "bytes32"
        },
        {
          "internalType": "uint256",
          "name": "amount",
          "type": "uint256"
        }
      ],
      "name": "addStake",
      "outputs": [],
      "stateMutability": "nonpayable",
      "type": "function"
    },
    {
      "inputs": [
        {
          "internalType": "uint256",
          "name": "",
          "type": "uint256"
        }
      ],
      "name": "allNodeIds",
      "outputs": [
        {
          "internalType": "bytes32",
          "name": "",
          "type": "bytes32"
        }
      ],
      "stateMutability": "view",
      "type": "function"
    },
    {
      "inputs": [
        {
          "internalType": "bytes32",
          "name": "nodeId",
          "type": "bytes32"
        }
      ],
      "name": "claimRewards",
      "outputs": [],
      "stateMutability": "nonpayable",
      "type": "function"
    },
    {
      "inputs": [
        {
          "internalType": "bytes32",
          "name": "nodeId",
          "type": "bytes32"
        }
      ],
      "name": "deactivateNode",
      "outputs": [],
      "stateMutability": "nonpayable",
      "type": "function"
    },
    {
      "inputs": [
        {
          "internalType": "bytes32",
          "name": "nodeId",
          "type": "bytes32"
        }
      ],
      "name": "getNode",
      "outputs": [
        {
          "components": [
            {
              "internalType": "address",
              "name": "owner",
              "type": "address"
            },
            {
              "internalType": "uint256",
              "name": "stakedAmount",
              "type": "uint256"
            },
            {
              "internalType": "uint256",
              "name": "pendingRewards",
              "type": "uint256"
            },
            {
              "internalType": "uint256",
              "name": "totalCompute",
              "type": "uint256"
            },
            {
              "internalType": "uint256",
              "name": "reputation",
              "type": "uint256"
            },
            {
              "internalType": "bool",
              "name": "isActive",
              "type": "bool"
            },
            {
              "internalType": "bool",
              "name": "isSlashed",
              "type": "bool"
            },
            {
              "internalType": "bytes32",
              "name": "capabilities",
              "type": "bytes32"
            },
            {
              "internalType": "uint256",
              "name": "registeredAt",
              "type": "uint256"
            },
            {
              "internalType": "uint256",
              "name": "lastActiveAt",
              "type": "uint256"
            }
          ],
          "internalType": "struct NodeRegistry.Node",
          "name": "",
          "type": "tuple"
        }
      ],
      "stateMutability": "view",
      "type": "function"
    },
    {
      "inputs": [
        {
          "internalType": "address",
          "name": "owner",
          "type": "address"
        }
      ],
      "name": "getOwnerNodes",
      "outputs": [
        {
          "internalType": "bytes32[]",
          "name": "",
          "type": "bytes32[]"
        }
      ],
      "stateMutability": "view",
      "type": "function"
    },
    {
      "inputs": [],
      "name": "getTotalNodes",
      "outputs": [
        {
          "internalType": "uint256",
          "name": "",
          "type": "uint256"
        }
      ],
      "stateMutability": "view",
      "type": "function"
    },
    {
      "inputs": [
        {
          "internalType": "bytes32",
          "name": "nodeId",
          "type": "bytes32"
        }
      ],
      "name": "isNodeEligible",
      "outputs": [
        {
          "internalType": "bool",
          "name": "",
          "type": "bool"
        }
      ],
      "stateMutability": "view",
      "type": "function"
    },
    {
      "inputs": [],
      "name": "minStake",
      "outputs": [
        {
          "internalType": "uint256",
          "name": "",
          "type": "uint256"
        }
      ],
      "stateMutability": "view",
      "type": "function"
    },
    {
      "inputs": [
        {
          "internalType": "bytes32",
          "name": "",
          "type": "bytes32"
        }
      ],
      "name": "nodes",
      "outputs": [
        {
          "internalType": "address",
          "name": "owner",
          "type": "address"
        },
        {
          "internalType": "uint256",
          "name": "stakedAmount",
          "type": "uint256"
        },
        {
          "internalType": "uint256",
          "name": "pendingRewards",
          "type": "uint256"
        },
        {
          "internalType": "uint256",
          "name": "totalCompute",
          "type": "uint256"
        },
        {
          "internalType": "uint256",
          "name": "reputation",
          "type": "uint256"
        },
        {
          "internalType": "bool",
          "name": "isActive",
          "type": "bool"
        },
        {
          "internalType": "bool",
          "name": "isSlashed",
          "type": "bool"
        },
        {
          "internalType": "bytes32",
          "name": "capabilities",
          "type": "bytes32"
        },
        {
          "internalType": "uint256",
          "name": "registeredAt",
          "type": "uint256"
        },
        {
          "internalType": "uint256",
          "name": "lastActiveAt",
          "type": "uint256"
        }
      ],
      "stateMutability": "view",
      "type": "function"
    },
    {
      "inputs": [],
      "name": "ottToken",
      "outputs": [
        {
          "internalType": "contract IERC20",
          "name": "",
          "type": "address"
        }
      ],
      "stateMutability": "view",
      "type": "function"
    },
    {
      "inputs": [],
      "name": "owner",
      "outputs": [
        {
          "internalType": "address",
          "name": "",
          "type": "address"
        }
      ],
      "stateMutability": "view",
      "type": "function"
    },
    {
      "inputs": [
        {
          "internalType": "address",
          "name": "",
          "type": "address"
        },
        {
          "internalType": "uint256",
          "name": "",
          "type": "uint256"
        }
      ],
      "name": "ownerNodes",
      "outputs": [
        {
          "internalType": "bytes32",
          "name": "",
          "type": "bytes32"
        }
      ],
      "stateMutability": "view",
      "type": "function"
    },
    {
      "inputs": [
        {
          "internalType": "bytes32",
          "name": "nodeId",
          "type": "bytes32"
        }
      ],
      "name": "reactivateNode",
      "outputs": [],
      "stateMutability": "nonpayable",
      "type": "function"
    },
    {
      "inputs": [
        {
          "internalType": "bytes32",
          "name": "nodeId",
          "type": "bytes32"
        },
        {
          "internalType": "uint256",
          "name": "stake",
          "type": "uint256"
        },
        {
          "internalType": "bytes32",
          "name": "capabilities",
          "type": "bytes32"
        }
      ],
      "name": "registerNode",
      "outputs": [],
      "stateMutability": "nonpayable",
      "type": "function"
    },
    {
      "inputs": [
        {
          "internalType": "address",
          "name": "reporter",
          "type": "address"
        }
      ],
      "name": "removeReporter",
      "outputs": [],
      "stateMutability": "nonpayable",
      "type": "function"
    },
    {
      "inputs": [],
      "name": "renounceOwnership",
      "outputs": [],
      "stateMutability": "nonpayable",
      "type": "function"
    },
    {
      "inputs": [
        {
          "internalType": "bytes32",
          "name": "nodeId",
          "type": "bytes32"
        },
        {
          "internalType": "uint256",
          "name": "computeUnits",
          "type": "uint256"
        }
      ],
      "name": "reportCompute",
      "outputs": [],
      "stateMutability": "nonpayable",
      "type": "function"
    },
    {
      "inputs": [
        {
          "internalType": "address",
          "name": "",
          "type": "address"
        }
      ],
      "name": "reporters",
      "outputs": [
        {
          "internalType": "bool",
          "name": "",
          "type": "bool"
        }
      ],
      "stateMutability": "view",
      "type": "function"
    },
    {
      "inputs": [],
      "name": "rewardRate",
      "outputs": [
        {
          "internalType": "uint256",
          "name": "",
          "type": "uint256"
        }
      ],
      "stateMutability": "view",
      "type": "function"
    },
    {
      "inputs": [
        {
          "internalType": "uint256",
          "name": "_minStake",
          "type": "uint256"
        }
      ],
      "name": "setMinStake",
      "outputs": [],
      "stateMutability": "nonpayable",
      "type": "function"
    },
    {
      "inputs": [
        {
          "internalType": "uint256",
          "name": "_rewardRate",
          "type": "uint256"
        }
      ],
      "name": "setRewardRate",
      "outputs": [],
      "stateMutability": "nonpayable",
      "type": "function"
    },
    {
      "inputs": [
        {
          "internalType": "uint256",
          "name": "_slashPercent",
          "type": "uint256"
        }
      ],
      "name": "setSlashPercent",
      "outputs": [],
      "stateMutability": "nonpayable",
      "type": "function"
    },
    {
      "inputs": [
        {
          "internalType": "bytes32",
          "name": "nodeId",
          "type": "bytes32"
        },
        {
          "internalType": "string",
          "name": "reason",
          "type": "string"
        }
      ],
      "name": "slashNode",
      "outputs": [],
      "stateMutability": "nonpayable",
      "type": "function"
    },
    {
      "inputs": [],
      "name": "slashPercent",
      "outputs": [
        {
          "internalType": "uint256",
          "name": "",
          "type": "uint256"
        }
      ],
      "stateMutability": "view",
      "type": "function"
    },
    {
      "inputs": [
        {
          "internalType": "address",
          "name": "newOwner",
          "type": "address"
        }
      ],
      "name": "transferOwnership",
      "outputs": [],
      "stateMutability": "nonpayable",
      "type": "function"
    },
    {
      "inputs": [
        {
          "internalType": "bytes32",
          "name": "nodeId",
          "type": "bytes32"
        },
        {
          "internalType": "uint256",
          "name": "newReputation",
          "type": "uint256"
        }
      ],
      "name": "updateReputation",
      "outputs": [],
      "stateMutability": "nonpayable",
      "type": "function"
    },
    {
      "inputs": [
        {
          "internalType": "bytes32",
          "name": "nodeId",
          "type": "bytes32"
        },
        {
          "internalType": "uint256",
          "name": "amount",
          "type": "uint256"
        }
      ],
      "name": "withdrawStake",
      "outputs": [],
      "stateMutability": "nonpayable",
      "type": "function"
    }
  ],
  "bytecode": "0x60a0604052683635c9adc5dea00000600255670de0b6b3a7640000600355600a60045534801561002e57600080fd5b5060405162001a0938038062001a0983398101604081905261004f916100e4565b338061007557604051631e4fbdf760e01b81526000600482015260240160405180910390fd5b61007e81610094565b50600180556001600160a01b0316608052610114565b600080546001600160a01b038381166001600160a01b0319831681178455604051919092169283917f8be0079c531659141344cd1fd0a4f28419497f9722a3daafe3b4186f6b6457e09190a35050565b6000602082840312156100f657600080fd5b81516001600160a01b038116811461010d57600080fd5b9392505050565b6080516118bd6200014c600039600081816103e10152818161077901528181610b660152818161105b01526112bb01526118bd6000f3fe608060405234801561001057600080fd5b50600436106101cf5760003560e01c80638bc4124611610104578063acbfd09e116100a2578063cb1b4ac311610071578063cb1b4ac3146103dc578063d86e697d14610403578063dd8755f2146104c8578063f2fde38b146104db57600080fd5b8063acbfd09e14610383578063b59d3bea14610396578063c344b45c146103b6578063c84654a8146103c957600080fd5b80639e447fc6116100de5780639e447fc614610337578063a24443901461034a578063a4b104b81461035d578063a58349711461037057600080fd5b80638bc41246146102ec5780638c80fd90146102ff5780638da5cb5b1461031257600080fd5b80636343b15f11610171578063715018a61161014b578063715018a6146102b55780637790ddc6146102bd5780637b0a47ee146102d05780638bb17e0e146102d957600080fd5b80636343b15f1461029157806363584ecd1461029a578063645d2c41146102a257600080fd5b8063375b3c0a116101ad578063375b3c0a1461023457806350c946fe1461024b5780635cfe49b91461026b5780635de5c2121461027e57600080fd5b80630fac2618146101d457806319dc5716146101e95780632cc1cd9e146101fc575b600080fd5b6101e76101e236600461158d565b6104ee565b005b6101e76101f736600461158d565b61066b565b61021f61020a3660046115cb565b60076020526000908152604090205460ff1681565b60405190151581526020015b60405180910390f35b61023d60025481565b60405190815260200161022b565b61025e6102593660046115e6565b6107e9565b60405161022b91906115ff565b6101e7610279366004611689565b6108e5565b6101e761028c3660046115cb565b6109ef565b61023d60045481565b60085461023d565b6101e76102b03660046115e6565b610a40565b6101e7610a9e565b6101e76102cb3660046115e6565b610ab2565b61023d60035481565b6101e76102e736600461158d565b610bd3565b6101e76102fa3660046115e6565b610cae565b6101e761030d3660046115e6565b610de9565b6000546001600160a01b03165b6040516001600160a01b03909116815260200161022b565b6101e76103453660046115e6565b610df6565b6101e76103583660046115e6565b610e03565b61023d61036b366004611705565b610e81565b61023d61037e3660046115e6565b610eb2565b61021f6103913660046115e6565b610ed3565b6103a96103a43660046115cb565b610f19565b60405161022b919061172f565b6101e76103c4366004611773565b610f85565b6101e76103d736600461158d565b61126e565b61031f7f000000000000000000000000000000000000000000000000000000000000000081565b6104706104113660046115e6565b60056020819052600091825260409091208054600182015460028301546003840154600485015495850154600686015460078701546008909701546001600160a01b03909616979496939592949360ff8084169461010090940416928a565b604080516001600160a01b03909b168b5260208b01999099529789019690965260608801949094526080870192909252151560a0860152151560c085015260e08401526101008301526101208201526101400161022b565b6101e76104d63660046115cb565b611348565b6101e76104e93660046115cb565b61139c565b3360009081526007602052604090205460ff168061051657506000546001600160a01b031633145b6105675760405162461bcd60e51b815260206004820152601c60248201527f4e6f646552656769737472793a206e6f742061207265706f727465720000000060448201526064015b60405180910390fd5b60008281526005602081905260409091209081015460ff166105cb5760405162461bcd60e51b815260206004820152601d60248201527f4e6f646552656769737472793a206e6f6465206e6f7420616374697665000000604482015260640161055e565b6000670de0b6b3a7640000600354846105e491906117b5565b6105ee91906117d2565b90508082600201600082825461060491906117f4565b925050819055508282600301600082825461061f91906117f4565b9091555050426008830155604080518481526020810183905285917fe81908488df376dab241bc0b86f37bc59ce308713e0ca1974deb29493862a182910160405180910390a250505050565b6106736113d7565b60008281526005602052604090205482906001600160a01b031633146106ab5760405162461bcd60e51b815260040161055e90611807565b6000838152600560205260409020600181015483111561070d5760405162461bcd60e51b815260206004820181905260248201527f4e6f646552656769737472793a20696e73756666696369656e74207374616b65604482015260640161055e565b82816001016000828254610721919061183e565b90915550506002546001820154101561076c5760058101805460ff1916905560405184907f62b30865c6dddf92caa7594e1394397e7119c9947678e4faba379edb7c0ed6fc90600090a25b6107a06001600160a01b037f0000000000000000000000000000000000000000000000000000000000000000163385611401565b837f80f371db73b1f2c178035e1597e63905a3394128bc8a687e663b27e8a6dc3234846040516107d291815260200190565b60405180910390a250506107e560018055565b5050565b61084f60405180610140016040528060006001600160a01b03168152602001600081526020016000815260200160008152602001600081526020016000151581526020016000151581526020016000801916815260200160008152602001600081525090565b5060009081526005602081815260409283902083516101408101855281546001600160a01b0316815260018201549281019290925260028101549382019390935260038301546060820152600483015460808201529082015460ff808216151560a08401526101009182900416151560c0830152600683015460e083015260078301549082015260089091015461012082015290565b6108ed611460565b600083815260056020819052604090912090810154610100900460ff16156109575760405162461bcd60e51b815260206004820152601d60248201527f4e6f646552656769737472793a20616c726561647920736c6173686564000000604482015260640161055e565b60006064600454836001015461096d91906117b5565b61097791906117d2565b90508082600101600082825461098d919061183e565b909155505060058201805461ffff19166101001790556000600483015560405185907f2e2689c3d478097aae83cf665fd1a2a129def6bf175ced7accbc1f395138362c906109e090849088908890611851565b60405180910390a25050505050565b6109f7611460565b6001600160a01b038116600081815260076020526040808220805460ff19169055517ff125aa5e6cb22c17ea0de4e1f86d2ff289ddd6a37e791b9ad29d0091cba06ac89190a250565b610a48611460565b6064811115610a995760405162461bcd60e51b815260206004820152601d60248201527f4e6f646552656769737472793a20696e76616c69642070657263656e74000000604482015260640161055e565b600455565b610aa6611460565b610ab0600061148d565b565b610aba6113d7565b60008181526005602052604090205481906001600160a01b03163314610af25760405162461bcd60e51b815260040161055e90611807565b6000828152600560205260409020600281015480610b525760405162461bcd60e51b815260206004820152601860248201527f4e6f646552656769737472793a206e6f20726577617264730000000000000000604482015260640161055e565b60006002830155610b8d6001600160a01b037f0000000000000000000000000000000000000000000000000000000000000000163383611401565b604051818152339085907ffec539b3c42d74cd492c3ecf7966bf014b327beef98e935cdc3ec5e54a6901c79060200160405180910390a3505050610bd060018055565b50565b3360009081526007602052604090205460ff1680610bfb57506000546001600160a01b031633145b610c475760405162461bcd60e51b815260206004820152601c60248201527f4e6f646552656769737472793a206e6f742061207265706f7274657200000000604482015260640161055e565b612710811115610c995760405162461bcd60e51b815260206004820181905260248201527f4e6f646552656769737472793a20696e76616c69642072657075746174696f6e604482015260640161055e565b60009182526005602052604090912060040155565b60008181526005602052604090205481906001600160a01b03163314610ce65760405162461bcd60e51b815260040161055e90611807565b600082815260056020526040902060025460018201541015610d4a5760405162461bcd60e51b815260206004820152601b60248201527f4e6f646552656769737472793a207374616b6520746f6f206c6f770000000000604482015260640161055e565b6005810154610100900460ff1615610da45760405162461bcd60e51b815260206004820152601d60248201527f4e6f646552656769737472793a206e6f646520697320736c6173686564000000604482015260640161055e565b60058101805460ff1916600117905542600882015560405183907f2b1bf495d62934b9fac0c071c5bf75863b0c4957da79692e4c206888ef7794c590600090a2505050565b610df1611460565b600255565b610dfe611460565b600355565b60008181526005602052604090205481906001600160a01b03163314610e3b5760405162461bcd60e51b815260040161055e90611807565b6000828152600560208190526040808320909101805460ff191690555183917f62b30865c6dddf92caa7594e1394397e7119c9947678e4faba379edb7c0ed6fc91a25050565b60066020528160005260406000208181548110610e9d57600080fd5b90600052602060002001600091509150505481565b60088181548110610ec257600080fd5b600091825260209091200154905081565b600081815260056020819052604082209081015460ff168015610f0057506005810154610100900460ff16155b8015610f125750600254816001015410155b9392505050565b6001600160a01b038116600090815260066020908152604091829020805483518184028101840190945280845260609392830182828015610f7957602002820191906000526020600020905b815481526020019060010190808311610f65575b50505050509050919050565b610f8d6113d7565b6000838152600560205260409020546001600160a01b031615610ffc5760405162461bcd60e51b815260206004820152602160248201527f4e6f646552656769737472793a206e6f646520616c72656164792065786973746044820152607360f81b606482015260840161055e565b60025482101561104e5760405162461bcd60e51b815260206004820152601b60248201527f4e6f646552656769737472793a207374616b6520746f6f206c6f770000000000604482015260640161055e565b6110836001600160a01b037f0000000000000000000000000000000000000000000000000000000000000000163330856114dd565b604051806101400160405280336001600160a01b0316815260200183815260200160008152602001600081526020016127108152602001600115158152602001600015158152602001828152602001428152602001428152506005600085815260200190815260200160002060008201518160000160006101000a8154816001600160a01b0302191690836001600160a01b031602179055506020820151816001015560408201518160020155606082015181600301556080820151816004015560a08201518160050160006101000a81548160ff02191690831515021790555060c08201518160050160016101000a81548160ff02191690831515021790555060e082015181600601556101008201518160070155610120820151816008015590505060066000336001600160a01b03166001600160a01b031681526020019081526020016000208390806001815401808255809150506001900390600052602060002001600090919091909150556008839080600181540180825580915050600190039060005260206000200160009091909190915055336001600160a01b0316837f11a7b6b912db49220c71a4c83b477f565c6b1319c7146faa80e15453fc185cb88460405161125891815260200190565b60405180910390a361126960018055565b505050565b6112766113d7565b60008281526005602052604090205482906001600160a01b031633146112ae5760405162461bcd60e51b815260040161055e90611807565b6112e36001600160a01b037f0000000000000000000000000000000000000000000000000000000000000000163330856114dd565b600083815260056020526040812060010180548492906113049084906117f4565b909155505060405182815283907f3b15de13514518fa0748d88dd85871f44eccc587c2d80d51faaf99bed8e7aa939060200160405180910390a2506107e560018055565b611350611460565b6001600160a01b038116600081815260076020526040808220805460ff19166001179055517f52824c4a4d431c73d6d24a91f775d722860111c6d30da30b0b21e062fb4c73659190a250565b6113a4611460565b6001600160a01b0381166113ce57604051631e4fbdf760e01b81526000600482015260240161055e565b610bd08161148d565b6002600154036113fa57604051633ee5aeb560e01b815260040160405180910390fd5b6002600155565b6040516001600160a01b0383811660248301526044820183905261126991859182169063a9059cbb906064015b604051602081830303815290604052915060e01b6020820180516001600160e01b03838183161783525050505061151c565b6000546001600160a01b03163314610ab05760405163118cdaa760e01b815233600482015260240161055e565b600080546001600160a01b038381166001600160a01b0319831681178455604051919092169283917f8be0079c531659141344cd1fd0a4f28419497f9722a3daafe3b4186f6b6457e09190a35050565b6040516001600160a01b0384811660248301528381166044830152606482018390526115169186918216906323b872dd9060840161142e565b50505050565b600080602060008451602086016000885af18061153f576040513d6000823e3d81fd5b50506000513d91508115611557578060011415611564565b6001600160a01b0384163b155b1561151657604051635274afe760e01b81526001600160a01b038516600482015260240161055e565b600080604083850312156115a057600080fd5b50508035926020909101359150565b80356001600160a01b03811681146115c657600080fd5b919050565b6000602082840312156115dd57600080fd5b610f12826115af565b6000602082840312156115f857600080fd5b5035919050565b81516001600160a01b0316815261014081016020830151602083015260408301516040830152606083015160608301526080830151608083015260a083015161164c60a084018215159052565b5060c083015161166060c084018215159052565b5060e083015160e083015261010080840151818401525061012080840151818401525092915050565b60008060006040848603121561169e57600080fd5b83359250602084013567ffffffffffffffff808211156116bd57600080fd5b818601915086601f8301126116d157600080fd5b8135818111156116e057600080fd5b8760208285010111156116f257600080fd5b6020830194508093505050509250925092565b6000806040838503121561171857600080fd5b611721836115af565b946020939093013593505050565b6020808252825182820181905260009190848201906040850190845b818110156117675783518352928401929184019160010161174b565b50909695505050505050565b60008060006060848603121561178857600080fd5b505081359360208301359350604090920135919050565b634e487b7160e01b600052601160045260246000fd5b80820281158282048414176117cc576117cc61179f565b92915050565b6000826117ef57634e487b7160e01b600052601260045260246000fd5b500490565b808201808211156117cc576117cc61179f565b6020808252601c908201527f4e6f646552656769737472793a206e6f74206e6f6465206f776e657200000000604082015260600190565b818103818111156117cc576117cc61179f565b83815260406020820152816040820152818360608301376000818301606090810191909152601f909201601f191601019291505056fea264697066735822122089a5c4c684b66fee95cf9b649f59ba27de72bed42de55f68bc97184c7ecc0b4064736f6c63430008140033",
  "linkReferences": {},
  "deployedLinkReferences": {}
}