{
  "_format": "hh-sol-artifact-1",
  "contractName": "WorkspaceRegistry",
  "sourceName": "contracts/WorkspaceRegistry.sol",
  "abi": [
    {
      "inputs": [],
      "stateMutability": "nonpayable",
      "type": "constructor"
    },
    {
      "inputs": [],
      "name": "AlreadyMember",
      "type": "error"
    },
    {
      "inputs": [],
      "name": "CannotLeaveAsOwner",
      "type": "error"
    },
    {
      "inputs": [],
      "name": "InvalidInviteCode",
      "type": "error"
    },
    {
      "inputs": [],
      "name": "InvalidName",
      "type": "error"
    },
    {
      "inputs": [],
      "name": "NotAuthorized",
      "type": "error"
    },
    {
      "inputs": [],
      "name": "NotMember",
      "type": "error"
    },
    {
      "inputs": [
        {
          "internalType": "address",
          "name": "owner",
          "type": "address"
        }
      ],
      "name": "OwnableInvalidOwner",
      "type": "error"
    },
    {
      "inputs": [
        {
          "internalType": "address",
          "name": "account",
          "type": "address"
        }
      ],
      "name": "OwnableUnauthorizedAccount",
      "type": "error"
    },
    {
      "inputs": [],
      "name": "ReentrancyGuardReentrantCall",
      "type": "error"
    },
    {
      "inputs": [],
      "name": "WorkspaceAlreadyExists",
      "type": "error"
    },
    {
      "inputs": [],
      "name": "WorkspaceIsPrivate",
      "type": "error"
    },
    {
      "inputs": [],
      "name": "WorkspaceNotFound",
      "type": "error"
    },
    {
      "anonymous": false,
      "inputs": [
        {
          "indexed": true,
          "internalType": "bytes32",
          "name": "workspaceId",
          "type": "bytes32"
        }
      ],
      "name": "InviteCodeUpdated",
      "type": "event"
    },
    {
      "anonymous": false,
      "inputs": [
        {
          "indexed": true,
          "internalType": "bytes32",
          "name": "workspaceId",
          "type": "bytes32"
        },
        {
          "indexed": true,
          "internalType": "address",
          "name": "member",
          "type": "address"
        },
        {
          "indexed": false,
          "internalType": "enum WorkspaceRegistry.MemberRole",
          "name": "role",
          "type": "uint8"
        }
      ],
      "name": "MemberJoined",
      "type": "event"
    },
    {
      "anonymous": false,
      "inputs": [
        {
          "indexed": true,
          "internalType": "bytes32",
          "name": "workspaceId",
          "type": "bytes32"
        },
        {
          "indexed": true,
          "internalType": "address",
          "name": "member",
          "type": "address"
        }
      ],
      "name": "MemberLeft",
      "type": "event"
    },
    {
      "anonymous": false,
      "inputs": [
        {
          "indexed": true,
          "internalType": "bytes32",
          "name": "workspaceId",
          "type": "bytes32"
        },
        {
          "indexed": true,
          "internalType": "address",
          "name": "member",
          "type": "address"
        },
        {
          "indexed": false,
          "internalType": "enum WorkspaceRegistry.MemberRole",
          "name": "newRole",
          "type": "uint8"
        }
      ],
      "name": "MemberRoleChanged",
      "type": "event"
    },
    {
      "anonymous": false,
      "inputs": [
        {
          "indexed": true,
          "internalType": "address",
          "name": "previousOwner",
          "type": "address"
        },
        {
          "indexed": true,
          "internalType": "address",
          "name": "newOwner",
          "type": "address"
        }
      ],
      "name": "OwnershipTransferred",
      "type": "event"
    },
    {
      "anonymous": false,
      "inputs": [
        {
          "indexed": true,
          "internalType": "bytes32",
          "name": "workspaceId",
          "type": "bytes32"
        },
        {
          "indexed": false,
          "internalType": "string",
          "name": "name",
          "type": "string"
        },
        {
          "indexed": true,
          "internalType": "address",
          "name": "owner",
          "type": "address"
        },
        {
          "indexed": false,
          "internalType": "bool",
          "name": "isPublic",
          "type": "bool"
        }
      ],
      "name": "WorkspaceCreated",
      "type": "event"
    },
    {
      "anonymous": false,
      "inputs": [
        {
          "indexed": true,
          "internalType": "bytes32",
          "name": "workspaceId",
          "type": "bytes32"
        },
        {
          "indexed": true,
          "internalType": "address",
          "name": "owner",
          "type": "address"
        }
      ],
      "name": "WorkspaceDeleted",
      "type": "event"
    },
    {
      "anonymous": false,
      "inputs": [
        {
          "indexed": true,
          "internalType": "bytes32",
          "name": "workspaceId",
          "type": "bytes32"
        },
        {
          "indexed": false,
          "internalType": "string",
          "name": "name",
          "type": "string"
        },
        {
          "indexed": false,
          "internalType": "string",
          "name": "description",
          "type": "string"
        }
      ],
      "name": "WorkspaceUpdated",
      "type": "event"
    },
    {
      "inputs": [
        {
          "internalType": "string",
          "name": "name",
          "type": "string"
        },
        {
          "internalType": "string",
          "name": "description",
          "type": "string"
        },
        {
          "internalType": "bool",
          "name": "isPublic",
          "type": "bool"
        },
        {
          "internalType": "string",
          "name": "inviteCode",
          "type": "string"
        }
      ],
      "name": "createWorkspace",
      "outputs": [
        {
          "internalType": "bytes32",
          "name": "workspaceId",
          "type": "bytes32"
        }
      ],
      "stateMutability": "nonpayable",
      "type": "function"
    },
    {
      "inputs": [
        {
          "internalType": "bytes32",
          "name": "workspaceId",
          "type": "bytes32"
        }
      ],
      "name": "deleteWorkspace",
      "outputs": [],
      "stateMutability": "nonpayable",
      "type": "function"
    },
    {
      "inputs": [
        {
          "internalType": "bytes32",
          "name": "workspaceId",
          "type": "bytes32"
        },
        {
          "internalType": "address",
          "name": "member",
          "type": "address"
        }
      ],
      "name": "getMember",
      "outputs": [
        {
          "components": [
            {
              "internalType": "address",
              "name": "memberAddress",
              "type": "address"
            },
            {
              "internalType": "uint256",
              "name": "joinedAt",
              "type": "uint256"
            },
            {
              "internalType": "enum WorkspaceRegistry.MemberRole",
              "name": "role",
              "type": "uint8"
            },
            {
              "internalType": "bool",
              "name": "exists",
              "type": "bool"
            }
          ],
          "internalType": "struct WorkspaceRegistry.Member",
          "name": "",
          "type": "tuple"
        }
      ],
      "stateMutability": "view",
      "type": "function"
    },
    {
      "inputs": [],
      "name": "getPublicWorkspaces",
      "outputs": [
        {
          "components": [
            {
              "internalType": "bytes32",
              "name": "id",
              "type": "bytes32"
            },
            {
              "internalType": "string",
              "name": "name",
              "type": "string"
            },
            {
              "internalType": "string",
              "name": "description",
              "type": "string"
            },
            {
              "internalType": "address",
              "name": "owner",
              "type": "address"
            },
            {
              "internalType": "uint256",
              "name": "createdAt",
              "type": "uint256"
            },
            {
              "internalType": "bool",
              "name": "isPublic",
              "type": "bool"
            },
            {
              "internalType": "uint256",
              "name": "memberCount",
              "type": "uint256"
            }
          ],
          "internalType": "struct WorkspaceRegistry.WorkspaceInfo[]",
          "name": "",
          "type": "tuple[]"
        }
      ],
      "stateMutability": "view",
      "type": "function"
    },
    {
      "inputs": [
        {
          "internalType": "address",
          "name": "user",
          "type": "address"
        }
      ],
      "name": "getUserWorkspaces",
      "outputs": [
        {
          "internalType": "bytes32[]",
          "name": "",
          "type": "bytes32[]"
        }
      ],
      "stateMutability": "view",
      "type": "function"
    },
    {
      "inputs": [
        {
          "internalType": "bytes32",
          "name": "workspaceId",
          "type": "bytes32"
        }
      ],
      "name": "getWorkspace",
      "outputs": [
        {
          "components": [
            {
              "internalType": "bytes32",
              "name": "id",
              "type": "bytes32"
            },
            {
              "internalType": "string",
              "name": "name",
              "type": "string"
            },
            {
              "internalType": "string",
              "name": "description",
              "type": "string"
            },
            {
              "internalType": "address",
              "name": "owner",
              "type": "address"
            },
            {
              "internalType": "uint256",
              "name": "createdAt",
              "type": "uint256"
            },
            {
              "internalType": "bool",
              "name": "isPublic",
              "type": "bool"
            },
            {
              "internalType": "uint256",
              "name": "memberCount",
              "type": "uint256"
            }
          ],
          "internalType": "struct WorkspaceRegistry.WorkspaceInfo",
          "name": "info",
          "type": "tuple"
        }
      ],
      "stateMutability": "view",
      "type": "function"
    },
    {
      "inputs": [
        {
          "internalType": "bytes32",
          "name": "workspaceId",
          "type": "bytes32"
        }
      ],
      "name": "getWorkspaceMembers",
      "outputs": [
        {
          "internalType": "address[]",
          "name": "",
          "type": "address[]"
        }
      ],
      "stateMutability": "view",
      "type": "function"
    },
    {
      "inputs": [
        {
          "internalType": "bytes32",
          "name": "workspaceId",
          "type": "bytes32"
        },
        {
          "internalType": "address",
          "name": "user",
          "type": "address"
        }
      ],
      "name": "isMember",
      "outputs": [
        {
          "internalType": "bool",
          "name": "",
          "type": "bool"
        }
      ],
      "stateMutability": "view",
      "type": "function"
    },
    {
      "inputs": [
        {
          "internalType": "bytes32",
          "name": "workspaceId",
          "type": "bytes32"
        }
      ],
      "name": "joinPublicWorkspace",
      "outputs": [],
      "stateMutability": "nonpayable",
      "type": "function"
    },
    {
      "inputs": [
        {
          "internalType": "bytes32",
          "name": "workspaceId",
          "type": "bytes32"
        },
        {
          "internalType": "string",
          "name": "inviteCode",
          "type": "string"
        }
      ],
      "name": "joinWithInviteCode",
      "outputs": [],
      "stateMutability": "nonpayable",
      "type": "function"
    },
    {
      "inputs": [
        {
          "internalType": "bytes32",
          "name": "workspaceId",
          "type": "bytes32"
        }
      ],
      "name": "leaveWorkspace",
      "outputs": [],
      "stateMutability": "nonpayable",
      "type": "function"
    },
    {
      "inputs": [],
      "name": "owner",
      "outputs": [
        {
          "internalType": "address",
          "name": "",
          "type": "address"
        }
      ],
      "stateMutability": "view",
      "type": "function"
    },
    {
      "inputs": [
        {
          "internalType": "bytes32",
          "name": "workspaceId",
          "type": "bytes32"
        },
        {
          "internalType": "address",
          "name": "member",
          "type": "address"
        }
      ],
      "name": "removeMember",
      "outputs": [],
      "stateMutability": "nonpayable",
      "type": "function"
    },
    {
      "inputs": [],
      "name": "renounceOwnership",
      "outputs": [],
      "stateMutability": "nonpayable",
      "type": "function"
    },
    {
      "inputs": [
        {
          "internalType": "bytes32",
          "name": "workspaceId",
          "type": "bytes32"
        },
        {
          "internalType": "string",
          "name": "newInviteCode",
          "type": "string"
        }
      ],
      "name": "setInviteCode",
      "outputs": [],
      "stateMutability": "nonpayable",
      "type": "function"
    },
    {
      "inputs": [
        {
          "internalType": "bytes32",
          "name": "workspaceId",
          "type": "bytes32"
        },
        {
          "internalType": "address",
          "name": "member",
          "type": "address"
        },
        {
          "internalType": "enum WorkspaceRegistry.MemberRole",
          "name": "newRole",
          "type": "uint8"
        }
      ],
      "name": "setMemberRole",
      "outputs": [],
      "stateMutability": "nonpayable",
      "type": "function"
    },
    {
      "inputs": [
        {
          "internalType": "bytes32",
          "name": "workspaceId",
          "type": "bytes32"
        },
        {
          "internalType": "address",
          "name": "newOwner",
          "type": "address"
        }
      ],
      "name": "transferOwnership",
      "outputs": [],
      "stateMutability": "nonpayable",
      "type": "function"
    },
    {
      "inputs": [
        {
          "internalType": "address",
          "name": "newOwner",
          "type": "address"
        }
      ],
      "name": "transferOwnership",
      "outputs": [],
      "stateMutability": "nonpayable",
      "type": "function"
    },
    {
      "inputs": [
        {
          "internalType": "bytes32",
          "name": "workspaceId",
          "type": "bytes32"
        },
        {
          "internalType": "string",
          "name": "name",
          "type": "string"
        },
        {
          "internalType": "string",
          "name": "description",
          "type": "string"
        },
        {
          "internalType": "bool",
          "name": "isPublic",
          "type": "bool"
        }
      ],
      "name": "updateWorkspace",
      "outputs": [],
      "stateMutability": "nonpayable",
      "type": "function"
    },
    {
      "inputs": [
        {
          "internalType": "bytes32",
          "name": "workspaceId",
          "type": "bytes32"
        },
        {
          "internalType": "string",
          "name": "inviteCode",
          "type": "string"
        }
      ],
      "name": "verifyInviteCode",
      "outputs": [
        {
          "internalType": "bool",
          "name": "valid",
          "type": "bool"
        }
      ],
      "stateMutability": "view",
      "type": "function"
    },
    {
      "inputs": [],
      "name": "workspaceCount",
      "outputs": [
        {
          "internalType": "uint256",
          "name": "",
          "type": "uint256"
        }
      ],
      "stateMutability": "view",
      "type": "function"
    },
    {
      "inputs": [
        {
          "internalType": "bytes32",
          "name": "",
          "type": "bytes32"
        },
        {
          "internalType": "address",
          "name": "",
          "type": "address"
        }
      ],
      "name": "workspaceMembers",
      "outputs": [
        {
          "internalType": "address",
          "name": "memberAddress",
          "type": "address"
        },
        {
          "internalType": "uint256",
          "name": "joinedAt",
          "type": "uint256"
        },
        {
          "internalType": "enum WorkspaceRegistry.MemberRole",
          "name": "role",
          "type": "uint8"
        },
        {
          "internalType": "bool",
          "name": "exists",
          "type": "bool"
        }
      ],
      "stateMutability": "view",
      "type": "function"
    },
    {
      "inputs": [
        {
          "internalType": "bytes32",
          "name": "",
          "type": "bytes32"
        }
      ],
      "name": "workspaces",
      "outputs": [
        {
          "internalType": "bytes32",
          "name": "id",
          "type": "bytes32"
        },
        {
          "internalType": "string",
          "name": "name",
          "type": "string"
        },
        {
          "internalType": "string",
          "name": "description",
          "type": "string"
        },
        {
          "internalType": "address",
          "name": "owner",
          "type": "address"
        },
        {
          "internalType": "uint256",
          "name": "createdAt",
          "type": "uint256"
        },
        {
          "internalType": "bool",
          "name": "isPublic",
          "type": "bool"
        },
        {
          "internalType": "bytes32",
          "name": "inviteCodeHash",
          "type": "bytes32"
        },
        {
          "internalType": "uint256",
          "name": "memberCount",
          "type": "uint256"
        },
        {
          "internalType": "bool",
          "name": "exists",
          "type": "bool"
        }
      ],
      "stateMutability": "view",
      "type": "function"
    }
  ],
  "bytecode": "0x608060405234801561001057600080fd5b50338061003757604051631e4fbdf760e01b81526000600482015260240160405180910390fd5b6100408161004a565b506001805561009a565b600080546001600160a01b038381166001600160a01b0319831681178455604051919092169283917f8be0079c531659141344cd1fd0a4f28419497f9722a3daafe3b4186f6b6457e09190a35050565b61297880620000aa6000396000f3fe608060405234801561001057600080fd5b506004361061014d5760003560e01c80638c10218f116100c3578063c017be281161007c578063c017be281461033c578063c07e6fca1461034f578063d7d19c4e14610362578063e22f032f14610382578063ef5d6bbb14610395578063f2fde38b146103a857600080fd5b80638c10218f146102a45780638da5cb5b146102b757806391f8e4ca146102d25780639a737486146102e9578063b1d92cf6146102fc578063b997d9601461031c57600080fd5b806348113b601161011557806348113b601461022e5780634a77626d146102435780635a5860d11461025657806362b5a9b114610269578063701a52cc14610289578063715018a61461029c57600080fd5b80630acf878a1461015257806310ad56b3146101835780631151397c146101a65780631ae0aa77146101b9578063395edc2d14610219575b600080fd5b610165610160366004612102565b6103bb565b60405161017a9998979695949392919061216b565b60405180910390f35b6101966101913660046121f5565b610524565b604051901515815260200161017a565b6101966101b43660046122c4565b610559565b6102096101c73660046121f5565b60036020908152600092835260408084209091529082529020805460018201546002909201546001600160a01b03909116919060ff8082169161010090041684565b60405161017a9493929190612343565b6102216105b9565b60405161017a91906123ef565b61024161023c3660046122c4565b610889565b005b6102416102513660046122c4565b61093f565b610241610264366004612102565b610a27565b61027c610277366004612102565b610d7b565b60405161017a9190612451565b610241610297366004612102565b610f2e565b610241610fee565b6102416102b236600461246b565b611002565b6000546040516001600160a01b03909116815260200161017a565b6102db60065481565b60405190815260200161017a565b6102416102f73660046121f5565b611172565b61030f61030a3660046121f5565b611257565b60405161017a91906124af565b61032f61032a366004612102565b61133b565b60405161017a91906124ee565b61024161034a36600461254b565b6113da565b61024161035d366004612102565b6114d8565b6103756103703660046125c9565b611587565b60405161017a91906125e4565b6102db61039036600461261c565b6115f2565b6102416103a33660046121f5565b61199f565b6102416103b63660046125c9565b611b29565b600260205260009081526040902080546001820180549192916103dd906126b5565b80601f0160208091040260200160405190810160405280929190818152602001828054610409906126b5565b80156104565780601f1061042b57610100808354040283529160200191610456565b820191906000526020600020905b81548152906001019060200180831161043957829003601f168201915b50505050509080600201805461046b906126b5565b80601f0160208091040260200160405190810160405280929190818152602001828054610497906126b5565b80156104e45780601f106104b9576101008083540402835291602001916104e4565b820191906000526020600020905b8154815290600101906020018083116104c757829003601f168201915b5050506003840154600485015460058601546006870154600788015460089098015496976001600160a01b039094169692955060ff918216945092911689565b60008281526003602090815260408083206001600160a01b0385168452909152902060020154610100900460ff165b92915050565b6000828152600260205260408120600881015460ff1661057d576000915050610553565b60008360405160200161059091906126ef565b604051602081830303815290604052805190602001209050808260060154149250505092915050565b60606000805b6007548110156106275760026000600783815481106105e0576105e061270b565b6000918252602080832090910154835282019290925260400190206005015460ff1615610615578161061181612737565b9250505b8061061f81612737565b9150506105bf565b5060008167ffffffffffffffff81111561064357610643612221565b60405190808252806020026020018201604052801561067c57816020015b610669612085565b8152602001906001900390816106615790505b5090506000805b60075481101561088057600060026000600784815481106106a6576106a661270b565b600091825260208083209091015483528201929092526040019020600581015490915060ff161561086d576040518060e00160405280826000015481526020018260010180546106f5906126b5565b80601f0160208091040260200160405190810160405280929190818152602001828054610721906126b5565b801561076e5780601f106107435761010080835404028352916020019161076e565b820191906000526020600020905b81548152906001019060200180831161075157829003601f168201915b50505050508152602001826002018054610787906126b5565b80601f01602080910402602001604051908101604052809291908181526020018280546107b3906126b5565b80156108005780601f106107d557610100808354040283529160200191610800565b820191906000526020600020905b8154815290600101906020018083116107e357829003601f168201915b505050918352505060038301546001600160a01b0316602082015260048301546040820152600583015460ff1615156060820152600783015460809091015284518590859081106108535761085361270b565b6020026020010181905250828061086990612737565b9350505b508061087881612737565b915050610683565b50909392505050565b6000828152600260205260409020600881015460ff166108bc576040516314eda09b60e01b815260040160405180910390fd5b6108c68333611b69565b6108e35760405163ea8e4eb560e01b815260040160405180910390fd5b816040516020016108f491906126ef565b60408051601f19818403018152908290528051602090910120600683015583907f1d7a0fc689e98a2eff533a6762fa7d544d23ec369c6f0956339257c3054ed60290600090a2505050565b610947611be3565b6000828152600260205260409020600881015460ff1661097a576040516314eda09b60e01b815260040160405180910390fd5b6000838152600360209081526040808320338452909152902060020154610100900460ff16156109bd576040516340803a5f60e11b815260040160405180910390fd5b6000826040516020016109d091906126ef565b60405160208183030381529060405280519060200120905080826006015414610a0c57604051633b19367b60e01b815260040160405180910390fd5b610a1884336000611c0d565b5050610a2360018055565b5050565b610a2f611be3565b6000818152600260205260409020600881015460ff16610a62576040516314eda09b60e01b815260040160405180910390fd5b60038101546001600160a01b03163314610a8f5760405163ea8e4eb560e01b815260040160405180910390fd5b600082815260046020908152604080832080548251818502810185019093528083529192909190830182828015610aef57602002820191906000526020600020905b81546001600160a01b03168152600190910190602001808311610ad1575b5050505050905060005b8151811015610c4d576000828281518110610b1657610b1661270b565b6020908102919091018101516001600160a01b0381166000908152600590925260408220909250905b8154811015610bf35786828281548110610b5b57610b5b61270b565b906000526020600020015403610be15781548290610b7b90600190612750565b81548110610b8b57610b8b61270b565b9060005260206000200154828281548110610ba857610ba861270b565b906000526020600020018190555081805480610bc657610bc6612763565b60019003818190600052602060002001600090559055610bf3565b80610beb81612737565b915050610b3f565b505060008581526003602090815260408083206001600160a01b03909416835292905290812080546001600160a01b03191681556001810191909155600201805461ffff1916905580610c4581612737565b915050610af9565b506000838152600460205260408120610c65916120d0565b60005b600754811015610d1e578360078281548110610c8657610c8661270b565b906000526020600020015403610d0c5760078054610ca690600190612750565b81548110610cb657610cb661270b565b906000526020600020015460078281548110610cd457610cd461270b565b6000918252602090912001556007805480610cf157610cf1612763565b60019003818190600052602060002001600090559055610d1e565b80610d1681612737565b915050610c68565b5060088201805460ff1916905560068054906000610d3b83612779565b9091555050604051339084907f6a0026270fde81f1d448445876272b7a8bca1a593176466bd3075ae1b70ddf6c90600090a35050610d7860018055565b50565b610d83612085565b6000828152600260205260409020600881015460ff16610db6576040516314eda09b60e01b815260040160405180910390fd5b6040518060e0016040528082600001548152602001826001018054610dda906126b5565b80601f0160208091040260200160405190810160405280929190818152602001828054610e06906126b5565b8015610e535780601f10610e2857610100808354040283529160200191610e53565b820191906000526020600020905b815481529060010190602001808311610e3657829003601f168201915b50505050508152602001826002018054610e6c906126b5565b80601f0160208091040260200160405190810160405280929190818152602001828054610e98906126b5565b8015610ee55780601f10610eba57610100808354040283529160200191610ee5565b820191906000526020600020905b815481529060010190602001808311610ec857829003601f168201915b505050918352505060038301546001600160a01b0316602082015260048301546040820152600583015460ff161515606082015260079092015460809092019190915292915050565b610f36611be3565b6000818152600260205260409020600881015460ff16610f69576040516314eda09b60e01b815260040160405180910390fd5b6000828152600360209081526040808320338452909152902060020154610100900460ff16610fab5760405163148fe22160e11b815260040160405180910390fd5b6003810154336001600160a01b0390911603610fda5760405163bbb43c4d60e01b815260040160405180910390fd5b610fe48233611d85565b50610d7860018055565b610ff6612008565b6110006000612035565b565b6000838152600260205260409020600881015460ff16611035576040516314eda09b60e01b815260040160405180910390fd5b60038101546001600160a01b031633146110625760405163ea8e4eb560e01b815260040160405180910390fd5b60008481526003602090815260408083206001600160a01b0387168452909152902060020154610100900460ff166110ad5760405163148fe22160e11b815260040160405180910390fd5b60028260028111156110c1576110c161230b565b036110df5760405163ea8e4eb560e01b815260040160405180910390fd5b60008481526003602090815260408083206001600160a01b0387168452909152902060029081018054849260ff199091169060019084908111156111255761112561230b565b0217905550826001600160a01b0316847fb46606d76df3efa489ff2a57e8d634e58e920a3c4e311434086b836a008fbff7846040516111649190612790565b60405180910390a350505050565b6000828152600260205260409020600881015460ff166111a5576040516314eda09b60e01b815260040160405180910390fd5b6111af8333611b69565b6111cc5760405163ea8e4eb560e01b815260040160405180910390fd5b60008381526003602090815260408083206001600160a01b0386168452909152902060020154610100900460ff166112175760405163148fe22160e11b815260040160405180910390fd5b60038101546001600160a01b03908116908316036112485760405163ea8e4eb560e01b815260040160405180910390fd5b6112528383611d85565b505050565b60408051608081018252600080825260208201819052918101829052606081019190915260008381526002602052604090206008015460ff166112ad576040516314eda09b60e01b815260040160405180910390fd5b60008381526003602090815260408083206001600160a01b038087168552908352928190208151608081018352815490941684526001810154928401929092526002808301549184019160ff169081111561130a5761130a61230b565b600281111561131b5761131b61230b565b815260029190910154610100900460ff1615156020909101529392505050565b60008181526002602052604090206008015460609060ff16611370576040516314eda09b60e01b815260040160405180910390fd5b600082815260046020908152604091829020805483518184028101840190945280845290918301828280156113ce57602002820191906000526020600020905b81546001600160a01b031681526001909101906020018083116113b0575b50505050509050919050565b6000848152600260205260409020600881015460ff1661140d576040516314eda09b60e01b815260040160405180910390fd5b60038101546001600160a01b0316331461143a5760405163ea8e4eb560e01b815260040160405180910390fd5b83511580611449575060648451115b156114675760405163430f13b360e01b815260040160405180910390fd5b6001810161147585826127ec565b506002810161148484826127ec565b5060058101805460ff191683151517905560405185907f3734f76c2d86c2db4dd304b6bd8734eafc526c66a7673bd524987ffbe8c0b9ea906114c990879087906128ac565b60405180910390a25050505050565b6114e0611be3565b6000818152600260205260409020600881015460ff16611513576040516314eda09b60e01b815260040160405180910390fd5b600581015460ff166115385760405163e63ec66560e01b815260040160405180910390fd5b6000828152600360209081526040808320338452909152902060020154610100900460ff161561157b576040516340803a5f60e11b815260040160405180910390fd5b610fe482336000611c0d565b6001600160a01b0381166000908152600560209081526040918290208054835181840281018401909452808452606093928301828280156113ce57602002820191906000526020600020905b8154815260200190600101908083116115d35750505050509050919050565b60006115fc611be3565b8451158061160b575060648551115b156116295760405163430f13b360e01b815260040160405180910390fd5b600654604051611641913391889142916020016128da565b60408051601f1981840301815291815281516020928301206000818152600290935291206008015490915060ff161561168d5760405163191dbe8d60e21b815260040160405180910390fd5b60008315801561169e575060008351115b156116cd57826040516020016116b491906126ef565b6040516020818303038152906040528051906020012090505b6040805161012081018252838152602080820189815282840189905233606084015242608084015287151560a084015260c08301859052600160e0840181905261010084018190526000878152600290935293909120825181559051919290919082019061173b90826127ec565b506040820151600282019061175090826127ec565b5060608201516003820180546001600160a01b039092166001600160a01b0319909216919091179055608080830151600483015560a083015160058301805491151560ff1992831617905560c0840151600684015560e0840151600784015561010090930151600890920180549215159290931691909117909155604080519182018152338252426020830152810160028152600160209182018190526000858152600383526040808220338352845290819020845181546001600160a01b0319166001600160a01b039091161781559284015183830155830151600280840180549293909260ff191691849081111561184c5761184c61230b565b021790555060609190910151600290910180549115156101000261ff001990921691909117905560008281526004602090815260408083208054600181810183559185528385200180546001600160a01b031916339081179091558452600583529083208054808301825590845291832090910184905560078054918201815582527fa66cc928b5edb82af9bd49922954155ab7b0942694bea4ce44661d9a8736c68801839055600680549161190183612737565b9190505550336001600160a01b0316827f962ecf4a32ba01df3c5e410513eae9e79b3012c1ee3fb4da58f04029bc0d4de0888760405161194292919061291e565b60405180910390a3336001600160a01b0316827f257b942a35a44661591f47f52235bbd50ee51f2602b3e7587cc88b0c6b24a41160026040516119859190612790565b60405180910390a35061199760018055565b949350505050565b6000828152600260205260409020600881015460ff166119d2576040516314eda09b60e01b815260040160405180910390fd5b60038101546001600160a01b031633146119ff5760405163ea8e4eb560e01b815260040160405180910390fd5b60008381526003602090815260408083206001600160a01b0386168452909152902060020154610100900460ff16611a4a5760405163148fe22160e11b815260040160405180910390fd5b600083815260036020818152604080842033808652925280842060029081018054600160ff19918216811790925594870180546001600160a01b0319166001600160a01b038a1690811790915586529482902081018054909416179092559051909185917fb46606d76df3efa489ff2a57e8d634e58e920a3c4e311434086b836a008fbff791611ad991612790565b60405180910390a3816001600160a01b0316837fb46606d76df3efa489ff2a57e8d634e58e920a3c4e311434086b836a008fbff76002604051611b1c9190612790565b60405180910390a3505050565b611b31612008565b6001600160a01b038116611b6057604051631e4fbdf760e01b8152600060048201526024015b60405180910390fd5b610d7881612035565b60008281526003602090815260408083206001600160a01b038516845290915281206002810154610100900460ff1680156119975750600160028083015460ff1690811115611bba57611bba61230b565b1480611997575060028181015460ff1681811115611bda57611bda61230b565b14949350505050565b600260015403611c0657604051633ee5aeb560e01b815260040160405180910390fd5b6002600155565b6040518060800160405280836001600160a01b03168152602001428152602001826002811115611c3f57611c3f61230b565b81526001602091820181905260008681526003835260408082206001600160a01b03888116845290855291819020855181546001600160a01b0319169316929092178255928401518183015591830151600280840180549293909260ff1916918490811115611cb057611cb061230b565b021790555060609190910151600291820180549115156101000261ff001990921691909117905560008481526004602090815260408083208054600181810183559185528385200180546001600160a01b0389166001600160a01b0319909116811790915584526005835281842080549182018155845282842001879055868352929052908120600701805491611d4683612737565b9190505550816001600160a01b0316837f257b942a35a44661591f47f52235bbd50ee51f2602b3e7587cc88b0c6b24a41183604051611b1c9190612790565b60008281526003602090815260408083206001600160a01b0385168452825280832080546001600160a01b031916815560018101849055600201805461ffff1916905584835260049091528120905b8154811015611eda57826001600160a01b0316828281548110611df957611df961270b565b6000918252602090912001546001600160a01b031603611ec85781548290611e2390600190612750565b81548110611e3357611e3361270b565b9060005260206000200160009054906101000a90046001600160a01b0316828281548110611e6357611e6361270b565b9060005260206000200160006101000a8154816001600160a01b0302191690836001600160a01b0316021790555081805480611ea157611ea1612763565b600082815260209020810160001990810180546001600160a01b0319169055019055611eda565b80611ed281612737565b915050611dd4565b506001600160a01b0382166000908152600560205260408120905b8154811015611fa95784828281548110611f1157611f1161270b565b906000526020600020015403611f975781548290611f3190600190612750565b81548110611f4157611f4161270b565b9060005260206000200154828281548110611f5e57611f5e61270b565b906000526020600020018190555081805480611f7c57611f7c612763565b60019003818190600052602060002001600090559055611fa9565b80611fa181612737565b915050611ef5565b506000848152600260205260408120600701805491611fc783612779565b90915550506040516001600160a01b0384169085907fbb7332ed2c9304ddee996cdb3fbef4348b3174f347b0c1fa5e53f96867e1321c90600090a350505050565b6000546001600160a01b031633146110005760405163118cdaa760e01b8152336004820152602401611b57565b600080546001600160a01b038381166001600160a01b0319831681178455604051919092169283917f8be0079c531659141344cd1fd0a4f28419497f9722a3daafe3b4186f6b6457e09190a35050565b6040518060e0016040528060008019168152602001606081526020016060815260200160006001600160a01b0316815260200160008152602001600015158152602001600081525090565b5080546000825590600052602060002090810190610d7891905b808211156120fe57600081556001016120ea565b5090565b60006020828403121561211457600080fd5b5035919050565b60005b8381101561213657818101518382015260200161211e565b50506000910152565b6000815180845261215781602086016020860161211b565b601f01601f19169290920160200192915050565b60006101208b83528060208401526121858184018c61213f565b90508281036040840152612199818b61213f565b6001600160a01b039990991660608401525050608081019590955292151560a085015260c084019190915260e08301521515610100909101529392505050565b80356001600160a01b03811681146121f057600080fd5b919050565b6000806040838503121561220857600080fd5b82359150612218602084016121d9565b90509250929050565b634e487b7160e01b600052604160045260246000fd5b600082601f83011261224857600080fd5b813567ffffffffffffffff8082111561226357612263612221565b604051601f8301601f19908116603f0116810190828211818310171561228b5761228b612221565b816040528381528660208588010111156122a457600080fd5b836020870160208301376000602085830101528094505050505092915050565b600080604083850312156122d757600080fd5b82359150602083013567ffffffffffffffff8111156122f557600080fd5b61230185828601612237565b9150509250929050565b634e487b7160e01b600052602160045260246000fd5b6003811061233f57634e487b7160e01b600052602160045260246000fd5b9052565b6001600160a01b038516815260208101849052608081016123676040830185612321565b821515606083015295945050505050565b805182526000602082015160e0602085015261239760e085018261213f565b9050604083015184820360408601526123b0828261213f565b6060858101516001600160a01b0316908701526080808601519087015260a08581015115159087015260c0948501519490950193909352509192915050565b6000602080830181845280855180835260408601915060408160051b870101925083870160005b8281101561244457603f19888603018452612432858351612378565b94509285019290850190600101612416565b5092979650505050505050565b6020815260006124646020830184612378565b9392505050565b60008060006060848603121561248057600080fd5b83359250612490602085016121d9565b91506040840135600381106124a457600080fd5b809150509250925092565b81516001600160a01b031681526020808301519082015260408083015160808301916124dd90840182612321565b506060928301511515919092015290565b6020808252825182820181905260009190848201906040850190845b8181101561252f5783516001600160a01b03168352928401929184019160010161250a565b50909695505050505050565b803580151581146121f057600080fd5b6000806000806080858703121561256157600080fd5b84359350602085013567ffffffffffffffff8082111561258057600080fd5b61258c88838901612237565b945060408701359150808211156125a257600080fd5b506125af87828801612237565b9250506125be6060860161253b565b905092959194509250565b6000602082840312156125db57600080fd5b612464826121d9565b6020808252825182820181905260009190848201906040850190845b8181101561252f57835183529284019291840191600101612600565b6000806000806080858703121561263257600080fd5b843567ffffffffffffffff8082111561264a57600080fd5b61265688838901612237565b9550602087013591508082111561266c57600080fd5b61267888838901612237565b94506126866040880161253b565b9350606087013591508082111561269c57600080fd5b506126a987828801612237565b91505092959194509250565b600181811c908216806126c957607f821691505b6020821081036126e957634e487b7160e01b600052602260045260246000fd5b50919050565b6000825161270181846020870161211b565b9190910192915050565b634e487b7160e01b600052603260045260246000fd5b634e487b7160e01b600052601160045260246000fd5b60006001820161274957612749612721565b5060010190565b8181038181111561055357610553612721565b634e487b7160e01b600052603160045260246000fd5b60008161278857612788612721565b506000190190565b602081016105538284612321565b601f82111561125257600081815260208120601f850160051c810160208610156127c55750805b601f850160051c820191505b818110156127e4578281556001016127d1565b505050505050565b815167ffffffffffffffff81111561280657612806612221565b61281a8161281484546126b5565b8461279e565b602080601f83116001811461284f57600084156128375750858301515b600019600386901b1c1916600185901b1785556127e4565b600085815260208120601f198616915b8281101561287e5788860151825594840194600190910190840161285f565b508582101561289c5787850151600019600388901b60f8161c191681555b5050505050600190811b01905550565b6040815260006128bf604083018561213f565b82810360208401526128d1818561213f565b95945050505050565b6bffffffffffffffffffffffff198560601b1681526000845161290481601485016020890161211b565b909101601481019390935250603482015260540192915050565b604081526000612931604083018561213f565b90508215156020830152939250505056fea2646970667358221220574ddb6048394970fa81dd480bb40a3f292914f7bb9ea02d2a05bbe2c844e1ce64736f6c63430008140033",
  "linkReferences": {},
  "deployedLinkReferences": {}
}