{"contracts/WorkspaceRegistry.sol":{"WorkspaceRegistry":{"abi":[{"inputs":[],"stateMutability":"nonpayable","type":"constructor"},{"inputs":[],"name":"AlreadyMember","type":"error"},{"inputs":[],"name":"CannotLeaveAsOwner","type":"error"},{"inputs":[],"name":"InvalidInviteCode","type":"error"},{"inputs":[],"name":"InvalidName","type":"error"},{"inputs":[],"name":"NotAuthorized","type":"error"},{"inputs":[],"name":"NotMember","type":"error"},{"inputs":[{"internalType":"address","name":"owner","type":"address"}],"name":"OwnableInvalidOwner","type":"error"},{"inputs":[{"internalType":"address","name":"account","type":"address"}],"name":"OwnableUnauthorizedAccount","type":"error"},{"inputs":[],"name":"ReentrancyGuardReentrantCall","type":"error"},{"inputs":[],"name":"WorkspaceAlreadyExists","type":"error"},{"inputs":[],"name":"WorkspaceIsPrivate","type":"error"},{"inputs":[],"name":"WorkspaceNotFound","type":"error"},{"anonymous":false,"inputs":[{"indexed":true,"internalType":"bytes32","name":"workspaceId","type":"bytes32"}],"name":"InviteCodeUpdated","type":"event"},{"anonymous":false,"inputs":[{"indexed":true,"internalType":"bytes32","name":"workspaceId","type":"bytes32"},{"indexed":true,"internalType":"address","name":"member","type":"address"},{"indexed":false,"internalType":"enum WorkspaceRegistry.MemberRole","name":"role","type":"uint8"}],"name":"MemberJoined","type":"event"},{"anonymous":false,"inputs":[{"indexed":true,"internalType":"bytes32","name":"workspaceId","type":"bytes32"},{"indexed":true,"internalType":"address","name":"member","type":"address"}],"name":"MemberLeft","type":"event"},{"anonymous":false,"inputs":[{"indexed":true,"internalType":"bytes32","name":"workspaceId","type":"bytes32"},{"indexed":true,"internalType":"address","name":"member","type":"address"},{"indexed":false,"internalType":"enum WorkspaceRegistry.MemberRole","name":"newRole","type":"uint8"}],"name":"MemberRoleChanged","type":"event"},{"anonymous":false,"inputs":[{"indexed":true,"internalType":"address","name":"previousOwner","type":"address"},{"indexed":true,"internalType":"address","name":"newOwner","type":"address"}],"name":"OwnershipTransferred","type":"event"},{"anonymous":false,"inputs":[{"indexed":true,"internalType":"bytes32","name":"workspaceId","type":"bytes32"},{"indexed":false,"internalType":"string","name":"name","type":"string"},{"indexed":true,"internalType":"address","name":"owner","type":"address"},{"indexed":false,"internalType":"bool","name":"isPublic","type":"bool"}],"name":"WorkspaceCreated","type":"event"},{"anonymous":false,"inputs":[{"indexed":true,"internalType":"bytes32","name":"workspaceId","type":"bytes32"},{"indexed":true,"internalType":"address","name":"owner","type":"address"}],"name":"WorkspaceDeleted","type":"event"},{"anonymous":false,"inputs":[{"indexed":true,"internalType":"bytes32","name":"workspaceId","type":"bytes32"},{"indexed":false,"internalType":"string","name":"name","type":"string"},{"indexed":false,"internalType":"string","name":"description","type":"string"}],"name":"WorkspaceUpdated","type":"event"},{"inputs":[{"internalType":"string","name":"name","type":"string"},{"internalType":"string","name":"description","type":"string"},{"internalType":"bool","name":"isPublic","type":"bool"},{"internalType":"string","name":"inviteCode","type":"string"}],"name":"createWorkspace","outputs":[{"internalType":"bytes32","name":"workspaceId","type":"bytes32"}],"stateMutability":"nonpayable","type":"function"},{"inputs":[{"internalType":"bytes32","name":"workspaceId","type":"bytes32"}],"name":"deleteWorkspace","outputs":[],"stateMutability":"nonpayable","type":"function"},{"inputs":[{"internalType":"bytes32","name":"workspaceId","type":"bytes32"},{"internalType":"address","name":"member","type":"address"}],"name":"getMember","outputs":[{"components":[{"internalType":"address","name":"memberAddress","type":"address"},{"internalType":"uint256","name":"joinedAt","type":"uint256"},{"internalType":"enum WorkspaceRegistry.MemberRole","name":"role","type":"uint8"},{"internalType":"bool","name":"exists","type":"bool"}],"internalType":"struct WorkspaceRegistry.Member","name":"","type":"tuple"}],"stateMutability":"view","type":"function"},{"inputs":[],"name":"getPublicWorkspaces","outputs":[{"components":[{"internalType":"bytes32","name":"id","type":"bytes32"},{"internalType":"string","name":"name","type":"string"},{"internalType":"string","name":"description","type":"string"},{"internalType":"address","name":"owner","type":"address"},{"internalType":"uint256","name":"createdAt","type":"uint256"},{"internalType":"bool","name":"isPublic","type":"bool"},{"internalType":"uint256","name":"memberCount","type":"uint256"}],"internalType":"struct WorkspaceRegistry.WorkspaceInfo[]","name":"","type":"tuple[]"}],"stateMutability":"view","type":"function"},{"inputs":[{"internalType":"address","name":"user","type":"address"}],"name":"getUserWorkspaces","outputs":[{"internalType":"bytes32[]","name":"","type":"bytes32[]"}],"stateMutability":"view","type":"function"},{"inputs":[{"internalType":"bytes32","name":"workspaceId","type":"bytes32"}],"name":"getWorkspace","outputs":[{"components":[{"internalType":"bytes32","name":"id","type":"bytes32"},{"internalType":"string","name":"name","type":"string"},{"internalType":"string","name":"description","type":"string"},{"internalType":"address","name":"owner","type":"address"},{"internalType":"uint256","name":"createdAt","type":"uint256"},{"internalType":"bool","name":"isPublic","type":"bool"},{"internalType":"uint256","name":"memberCount","type":"uint256"}],"internalType":"struct WorkspaceRegistry.WorkspaceInfo","name":"info","type":"tuple"}],"stateMutability":"view","type":"function"},{"inputs":[{"internalType":"bytes32","name":"workspaceId","type":"bytes32"}],"name":"getWorkspaceMembers","outputs":[{"internalType":"address[]","name":"","type":"address[]"}],"stateMutability":"view","type":"function"},{"inputs":[{"internalType":"bytes32","name":"workspaceId","type":"bytes32"},{"internalType":"address","name":"user","type":"address"}],"name":"isMember","outputs":[{"internalType":"bool","name":"","type":"bool"}],"stateMutability":"view","type":"function"},{"inputs":[{"internalType":"bytes32","name":"workspaceId","type":"bytes32"}],"name":"joinPublicWorkspace","outputs":[],"stateMutability":"nonpayable","type":"function"},{"inputs":[{"internalType":"bytes32","name":"workspaceId","type":"bytes32"},{"internalType":"string","name":"inviteCode","type":"string"}],"name":"joinWithInviteCode","outputs":[],"stateMutability":"nonpayable","type":"function"},{"inputs":[{"internalType":"bytes32","name":"workspaceId","type":"bytes32"}],"name":"leaveWorkspace","outputs":[],"stateMutability":"nonpayable","type":"function"},{"inputs":[],"name":"owner","outputs":[{"internalType":"address","name":"","type":"address"}],"stateMutability":"view","type":"function"},{"inputs":[{"internalType":"bytes32","name":"workspaceId","type":"bytes32"},{"internalType":"address","name":"member","type":"address"}],"name":"removeMember","outputs":[],"stateMutability":"nonpayable","type":"function"},{"inputs":[],"name":"renounceOwnership","outputs":[],"stateMutability":"nonpayable","type":"function"},{"inputs":[{"internalType":"bytes32","name":"workspaceId","type":"bytes32"},{"internalType":"string","name":"newInviteCode","type":"string"}],"name":"setInviteCode","outputs":[],"stateMutability":"nonpayable","type":"function"},{"inputs":[{"internalType":"bytes32","name":"workspaceId","type":"bytes32"},{"internalType":"address","name":"member","type":"address"},{"internalType":"enum WorkspaceRegistry.MemberRole","name":"newRole","type":"uint8"}],"name":"setMemberRole","outputs":[],"stateMutability":"nonpayable","type":"function"},{"inputs":[{"internalType":"bytes32","name":"workspaceId","type":"bytes32"},{"internalType":"address","name":"newOwner","type":"address"}],"name":"transferOwnership","outputs":[],"stateMutability":"nonpayable","type":"function"},{"inputs":[{"internalType":"address","name":"newOwner","type":"address"}],"name":"transferOwnership","outputs":[],"stateMutability":"nonpayable","type":"function"},{"inputs":[{"internalType":"bytes32","name":"workspaceId","type":"bytes32"},{"internalType":"string","name":"name","type":"string"},{"internalType":"string","name":"description","type":"string"},{"internalType":"bool","name":"isPublic","type":"bool"}],"name":"updateWorkspace","outputs":[],"stateMutability":"nonpayable","type":"function"},{"inputs":[{"internalType":"bytes32","name":"workspaceId","type":"bytes32"},{"internalType":"string","name":"inviteCode","type":"string"}],"name":"verifyInviteCode","outputs":[{"internalType":"bool","name":"valid","type":"bool"}],"stateMutability":"view","type":"function"},{"inputs":[],"name":"workspaceCount","outputs":[{"internalType":"uint256","name":"","type":"uint256"}],"stateMutability":"view","type":"function"},{"inputs":[{"internalType":"bytes32","name":"","type":"bytes32"},{"internalType":"address","name":"","type":"address"}],"name":"workspaceMembers","outputs":[{"internalType":"address","name":"memberAddress","type":"address"},{"internalType":"uint256","name":"joinedAt","type":"uint256"},{"internalType":"enum WorkspaceRegistry.MemberRole","name":"role","type":"uint8"},{"internalType":"bool","name":"exists","type":"bool"}],"stateMutability":"view","type":"function"},{"inputs":[{"internalType":"bytes32","name":"","type":"bytes32"}],"name":"workspaces","outputs":[{"internalType":"bytes32","name":"id","type":"bytes32"},{"internalType":"string","name":"name","type":"string"},{"internalType":"string","name":"description","type":"string"},{"internalType":"address","name":"owner","type":"address"},{"internalType":"uint256","name":"createdAt","type":"uint256"},{"internalType":"bool","name":"isPublic","type":"bool"},{"internalType":"bytes32","name":"inviteCodeHash","type":"bytes32"},{"internalType":"uint256","name":"memberCount","type":"uint256"},{"internalType":"bool","name":"exists","type":"bool"}],"stateMutability":"view","type":"function"}],"evm":{"bytecode":{"linkReferences":{},"object":"608060405234801561001057600080fd5b50338061003757604051631e4fbdf760e01b81526000600482015260240160405180910390fd5b6100408161004a565b506001805561009a565b600080546001600160a01b038381166001600160a01b0319831681178455604051919092169283917f8be0079c531659141344cd1fd0a4f28419497f9722a3daafe3b4186f6b6457e09190a35050565b61297880620000aa6000396000f3fe608060405234801561001057600080fd5b506004361061014d5760003560e01c80638c10218f116100c3578063c017be281161007c578063c017be281461033c578063c07e6fca1461034f578063d7d19c4e14610362578063e22f032f14610382578063ef5d6bbb14610395578063f2fde38b146103a857600080fd5b80638c10218f146102a45780638da5cb5b146102b757806391f8e4ca146102d25780639a737486146102e9578063b1d92cf6146102fc578063b997d9601461031c57600080fd5b806348113b601161011557806348113b601461022e5780634a77626d146102435780635a5860d11461025657806362b5a9b114610269578063701a52cc14610289578063715018a61461029c57600080fd5b80630acf878a1461015257806310ad56b3146101835780631151397c146101a65780631ae0aa77146101b9578063395edc2d14610219575b600080fd5b610165610160366004612102565b6103bb565b60405161017a9998979695949392919061216b565b60405180910390f35b6101966101913660046121f5565b610524565b604051901515815260200161017a565b6101966101b43660046122c4565b610559565b6102096101c73660046121f5565b60036020908152600092835260408084209091529082529020805460018201546002909201546001600160a01b03909116919060ff8082169161010090041684565b60405161017a9493929190612343565b6102216105b9565b60405161017a91906123ef565b61024161023c3660046122c4565b610889565b005b6102416102513660046122c4565b61093f565b610241610264366004612102565b610a27565b61027c610277366004612102565b610d7b565b60405161017a9190612451565b610241610297366004612102565b610f2e565b610241610fee565b6102416102b236600461246b565b611002565b6000546040516001600160a01b03909116815260200161017a565b6102db60065481565b60405190815260200161017a565b6102416102f73660046121f5565b611172565b61030f61030a3660046121f5565b611257565b60405161017a91906124af565b61032f61032a366004612102565b61133b565b60405161017a91906124ee565b61024161034a36600461254b565b6113da565b61024161035d366004612102565b6114d8565b6103756103703660046125c9565b611587565b60405161017a91906125e4565b6102db61039036600461261c565b6115f2565b6102416103a33660046121f5565b61199f565b6102416103b63660046125c9565b611b29565b600260205260009081526040902080546001820180549192916103dd906126b5565b80601f0160208091040260200160405190810160405280929190818152602001828054610409906126b5565b80156104565780601f1061042b57610100808354040283529160200191610456565b820191906000526020600020905b81548152906001019060200180831161043957829003601f168201915b50505050509080600201805461046b906126b5565b80601f0160208091040260200160405190810160405280929190818152602001828054610497906126b5565b80156104e45780601f106104b9576101008083540402835291602001916104e4565b820191906000526020600020905b8154815290600101906020018083116104c757829003601f168201915b5050506003840154600485015460058601546006870154600788015460089098015496976001600160a01b039094169692955060ff918216945092911689565b60008281526003602090815260408083206001600160a01b0385168452909152902060020154610100900460ff165b92915050565b6000828152600260205260408120600881015460ff1661057d576000915050610553565b60008360405160200161059091906126ef565b604051602081830303815290604052805190602001209050808260060154149250505092915050565b60606000805b6007548110156106275760026000600783815481106105e0576105e061270b565b6000918252602080832090910154835282019290925260400190206005015460ff1615610615578161061181612737565b9250505b8061061f81612737565b9150506105bf565b5060008167ffffffffffffffff81111561064357610643612221565b60405190808252806020026020018201604052801561067c57816020015b610669612085565b8152602001906001900390816106615790505b5090506000805b60075481101561088057600060026000600784815481106106a6576106a661270b565b600091825260208083209091015483528201929092526040019020600581015490915060ff161561086d576040518060e00160405280826000015481526020018260010180546106f5906126b5565b80601f0160208091040260200160405190810160405280929190818152602001828054610721906126b5565b801561076e5780601f106107435761010080835404028352916020019161076e565b820191906000526020600020905b81548152906001019060200180831161075157829003601f168201915b50505050508152602001826002018054610787906126b5565b80601f01602080910402602001604051908101604052809291908181526020018280546107b3906126b5565b80156108005780601f106107d557610100808354040283529160200191610800565b820191906000526020600020905b8154815290600101906020018083116107e357829003601f168201915b505050918352505060038301546001600160a01b0316602082015260048301546040820152600583015460ff1615156060820152600783015460809091015284518590859081106108535761085361270b565b6020026020010181905250828061086990612737565b9350505b508061087881612737565b915050610683565b50909392505050565b6000828152600260205260409020600881015460ff166108bc576040516314eda09b60e01b815260040160405180910390fd5b6108c68333611b69565b6108e35760405163ea8e4eb560e01b815260040160405180910390fd5b816040516020016108f491906126ef565b60408051601f19818403018152908290528051602090910120600683015583907f1d7a0fc689e98a2eff533a6762fa7d544d23ec369c6f0956339257c3054ed60290600090a2505050565b610947611be3565b6000828152600260205260409020600881015460ff1661097a576040516314eda09b60e01b815260040160405180910390fd5b6000838152600360209081526040808320338452909152902060020154610100900460ff16156109bd576040516340803a5f60e11b815260040160405180910390fd5b6000826040516020016109d091906126ef565b60405160208183030381529060405280519060200120905080826006015414610a0c57604051633b19367b60e01b815260040160405180910390fd5b610a1884336000611c0d565b5050610a2360018055565b5050565b610a2f611be3565b6000818152600260205260409020600881015460ff16610a62576040516314eda09b60e01b815260040160405180910390fd5b60038101546001600160a01b03163314610a8f5760405163ea8e4eb560e01b815260040160405180910390fd5b600082815260046020908152604080832080548251818502810185019093528083529192909190830182828015610aef57602002820191906000526020600020905b81546001600160a01b03168152600190910190602001808311610ad1575b5050505050905060005b8151811015610c4d576000828281518110610b1657610b1661270b565b6020908102919091018101516001600160a01b0381166000908152600590925260408220909250905b8154811015610bf35786828281548110610b5b57610b5b61270b565b906000526020600020015403610be15781548290610b7b90600190612750565b81548110610b8b57610b8b61270b565b9060005260206000200154828281548110610ba857610ba861270b565b906000526020600020018190555081805480610bc657610bc6612763565b60019003818190600052602060002001600090559055610bf3565b80610beb81612737565b915050610b3f565b505060008581526003602090815260408083206001600160a01b03909416835292905290812080546001600160a01b03191681556001810191909155600201805461ffff1916905580610c4581612737565b915050610af9565b506000838152600460205260408120610c65916120d0565b60005b600754811015610d1e578360078281548110610c8657610c8661270b565b906000526020600020015403610d0c5760078054610ca690600190612750565b81548110610cb657610cb661270b565b906000526020600020015460078281548110610cd457610cd461270b565b6000918252602090912001556007805480610cf157610cf1612763565b60019003818190600052602060002001600090559055610d1e565b80610d1681612737565b915050610c68565b5060088201805460ff1916905560068054906000610d3b83612779565b9091555050604051339084907f6a0026270fde81f1d448445876272b7a8bca1a593176466bd3075ae1b70ddf6c90600090a35050610d7860018055565b50565b610d83612085565b6000828152600260205260409020600881015460ff16610db6576040516314eda09b60e01b815260040160405180910390fd5b6040518060e0016040528082600001548152602001826001018054610dda906126b5565b80601f0160208091040260200160405190810160405280929190818152602001828054610e06906126b5565b8015610e535780601f10610e2857610100808354040283529160200191610e53565b820191906000526020600020905b815481529060010190602001808311610e3657829003601f168201915b50505050508152602001826002018054610e6c906126b5565b80601f0160208091040260200160405190810160405280929190818152602001828054610e98906126b5565b8015610ee55780601f10610eba57610100808354040283529160200191610ee5565b820191906000526020600020905b815481529060010190602001808311610ec857829003601f168201915b505050918352505060038301546001600160a01b0316602082015260048301546040820152600583015460ff161515606082015260079092015460809092019190915292915050565b610f36611be3565b6000818152600260205260409020600881015460ff16610f69576040516314eda09b60e01b815260040160405180910390fd5b6000828152600360209081526040808320338452909152902060020154610100900460ff16610fab5760405163148fe22160e11b815260040160405180910390fd5b6003810154336001600160a01b0390911603610fda5760405163bbb43c4d60e01b815260040160405180910390fd5b610fe48233611d85565b50610d7860018055565b610ff6612008565b6110006000612035565b565b6000838152600260205260409020600881015460ff16611035576040516314eda09b60e01b815260040160405180910390fd5b60038101546001600160a01b031633146110625760405163ea8e4eb560e01b815260040160405180910390fd5b60008481526003602090815260408083206001600160a01b0387168452909152902060020154610100900460ff166110ad5760405163148fe22160e11b815260040160405180910390fd5b60028260028111156110c1576110c161230b565b036110df5760405163ea8e4eb560e01b815260040160405180910390fd5b60008481526003602090815260408083206001600160a01b0387168452909152902060029081018054849260ff199091169060019084908111156111255761112561230b565b0217905550826001600160a01b0316847fb46606d76df3efa489ff2a57e8d634e58e920a3c4e311434086b836a008fbff7846040516111649190612790565b60405180910390a350505050565b6000828152600260205260409020600881015460ff166111a5576040516314eda09b60e01b815260040160405180910390fd5b6111af8333611b69565b6111cc5760405163ea8e4eb560e01b815260040160405180910390fd5b60008381526003602090815260408083206001600160a01b0386168452909152902060020154610100900460ff166112175760405163148fe22160e11b815260040160405180910390fd5b60038101546001600160a01b03908116908316036112485760405163ea8e4eb560e01b815260040160405180910390fd5b6112528383611d85565b505050565b60408051608081018252600080825260208201819052918101829052606081019190915260008381526002602052604090206008015460ff166112ad576040516314eda09b60e01b815260040160405180910390fd5b60008381526003602090815260408083206001600160a01b038087168552908352928190208151608081018352815490941684526001810154928401929092526002808301549184019160ff169081111561130a5761130a61230b565b600281111561131b5761131b61230b565b815260029190910154610100900460ff1615156020909101529392505050565b60008181526002602052604090206008015460609060ff16611370576040516314eda09b60e01b815260040160405180910390fd5b600082815260046020908152604091829020805483518184028101840190945280845290918301828280156113ce57602002820191906000526020600020905b81546001600160a01b031681526001909101906020018083116113b0575b50505050509050919050565b6000848152600260205260409020600881015460ff1661140d576040516314eda09b60e01b815260040160405180910390fd5b60038101546001600160a01b0316331461143a5760405163ea8e4eb560e01b815260040160405180910390fd5b83511580611449575060648451115b156114675760405163430f13b360e01b815260040160405180910390fd5b6001810161147585826127ec565b506002810161148484826127ec565b5060058101805460ff191683151517905560405185907f3734f76c2d86c2db4dd304b6bd8734eafc526c66a7673bd524987ffbe8c0b9ea906114c990879087906128ac565b60405180910390a25050505050565b6114e0611be3565b6000818152600260205260409020600881015460ff16611513576040516314eda09b60e01b815260040160405180910390fd5b600581015460ff166115385760405163e63ec66560e01b815260040160405180910390fd5b6000828152600360209081526040808320338452909152902060020154610100900460ff161561157b576040516340803a5f60e11b815260040160405180910390fd5b610fe482336000611c0d565b6001600160a01b0381166000908152600560209081526040918290208054835181840281018401909452808452606093928301828280156113ce57602002820191906000526020600020905b8154815260200190600101908083116115d35750505050509050919050565b60006115fc611be3565b8451158061160b575060648551115b156116295760405163430f13b360e01b815260040160405180910390fd5b600654604051611641913391889142916020016128da565b60408051601f1981840301815291815281516020928301206000818152600290935291206008015490915060ff161561168d5760405163191dbe8d60e21b815260040160405180910390fd5b60008315801561169e575060008351115b156116cd57826040516020016116b491906126ef565b6040516020818303038152906040528051906020012090505b6040805161012081018252838152602080820189815282840189905233606084015242608084015287151560a084015260c08301859052600160e0840181905261010084018190526000878152600290935293909120825181559051919290919082019061173b90826127ec565b506040820151600282019061175090826127ec565b5060608201516003820180546001600160a01b039092166001600160a01b0319909216919091179055608080830151600483015560a083015160058301805491151560ff1992831617905560c0840151600684015560e0840151600784015561010090930151600890920180549215159290931691909117909155604080519182018152338252426020830152810160028152600160209182018190526000858152600383526040808220338352845290819020845181546001600160a01b0319166001600160a01b039091161781559284015183830155830151600280840180549293909260ff191691849081111561184c5761184c61230b565b021790555060609190910151600290910180549115156101000261ff001990921691909117905560008281526004602090815260408083208054600181810183559185528385200180546001600160a01b031916339081179091558452600583529083208054808301825590845291832090910184905560078054918201815582527fa66cc928b5edb82af9bd49922954155ab7b0942694bea4ce44661d9a8736c68801839055600680549161190183612737565b9190505550336001600160a01b0316827f962ecf4a32ba01df3c5e410513eae9e79b3012c1ee3fb4da58f04029bc0d4de0888760405161194292919061291e565b60405180910390a3336001600160a01b0316827f257b942a35a44661591f47f52235bbd50ee51f2602b3e7587cc88b0c6b24a41160026040516119859190612790565b60405180910390a35061199760018055565b949350505050565b6000828152600260205260409020600881015460ff166119d2576040516314eda09b60e01b815260040160405180910390fd5b60038101546001600160a01b031633146119ff5760405163ea8e4eb560e01b815260040160405180910390fd5b60008381526003602090815260408083206001600160a01b0386168452909152902060020154610100900460ff16611a4a5760405163148fe22160e11b815260040160405180910390fd5b600083815260036020818152604080842033808652925280842060029081018054600160ff19918216811790925594870180546001600160a01b0319166001600160a01b038a1690811790915586529482902081018054909416179092559051909185917fb46606d76df3efa489ff2a57e8d634e58e920a3c4e311434086b836a008fbff791611ad991612790565b60405180910390a3816001600160a01b0316837fb46606d76df3efa489ff2a57e8d634e58e920a3c4e311434086b836a008fbff76002604051611b1c9190612790565b60405180910390a3505050565b611b31612008565b6001600160a01b038116611b6057604051631e4fbdf760e01b8152600060048201526024015b60405180910390fd5b610d7881612035565b60008281526003602090815260408083206001600160a01b038516845290915281206002810154610100900460ff1680156119975750600160028083015460ff1690811115611bba57611bba61230b565b1480611997575060028181015460ff1681811115611bda57611bda61230b565b14949350505050565b600260015403611c0657604051633ee5aeb560e01b815260040160405180910390fd5b6002600155565b6040518060800160405280836001600160a01b03168152602001428152602001826002811115611c3f57611c3f61230b565b81526001602091820181905260008681526003835260408082206001600160a01b03888116845290855291819020855181546001600160a01b0319169316929092178255928401518183015591830151600280840180549293909260ff1916918490811115611cb057611cb061230b565b021790555060609190910151600291820180549115156101000261ff001990921691909117905560008481526004602090815260408083208054600181810183559185528385200180546001600160a01b0389166001600160a01b0319909116811790915584526005835281842080549182018155845282842001879055868352929052908120600701805491611d4683612737565b9190505550816001600160a01b0316837f257b942a35a44661591f47f52235bbd50ee51f2602b3e7587cc88b0c6b24a41183604051611b1c9190612790565b60008281526003602090815260408083206001600160a01b0385168452825280832080546001600160a01b031916815560018101849055600201805461ffff1916905584835260049091528120905b8154811015611eda57826001600160a01b0316828281548110611df957611df961270b565b6000918252602090912001546001600160a01b031603611ec85781548290611e2390600190612750565b81548110611e3357611e3361270b565b9060005260206000200160009054906101000a90046001600160a01b0316828281548110611e6357611e6361270b565b9060005260206000200160006101000a8154816001600160a01b0302191690836001600160a01b0316021790555081805480611ea157611ea1612763565b600082815260209020810160001990810180546001600160a01b0319169055019055611eda565b80611ed281612737565b915050611dd4565b506001600160a01b0382166000908152600560205260408120905b8154811015611fa95784828281548110611f1157611f1161270b565b906000526020600020015403611f975781548290611f3190600190612750565b81548110611f4157611f4161270b565b9060005260206000200154828281548110611f5e57611f5e61270b565b906000526020600020018190555081805480611f7c57611f7c612763565b60019003818190600052602060002001600090559055611fa9565b80611fa181612737565b915050611ef5565b506000848152600260205260408120600701805491611fc783612779565b90915550506040516001600160a01b0384169085907fbb7332ed2c9304ddee996cdb3fbef4348b3174f347b0c1fa5e53f96867e1321c90600090a350505050565b6000546001600160a01b031633146110005760405163118cdaa760e01b8152336004820152602401611b57565b600080546001600160a01b038381166001600160a01b0319831681178455604051919092169283917f8be0079c531659141344cd1fd0a4f28419497f9722a3daafe3b4186f6b6457e09190a35050565b6040518060e0016040528060008019168152602001606081526020016060815260200160006001600160a01b0316815260200160008152602001600015158152602001600081525090565b5080546000825590600052602060002090810190610d7891905b808211156120fe57600081556001016120ea565b5090565b60006020828403121561211457600080fd5b5035919050565b60005b8381101561213657818101518382015260200161211e565b50506000910152565b6000815180845261215781602086016020860161211b565b601f01601f19169290920160200192915050565b60006101208b83528060208401526121858184018c61213f565b90508281036040840152612199818b61213f565b6001600160a01b039990991660608401525050608081019590955292151560a085015260c084019190915260e08301521515610100909101529392505050565b80356001600160a01b03811681146121f057600080fd5b919050565b6000806040838503121561220857600080fd5b82359150612218602084016121d9565b90509250929050565b634e487b7160e01b600052604160045260246000fd5b600082601f83011261224857600080fd5b813567ffffffffffffffff8082111561226357612263612221565b604051601f8301601f19908116603f0116810190828211818310171561228b5761228b612221565b816040528381528660208588010111156122a457600080fd5b836020870160208301376000602085830101528094505050505092915050565b600080604083850312156122d757600080fd5b82359150602083013567ffffffffffffffff8111156122f557600080fd5b61230185828601612237565b9150509250929050565b634e487b7160e01b600052602160045260246000fd5b6003811061233f57634e487b7160e01b600052602160045260246000fd5b9052565b6001600160a01b038516815260208101849052608081016123676040830185612321565b821515606083015295945050505050565b805182526000602082015160e0602085015261239760e085018261213f565b9050604083015184820360408601526123b0828261213f565b6060858101516001600160a01b0316908701526080808601519087015260a08581015115159087015260c0948501519490950193909352509192915050565b6000602080830181845280855180835260408601915060408160051b870101925083870160005b8281101561244457603f19888603018452612432858351612378565b94509285019290850190600101612416565b5092979650505050505050565b6020815260006124646020830184612378565b9392505050565b60008060006060848603121561248057600080fd5b83359250612490602085016121d9565b91506040840135600381106124a457600080fd5b809150509250925092565b81516001600160a01b031681526020808301519082015260408083015160808301916124dd90840182612321565b506060928301511515919092015290565b6020808252825182820181905260009190848201906040850190845b8181101561252f5783516001600160a01b03168352928401929184019160010161250a565b50909695505050505050565b803580151581146121f057600080fd5b6000806000806080858703121561256157600080fd5b84359350602085013567ffffffffffffffff8082111561258057600080fd5b61258c88838901612237565b945060408701359150808211156125a257600080fd5b506125af87828801612237565b9250506125be6060860161253b565b905092959194509250565b6000602082840312156125db57600080fd5b612464826121d9565b6020808252825182820181905260009190848201906040850190845b8181101561252f57835183529284019291840191600101612600565b6000806000806080858703121561263257600080fd5b843567ffffffffffffffff8082111561264a57600080fd5b61265688838901612237565b9550602087013591508082111561266c57600080fd5b61267888838901612237565b94506126866040880161253b565b9350606087013591508082111561269c57600080fd5b506126a987828801612237565b91505092959194509250565b600181811c908216806126c957607f821691505b6020821081036126e957634e487b7160e01b600052602260045260246000fd5b50919050565b6000825161270181846020870161211b565b9190910192915050565b634e487b7160e01b600052603260045260246000fd5b634e487b7160e01b600052601160045260246000fd5b60006001820161274957612749612721565b5060010190565b8181038181111561055357610553612721565b634e487b7160e01b600052603160045260246000fd5b60008161278857612788612721565b506000190190565b602081016105538284612321565b601f82111561125257600081815260208120601f850160051c810160208610156127c55750805b601f850160051c820191505b818110156127e4578281556001016127d1565b505050505050565b815167ffffffffffffffff81111561280657612806612221565b61281a8161281484546126b5565b8461279e565b602080601f83116001811461284f57600084156128375750858301515b600019600386901b1c1916600185901b1785556127e4565b600085815260208120601f198616915b8281101561287e5788860151825594840194600190910190840161285f565b508582101561289c5787850151600019600388901b60f8161c191681555b5050505050600190811b01905550565b6040815260006128bf604083018561213f565b82810360208401526128d1818561213f565b95945050505050565b6bffffffffffffffffffffffff198560601b1681526000845161290481601485016020890161211b565b909101601481019390935250603482015260540192915050565b604081526000612931604083018561213f565b90508215156020830152939250505056fea2646970667358221220574ddb6048394970fa81dd480bb40a3f292914f7bb9ea02d2a05bbe2c844e1ce64736f6c63430008140033","opcodes":"PUSH1 0x80 PUSH1 0x40 MSTORE CALLVALUE DUP1 ISZERO PUSH2 0x10 JUMPI PUSH1 0x0 DUP1 REVERT JUMPDEST POP CALLER DUP1 PUSH2 0x37 JUMPI PUSH1 0x40 MLOAD PUSH4 0x1E4FBDF7 PUSH1 0xE0 SHL DUP2 MSTORE PUSH1 0x0 PUSH1 0x4 DUP3 ADD MSTORE PUSH1 0x24 ADD PUSH1 0x40 MLOAD DUP1 SWAP2 SUB SWAP1 REVERT JUMPDEST PUSH2 0x40 DUP2 PUSH2 0x4A JUMP JUMPDEST POP PUSH1 0x1 DUP1 SSTORE PUSH2 0x9A JUMP JUMPDEST PUSH1 0x0 DUP1 SLOAD PUSH1 0x1 PUSH1 0x1 PUSH1 0xA0 SHL SUB DUP4 DUP2 AND PUSH1 0x1 PUSH1 0x1 PUSH1 0xA0 SHL SUB NOT DUP4 AND DUP2 OR DUP5 SSTORE PUSH1 0x40 MLOAD SWAP2 SWAP1 SWAP3 AND SWAP3 DUP4 SWAP2 PUSH32 0x8BE0079C531659141344CD1FD0A4F28419497F9722A3DAAFE3B4186F6B6457E0 SWAP2 SWAP1 LOG3 POP POP JUMP JUMPDEST PUSH2 0x2978 DUP1 PUSH3 0xAA PUSH1 0x0 CODECOPY PUSH1 0x0 RETURN INVALID PUSH1 0x80 PUSH1 0x40 MSTORE CALLVALUE DUP1 ISZERO PUSH2 0x10 JUMPI PUSH1 0x0 DUP1 REVERT JUMPDEST POP PUSH1 0x4 CALLDATASIZE LT PUSH2 0x14D JUMPI PUSH1 0x0 CALLDATALOAD PUSH1 0xE0 SHR DUP1 PUSH4 0x8C10218F GT PUSH2 0xC3 JUMPI DUP1 PUSH4 0xC017BE28 GT PUSH2 0x7C JUMPI DUP1 PUSH4 0xC017BE28 EQ PUSH2 0x33C JUMPI DUP1 PUSH4 0xC07E6FCA EQ PUSH2 0x34F JUMPI DUP1 PUSH4 0xD7D19C4E EQ PUSH2 0x362 JUMPI DUP1 PUSH4 0xE22F032F EQ PUSH2 0x382 JUMPI DUP1 PUSH4 0xEF5D6BBB EQ PUSH2 0x395 JUMPI DUP1 PUSH4 0xF2FDE38B EQ PUSH2 0x3A8 JUMPI PUSH1 0x0 DUP1 REVERT JUMPDEST DUP1 PUSH4 0x8C10218F EQ PUSH2 0x2A4 JUMPI DUP1 PUSH4 0x8DA5CB5B EQ PUSH2 0x2B7 JUMPI DUP1 PUSH4 0x91F8E4CA EQ PUSH2 0x2D2 JUMPI DUP1 PUSH4 0x9A737486 EQ PUSH2 0x2E9 JUMPI DUP1 PUSH4 0xB1D92CF6 EQ PUSH2 0x2FC JUMPI DUP1 PUSH4 0xB997D960 EQ PUSH2 0x31C JUMPI PUSH1 0x0 DUP1 REVERT JUMPDEST DUP1 PUSH4 0x48113B60 GT PUSH2 0x115 JUMPI DUP1 PUSH4 0x48113B60 EQ PUSH2 0x22E JUMPI DUP1 PUSH4 0x4A77626D EQ PUSH2 0x243 JUMPI DUP1 PUSH4 0x5A5860D1 EQ PUSH2 0x256 JUMPI DUP1 PUSH4 0x62B5A9B1 EQ PUSH2 0x269 JUMPI DUP1 PUSH4 0x701A52CC EQ PUSH2 0x289 JUMPI DUP1 PUSH4 0x715018A6 EQ PUSH2 0x29C JUMPI PUSH1 0x0 DUP1 REVERT JUMPDEST DUP1 PUSH4 0xACF878A EQ PUSH2 0x152 JUMPI DUP1 PUSH4 0x10AD56B3 EQ PUSH2 0x183 JUMPI DUP1 PUSH4 0x1151397C EQ PUSH2 0x1A6 JUMPI DUP1 PUSH4 0x1AE0AA77 EQ PUSH2 0x1B9 JUMPI DUP1 PUSH4 0x395EDC2D EQ PUSH2 0x219 JUMPI JUMPDEST PUSH1 0x0 DUP1 REVERT JUMPDEST PUSH2 0x165 PUSH2 0x160 CALLDATASIZE PUSH1 0x4 PUSH2 0x2102 JUMP JUMPDEST PUSH2 0x3BB JUMP JUMPDEST PUSH1 0x40 MLOAD PUSH2 0x17A SWAP10 SWAP9 SWAP8 SWAP7 SWAP6 SWAP5 SWAP4 SWAP3 SWAP2 SWAP1 PUSH2 0x216B JUMP JUMPDEST PUSH1 0x40 MLOAD DUP1 SWAP2 SUB SWAP1 RETURN JUMPDEST PUSH2 0x196 PUSH2 0x191 CALLDATASIZE PUSH1 0x4 PUSH2 0x21F5 JUMP JUMPDEST PUSH2 0x524 JUMP JUMPDEST PUSH1 0x40 MLOAD SWAP1 ISZERO ISZERO DUP2 MSTORE PUSH1 0x20 ADD PUSH2 0x17A JUMP JUMPDEST PUSH2 0x196 PUSH2 0x1B4 CALLDATASIZE PUSH1 0x4 PUSH2 0x22C4 JUMP JUMPDEST PUSH2 0x559 JUMP JUMPDEST PUSH2 0x209 PUSH2 0x1C7 CALLDATASIZE PUSH1 0x4 PUSH2 0x21F5 JUMP JUMPDEST PUSH1 0x3 PUSH1 0x20 SWAP1 DUP2 MSTORE PUSH1 0x0 SWAP3 DUP4 MSTORE PUSH1 0x40 DUP1 DUP5 KECCAK256 SWAP1 SWAP2 MSTORE SWAP1 DUP3 MSTORE SWAP1 KECCAK256 DUP1 SLOAD PUSH1 0x1 DUP3 ADD SLOAD PUSH1 0x2 SWAP1 SWAP3 ADD SLOAD PUSH1 0x1 PUSH1 0x1 PUSH1 0xA0 SHL SUB SWAP1 SWAP2 AND SWAP2 SWAP1 PUSH1 0xFF DUP1 DUP3 AND SWAP2 PUSH2 0x100 SWAP1 DIV AND DUP5 JUMP JUMPDEST PUSH1 0x40 MLOAD PUSH2 0x17A SWAP5 SWAP4 SWAP3 SWAP2 SWAP1 PUSH2 0x2343 JUMP JUMPDEST PUSH2 0x221 PUSH2 0x5B9 JUMP JUMPDEST PUSH1 0x40 MLOAD PUSH2 0x17A SWAP2 SWAP1 PUSH2 0x23EF JUMP JUMPDEST PUSH2 0x241 PUSH2 0x23C CALLDATASIZE PUSH1 0x4 PUSH2 0x22C4 JUMP JUMPDEST PUSH2 0x889 JUMP JUMPDEST STOP JUMPDEST PUSH2 0x241 PUSH2 0x251 CALLDATASIZE PUSH1 0x4 PUSH2 0x22C4 JUMP JUMPDEST PUSH2 0x93F JUMP JUMPDEST PUSH2 0x241 PUSH2 0x264 CALLDATASIZE PUSH1 0x4 PUSH2 0x2102 JUMP JUMPDEST PUSH2 0xA27 JUMP JUMPDEST PUSH2 0x27C PUSH2 0x277 CALLDATASIZE PUSH1 0x4 PUSH2 0x2102 JUMP JUMPDEST PUSH2 0xD7B JUMP JUMPDEST PUSH1 0x40 MLOAD PUSH2 0x17A SWAP2 SWAP1 PUSH2 0x2451 JUMP JUMPDEST PUSH2 0x241 PUSH2 0x297 CALLDATASIZE PUSH1 0x4 PUSH2 0x2102 JUMP JUMPDEST PUSH2 0xF2E JUMP JUMPDEST PUSH2 0x241 PUSH2 0xFEE JUMP JUMPDEST PUSH2 0x241 PUSH2 0x2B2 CALLDATASIZE PUSH1 0x4 PUSH2 0x246B JUMP JUMPDEST PUSH2 0x1002 JUMP JUMPDEST PUSH1 0x0 SLOAD PUSH1 0x40 MLOAD PUSH1 0x1 PUSH1 0x1 PUSH1 0xA0 SHL SUB SWAP1 SWAP2 AND DUP2 MSTORE PUSH1 0x20 ADD PUSH2 0x17A JUMP JUMPDEST PUSH2 0x2DB PUSH1 0x6 SLOAD DUP2 JUMP JUMPDEST PUSH1 0x40 MLOAD SWAP1 DUP2 MSTORE PUSH1 0x20 ADD PUSH2 0x17A JUMP JUMPDEST PUSH2 0x241 PUSH2 0x2F7 CALLDATASIZE PUSH1 0x4 PUSH2 0x21F5 JUMP JUMPDEST PUSH2 0x1172 JUMP JUMPDEST PUSH2 0x30F PUSH2 0x30A CALLDATASIZE PUSH1 0x4 PUSH2 0x21F5 JUMP JUMPDEST PUSH2 0x1257 JUMP JUMPDEST PUSH1 0x40 MLOAD PUSH2 0x17A SWAP2 SWAP1 PUSH2 0x24AF JUMP JUMPDEST PUSH2 0x32F PUSH2 0x32A CALLDATASIZE PUSH1 0x4 PUSH2 0x2102 JUMP JUMPDEST PUSH2 0x133B JUMP JUMPDEST PUSH1 0x40 MLOAD PUSH2 0x17A SWAP2 SWAP1 PUSH2 0x24EE JUMP JUMPDEST PUSH2 0x241 PUSH2 0x34A CALLDATASIZE PUSH1 0x4 PUSH2 0x254B JUMP JUMPDEST PUSH2 0x13DA JUMP JUMPDEST PUSH2 0x241 PUSH2 0x35D CALLDATASIZE PUSH1 0x4 PUSH2 0x2102 JUMP JUMPDEST PUSH2 0x14D8 JUMP JUMPDEST PUSH2 0x375 PUSH2 0x370 CALLDATASIZE PUSH1 0x4 PUSH2 0x25C9 JUMP JUMPDEST PUSH2 0x1587 JUMP JUMPDEST PUSH1 0x40 MLOAD PUSH2 0x17A SWAP2 SWAP1 PUSH2 0x25E4 JUMP JUMPDEST PUSH2 0x2DB PUSH2 0x390 CALLDATASIZE PUSH1 0x4 PUSH2 0x261C JUMP JUMPDEST PUSH2 0x15F2 JUMP JUMPDEST PUSH2 0x241 PUSH2 0x3A3 CALLDATASIZE PUSH1 0x4 PUSH2 0x21F5 JUMP JUMPDEST PUSH2 0x199F JUMP JUMPDEST PUSH2 0x241 PUSH2 0x3B6 CALLDATASIZE PUSH1 0x4 PUSH2 0x25C9 JUMP JUMPDEST PUSH2 0x1B29 JUMP JUMPDEST PUSH1 0x2 PUSH1 0x20 MSTORE PUSH1 0x0 SWAP1 DUP2 MSTORE PUSH1 0x40 SWAP1 KECCAK256 DUP1 SLOAD PUSH1 0x1 DUP3 ADD DUP1 SLOAD SWAP2 SWAP3 SWAP2 PUSH2 0x3DD SWAP1 PUSH2 0x26B5 JUMP JUMPDEST DUP1 PUSH1 0x1F ADD PUSH1 0x20 DUP1 SWAP2 DIV MUL PUSH1 0x20 ADD PUSH1 0x40 MLOAD SWAP1 DUP2 ADD PUSH1 0x40 MSTORE DUP1 SWAP3 SWAP2 SWAP1 DUP2 DUP2 MSTORE PUSH1 0x20 ADD DUP3 DUP1 SLOAD PUSH2 0x409 SWAP1 PUSH2 0x26B5 JUMP JUMPDEST DUP1 ISZERO PUSH2 0x456 JUMPI DUP1 PUSH1 0x1F LT PUSH2 0x42B JUMPI PUSH2 0x100 DUP1 DUP4 SLOAD DIV MUL DUP4 MSTORE SWAP2 PUSH1 0x20 ADD SWAP2 PUSH2 0x456 JUMP JUMPDEST DUP3 ADD SWAP2 SWAP1 PUSH1 0x0 MSTORE PUSH1 0x20 PUSH1 0x0 KECCAK256 SWAP1 JUMPDEST DUP2 SLOAD DUP2 MSTORE SWAP1 PUSH1 0x1 ADD SWAP1 PUSH1 0x20 ADD DUP1 DUP4 GT PUSH2 0x439 JUMPI DUP3 SWAP1 SUB PUSH1 0x1F AND DUP3 ADD SWAP2 JUMPDEST POP POP POP POP POP SWAP1 DUP1 PUSH1 0x2 ADD DUP1 SLOAD PUSH2 0x46B SWAP1 PUSH2 0x26B5 JUMP JUMPDEST DUP1 PUSH1 0x1F ADD PUSH1 0x20 DUP1 SWAP2 DIV MUL PUSH1 0x20 ADD PUSH1 0x40 MLOAD SWAP1 DUP2 ADD PUSH1 0x40 MSTORE DUP1 SWAP3 SWAP2 SWAP1 DUP2 DUP2 MSTORE PUSH1 0x20 ADD DUP3 DUP1 SLOAD PUSH2 0x497 SWAP1 PUSH2 0x26B5 JUMP JUMPDEST DUP1 ISZERO PUSH2 0x4E4 JUMPI DUP1 PUSH1 0x1F LT PUSH2 0x4B9 JUMPI PUSH2 0x100 DUP1 DUP4 SLOAD DIV MUL DUP4 MSTORE SWAP2 PUSH1 0x20 ADD SWAP2 PUSH2 0x4E4 JUMP JUMPDEST DUP3 ADD SWAP2 SWAP1 PUSH1 0x0 MSTORE PUSH1 0x20 PUSH1 0x0 KECCAK256 SWAP1 JUMPDEST DUP2 SLOAD DUP2 MSTORE SWAP1 PUSH1 0x1 ADD SWAP1 PUSH1 0x20 ADD DUP1 DUP4 GT PUSH2 0x4C7 JUMPI DUP3 SWAP1 SUB PUSH1 0x1F AND DUP3 ADD SWAP2 JUMPDEST POP POP POP PUSH1 0x3 DUP5 ADD SLOAD PUSH1 0x4 DUP6 ADD SLOAD PUSH1 0x5 DUP7 ADD SLOAD PUSH1 0x6 DUP8 ADD SLOAD PUSH1 0x7 DUP9 ADD SLOAD PUSH1 0x8 SWAP1 SWAP9 ADD SLOAD SWAP7 SWAP8 PUSH1 0x1 PUSH1 0x1 PUSH1 0xA0 SHL SUB SWAP1 SWAP5 AND SWAP7 SWAP3 SWAP6 POP PUSH1 0xFF SWAP2 DUP3 AND SWAP5 POP SWAP3 SWAP2 AND DUP10 JUMP JUMPDEST PUSH1 0x0 DUP3 DUP2 MSTORE PUSH1 0x3 PUSH1 0x20 SWAP1 DUP2 MSTORE PUSH1 0x40 DUP1 DUP4 KECCAK256 PUSH1 0x1 PUSH1 0x1 PUSH1 0xA0 SHL SUB DUP6 AND DUP5 MSTORE SWAP1 SWAP2 MSTORE SWAP1 KECCAK256 PUSH1 0x2 ADD SLOAD PUSH2 0x100 SWAP1 DIV PUSH1 0xFF AND JUMPDEST SWAP3 SWAP2 POP POP JUMP JUMPDEST PUSH1 0x0 DUP3 DUP2 MSTORE PUSH1 0x2 PUSH1 0x20 MSTORE PUSH1 0x40 DUP2 KECCAK256 PUSH1 0x8 DUP2 ADD SLOAD PUSH1 0xFF AND PUSH2 0x57D JUMPI PUSH1 0x0 SWAP2 POP POP PUSH2 0x553 JUMP JUMPDEST PUSH1 0x0 DUP4 PUSH1 0x40 MLOAD PUSH1 0x20 ADD PUSH2 0x590 SWAP2 SWAP1 PUSH2 0x26EF JUMP JUMPDEST PUSH1 0x40 MLOAD PUSH1 0x20 DUP2 DUP4 SUB SUB DUP2 MSTORE SWAP1 PUSH1 0x40 MSTORE DUP1 MLOAD SWAP1 PUSH1 0x20 ADD KECCAK256 SWAP1 POP DUP1 DUP3 PUSH1 0x6 ADD SLOAD EQ SWAP3 POP POP POP SWAP3 SWAP2 POP POP JUMP JUMPDEST PUSH1 0x60 PUSH1 0x0 DUP1 JUMPDEST PUSH1 0x7 SLOAD DUP2 LT ISZERO PUSH2 0x627 JUMPI PUSH1 0x2 PUSH1 0x0 PUSH1 0x7 DUP4 DUP2 SLOAD DUP2 LT PUSH2 0x5E0 JUMPI PUSH2 0x5E0 PUSH2 0x270B JUMP JUMPDEST PUSH1 0x0 SWAP2 DUP3 MSTORE PUSH1 0x20 DUP1 DUP4 KECCAK256 SWAP1 SWAP2 ADD SLOAD DUP4 MSTORE DUP3 ADD SWAP3 SWAP1 SWAP3 MSTORE PUSH1 0x40 ADD SWAP1 KECCAK256 PUSH1 0x5 ADD SLOAD PUSH1 0xFF AND ISZERO PUSH2 0x615 JUMPI DUP2 PUSH2 0x611 DUP2 PUSH2 0x2737 JUMP JUMPDEST SWAP3 POP POP JUMPDEST DUP1 PUSH2 0x61F DUP2 PUSH2 0x2737 JUMP JUMPDEST SWAP2 POP POP PUSH2 0x5BF JUMP JUMPDEST POP PUSH1 0x0 DUP2 PUSH8 0xFFFFFFFFFFFFFFFF DUP2 GT ISZERO PUSH2 0x643 JUMPI PUSH2 0x643 PUSH2 0x2221 JUMP JUMPDEST PUSH1 0x40 MLOAD SWAP1 DUP1 DUP3 MSTORE DUP1 PUSH1 0x20 MUL PUSH1 0x20 ADD DUP3 ADD PUSH1 0x40 MSTORE DUP1 ISZERO PUSH2 0x67C JUMPI DUP2 PUSH1 0x20 ADD JUMPDEST PUSH2 0x669 PUSH2 0x2085 JUMP JUMPDEST DUP2 MSTORE PUSH1 0x20 ADD SWAP1 PUSH1 0x1 SWAP1 SUB SWAP1 DUP2 PUSH2 0x661 JUMPI SWAP1 POP JUMPDEST POP SWAP1 POP PUSH1 0x0 DUP1 JUMPDEST PUSH1 0x7 SLOAD DUP2 LT ISZERO PUSH2 0x880 JUMPI PUSH1 0x0 PUSH1 0x2 PUSH1 0x0 PUSH1 0x7 DUP5 DUP2 SLOAD DUP2 LT PUSH2 0x6A6 JUMPI PUSH2 0x6A6 PUSH2 0x270B JUMP JUMPDEST PUSH1 0x0 SWAP2 DUP3 MSTORE PUSH1 0x20 DUP1 DUP4 KECCAK256 SWAP1 SWAP2 ADD SLOAD DUP4 MSTORE DUP3 ADD SWAP3 SWAP1 SWAP3 MSTORE PUSH1 0x40 ADD SWAP1 KECCAK256 PUSH1 0x5 DUP2 ADD SLOAD SWAP1 SWAP2 POP PUSH1 0xFF AND ISZERO PUSH2 0x86D JUMPI PUSH1 0x40 MLOAD DUP1 PUSH1 0xE0 ADD PUSH1 0x40 MSTORE DUP1 DUP3 PUSH1 0x0 ADD SLOAD DUP2 MSTORE PUSH1 0x20 ADD DUP3 PUSH1 0x1 ADD DUP1 SLOAD PUSH2 0x6F5 SWAP1 PUSH2 0x26B5 JUMP JUMPDEST DUP1 PUSH1 0x1F ADD PUSH1 0x20 DUP1 SWAP2 DIV MUL PUSH1 0x20 ADD PUSH1 0x40 MLOAD SWAP1 DUP2 ADD PUSH1 0x40 MSTORE DUP1 SWAP3 SWAP2 SWAP1 DUP2 DUP2 MSTORE PUSH1 0x20 ADD DUP3 DUP1 SLOAD PUSH2 0x721 SWAP1 PUSH2 0x26B5 JUMP JUMPDEST DUP1 ISZERO PUSH2 0x76E JUMPI DUP1 PUSH1 0x1F LT PUSH2 0x743 JUMPI PUSH2 0x100 DUP1 DUP4 SLOAD DIV MUL DUP4 MSTORE SWAP2 PUSH1 0x20 ADD SWAP2 PUSH2 0x76E JUMP JUMPDEST DUP3 ADD SWAP2 SWAP1 PUSH1 0x0 MSTORE PUSH1 0x20 PUSH1 0x0 KECCAK256 SWAP1 JUMPDEST DUP2 SLOAD DUP2 MSTORE SWAP1 PUSH1 0x1 ADD SWAP1 PUSH1 0x20 ADD DUP1 DUP4 GT PUSH2 0x751 JUMPI DUP3 SWAP1 SUB PUSH1 0x1F AND DUP3 ADD SWAP2 JUMPDEST POP POP POP POP POP DUP2 MSTORE PUSH1 0x20 ADD DUP3 PUSH1 0x2 ADD DUP1 SLOAD PUSH2 0x787 SWAP1 PUSH2 0x26B5 JUMP JUMPDEST DUP1 PUSH1 0x1F ADD PUSH1 0x20 DUP1 SWAP2 DIV MUL PUSH1 0x20 ADD PUSH1 0x40 MLOAD SWAP1 DUP2 ADD PUSH1 0x40 MSTORE DUP1 SWAP3 SWAP2 SWAP1 DUP2 DUP2 MSTORE PUSH1 0x20 ADD DUP3 DUP1 SLOAD PUSH2 0x7B3 SWAP1 PUSH2 0x26B5 JUMP JUMPDEST DUP1 ISZERO PUSH2 0x800 JUMPI DUP1 PUSH1 0x1F LT PUSH2 0x7D5 JUMPI PUSH2 0x100 DUP1 DUP4 SLOAD DIV MUL DUP4 MSTORE SWAP2 PUSH1 0x20 ADD SWAP2 PUSH2 0x800 JUMP JUMPDEST DUP3 ADD SWAP2 SWAP1 PUSH1 0x0 MSTORE PUSH1 0x20 PUSH1 0x0 KECCAK256 SWAP1 JUMPDEST DUP2 SLOAD DUP2 MSTORE SWAP1 PUSH1 0x1 ADD SWAP1 PUSH1 0x20 ADD DUP1 DUP4 GT PUSH2 0x7E3 JUMPI DUP3 SWAP1 SUB PUSH1 0x1F AND DUP3 ADD SWAP2 JUMPDEST POP POP POP SWAP2 DUP4 MSTORE POP POP PUSH1 0x3 DUP4 ADD SLOAD PUSH1 0x1 PUSH1 0x1 PUSH1 0xA0 SHL SUB AND PUSH1 0x20 DUP3 ADD MSTORE PUSH1 0x4 DUP4 ADD SLOAD PUSH1 0x40 DUP3 ADD MSTORE PUSH1 0x5 DUP4 ADD SLOAD PUSH1 0xFF AND ISZERO ISZERO PUSH1 0x60 DUP3 ADD MSTORE PUSH1 0x7 DUP4 ADD SLOAD PUSH1 0x80 SWAP1 SWAP2 ADD MSTORE DUP5 MLOAD DUP6 SWAP1 DUP6 SWAP1 DUP2 LT PUSH2 0x853 JUMPI PUSH2 0x853 PUSH2 0x270B JUMP JUMPDEST PUSH1 0x20 MUL PUSH1 0x20 ADD ADD DUP2 SWAP1 MSTORE POP DUP3 DUP1 PUSH2 0x869 SWAP1 PUSH2 0x2737 JUMP JUMPDEST SWAP4 POP POP JUMPDEST POP DUP1 PUSH2 0x878 DUP2 PUSH2 0x2737 JUMP JUMPDEST SWAP2 POP POP PUSH2 0x683 JUMP JUMPDEST POP SWAP1 SWAP4 SWAP3 POP POP POP JUMP JUMPDEST PUSH1 0x0 DUP3 DUP2 MSTORE PUSH1 0x2 PUSH1 0x20 MSTORE PUSH1 0x40 SWAP1 KECCAK256 PUSH1 0x8 DUP2 ADD SLOAD PUSH1 0xFF AND PUSH2 0x8BC JUMPI PUSH1 0x40 MLOAD PUSH4 0x14EDA09B PUSH1 0xE0 SHL DUP2 MSTORE PUSH1 0x4 ADD PUSH1 0x40 MLOAD DUP1 SWAP2 SUB SWAP1 REVERT JUMPDEST PUSH2 0x8C6 DUP4 CALLER PUSH2 0x1B69 JUMP JUMPDEST PUSH2 0x8E3 JUMPI PUSH1 0x40 MLOAD PUSH4 0xEA8E4EB5 PUSH1 0xE0 SHL DUP2 MSTORE PUSH1 0x4 ADD PUSH1 0x40 MLOAD DUP1 SWAP2 SUB SWAP1 REVERT JUMPDEST DUP2 PUSH1 0x40 MLOAD PUSH1 0x20 ADD PUSH2 0x8F4 SWAP2 SWAP1 PUSH2 0x26EF JUMP JUMPDEST PUSH1 0x40 DUP1 MLOAD PUSH1 0x1F NOT DUP2 DUP5 SUB ADD DUP2 MSTORE SWAP1 DUP3 SWAP1 MSTORE DUP1 MLOAD PUSH1 0x20 SWAP1 SWAP2 ADD KECCAK256 PUSH1 0x6 DUP4 ADD SSTORE DUP4 SWAP1 PUSH32 0x1D7A0FC689E98A2EFF533A6762FA7D544D23EC369C6F0956339257C3054ED602 SWAP1 PUSH1 0x0 SWAP1 LOG2 POP POP POP JUMP JUMPDEST PUSH2 0x947 PUSH2 0x1BE3 JUMP JUMPDEST PUSH1 0x0 DUP3 DUP2 MSTORE PUSH1 0x2 PUSH1 0x20 MSTORE PUSH1 0x40 SWAP1 KECCAK256 PUSH1 0x8 DUP2 ADD SLOAD PUSH1 0xFF AND PUSH2 0x97A JUMPI PUSH1 0x40 MLOAD PUSH4 0x14EDA09B PUSH1 0xE0 SHL DUP2 MSTORE PUSH1 0x4 ADD PUSH1 0x40 MLOAD DUP1 SWAP2 SUB SWAP1 REVERT JUMPDEST PUSH1 0x0 DUP4 DUP2 MSTORE PUSH1 0x3 PUSH1 0x20 SWAP1 DUP2 MSTORE PUSH1 0x40 DUP1 DUP4 KECCAK256 CALLER DUP5 MSTORE SWAP1 SWAP2 MSTORE SWAP1 KECCAK256 PUSH1 0x2 ADD SLOAD PUSH2 0x100 SWAP1 DIV PUSH1 0xFF AND ISZERO PUSH2 0x9BD JUMPI PUSH1 0x40 MLOAD PUSH4 0x40803A5F PUSH1 0xE1 SHL DUP2 MSTORE PUSH1 0x4 ADD PUSH1 0x40 MLOAD DUP1 SWAP2 SUB SWAP1 REVERT JUMPDEST PUSH1 0x0 DUP3 PUSH1 0x40 MLOAD PUSH1 0x20 ADD PUSH2 0x9D0 SWAP2 SWAP1 PUSH2 0x26EF JUMP JUMPDEST PUSH1 0x40 MLOAD PUSH1 0x20 DUP2 DUP4 SUB SUB DUP2 MSTORE SWAP1 PUSH1 0x40 MSTORE DUP1 MLOAD SWAP1 PUSH1 0x20 ADD KECCAK256 SWAP1 POP DUP1 DUP3 PUSH1 0x6 ADD SLOAD EQ PUSH2 0xA0C JUMPI PUSH1 0x40 MLOAD PUSH4 0x3B19367B PUSH1 0xE0 SHL DUP2 MSTORE PUSH1 0x4 ADD PUSH1 0x40 MLOAD DUP1 SWAP2 SUB SWAP1 REVERT JUMPDEST PUSH2 0xA18 DUP5 CALLER PUSH1 0x0 PUSH2 0x1C0D JUMP JUMPDEST POP POP PUSH2 0xA23 PUSH1 0x1 DUP1 SSTORE JUMP JUMPDEST POP POP JUMP JUMPDEST PUSH2 0xA2F PUSH2 0x1BE3 JUMP JUMPDEST PUSH1 0x0 DUP2 DUP2 MSTORE PUSH1 0x2 PUSH1 0x20 MSTORE PUSH1 0x40 SWAP1 KECCAK256 PUSH1 0x8 DUP2 ADD SLOAD PUSH1 0xFF AND PUSH2 0xA62 JUMPI PUSH1 0x40 MLOAD PUSH4 0x14EDA09B PUSH1 0xE0 SHL DUP2 MSTORE PUSH1 0x4 ADD PUSH1 0x40 MLOAD DUP1 SWAP2 SUB SWAP1 REVERT JUMPDEST PUSH1 0x3 DUP2 ADD SLOAD PUSH1 0x1 PUSH1 0x1 PUSH1 0xA0 SHL SUB AND CALLER EQ PUSH2 0xA8F JUMPI PUSH1 0x40 MLOAD PUSH4 0xEA8E4EB5 PUSH1 0xE0 SHL DUP2 MSTORE PUSH1 0x4 ADD PUSH1 0x40 MLOAD DUP1 SWAP2 SUB SWAP1 REVERT JUMPDEST PUSH1 0x0 DUP3 DUP2 MSTORE PUSH1 0x4 PUSH1 0x20 SWAP1 DUP2 MSTORE PUSH1 0x40 DUP1 DUP4 KECCAK256 DUP1 SLOAD DUP3 MLOAD DUP2 DUP6 MUL DUP2 ADD DUP6 ADD SWAP1 SWAP4 MSTORE DUP1 DUP4 MSTORE SWAP2 SWAP3 SWAP1 SWAP2 SWAP1 DUP4 ADD DUP3 DUP3 DUP1 ISZERO PUSH2 0xAEF JUMPI PUSH1 0x20 MUL DUP3 ADD SWAP2 SWAP1 PUSH1 0x0 MSTORE PUSH1 0x20 PUSH1 0x0 KECCAK256 SWAP1 JUMPDEST DUP2 SLOAD PUSH1 0x1 PUSH1 0x1 PUSH1 0xA0 SHL SUB AND DUP2 MSTORE PUSH1 0x1 SWAP1 SWAP2 ADD SWAP1 PUSH1 0x20 ADD DUP1 DUP4 GT PUSH2 0xAD1 JUMPI JUMPDEST POP POP POP POP POP SWAP1 POP PUSH1 0x0 JUMPDEST DUP2 MLOAD DUP2 LT ISZERO PUSH2 0xC4D JUMPI PUSH1 0x0 DUP3 DUP3 DUP2 MLOAD DUP2 LT PUSH2 0xB16 JUMPI PUSH2 0xB16 PUSH2 0x270B JUMP JUMPDEST PUSH1 0x20 SWAP1 DUP2 MUL SWAP2 SWAP1 SWAP2 ADD DUP2 ADD MLOAD PUSH1 0x1 PUSH1 0x1 PUSH1 0xA0 SHL SUB DUP2 AND PUSH1 0x0 SWAP1 DUP2 MSTORE PUSH1 0x5 SWAP1 SWAP3 MSTORE PUSH1 0x40 DUP3 KECCAK256 SWAP1 SWAP3 POP SWAP1 JUMPDEST DUP2 SLOAD DUP2 LT ISZERO PUSH2 0xBF3 JUMPI DUP7 DUP3 DUP3 DUP2 SLOAD DUP2 LT PUSH2 0xB5B JUMPI PUSH2 0xB5B PUSH2 0x270B JUMP JUMPDEST SWAP1 PUSH1 0x0 MSTORE PUSH1 0x20 PUSH1 0x0 KECCAK256 ADD SLOAD SUB PUSH2 0xBE1 JUMPI DUP2 SLOAD DUP3 SWAP1 PUSH2 0xB7B SWAP1 PUSH1 0x1 SWAP1 PUSH2 0x2750 JUMP JUMPDEST DUP2 SLOAD DUP2 LT PUSH2 0xB8B JUMPI PUSH2 0xB8B PUSH2 0x270B JUMP JUMPDEST SWAP1 PUSH1 0x0 MSTORE PUSH1 0x20 PUSH1 0x0 KECCAK256 ADD SLOAD DUP3 DUP3 DUP2 SLOAD DUP2 LT PUSH2 0xBA8 JUMPI PUSH2 0xBA8 PUSH2 0x270B JUMP JUMPDEST SWAP1 PUSH1 0x0 MSTORE PUSH1 0x20 PUSH1 0x0 KECCAK256 ADD DUP2 SWAP1 SSTORE POP DUP2 DUP1 SLOAD DUP1 PUSH2 0xBC6 JUMPI PUSH2 0xBC6 PUSH2 0x2763 JUMP JUMPDEST PUSH1 0x1 SWAP1 SUB DUP2 DUP2 SWAP1 PUSH1 0x0 MSTORE PUSH1 0x20 PUSH1 0x0 KECCAK256 ADD PUSH1 0x0 SWAP1 SSTORE SWAP1 SSTORE PUSH2 0xBF3 JUMP JUMPDEST DUP1 PUSH2 0xBEB DUP2 PUSH2 0x2737 JUMP JUMPDEST SWAP2 POP POP PUSH2 0xB3F JUMP JUMPDEST POP POP PUSH1 0x0 DUP6 DUP2 MSTORE PUSH1 0x3 PUSH1 0x20 SWAP1 DUP2 MSTORE PUSH1 0x40 DUP1 DUP4 KECCAK256 PUSH1 0x1 PUSH1 0x1 PUSH1 0xA0 SHL SUB SWAP1 SWAP5 AND DUP4 MSTORE SWAP3 SWAP1 MSTORE SWAP1 DUP2 KECCAK256 DUP1 SLOAD PUSH1 0x1 PUSH1 0x1 PUSH1 0xA0 SHL SUB NOT AND DUP2 SSTORE PUSH1 0x1 DUP2 ADD SWAP2 SWAP1 SWAP2 SSTORE PUSH1 0x2 ADD DUP1 SLOAD PUSH2 0xFFFF NOT AND SWAP1 SSTORE DUP1 PUSH2 0xC45 DUP2 PUSH2 0x2737 JUMP JUMPDEST SWAP2 POP POP PUSH2 0xAF9 JUMP JUMPDEST POP PUSH1 0x0 DUP4 DUP2 MSTORE PUSH1 0x4 PUSH1 0x20 MSTORE PUSH1 0x40 DUP2 KECCAK256 PUSH2 0xC65 SWAP2 PUSH2 0x20D0 JUMP JUMPDEST PUSH1 0x0 JUMPDEST PUSH1 0x7 SLOAD DUP2 LT ISZERO PUSH2 0xD1E JUMPI DUP4 PUSH1 0x7 DUP3 DUP2 SLOAD DUP2 LT PUSH2 0xC86 JUMPI PUSH2 0xC86 PUSH2 0x270B JUMP JUMPDEST SWAP1 PUSH1 0x0 MSTORE PUSH1 0x20 PUSH1 0x0 KECCAK256 ADD SLOAD SUB PUSH2 0xD0C JUMPI PUSH1 0x7 DUP1 SLOAD PUSH2 0xCA6 SWAP1 PUSH1 0x1 SWAP1 PUSH2 0x2750 JUMP JUMPDEST DUP2 SLOAD DUP2 LT PUSH2 0xCB6 JUMPI PUSH2 0xCB6 PUSH2 0x270B JUMP JUMPDEST SWAP1 PUSH1 0x0 MSTORE PUSH1 0x20 PUSH1 0x0 KECCAK256 ADD SLOAD PUSH1 0x7 DUP3 DUP2 SLOAD DUP2 LT PUSH2 0xCD4 JUMPI PUSH2 0xCD4 PUSH2 0x270B JUMP JUMPDEST PUSH1 0x0 SWAP2 DUP3 MSTORE PUSH1 0x20 SWAP1 SWAP2 KECCAK256 ADD SSTORE PUSH1 0x7 DUP1 SLOAD DUP1 PUSH2 0xCF1 JUMPI PUSH2 0xCF1 PUSH2 0x2763 JUMP JUMPDEST PUSH1 0x1 SWAP1 SUB DUP2 DUP2 SWAP1 PUSH1 0x0 MSTORE PUSH1 0x20 PUSH1 0x0 KECCAK256 ADD PUSH1 0x0 SWAP1 SSTORE SWAP1 SSTORE PUSH2 0xD1E JUMP JUMPDEST DUP1 PUSH2 0xD16 DUP2 PUSH2 0x2737 JUMP JUMPDEST SWAP2 POP POP PUSH2 0xC68 JUMP JUMPDEST POP PUSH1 0x8 DUP3 ADD DUP1 SLOAD PUSH1 0xFF NOT AND SWAP1 SSTORE PUSH1 0x6 DUP1 SLOAD SWAP1 PUSH1 0x0 PUSH2 0xD3B DUP4 PUSH2 0x2779 JUMP JUMPDEST SWAP1 SWAP2 SSTORE POP POP PUSH1 0x40 MLOAD CALLER SWAP1 DUP5 SWAP1 PUSH32 0x6A0026270FDE81F1D448445876272B7A8BCA1A593176466BD3075AE1B70DDF6C SWAP1 PUSH1 0x0 SWAP1 LOG3 POP POP PUSH2 0xD78 PUSH1 0x1 DUP1 SSTORE JUMP JUMPDEST POP JUMP JUMPDEST PUSH2 0xD83 PUSH2 0x2085 JUMP JUMPDEST PUSH1 0x0 DUP3 DUP2 MSTORE PUSH1 0x2 PUSH1 0x20 MSTORE PUSH1 0x40 SWAP1 KECCAK256 PUSH1 0x8 DUP2 ADD SLOAD PUSH1 0xFF AND PUSH2 0xDB6 JUMPI PUSH1 0x40 MLOAD PUSH4 0x14EDA09B PUSH1 0xE0 SHL DUP2 MSTORE PUSH1 0x4 ADD PUSH1 0x40 MLOAD DUP1 SWAP2 SUB SWAP1 REVERT JUMPDEST PUSH1 0x40 MLOAD DUP1 PUSH1 0xE0 ADD PUSH1 0x40 MSTORE DUP1 DUP3 PUSH1 0x0 ADD SLOAD DUP2 MSTORE PUSH1 0x20 ADD DUP3 PUSH1 0x1 ADD DUP1 SLOAD PUSH2 0xDDA SWAP1 PUSH2 0x26B5 JUMP JUMPDEST DUP1 PUSH1 0x1F ADD PUSH1 0x20 DUP1 SWAP2 DIV MUL PUSH1 0x20 ADD PUSH1 0x40 MLOAD SWAP1 DUP2 ADD PUSH1 0x40 MSTORE DUP1 SWAP3 SWAP2 SWAP1 DUP2 DUP2 MSTORE PUSH1 0x20 ADD DUP3 DUP1 SLOAD PUSH2 0xE06 SWAP1 PUSH2 0x26B5 JUMP JUMPDEST DUP1 ISZERO PUSH2 0xE53 JUMPI DUP1 PUSH1 0x1F LT PUSH2 0xE28 JUMPI PUSH2 0x100 DUP1 DUP4 SLOAD DIV MUL DUP4 MSTORE SWAP2 PUSH1 0x20 ADD SWAP2 PUSH2 0xE53 JUMP JUMPDEST DUP3 ADD SWAP2 SWAP1 PUSH1 0x0 MSTORE PUSH1 0x20 PUSH1 0x0 KECCAK256 SWAP1 JUMPDEST DUP2 SLOAD DUP2 MSTORE SWAP1 PUSH1 0x1 ADD SWAP1 PUSH1 0x20 ADD DUP1 DUP4 GT PUSH2 0xE36 JUMPI DUP3 SWAP1 SUB PUSH1 0x1F AND DUP3 ADD SWAP2 JUMPDEST POP POP POP POP POP DUP2 MSTORE PUSH1 0x20 ADD DUP3 PUSH1 0x2 ADD DUP1 SLOAD PUSH2 0xE6C SWAP1 PUSH2 0x26B5 JUMP JUMPDEST DUP1 PUSH1 0x1F ADD PUSH1 0x20 DUP1 SWAP2 DIV MUL PUSH1 0x20 ADD PUSH1 0x40 MLOAD SWAP1 DUP2 ADD PUSH1 0x40 MSTORE DUP1 SWAP3 SWAP2 SWAP1 DUP2 DUP2 MSTORE PUSH1 0x20 ADD DUP3 DUP1 SLOAD PUSH2 0xE98 SWAP1 PUSH2 0x26B5 JUMP JUMPDEST DUP1 ISZERO PUSH2 0xEE5 JUMPI DUP1 PUSH1 0x1F LT PUSH2 0xEBA JUMPI PUSH2 0x100 DUP1 DUP4 SLOAD DIV MUL DUP4 MSTORE SWAP2 PUSH1 0x20 ADD SWAP2 PUSH2 0xEE5 JUMP JUMPDEST DUP3 ADD SWAP2 SWAP1 PUSH1 0x0 MSTORE PUSH1 0x20 PUSH1 0x0 KECCAK256 SWAP1 JUMPDEST DUP2 SLOAD DUP2 MSTORE SWAP1 PUSH1 0x1 ADD SWAP1 PUSH1 0x20 ADD DUP1 DUP4 GT PUSH2 0xEC8 JUMPI DUP3 SWAP1 SUB PUSH1 0x1F AND DUP3 ADD SWAP2 JUMPDEST POP POP POP SWAP2 DUP4 MSTORE POP POP PUSH1 0x3 DUP4 ADD SLOAD PUSH1 0x1 PUSH1 0x1 PUSH1 0xA0 SHL SUB AND PUSH1 0x20 DUP3 ADD MSTORE PUSH1 0x4 DUP4 ADD SLOAD PUSH1 0x40 DUP3 ADD MSTORE PUSH1 0x5 DUP4 ADD SLOAD PUSH1 0xFF AND ISZERO ISZERO PUSH1 0x60 DUP3 ADD MSTORE PUSH1 0x7 SWAP1 SWAP3 ADD SLOAD PUSH1 0x80 SWAP1 SWAP3 ADD SWAP2 SWAP1 SWAP2 MSTORE SWAP3 SWAP2 POP POP JUMP JUMPDEST PUSH2 0xF36 PUSH2 0x1BE3 JUMP JUMPDEST PUSH1 0x0 DUP2 DUP2 MSTORE PUSH1 0x2 PUSH1 0x20 MSTORE PUSH1 0x40 SWAP1 KECCAK256 PUSH1 0x8 DUP2 ADD SLOAD PUSH1 0xFF AND PUSH2 0xF69 JUMPI PUSH1 0x40 MLOAD PUSH4 0x14EDA09B PUSH1 0xE0 SHL DUP2 MSTORE PUSH1 0x4 ADD PUSH1 0x40 MLOAD DUP1 SWAP2 SUB SWAP1 REVERT JUMPDEST PUSH1 0x0 DUP3 DUP2 MSTORE PUSH1 0x3 PUSH1 0x20 SWAP1 DUP2 MSTORE PUSH1 0x40 DUP1 DUP4 KECCAK256 CALLER DUP5 MSTORE SWAP1 SWAP2 MSTORE SWAP1 KECCAK256 PUSH1 0x2 ADD SLOAD PUSH2 0x100 SWAP1 DIV PUSH1 0xFF AND PUSH2 0xFAB JUMPI PUSH1 0x40 MLOAD PUSH4 0x148FE221 PUSH1 0xE1 SHL DUP2 MSTORE PUSH1 0x4 ADD PUSH1 0x40 MLOAD DUP1 SWAP2 SUB SWAP1 REVERT JUMPDEST PUSH1 0x3 DUP2 ADD SLOAD CALLER PUSH1 0x1 PUSH1 0x1 PUSH1 0xA0 SHL SUB SWAP1 SWAP2 AND SUB PUSH2 0xFDA JUMPI PUSH1 0x40 MLOAD PUSH4 0xBBB43C4D PUSH1 0xE0 SHL DUP2 MSTORE PUSH1 0x4 ADD PUSH1 0x40 MLOAD DUP1 SWAP2 SUB SWAP1 REVERT JUMPDEST PUSH2 0xFE4 DUP3 CALLER PUSH2 0x1D85 JUMP JUMPDEST POP PUSH2 0xD78 PUSH1 0x1 DUP1 SSTORE JUMP JUMPDEST PUSH2 0xFF6 PUSH2 0x2008 JUMP JUMPDEST PUSH2 0x1000 PUSH1 0x0 PUSH2 0x2035 JUMP JUMPDEST JUMP JUMPDEST PUSH1 0x0 DUP4 DUP2 MSTORE PUSH1 0x2 PUSH1 0x20 MSTORE PUSH1 0x40 SWAP1 KECCAK256 PUSH1 0x8 DUP2 ADD SLOAD PUSH1 0xFF AND PUSH2 0x1035 JUMPI PUSH1 0x40 MLOAD PUSH4 0x14EDA09B PUSH1 0xE0 SHL DUP2 MSTORE PUSH1 0x4 ADD PUSH1 0x40 MLOAD DUP1 SWAP2 SUB SWAP1 REVERT JUMPDEST PUSH1 0x3 DUP2 ADD SLOAD PUSH1 0x1 PUSH1 0x1 PUSH1 0xA0 SHL SUB AND CALLER EQ PUSH2 0x1062 JUMPI PUSH1 0x40 MLOAD PUSH4 0xEA8E4EB5 PUSH1 0xE0 SHL DUP2 MSTORE PUSH1 0x4 ADD PUSH1 0x40 MLOAD DUP1 SWAP2 SUB SWAP1 REVERT JUMPDEST PUSH1 0x0 DUP5 DUP2 MSTORE PUSH1 0x3 PUSH1 0x20 SWAP1 DUP2 MSTORE PUSH1 0x40 DUP1 DUP4 KECCAK256 PUSH1 0x1 PUSH1 0x1 PUSH1 0xA0 SHL SUB DUP8 AND DUP5 MSTORE SWAP1 SWAP2 MSTORE SWAP1 KECCAK256 PUSH1 0x2 ADD SLOAD PUSH2 0x100 SWAP1 DIV PUSH1 0xFF AND PUSH2 0x10AD JUMPI PUSH1 0x40 MLOAD PUSH4 0x148FE221 PUSH1 0xE1 SHL DUP2 MSTORE PUSH1 0x4 ADD PUSH1 0x40 MLOAD DUP1 SWAP2 SUB SWAP1 REVERT JUMPDEST PUSH1 0x2 DUP3 PUSH1 0x2 DUP2 GT ISZERO PUSH2 0x10C1 JUMPI PUSH2 0x10C1 PUSH2 0x230B JUMP JUMPDEST SUB PUSH2 0x10DF JUMPI PUSH1 0x40 MLOAD PUSH4 0xEA8E4EB5 PUSH1 0xE0 SHL DUP2 MSTORE PUSH1 0x4 ADD PUSH1 0x40 MLOAD DUP1 SWAP2 SUB SWAP1 REVERT JUMPDEST PUSH1 0x0 DUP5 DUP2 MSTORE PUSH1 0x3 PUSH1 0x20 SWAP1 DUP2 MSTORE PUSH1 0x40 DUP1 DUP4 KECCAK256 PUSH1 0x1 PUSH1 0x1 PUSH1 0xA0 SHL SUB DUP8 AND DUP5 MSTORE SWAP1 SWAP2 MSTORE SWAP1 KECCAK256 PUSH1 0x2 SWAP1 DUP2 ADD DUP1 SLOAD DUP5 SWAP3 PUSH1 0xFF NOT SWAP1 SWAP2 AND SWAP1 PUSH1 0x1 SWAP1 DUP5 SWAP1 DUP2 GT ISZERO PUSH2 0x1125 JUMPI PUSH2 0x1125 PUSH2 0x230B JUMP JUMPDEST MUL OR SWAP1 SSTORE POP DUP3 PUSH1 0x1 PUSH1 0x1 PUSH1 0xA0 SHL SUB AND DUP5 PUSH32 0xB46606D76DF3EFA489FF2A57E8D634E58E920A3C4E311434086B836A008FBFF7 DUP5 PUSH1 0x40 MLOAD PUSH2 0x1164 SWAP2 SWAP1 PUSH2 0x2790 JUMP JUMPDEST PUSH1 0x40 MLOAD DUP1 SWAP2 SUB SWAP1 LOG3 POP POP POP POP JUMP JUMPDEST PUSH1 0x0 DUP3 DUP2 MSTORE PUSH1 0x2 PUSH1 0x20 MSTORE PUSH1 0x40 SWAP1 KECCAK256 PUSH1 0x8 DUP2 ADD SLOAD PUSH1 0xFF AND PUSH2 0x11A5 JUMPI PUSH1 0x40 MLOAD PUSH4 0x14EDA09B PUSH1 0xE0 SHL DUP2 MSTORE PUSH1 0x4 ADD PUSH1 0x40 MLOAD DUP1 SWAP2 SUB SWAP1 REVERT JUMPDEST PUSH2 0x11AF DUP4 CALLER PUSH2 0x1B69 JUMP JUMPDEST PUSH2 0x11CC JUMPI PUSH1 0x40 MLOAD PUSH4 0xEA8E4EB5 PUSH1 0xE0 SHL DUP2 MSTORE PUSH1 0x4 ADD PUSH1 0x40 MLOAD DUP1 SWAP2 SUB SWAP1 REVERT JUMPDEST PUSH1 0x0 DUP4 DUP2 MSTORE PUSH1 0x3 PUSH1 0x20 SWAP1 DUP2 MSTORE PUSH1 0x40 DUP1 DUP4 KECCAK256 PUSH1 0x1 PUSH1 0x1 PUSH1 0xA0 SHL SUB DUP7 AND DUP5 MSTORE SWAP1 SWAP2 MSTORE SWAP1 KECCAK256 PUSH1 0x2 ADD SLOAD PUSH2 0x100 SWAP1 DIV PUSH1 0xFF AND PUSH2 0x1217 JUMPI PUSH1 0x40 MLOAD PUSH4 0x148FE221 PUSH1 0xE1 SHL DUP2 MSTORE PUSH1 0x4 ADD PUSH1 0x40 MLOAD DUP1 SWAP2 SUB SWAP1 REVERT JUMPDEST PUSH1 0x3 DUP2 ADD SLOAD PUSH1 0x1 PUSH1 0x1 PUSH1 0xA0 SHL SUB SWAP1 DUP2 AND SWAP1 DUP4 AND SUB PUSH2 0x1248 JUMPI PUSH1 0x40 MLOAD PUSH4 0xEA8E4EB5 PUSH1 0xE0 SHL DUP2 MSTORE PUSH1 0x4 ADD PUSH1 0x40 MLOAD DUP1 SWAP2 SUB SWAP1 REVERT JUMPDEST PUSH2 0x1252 DUP4 DUP4 PUSH2 0x1D85 JUMP JUMPDEST POP POP POP JUMP JUMPDEST PUSH1 0x40 DUP1 MLOAD PUSH1 0x80 DUP2 ADD DUP3 MSTORE PUSH1 0x0 DUP1 DUP3 MSTORE PUSH1 0x20 DUP3 ADD DUP2 SWAP1 MSTORE SWAP2 DUP2 ADD DUP3 SWAP1 MSTORE PUSH1 0x60 DUP2 ADD SWAP2 SWAP1 SWAP2 MSTORE PUSH1 0x0 DUP4 DUP2 MSTORE PUSH1 0x2 PUSH1 0x20 MSTORE PUSH1 0x40 SWAP1 KECCAK256 PUSH1 0x8 ADD SLOAD PUSH1 0xFF AND PUSH2 0x12AD JUMPI PUSH1 0x40 MLOAD PUSH4 0x14EDA09B PUSH1 0xE0 SHL DUP2 MSTORE PUSH1 0x4 ADD PUSH1 0x40 MLOAD DUP1 SWAP2 SUB SWAP1 REVERT JUMPDEST PUSH1 0x0 DUP4 DUP2 MSTORE PUSH1 0x3 PUSH1 0x20 SWAP1 DUP2 MSTORE PUSH1 0x40 DUP1 DUP4 KECCAK256 PUSH1 0x1 PUSH1 0x1 PUSH1 0xA0 SHL SUB DUP1 DUP8 AND DUP6 MSTORE SWAP1 DUP4 MSTORE SWAP3 DUP2 SWAP1 KECCAK256 DUP2 MLOAD PUSH1 0x80 DUP2 ADD DUP4 MSTORE DUP2 SLOAD SWAP1 SWAP5 AND DUP5 MSTORE PUSH1 0x1 DUP2 ADD SLOAD SWAP3 DUP5 ADD SWAP3 SWAP1 SWAP3 MSTORE PUSH1 0x2 DUP1 DUP4 ADD SLOAD SWAP2 DUP5 ADD SWAP2 PUSH1 0xFF AND SWAP1 DUP2 GT ISZERO PUSH2 0x130A JUMPI PUSH2 0x130A PUSH2 0x230B JUMP JUMPDEST PUSH1 0x2 DUP2 GT ISZERO PUSH2 0x131B JUMPI PUSH2 0x131B PUSH2 0x230B JUMP JUMPDEST DUP2 MSTORE PUSH1 0x2 SWAP2 SWAP1 SWAP2 ADD SLOAD PUSH2 0x100 SWAP1 DIV PUSH1 0xFF AND ISZERO ISZERO PUSH1 0x20 SWAP1 SWAP2 ADD MSTORE SWAP4 SWAP3 POP POP POP JUMP JUMPDEST PUSH1 0x0 DUP2 DUP2 MSTORE PUSH1 0x2 PUSH1 0x20 MSTORE PUSH1 0x40 SWAP1 KECCAK256 PUSH1 0x8 ADD SLOAD PUSH1 0x60 SWAP1 PUSH1 0xFF AND PUSH2 0x1370 JUMPI PUSH1 0x40 MLOAD PUSH4 0x14EDA09B PUSH1 0xE0 SHL DUP2 MSTORE PUSH1 0x4 ADD PUSH1 0x40 MLOAD DUP1 SWAP2 SUB SWAP1 REVERT JUMPDEST PUSH1 0x0 DUP3 DUP2 MSTORE PUSH1 0x4 PUSH1 0x20 SWAP1 DUP2 MSTORE PUSH1 0x40 SWAP2 DUP3 SWAP1 KECCAK256 DUP1 SLOAD DUP4 MLOAD DUP2 DUP5 MUL DUP2 ADD DUP5 ADD SWAP1 SWAP5 MSTORE DUP1 DUP5 MSTORE SWAP1 SWAP2 DUP4 ADD DUP3 DUP3 DUP1 ISZERO PUSH2 0x13CE JUMPI PUSH1 0x20 MUL DUP3 ADD SWAP2 SWAP1 PUSH1 0x0 MSTORE PUSH1 0x20 PUSH1 0x0 KECCAK256 SWAP1 JUMPDEST DUP2 SLOAD PUSH1 0x1 PUSH1 0x1 PUSH1 0xA0 SHL SUB AND DUP2 MSTORE PUSH1 0x1 SWAP1 SWAP2 ADD SWAP1 PUSH1 0x20 ADD DUP1 DUP4 GT PUSH2 0x13B0 JUMPI JUMPDEST POP POP POP POP POP SWAP1 POP SWAP2 SWAP1 POP JUMP JUMPDEST PUSH1 0x0 DUP5 DUP2 MSTORE PUSH1 0x2 PUSH1 0x20 MSTORE PUSH1 0x40 SWAP1 KECCAK256 PUSH1 0x8 DUP2 ADD SLOAD PUSH1 0xFF AND PUSH2 0x140D JUMPI PUSH1 0x40 MLOAD PUSH4 0x14EDA09B PUSH1 0xE0 SHL DUP2 MSTORE PUSH1 0x4 ADD PUSH1 0x40 MLOAD DUP1 SWAP2 SUB SWAP1 REVERT JUMPDEST PUSH1 0x3 DUP2 ADD SLOAD PUSH1 0x1 PUSH1 0x1 PUSH1 0xA0 SHL SUB AND CALLER EQ PUSH2 0x143A JUMPI PUSH1 0x40 MLOAD PUSH4 0xEA8E4EB5 PUSH1 0xE0 SHL DUP2 MSTORE PUSH1 0x4 ADD PUSH1 0x40 MLOAD DUP1 SWAP2 SUB SWAP1 REVERT JUMPDEST DUP4 MLOAD ISZERO DUP1 PUSH2 0x1449 JUMPI POP PUSH1 0x64 DUP5 MLOAD GT JUMPDEST ISZERO PUSH2 0x1467 JUMPI PUSH1 0x40 MLOAD PUSH4 0x430F13B3 PUSH1 0xE0 SHL DUP2 MSTORE PUSH1 0x4 ADD PUSH1 0x40 MLOAD DUP1 SWAP2 SUB SWAP1 REVERT JUMPDEST PUSH1 0x1 DUP2 ADD PUSH2 0x1475 DUP6 DUP3 PUSH2 0x27EC JUMP JUMPDEST POP PUSH1 0x2 DUP2 ADD PUSH2 0x1484 DUP5 DUP3 PUSH2 0x27EC JUMP JUMPDEST POP PUSH1 0x5 DUP2 ADD DUP1 SLOAD PUSH1 0xFF NOT AND DUP4 ISZERO ISZERO OR SWAP1 SSTORE PUSH1 0x40 MLOAD DUP6 SWAP1 PUSH32 0x3734F76C2D86C2DB4DD304B6BD8734EAFC526C66A7673BD524987FFBE8C0B9EA SWAP1 PUSH2 0x14C9 SWAP1 DUP8 SWAP1 DUP8 SWAP1 PUSH2 0x28AC JUMP JUMPDEST PUSH1 0x40 MLOAD DUP1 SWAP2 SUB SWAP1 LOG2 POP POP POP POP POP JUMP JUMPDEST PUSH2 0x14E0 PUSH2 0x1BE3 JUMP JUMPDEST PUSH1 0x0 DUP2 DUP2 MSTORE PUSH1 0x2 PUSH1 0x20 MSTORE PUSH1 0x40 SWAP1 KECCAK256 PUSH1 0x8 DUP2 ADD SLOAD PUSH1 0xFF AND PUSH2 0x1513 JUMPI PUSH1 0x40 MLOAD PUSH4 0x14EDA09B PUSH1 0xE0 SHL DUP2 MSTORE PUSH1 0x4 ADD PUSH1 0x40 MLOAD DUP1 SWAP2 SUB SWAP1 REVERT JUMPDEST PUSH1 0x5 DUP2 ADD SLOAD PUSH1 0xFF AND PUSH2 0x1538 JUMPI PUSH1 0x40 MLOAD PUSH4 0xE63EC665 PUSH1 0xE0 SHL DUP2 MSTORE PUSH1 0x4 ADD PUSH1 0x40 MLOAD DUP1 SWAP2 SUB SWAP1 REVERT JUMPDEST PUSH1 0x0 DUP3 DUP2 MSTORE PUSH1 0x3 PUSH1 0x20 SWAP1 DUP2 MSTORE PUSH1 0x40 DUP1 DUP4 KECCAK256 CALLER DUP5 MSTORE SWAP1 SWAP2 MSTORE SWAP1 KECCAK256 PUSH1 0x2 ADD SLOAD PUSH2 0x100 SWAP1 DIV PUSH1 0xFF AND ISZERO PUSH2 0x157B JUMPI PUSH1 0x40 MLOAD PUSH4 0x40803A5F PUSH1 0xE1 SHL DUP2 MSTORE PUSH1 0x4 ADD PUSH1 0x40 MLOAD DUP1 SWAP2 SUB SWAP1 REVERT JUMPDEST PUSH2 0xFE4 DUP3 CALLER PUSH1 0x0 PUSH2 0x1C0D JUMP JUMPDEST PUSH1 0x1 PUSH1 0x1 PUSH1 0xA0 SHL SUB DUP2 AND PUSH1 0x0 SWAP1 DUP2 MSTORE PUSH1 0x5 PUSH1 0x20 SWAP1 DUP2 MSTORE PUSH1 0x40 SWAP2 DUP3 SWAP1 KECCAK256 DUP1 SLOAD DUP4 MLOAD DUP2 DUP5 MUL DUP2 ADD DUP5 ADD SWAP1 SWAP5 MSTORE DUP1 DUP5 MSTORE PUSH1 0x60 SWAP4 SWAP3 DUP4 ADD DUP3 DUP3 DUP1 ISZERO PUSH2 0x13CE JUMPI PUSH1 0x20 MUL DUP3 ADD SWAP2 SWAP1 PUSH1 0x0 MSTORE PUSH1 0x20 PUSH1 0x0 KECCAK256 SWAP1 JUMPDEST DUP2 SLOAD DUP2 MSTORE PUSH1 0x20 ADD SWAP1 PUSH1 0x1 ADD SWAP1 DUP1 DUP4 GT PUSH2 0x15D3 JUMPI POP POP POP POP POP SWAP1 POP SWAP2 SWAP1 POP JUMP JUMPDEST PUSH1 0x0 PUSH2 0x15FC PUSH2 0x1BE3 JUMP JUMPDEST DUP5 MLOAD ISZERO DUP1 PUSH2 0x160B JUMPI POP PUSH1 0x64 DUP6 MLOAD GT JUMPDEST ISZERO PUSH2 0x1629 JUMPI PUSH1 0x40 MLOAD PUSH4 0x430F13B3 PUSH1 0xE0 SHL DUP2 MSTORE PUSH1 0x4 ADD PUSH1 0x40 MLOAD DUP1 SWAP2 SUB SWAP1 REVERT JUMPDEST PUSH1 0x6 SLOAD PUSH1 0x40 MLOAD PUSH2 0x1641 SWAP2 CALLER SWAP2 DUP9 SWAP2 TIMESTAMP SWAP2 PUSH1 0x20 ADD PUSH2 0x28DA JUMP JUMPDEST PUSH1 0x40 DUP1 MLOAD PUSH1 0x1F NOT DUP2 DUP5 SUB ADD DUP2 MSTORE SWAP2 DUP2 MSTORE DUP2 MLOAD PUSH1 0x20 SWAP3 DUP4 ADD KECCAK256 PUSH1 0x0 DUP2 DUP2 MSTORE PUSH1 0x2 SWAP1 SWAP4 MSTORE SWAP2 KECCAK256 PUSH1 0x8 ADD SLOAD SWAP1 SWAP2 POP PUSH1 0xFF AND ISZERO PUSH2 0x168D JUMPI PUSH1 0x40 MLOAD PUSH4 0x191DBE8D PUSH1 0xE2 SHL DUP2 MSTORE PUSH1 0x4 ADD PUSH1 0x40 MLOAD DUP1 SWAP2 SUB SWAP1 REVERT JUMPDEST PUSH1 0x0 DUP4 ISZERO DUP1 ISZERO PUSH2 0x169E JUMPI POP PUSH1 0x0 DUP4 MLOAD GT JUMPDEST ISZERO PUSH2 0x16CD JUMPI DUP3 PUSH1 0x40 MLOAD PUSH1 0x20 ADD PUSH2 0x16B4 SWAP2 SWAP1 PUSH2 0x26EF JUMP JUMPDEST PUSH1 0x40 MLOAD PUSH1 0x20 DUP2 DUP4 SUB SUB DUP2 MSTORE SWAP1 PUSH1 0x40 MSTORE DUP1 MLOAD SWAP1 PUSH1 0x20 ADD KECCAK256 SWAP1 POP JUMPDEST PUSH1 0x40 DUP1 MLOAD PUSH2 0x120 DUP2 ADD DUP3 MSTORE DUP4 DUP2 MSTORE PUSH1 0x20 DUP1 DUP3 ADD DUP10 DUP2 MSTORE DUP3 DUP5 ADD DUP10 SWAP1 MSTORE CALLER PUSH1 0x60 DUP5 ADD MSTORE TIMESTAMP PUSH1 0x80 DUP5 ADD MSTORE DUP8 ISZERO ISZERO PUSH1 0xA0 DUP5 ADD MSTORE PUSH1 0xC0 DUP4 ADD DUP6 SWAP1 MSTORE PUSH1 0x1 PUSH1 0xE0 DUP5 ADD DUP2 SWAP1 MSTORE PUSH2 0x100 DUP5 ADD DUP2 SWAP1 MSTORE PUSH1 0x0 DUP8 DUP2 MSTORE PUSH1 0x2 SWAP1 SWAP4 MSTORE SWAP4 SWAP1 SWAP2 KECCAK256 DUP3 MLOAD DUP2 SSTORE SWAP1 MLOAD SWAP2 SWAP3 SWAP1 SWAP2 SWAP1 DUP3 ADD SWAP1 PUSH2 0x173B SWAP1 DUP3 PUSH2 0x27EC JUMP JUMPDEST POP PUSH1 0x40 DUP3 ADD MLOAD PUSH1 0x2 DUP3 ADD SWAP1 PUSH2 0x1750 SWAP1 DUP3 PUSH2 0x27EC JUMP JUMPDEST POP PUSH1 0x60 DUP3 ADD MLOAD PUSH1 0x3 DUP3 ADD DUP1 SLOAD PUSH1 0x1 PUSH1 0x1 PUSH1 0xA0 SHL SUB SWAP1 SWAP3 AND PUSH1 0x1 PUSH1 0x1 PUSH1 0xA0 SHL SUB NOT SWAP1 SWAP3 AND SWAP2 SWAP1 SWAP2 OR SWAP1 SSTORE PUSH1 0x80 DUP1 DUP4 ADD MLOAD PUSH1 0x4 DUP4 ADD SSTORE PUSH1 0xA0 DUP4 ADD MLOAD PUSH1 0x5 DUP4 ADD DUP1 SLOAD SWAP2 ISZERO ISZERO PUSH1 0xFF NOT SWAP3 DUP4 AND OR SWAP1 SSTORE PUSH1 0xC0 DUP5 ADD MLOAD PUSH1 0x6 DUP5 ADD SSTORE PUSH1 0xE0 DUP5 ADD MLOAD PUSH1 0x7 DUP5 ADD SSTORE PUSH2 0x100 SWAP1 SWAP4 ADD MLOAD PUSH1 0x8 SWAP1 SWAP3 ADD DUP1 SLOAD SWAP3 ISZERO ISZERO SWAP3 SWAP1 SWAP4 AND SWAP2 SWAP1 SWAP2 OR SWAP1 SWAP2 SSTORE PUSH1 0x40 DUP1 MLOAD SWAP2 DUP3 ADD DUP2 MSTORE CALLER DUP3 MSTORE TIMESTAMP PUSH1 0x20 DUP4 ADD MSTORE DUP2 ADD PUSH1 0x2 DUP2 MSTORE PUSH1 0x1 PUSH1 0x20 SWAP2 DUP3 ADD DUP2 SWAP1 MSTORE PUSH1 0x0 DUP6 DUP2 MSTORE PUSH1 0x3 DUP4 MSTORE PUSH1 0x40 DUP1 DUP3 KECCAK256 CALLER DUP4 MSTORE DUP5 MSTORE SWAP1 DUP2 SWAP1 KECCAK256 DUP5 MLOAD DUP2 SLOAD PUSH1 0x1 PUSH1 0x1 PUSH1 0xA0 SHL SUB NOT AND PUSH1 0x1 PUSH1 0x1 PUSH1 0xA0 SHL SUB SWAP1 SWAP2 AND OR DUP2 SSTORE SWAP3 DUP5 ADD MLOAD DUP4 DUP4 ADD SSTORE DUP4 ADD MLOAD PUSH1 0x2 DUP1 DUP5 ADD DUP1 SLOAD SWAP3 SWAP4 SWAP1 SWAP3 PUSH1 0xFF NOT AND SWAP2 DUP5 SWAP1 DUP2 GT ISZERO PUSH2 0x184C JUMPI PUSH2 0x184C PUSH2 0x230B JUMP JUMPDEST MUL OR SWAP1 SSTORE POP PUSH1 0x60 SWAP2 SWAP1 SWAP2 ADD MLOAD PUSH1 0x2 SWAP1 SWAP2 ADD DUP1 SLOAD SWAP2 ISZERO ISZERO PUSH2 0x100 MUL PUSH2 0xFF00 NOT SWAP1 SWAP3 AND SWAP2 SWAP1 SWAP2 OR SWAP1 SSTORE PUSH1 0x0 DUP3 DUP2 MSTORE PUSH1 0x4 PUSH1 0x20 SWAP1 DUP2 MSTORE PUSH1 0x40 DUP1 DUP4 KECCAK256 DUP1 SLOAD PUSH1 0x1 DUP2 DUP2 ADD DUP4 SSTORE SWAP2 DUP6 MSTORE DUP4 DUP6 KECCAK256 ADD DUP1 SLOAD PUSH1 0x1 PUSH1 0x1 PUSH1 0xA0 SHL SUB NOT AND CALLER SWAP1 DUP2 OR SWAP1 SWAP2 SSTORE DUP5 MSTORE PUSH1 0x5 DUP4 MSTORE SWAP1 DUP4 KECCAK256 DUP1 SLOAD DUP1 DUP4 ADD DUP3 SSTORE SWAP1 DUP5 MSTORE SWAP2 DUP4 KECCAK256 SWAP1 SWAP2 ADD DUP5 SWAP1 SSTORE PUSH1 0x7 DUP1 SLOAD SWAP2 DUP3 ADD DUP2 SSTORE DUP3 MSTORE PUSH32 0xA66CC928B5EDB82AF9BD49922954155AB7B0942694BEA4CE44661D9A8736C688 ADD DUP4 SWAP1 SSTORE PUSH1 0x6 DUP1 SLOAD SWAP2 PUSH2 0x1901 DUP4 PUSH2 0x2737 JUMP JUMPDEST SWAP2 SWAP1 POP SSTORE POP CALLER PUSH1 0x1 PUSH1 0x1 PUSH1 0xA0 SHL SUB AND DUP3 PUSH32 0x962ECF4A32BA01DF3C5E410513EAE9E79B3012C1EE3FB4DA58F04029BC0D4DE0 DUP9 DUP8 PUSH1 0x40 MLOAD PUSH2 0x1942 SWAP3 SWAP2 SWAP1 PUSH2 0x291E JUMP JUMPDEST PUSH1 0x40 MLOAD DUP1 SWAP2 SUB SWAP1 LOG3 CALLER PUSH1 0x1 PUSH1 0x1 PUSH1 0xA0 SHL SUB AND DUP3 PUSH32 0x257B942A35A44661591F47F52235BBD50EE51F2602B3E7587CC88B0C6B24A411 PUSH1 0x2 PUSH1 0x40 MLOAD PUSH2 0x1985 SWAP2 SWAP1 PUSH2 0x2790 JUMP JUMPDEST PUSH1 0x40 MLOAD DUP1 SWAP2 SUB SWAP1 LOG3 POP PUSH2 0x1997 PUSH1 0x1 DUP1 SSTORE JUMP JUMPDEST SWAP5 SWAP4 POP POP POP POP JUMP JUMPDEST PUSH1 0x0 DUP3 DUP2 MSTORE PUSH1 0x2 PUSH1 0x20 MSTORE PUSH1 0x40 SWAP1 KECCAK256 PUSH1 0x8 DUP2 ADD SLOAD PUSH1 0xFF AND PUSH2 0x19D2 JUMPI PUSH1 0x40 MLOAD PUSH4 0x14EDA09B PUSH1 0xE0 SHL DUP2 MSTORE PUSH1 0x4 ADD PUSH1 0x40 MLOAD DUP1 SWAP2 SUB SWAP1 REVERT JUMPDEST PUSH1 0x3 DUP2 ADD SLOAD PUSH1 0x1 PUSH1 0x1 PUSH1 0xA0 SHL SUB AND CALLER EQ PUSH2 0x19FF JUMPI PUSH1 0x40 MLOAD PUSH4 0xEA8E4EB5 PUSH1 0xE0 SHL DUP2 MSTORE PUSH1 0x4 ADD PUSH1 0x40 MLOAD DUP1 SWAP2 SUB SWAP1 REVERT JUMPDEST PUSH1 0x0 DUP4 DUP2 MSTORE PUSH1 0x3 PUSH1 0x20 SWAP1 DUP2 MSTORE PUSH1 0x40 DUP1 DUP4 KECCAK256 PUSH1 0x1 PUSH1 0x1 PUSH1 0xA0 SHL SUB DUP7 AND DUP5 MSTORE SWAP1 SWAP2 MSTORE SWAP1 KECCAK256 PUSH1 0x2 ADD SLOAD PUSH2 0x100 SWAP1 DIV PUSH1 0xFF AND PUSH2 0x1A4A JUMPI PUSH1 0x40 MLOAD PUSH4 0x148FE221 PUSH1 0xE1 SHL DUP2 MSTORE PUSH1 0x4 ADD PUSH1 0x40 MLOAD DUP1 SWAP2 SUB SWAP1 REVERT JUMPDEST PUSH1 0x0 DUP4 DUP2 MSTORE PUSH1 0x3 PUSH1 0x20 DUP2 DUP2 MSTORE PUSH1 0x40 DUP1 DUP5 KECCAK256 CALLER DUP1 DUP7 MSTORE SWAP3 MSTORE DUP1 DUP5 KECCAK256 PUSH1 0x2 SWAP1 DUP2 ADD DUP1 SLOAD PUSH1 0x1 PUSH1 0xFF NOT SWAP2 DUP3 AND DUP2 OR SWAP1 SWAP3 SSTORE SWAP5 DUP8 ADD DUP1 SLOAD PUSH1 0x1 PUSH1 0x1 PUSH1 0xA0 SHL SUB NOT AND PUSH1 0x1 PUSH1 0x1 PUSH1 0xA0 SHL SUB DUP11 AND SWAP1 DUP2 OR SWAP1 SWAP2 SSTORE DUP7 MSTORE SWAP5 DUP3 SWAP1 KECCAK256 DUP2 ADD DUP1 SLOAD SWAP1 SWAP5 AND OR SWAP1 SWAP3 SSTORE SWAP1 MLOAD SWAP1 SWAP2 DUP6 SWAP2 PUSH32 0xB46606D76DF3EFA489FF2A57E8D634E58E920A3C4E311434086B836A008FBFF7 SWAP2 PUSH2 0x1AD9 SWAP2 PUSH2 0x2790 JUMP JUMPDEST PUSH1 0x40 MLOAD DUP1 SWAP2 SUB SWAP1 LOG3 DUP2 PUSH1 0x1 PUSH1 0x1 PUSH1 0xA0 SHL SUB AND DUP4 PUSH32 0xB46606D76DF3EFA489FF2A57E8D634E58E920A3C4E311434086B836A008FBFF7 PUSH1 0x2 PUSH1 0x40 MLOAD PUSH2 0x1B1C SWAP2 SWAP1 PUSH2 0x2790 JUMP JUMPDEST PUSH1 0x40 MLOAD DUP1 SWAP2 SUB SWAP1 LOG3 POP POP POP JUMP JUMPDEST PUSH2 0x1B31 PUSH2 0x2008 JUMP JUMPDEST PUSH1 0x1 PUSH1 0x1 PUSH1 0xA0 SHL SUB DUP2 AND PUSH2 0x1B60 JUMPI PUSH1 0x40 MLOAD PUSH4 0x1E4FBDF7 PUSH1 0xE0 SHL DUP2 MSTORE PUSH1 0x0 PUSH1 0x4 DUP3 ADD MSTORE PUSH1 0x24 ADD JUMPDEST PUSH1 0x40 MLOAD DUP1 SWAP2 SUB SWAP1 REVERT JUMPDEST PUSH2 0xD78 DUP2 PUSH2 0x2035 JUMP JUMPDEST PUSH1 0x0 DUP3 DUP2 MSTORE PUSH1 0x3 PUSH1 0x20 SWAP1 DUP2 MSTORE PUSH1 0x40 DUP1 DUP4 KECCAK256 PUSH1 0x1 PUSH1 0x1 PUSH1 0xA0 SHL SUB DUP6 AND DUP5 MSTORE SWAP1 SWAP2 MSTORE DUP2 KECCAK256 PUSH1 0x2 DUP2 ADD SLOAD PUSH2 0x100 SWAP1 DIV PUSH1 0xFF AND DUP1 ISZERO PUSH2 0x1997 JUMPI POP PUSH1 0x1 PUSH1 0x2 DUP1 DUP4 ADD SLOAD PUSH1 0xFF AND SWAP1 DUP2 GT ISZERO PUSH2 0x1BBA JUMPI PUSH2 0x1BBA PUSH2 0x230B JUMP JUMPDEST EQ DUP1 PUSH2 0x1997 JUMPI POP PUSH1 0x2 DUP2 DUP2 ADD SLOAD PUSH1 0xFF AND DUP2 DUP2 GT ISZERO PUSH2 0x1BDA JUMPI PUSH2 0x1BDA PUSH2 0x230B JUMP JUMPDEST EQ SWAP5 SWAP4 POP POP POP POP JUMP JUMPDEST PUSH1 0x2 PUSH1 0x1 SLOAD SUB PUSH2 0x1C06 JUMPI PUSH1 0x40 MLOAD PUSH4 0x3EE5AEB5 PUSH1 0xE0 SHL DUP2 MSTORE PUSH1 0x4 ADD PUSH1 0x40 MLOAD DUP1 SWAP2 SUB SWAP1 REVERT JUMPDEST PUSH1 0x2 PUSH1 0x1 SSTORE JUMP JUMPDEST PUSH1 0x40 MLOAD DUP1 PUSH1 0x80 ADD PUSH1 0x40 MSTORE DUP1 DUP4 PUSH1 0x1 PUSH1 0x1 PUSH1 0xA0 SHL SUB AND DUP2 MSTORE PUSH1 0x20 ADD TIMESTAMP DUP2 MSTORE PUSH1 0x20 ADD DUP3 PUSH1 0x2 DUP2 GT ISZERO PUSH2 0x1C3F JUMPI PUSH2 0x1C3F PUSH2 0x230B JUMP JUMPDEST DUP2 MSTORE PUSH1 0x1 PUSH1 0x20 SWAP2 DUP3 ADD DUP2 SWAP1 MSTORE PUSH1 0x0 DUP7 DUP2 MSTORE PUSH1 0x3 DUP4 MSTORE PUSH1 0x40 DUP1 DUP3 KECCAK256 PUSH1 0x1 PUSH1 0x1 PUSH1 0xA0 SHL SUB DUP9 DUP2 AND DUP5 MSTORE SWAP1 DUP6 MSTORE SWAP2 DUP2 SWAP1 KECCAK256 DUP6 MLOAD DUP2 SLOAD PUSH1 0x1 PUSH1 0x1 PUSH1 0xA0 SHL SUB NOT AND SWAP4 AND SWAP3 SWAP1 SWAP3 OR DUP3 SSTORE SWAP3 DUP5 ADD MLOAD DUP2 DUP4 ADD SSTORE SWAP2 DUP4 ADD MLOAD PUSH1 0x2 DUP1 DUP5 ADD DUP1 SLOAD SWAP3 SWAP4 SWAP1 SWAP3 PUSH1 0xFF NOT AND SWAP2 DUP5 SWAP1 DUP2 GT ISZERO PUSH2 0x1CB0 JUMPI PUSH2 0x1CB0 PUSH2 0x230B JUMP JUMPDEST MUL OR SWAP1 SSTORE POP PUSH1 0x60 SWAP2 SWAP1 SWAP2 ADD MLOAD PUSH1 0x2 SWAP2 DUP3 ADD DUP1 SLOAD SWAP2 ISZERO ISZERO PUSH2 0x100 MUL PUSH2 0xFF00 NOT SWAP1 SWAP3 AND SWAP2 SWAP1 SWAP2 OR SWAP1 SSTORE PUSH1 0x0 DUP5 DUP2 MSTORE PUSH1 0x4 PUSH1 0x20 SWAP1 DUP2 MSTORE PUSH1 0x40 DUP1 DUP4 KECCAK256 DUP1 SLOAD PUSH1 0x1 DUP2 DUP2 ADD DUP4 SSTORE SWAP2 DUP6 MSTORE DUP4 DUP6 KECCAK256 ADD DUP1 SLOAD PUSH1 0x1 PUSH1 0x1 PUSH1 0xA0 SHL SUB DUP10 AND PUSH1 0x1 PUSH1 0x1 PUSH1 0xA0 SHL SUB NOT SWAP1 SWAP2 AND DUP2 OR SWAP1 SWAP2 SSTORE DUP5 MSTORE PUSH1 0x5 DUP4 MSTORE DUP2 DUP5 KECCAK256 DUP1 SLOAD SWAP2 DUP3 ADD DUP2 SSTORE DUP5 MSTORE DUP3 DUP5 KECCAK256 ADD DUP8 SWAP1 SSTORE DUP7 DUP4 MSTORE SWAP3 SWAP1 MSTORE SWAP1 DUP2 KECCAK256 PUSH1 0x7 ADD DUP1 SLOAD SWAP2 PUSH2 0x1D46 DUP4 PUSH2 0x2737 JUMP JUMPDEST SWAP2 SWAP1 POP SSTORE POP DUP2 PUSH1 0x1 PUSH1 0x1 PUSH1 0xA0 SHL SUB AND DUP4 PUSH32 0x257B942A35A44661591F47F52235BBD50EE51F2602B3E7587CC88B0C6B24A411 DUP4 PUSH1 0x40 MLOAD PUSH2 0x1B1C SWAP2 SWAP1 PUSH2 0x2790 JUMP JUMPDEST PUSH1 0x0 DUP3 DUP2 MSTORE PUSH1 0x3 PUSH1 0x20 SWAP1 DUP2 MSTORE PUSH1 0x40 DUP1 DUP4 KECCAK256 PUSH1 0x1 PUSH1 0x1 PUSH1 0xA0 SHL SUB DUP6 AND DUP5 MSTORE DUP3 MSTORE DUP1 DUP4 KECCAK256 DUP1 SLOAD PUSH1 0x1 PUSH1 0x1 PUSH1 0xA0 SHL SUB NOT AND DUP2 SSTORE PUSH1 0x1 DUP2 ADD DUP5 SWAP1 SSTORE PUSH1 0x2 ADD DUP1 SLOAD PUSH2 0xFFFF NOT AND SWAP1 SSTORE DUP5 DUP4 MSTORE PUSH1 0x4 SWAP1 SWAP2 MSTORE DUP2 KECCAK256 SWAP1 JUMPDEST DUP2 SLOAD DUP2 LT ISZERO PUSH2 0x1EDA JUMPI DUP3 PUSH1 0x1 PUSH1 0x1 PUSH1 0xA0 SHL SUB AND DUP3 DUP3 DUP2 SLOAD DUP2 LT PUSH2 0x1DF9 JUMPI PUSH2 0x1DF9 PUSH2 0x270B JUMP JUMPDEST PUSH1 0x0 SWAP2 DUP3 MSTORE PUSH1 0x20 SWAP1 SWAP2 KECCAK256 ADD SLOAD PUSH1 0x1 PUSH1 0x1 PUSH1 0xA0 SHL SUB AND SUB PUSH2 0x1EC8 JUMPI DUP2 SLOAD DUP3 SWAP1 PUSH2 0x1E23 SWAP1 PUSH1 0x1 SWAP1 PUSH2 0x2750 JUMP JUMPDEST DUP2 SLOAD DUP2 LT PUSH2 0x1E33 JUMPI PUSH2 0x1E33 PUSH2 0x270B JUMP JUMPDEST SWAP1 PUSH1 0x0 MSTORE PUSH1 0x20 PUSH1 0x0 KECCAK256 ADD PUSH1 0x0 SWAP1 SLOAD SWAP1 PUSH2 0x100 EXP SWAP1 DIV PUSH1 0x1 PUSH1 0x1 PUSH1 0xA0 SHL SUB AND DUP3 DUP3 DUP2 SLOAD DUP2 LT PUSH2 0x1E63 JUMPI PUSH2 0x1E63 PUSH2 0x270B JUMP JUMPDEST SWAP1 PUSH1 0x0 MSTORE PUSH1 0x20 PUSH1 0x0 KECCAK256 ADD PUSH1 0x0 PUSH2 0x100 EXP DUP2 SLOAD DUP2 PUSH1 0x1 PUSH1 0x1 PUSH1 0xA0 SHL SUB MUL NOT AND SWAP1 DUP4 PUSH1 0x1 PUSH1 0x1 PUSH1 0xA0 SHL SUB AND MUL OR SWAP1 SSTORE POP DUP2 DUP1 SLOAD DUP1 PUSH2 0x1EA1 JUMPI PUSH2 0x1EA1 PUSH2 0x2763 JUMP JUMPDEST PUSH1 0x0 DUP3 DUP2 MSTORE PUSH1 0x20 SWAP1 KECCAK256 DUP2 ADD PUSH1 0x0 NOT SWAP1 DUP2 ADD DUP1 SLOAD PUSH1 0x1 PUSH1 0x1 PUSH1 0xA0 SHL SUB NOT AND SWAP1 SSTORE ADD SWAP1 SSTORE PUSH2 0x1EDA JUMP JUMPDEST DUP1 PUSH2 0x1ED2 DUP2 PUSH2 0x2737 JUMP JUMPDEST SWAP2 POP POP PUSH2 0x1DD4 JUMP JUMPDEST POP PUSH1 0x1 PUSH1 0x1 PUSH1 0xA0 SHL SUB DUP3 AND PUSH1 0x0 SWAP1 DUP2 MSTORE PUSH1 0x5 PUSH1 0x20 MSTORE PUSH1 0x40 DUP2 KECCAK256 SWAP1 JUMPDEST DUP2 SLOAD DUP2 LT ISZERO PUSH2 0x1FA9 JUMPI DUP5 DUP3 DUP3 DUP2 SLOAD DUP2 LT PUSH2 0x1F11 JUMPI PUSH2 0x1F11 PUSH2 0x270B JUMP JUMPDEST SWAP1 PUSH1 0x0 MSTORE PUSH1 0x20 PUSH1 0x0 KECCAK256 ADD SLOAD SUB PUSH2 0x1F97 JUMPI DUP2 SLOAD DUP3 SWAP1 PUSH2 0x1F31 SWAP1 PUSH1 0x1 SWAP1 PUSH2 0x2750 JUMP JUMPDEST DUP2 SLOAD DUP2 LT PUSH2 0x1F41 JUMPI PUSH2 0x1F41 PUSH2 0x270B JUMP JUMPDEST SWAP1 PUSH1 0x0 MSTORE PUSH1 0x20 PUSH1 0x0 KECCAK256 ADD SLOAD DUP3 DUP3 DUP2 SLOAD DUP2 LT PUSH2 0x1F5E JUMPI PUSH2 0x1F5E PUSH2 0x270B JUMP JUMPDEST SWAP1 PUSH1 0x0 MSTORE PUSH1 0x20 PUSH1 0x0 KECCAK256 ADD DUP2 SWAP1 SSTORE POP DUP2 DUP1 SLOAD DUP1 PUSH2 0x1F7C JUMPI PUSH2 0x1F7C PUSH2 0x2763 JUMP JUMPDEST PUSH1 0x1 SWAP1 SUB DUP2 DUP2 SWAP1 PUSH1 0x0 MSTORE PUSH1 0x20 PUSH1 0x0 KECCAK256 ADD PUSH1 0x0 SWAP1 SSTORE SWAP1 SSTORE PUSH2 0x1FA9 JUMP JUMPDEST DUP1 PUSH2 0x1FA1 DUP2 PUSH2 0x2737 JUMP JUMPDEST SWAP2 POP POP PUSH2 0x1EF5 JUMP JUMPDEST POP PUSH1 0x0 DUP5 DUP2 MSTORE PUSH1 0x2 PUSH1 0x20 MSTORE PUSH1 0x40 DUP2 KECCAK256 PUSH1 0x7 ADD DUP1 SLOAD SWAP2 PUSH2 0x1FC7 DUP4 PUSH2 0x2779 JUMP JUMPDEST SWAP1 SWAP2 SSTORE POP POP PUSH1 0x40 MLOAD PUSH1 0x1 PUSH1 0x1 PUSH1 0xA0 SHL SUB DUP5 AND SWAP1 DUP6 SWAP1 PUSH32 0xBB7332ED2C9304DDEE996CDB3FBEF4348B3174F347B0C1FA5E53F96867E1321C SWAP1 PUSH1 0x0 SWAP1 LOG3 POP POP POP POP JUMP JUMPDEST PUSH1 0x0 SLOAD PUSH1 0x1 PUSH1 0x1 PUSH1 0xA0 SHL SUB AND CALLER EQ PUSH2 0x1000 JUMPI PUSH1 0x40 MLOAD PUSH4 0x118CDAA7 PUSH1 0xE0 SHL DUP2 MSTORE CALLER PUSH1 0x4 DUP3 ADD MSTORE PUSH1 0x24 ADD PUSH2 0x1B57 JUMP JUMPDEST PUSH1 0x0 DUP1 SLOAD PUSH1 0x1 PUSH1 0x1 PUSH1 0xA0 SHL SUB DUP4 DUP2 AND PUSH1 0x1 PUSH1 0x1 PUSH1 0xA0 SHL SUB NOT DUP4 AND DUP2 OR DUP5 SSTORE PUSH1 0x40 MLOAD SWAP2 SWAP1 SWAP3 AND SWAP3 DUP4 SWAP2 PUSH32 0x8BE0079C531659141344CD1FD0A4F28419497F9722A3DAAFE3B4186F6B6457E0 SWAP2 SWAP1 LOG3 POP POP JUMP JUMPDEST PUSH1 0x40 MLOAD DUP1 PUSH1 0xE0 ADD PUSH1 0x40 MSTORE DUP1 PUSH1 0x0 DUP1 NOT AND DUP2 MSTORE PUSH1 0x20 ADD PUSH1 0x60 DUP2 MSTORE PUSH1 0x20 ADD PUSH1 0x60 DUP2 MSTORE PUSH1 0x20 ADD PUSH1 0x0 PUSH1 0x1 PUSH1 0x1 PUSH1 0xA0 SHL SUB AND DUP2 MSTORE PUSH1 0x20 ADD PUSH1 0x0 DUP2 MSTORE PUSH1 0x20 ADD PUSH1 0x0 ISZERO ISZERO DUP2 MSTORE PUSH1 0x20 ADD PUSH1 0x0 DUP2 MSTORE POP SWAP1 JUMP JUMPDEST POP DUP1 SLOAD PUSH1 0x0 DUP3 SSTORE SWAP1 PUSH1 0x0 MSTORE PUSH1 0x20 PUSH1 0x0 KECCAK256 SWAP1 DUP2 ADD SWAP1 PUSH2 0xD78 SWAP2 SWAP1 JUMPDEST DUP1 DUP3 GT ISZERO PUSH2 0x20FE JUMPI PUSH1 0x0 DUP2 SSTORE PUSH1 0x1 ADD PUSH2 0x20EA JUMP JUMPDEST POP SWAP1 JUMP JUMPDEST PUSH1 0x0 PUSH1 0x20 DUP3 DUP5 SUB SLT ISZERO PUSH2 0x2114 JUMPI PUSH1 0x0 DUP1 REVERT JUMPDEST POP CALLDATALOAD SWAP2 SWAP1 POP JUMP JUMPDEST PUSH1 0x0 JUMPDEST DUP4 DUP2 LT ISZERO PUSH2 0x2136 JUMPI DUP2 DUP2 ADD MLOAD DUP4 DUP3 ADD MSTORE PUSH1 0x20 ADD PUSH2 0x211E JUMP JUMPDEST POP POP PUSH1 0x0 SWAP2 ADD MSTORE JUMP JUMPDEST PUSH1 0x0 DUP2 MLOAD DUP1 DUP5 MSTORE PUSH2 0x2157 DUP2 PUSH1 0x20 DUP7 ADD PUSH1 0x20 DUP7 ADD PUSH2 0x211B JUMP JUMPDEST PUSH1 0x1F ADD PUSH1 0x1F NOT AND SWAP3 SWAP1 SWAP3 ADD PUSH1 0x20 ADD SWAP3 SWAP2 POP POP JUMP JUMPDEST PUSH1 0x0 PUSH2 0x120 DUP12 DUP4 MSTORE DUP1 PUSH1 0x20 DUP5 ADD MSTORE PUSH2 0x2185 DUP2 DUP5 ADD DUP13 PUSH2 0x213F JUMP JUMPDEST SWAP1 POP DUP3 DUP2 SUB PUSH1 0x40 DUP5 ADD MSTORE PUSH2 0x2199 DUP2 DUP12 PUSH2 0x213F JUMP JUMPDEST PUSH1 0x1 PUSH1 0x1 PUSH1 0xA0 SHL SUB SWAP10 SWAP1 SWAP10 AND PUSH1 0x60 DUP5 ADD MSTORE POP POP PUSH1 0x80 DUP2 ADD SWAP6 SWAP1 SWAP6 MSTORE SWAP3 ISZERO ISZERO PUSH1 0xA0 DUP6 ADD MSTORE PUSH1 0xC0 DUP5 ADD SWAP2 SWAP1 SWAP2 MSTORE PUSH1 0xE0 DUP4 ADD MSTORE ISZERO ISZERO PUSH2 0x100 SWAP1 SWAP2 ADD MSTORE SWAP4 SWAP3 POP POP POP JUMP JUMPDEST DUP1 CALLDATALOAD PUSH1 0x1 PUSH1 0x1 PUSH1 0xA0 SHL SUB DUP2 AND DUP2 EQ PUSH2 0x21F0 JUMPI PUSH1 0x0 DUP1 REVERT JUMPDEST SWAP2 SWAP1 POP JUMP JUMPDEST PUSH1 0x0 DUP1 PUSH1 0x40 DUP4 DUP6 SUB SLT ISZERO PUSH2 0x2208 JUMPI PUSH1 0x0 DUP1 REVERT JUMPDEST DUP3 CALLDATALOAD SWAP2 POP PUSH2 0x2218 PUSH1 0x20 DUP5 ADD PUSH2 0x21D9 JUMP JUMPDEST SWAP1 POP SWAP3 POP SWAP3 SWAP1 POP JUMP JUMPDEST PUSH4 0x4E487B71 PUSH1 0xE0 SHL PUSH1 0x0 MSTORE PUSH1 0x41 PUSH1 0x4 MSTORE PUSH1 0x24 PUSH1 0x0 REVERT JUMPDEST PUSH1 0x0 DUP3 PUSH1 0x1F DUP4 ADD SLT PUSH2 0x2248 JUMPI PUSH1 0x0 DUP1 REVERT JUMPDEST DUP2 CALLDATALOAD PUSH8 0xFFFFFFFFFFFFFFFF DUP1 DUP3 GT ISZERO PUSH2 0x2263 JUMPI PUSH2 0x2263 PUSH2 0x2221 JUMP JUMPDEST PUSH1 0x40 MLOAD PUSH1 0x1F DUP4 ADD PUSH1 0x1F NOT SWAP1 DUP2 AND PUSH1 0x3F ADD AND DUP2 ADD SWAP1 DUP3 DUP3 GT DUP2 DUP4 LT OR ISZERO PUSH2 0x228B JUMPI PUSH2 0x228B PUSH2 0x2221 JUMP JUMPDEST DUP2 PUSH1 0x40 MSTORE DUP4 DUP2 MSTORE DUP7 PUSH1 0x20 DUP6 DUP9 ADD ADD GT ISZERO PUSH2 0x22A4 JUMPI PUSH1 0x0 DUP1 REVERT JUMPDEST DUP4 PUSH1 0x20 DUP8 ADD PUSH1 0x20 DUP4 ADD CALLDATACOPY PUSH1 0x0 PUSH1 0x20 DUP6 DUP4 ADD ADD MSTORE DUP1 SWAP5 POP POP POP POP POP SWAP3 SWAP2 POP POP JUMP JUMPDEST PUSH1 0x0 DUP1 PUSH1 0x40 DUP4 DUP6 SUB SLT ISZERO PUSH2 0x22D7 JUMPI PUSH1 0x0 DUP1 REVERT JUMPDEST DUP3 CALLDATALOAD SWAP2 POP PUSH1 0x20 DUP4 ADD CALLDATALOAD PUSH8 0xFFFFFFFFFFFFFFFF DUP2 GT ISZERO PUSH2 0x22F5 JUMPI PUSH1 0x0 DUP1 REVERT JUMPDEST PUSH2 0x2301 DUP6 DUP3 DUP7 ADD PUSH2 0x2237 JUMP JUMPDEST SWAP2 POP POP SWAP3 POP SWAP3 SWAP1 POP JUMP JUMPDEST PUSH4 0x4E487B71 PUSH1 0xE0 SHL PUSH1 0x0 MSTORE PUSH1 0x21 PUSH1 0x4 MSTORE PUSH1 0x24 PUSH1 0x0 REVERT JUMPDEST PUSH1 0x3 DUP2 LT PUSH2 0x233F JUMPI PUSH4 0x4E487B71 PUSH1 0xE0 SHL PUSH1 0x0 MSTORE PUSH1 0x21 PUSH1 0x4 MSTORE PUSH1 0x24 PUSH1 0x0 REVERT JUMPDEST SWAP1 MSTORE JUMP JUMPDEST PUSH1 0x1 PUSH1 0x1 PUSH1 0xA0 SHL SUB DUP6 AND DUP2 MSTORE PUSH1 0x20 DUP2 ADD DUP5 SWAP1 MSTORE PUSH1 0x80 DUP2 ADD PUSH2 0x2367 PUSH1 0x40 DUP4 ADD DUP6 PUSH2 0x2321 JUMP JUMPDEST DUP3 ISZERO ISZERO PUSH1 0x60 DUP4 ADD MSTORE SWAP6 SWAP5 POP POP POP POP POP JUMP JUMPDEST DUP1 MLOAD DUP3 MSTORE PUSH1 0x0 PUSH1 0x20 DUP3 ADD MLOAD PUSH1 0xE0 PUSH1 0x20 DUP6 ADD MSTORE PUSH2 0x2397 PUSH1 0xE0 DUP6 ADD DUP3 PUSH2 0x213F JUMP JUMPDEST SWAP1 POP PUSH1 0x40 DUP4 ADD MLOAD DUP5 DUP3 SUB PUSH1 0x40 DUP7 ADD MSTORE PUSH2 0x23B0 DUP3 DUP3 PUSH2 0x213F JUMP JUMPDEST PUSH1 0x60 DUP6 DUP2 ADD MLOAD PUSH1 0x1 PUSH1 0x1 PUSH1 0xA0 SHL SUB AND SWAP1 DUP8 ADD MSTORE PUSH1 0x80 DUP1 DUP7 ADD MLOAD SWAP1 DUP8 ADD MSTORE PUSH1 0xA0 DUP6 DUP2 ADD MLOAD ISZERO ISZERO SWAP1 DUP8 ADD MSTORE PUSH1 0xC0 SWAP5 DUP6 ADD MLOAD SWAP5 SWAP1 SWAP6 ADD SWAP4 SWAP1 SWAP4 MSTORE POP SWAP2 SWAP3 SWAP2 POP POP JUMP JUMPDEST PUSH1 0x0 PUSH1 0x20 DUP1 DUP4 ADD DUP2 DUP5 MSTORE DUP1 DUP6 MLOAD DUP1 DUP4 MSTORE PUSH1 0x40 DUP7 ADD SWAP2 POP PUSH1 0x40 DUP2 PUSH1 0x5 SHL DUP8 ADD ADD SWAP3 POP DUP4 DUP8 ADD PUSH1 0x0 JUMPDEST DUP3 DUP2 LT ISZERO PUSH2 0x2444 JUMPI PUSH1 0x3F NOT DUP9 DUP7 SUB ADD DUP5 MSTORE PUSH2 0x2432 DUP6 DUP4 MLOAD PUSH2 0x2378 JUMP JUMPDEST SWAP5 POP SWAP3 DUP6 ADD SWAP3 SWAP1 DUP6 ADD SWAP1 PUSH1 0x1 ADD PUSH2 0x2416 JUMP JUMPDEST POP SWAP3 SWAP8 SWAP7 POP POP POP POP POP POP POP JUMP JUMPDEST PUSH1 0x20 DUP2 MSTORE PUSH1 0x0 PUSH2 0x2464 PUSH1 0x20 DUP4 ADD DUP5 PUSH2 0x2378 JUMP JUMPDEST SWAP4 SWAP3 POP POP POP JUMP JUMPDEST PUSH1 0x0 DUP1 PUSH1 0x0 PUSH1 0x60 DUP5 DUP7 SUB SLT ISZERO PUSH2 0x2480 JUMPI PUSH1 0x0 DUP1 REVERT JUMPDEST DUP4 CALLDATALOAD SWAP3 POP PUSH2 0x2490 PUSH1 0x20 DUP6 ADD PUSH2 0x21D9 JUMP JUMPDEST SWAP2 POP PUSH1 0x40 DUP5 ADD CALLDATALOAD PUSH1 0x3 DUP2 LT PUSH2 0x24A4 JUMPI PUSH1 0x0 DUP1 REVERT JUMPDEST DUP1 SWAP2 POP POP SWAP3 POP SWAP3 POP SWAP3 JUMP JUMPDEST DUP2 MLOAD PUSH1 0x1 PUSH1 0x1 PUSH1 0xA0 SHL SUB AND DUP2 MSTORE PUSH1 0x20 DUP1 DUP4 ADD MLOAD SWAP1 DUP3 ADD MSTORE PUSH1 0x40 DUP1 DUP4 ADD MLOAD PUSH1 0x80 DUP4 ADD SWAP2 PUSH2 0x24DD SWAP1 DUP5 ADD DUP3 PUSH2 0x2321 JUMP JUMPDEST POP PUSH1 0x60 SWAP3 DUP4 ADD MLOAD ISZERO ISZERO SWAP2 SWAP1 SWAP3 ADD MSTORE SWAP1 JUMP JUMPDEST PUSH1 0x20 DUP1 DUP3 MSTORE DUP3 MLOAD DUP3 DUP3 ADD DUP2 SWAP1 MSTORE PUSH1 0x0 SWAP2 SWAP1 DUP5 DUP3 ADD SWAP1 PUSH1 0x40 DUP6 ADD SWAP1 DUP5 JUMPDEST DUP2 DUP2 LT ISZERO PUSH2 0x252F JUMPI DUP4 MLOAD PUSH1 0x1 PUSH1 0x1 PUSH1 0xA0 SHL SUB AND DUP4 MSTORE SWAP3 DUP5 ADD SWAP3 SWAP2 DUP5 ADD SWAP2 PUSH1 0x1 ADD PUSH2 0x250A JUMP JUMPDEST POP SWAP1 SWAP7 SWAP6 POP POP POP POP POP POP JUMP JUMPDEST DUP1 CALLDATALOAD DUP1 ISZERO ISZERO DUP2 EQ PUSH2 0x21F0 JUMPI PUSH1 0x0 DUP1 REVERT JUMPDEST PUSH1 0x0 DUP1 PUSH1 0x0 DUP1 PUSH1 0x80 DUP6 DUP8 SUB SLT ISZERO PUSH2 0x2561 JUMPI PUSH1 0x0 DUP1 REVERT JUMPDEST DUP5 CALLDATALOAD SWAP4 POP PUSH1 0x20 DUP6 ADD CALLDATALOAD PUSH8 0xFFFFFFFFFFFFFFFF DUP1 DUP3 GT ISZERO PUSH2 0x2580 JUMPI PUSH1 0x0 DUP1 REVERT JUMPDEST PUSH2 0x258C DUP9 DUP4 DUP10 ADD PUSH2 0x2237 JUMP JUMPDEST SWAP5 POP PUSH1 0x40 DUP8 ADD CALLDATALOAD SWAP2 POP DUP1 DUP3 GT ISZERO PUSH2 0x25A2 JUMPI PUSH1 0x0 DUP1 REVERT JUMPDEST POP PUSH2 0x25AF DUP8 DUP3 DUP9 ADD PUSH2 0x2237 JUMP JUMPDEST SWAP3 POP POP PUSH2 0x25BE PUSH1 0x60 DUP7 ADD PUSH2 0x253B JUMP JUMPDEST SWAP1 POP SWAP3 SWAP6 SWAP2 SWAP5 POP SWAP3 POP JUMP JUMPDEST PUSH1 0x0 PUSH1 0x20 DUP3 DUP5 SUB SLT ISZERO PUSH2 0x25DB JUMPI PUSH1 0x0 DUP1 REVERT JUMPDEST PUSH2 0x2464 DUP3 PUSH2 0x21D9 JUMP JUMPDEST PUSH1 0x20 DUP1 DUP3 MSTORE DUP3 MLOAD DUP3 DUP3 ADD DUP2 SWAP1 MSTORE PUSH1 0x0 SWAP2 SWAP1 DUP5 DUP3 ADD SWAP1 PUSH1 0x40 DUP6 ADD SWAP1 DUP5 JUMPDEST DUP2 DUP2 LT ISZERO PUSH2 0x252F JUMPI DUP4 MLOAD DUP4 MSTORE SWAP3 DUP5 ADD SWAP3 SWAP2 DUP5 ADD SWAP2 PUSH1 0x1 ADD PUSH2 0x2600 JUMP JUMPDEST PUSH1 0x0 DUP1 PUSH1 0x0 DUP1 PUSH1 0x80 DUP6 DUP8 SUB SLT ISZERO PUSH2 0x2632 JUMPI PUSH1 0x0 DUP1 REVERT JUMPDEST DUP5 CALLDATALOAD PUSH8 0xFFFFFFFFFFFFFFFF DUP1 DUP3 GT ISZERO PUSH2 0x264A JUMPI PUSH1 0x0 DUP1 REVERT JUMPDEST PUSH2 0x2656 DUP9 DUP4 DUP10 ADD PUSH2 0x2237 JUMP JUMPDEST SWAP6 POP PUSH1 0x20 DUP8 ADD CALLDATALOAD SWAP2 POP DUP1 DUP3 GT ISZERO PUSH2 0x266C JUMPI PUSH1 0x0 DUP1 REVERT JUMPDEST PUSH2 0x2678 DUP9 DUP4 DUP10 ADD PUSH2 0x2237 JUMP JUMPDEST SWAP5 POP PUSH2 0x2686 PUSH1 0x40 DUP9 ADD PUSH2 0x253B JUMP JUMPDEST SWAP4 POP PUSH1 0x60 DUP8 ADD CALLDATALOAD SWAP2 POP DUP1 DUP3 GT ISZERO PUSH2 0x269C JUMPI PUSH1 0x0 DUP1 REVERT JUMPDEST POP PUSH2 0x26A9 DUP8 DUP3 DUP9 ADD PUSH2 0x2237 JUMP JUMPDEST SWAP2 POP POP SWAP3 SWAP6 SWAP2 SWAP5 POP SWAP3 POP JUMP JUMPDEST PUSH1 0x1 DUP2 DUP2 SHR SWAP1 DUP3 AND DUP1 PUSH2 0x26C9 JUMPI PUSH1 0x7F DUP3 AND SWAP2 POP JUMPDEST PUSH1 0x20 DUP3 LT DUP2 SUB PUSH2 0x26E9 JUMPI PUSH4 0x4E487B71 PUSH1 0xE0 SHL PUSH1 0x0 MSTORE PUSH1 0x22 PUSH1 0x4 MSTORE PUSH1 0x24 PUSH1 0x0 REVERT JUMPDEST POP SWAP2 SWAP1 POP JUMP JUMPDEST PUSH1 0x0 DUP3 MLOAD PUSH2 0x2701 DUP2 DUP5 PUSH1 0x20 DUP8 ADD PUSH2 0x211B JUMP JUMPDEST SWAP2 SWAP1 SWAP2 ADD SWAP3 SWAP2 POP POP JUMP JUMPDEST PUSH4 0x4E487B71 PUSH1 0xE0 SHL PUSH1 0x0 MSTORE PUSH1 0x32 PUSH1 0x4 MSTORE PUSH1 0x24 PUSH1 0x0 REVERT JUMPDEST PUSH4 0x4E487B71 PUSH1 0xE0 SHL PUSH1 0x0 MSTORE PUSH1 0x11 PUSH1 0x4 MSTORE PUSH1 0x24 PUSH1 0x0 REVERT JUMPDEST PUSH1 0x0 PUSH1 0x1 DUP3 ADD PUSH2 0x2749 JUMPI PUSH2 0x2749 PUSH2 0x2721 JUMP JUMPDEST POP PUSH1 0x1 ADD SWAP1 JUMP JUMPDEST DUP2 DUP2 SUB DUP2 DUP2 GT ISZERO PUSH2 0x553 JUMPI PUSH2 0x553 PUSH2 0x2721 JUMP JUMPDEST PUSH4 0x4E487B71 PUSH1 0xE0 SHL PUSH1 0x0 MSTORE PUSH1 0x31 PUSH1 0x4 MSTORE PUSH1 0x24 PUSH1 0x0 REVERT JUMPDEST PUSH1 0x0 DUP2 PUSH2 0x2788 JUMPI PUSH2 0x2788 PUSH2 0x2721 JUMP JUMPDEST POP PUSH1 0x0 NOT ADD SWAP1 JUMP JUMPDEST PUSH1 0x20 DUP2 ADD PUSH2 0x553 DUP3 DUP5 PUSH2 0x2321 JUMP JUMPDEST PUSH1 0x1F DUP3 GT ISZERO PUSH2 0x1252 JUMPI PUSH1 0x0 DUP2 DUP2 MSTORE PUSH1 0x20 DUP2 KECCAK256 PUSH1 0x1F DUP6 ADD PUSH1 0x5 SHR DUP2 ADD PUSH1 0x20 DUP7 LT ISZERO PUSH2 0x27C5 JUMPI POP DUP1 JUMPDEST PUSH1 0x1F DUP6 ADD PUSH1 0x5 SHR DUP3 ADD SWAP2 POP JUMPDEST DUP2 DUP2 LT ISZERO PUSH2 0x27E4 JUMPI DUP3 DUP2 SSTORE PUSH1 0x1 ADD PUSH2 0x27D1 JUMP JUMPDEST POP POP POP POP POP POP JUMP JUMPDEST DUP2 MLOAD PUSH8 0xFFFFFFFFFFFFFFFF DUP2 GT ISZERO PUSH2 0x2806 JUMPI PUSH2 0x2806 PUSH2 0x2221 JUMP JUMPDEST PUSH2 0x281A DUP2 PUSH2 0x2814 DUP5 SLOAD PUSH2 0x26B5 JUMP JUMPDEST DUP5 PUSH2 0x279E JUMP JUMPDEST PUSH1 0x20 DUP1 PUSH1 0x1F DUP4 GT PUSH1 0x1 DUP2 EQ PUSH2 0x284F JUMPI PUSH1 0x0 DUP5 ISZERO PUSH2 0x2837 JUMPI POP DUP6 DUP4 ADD MLOAD JUMPDEST PUSH1 0x0 NOT PUSH1 0x3 DUP7 SWAP1 SHL SHR NOT AND PUSH1 0x1 DUP6 SWAP1 SHL OR DUP6 SSTORE PUSH2 0x27E4 JUMP JUMPDEST PUSH1 0x0 DUP6 DUP2 MSTORE PUSH1 0x20 DUP2 KECCAK256 PUSH1 0x1F NOT DUP7 AND SWAP2 JUMPDEST DUP3 DUP2 LT ISZERO PUSH2 0x287E JUMPI DUP9 DUP7 ADD MLOAD DUP3 SSTORE SWAP5 DUP5 ADD SWAP5 PUSH1 0x1 SWAP1 SWAP2 ADD SWAP1 DUP5 ADD PUSH2 0x285F JUMP JUMPDEST POP DUP6 DUP3 LT ISZERO PUSH2 0x289C JUMPI DUP8 DUP6 ADD MLOAD PUSH1 0x0 NOT PUSH1 0x3 DUP9 SWAP1 SHL PUSH1 0xF8 AND SHR NOT AND DUP2 SSTORE JUMPDEST POP POP POP POP POP PUSH1 0x1 SWAP1 DUP2 SHL ADD SWAP1 SSTORE POP JUMP JUMPDEST PUSH1 0x40 DUP2 MSTORE PUSH1 0x0 PUSH2 0x28BF PUSH1 0x40 DUP4 ADD DUP6 PUSH2 0x213F JUMP JUMPDEST DUP3 DUP2 SUB PUSH1 0x20 DUP5 ADD MSTORE PUSH2 0x28D1 DUP2 DUP6 PUSH2 0x213F JUMP JUMPDEST SWAP6 SWAP5 POP POP POP POP POP JUMP JUMPDEST PUSH12 0xFFFFFFFFFFFFFFFFFFFFFFFF NOT DUP6 PUSH1 0x60 SHL AND DUP2 MSTORE PUSH1 0x0 DUP5 MLOAD PUSH2 0x2904 DUP2 PUSH1 0x14 DUP6 ADD PUSH1 0x20 DUP10 ADD PUSH2 0x211B JUMP JUMPDEST SWAP1 SWAP2 ADD PUSH1 0x14 DUP2 ADD SWAP4 SWAP1 SWAP4 MSTORE POP PUSH1 0x34 DUP3 ADD MSTORE PUSH1 0x54 ADD SWAP3 SWAP2 POP POP JUMP JUMPDEST PUSH1 0x40 DUP2 MSTORE PUSH1 0x0 PUSH2 0x2931 PUSH1 0x40 DUP4 ADD DUP6 PUSH2 0x213F JUMP JUMPDEST SWAP1 POP DUP3 ISZERO ISZERO PUSH1 0x20 DUP4 ADD MSTORE SWAP4 SWAP3 POP POP POP JUMP INVALID LOG2 PUSH5 0x6970667358 0x22 SLT KECCAK256 JUMPI 0x4D 0xDB PUSH1 0x48 CODECOPY 0x49 PUSH17 0xFA81DD480BB40A3F292914F7BB9EA02D2A SDIV 0xBB 0xE2 0xC8 PREVRANDAO 0xE1 0xCE PUSH5 0x736F6C6343 STOP ADDMOD EQ STOP CALLER "},"methodIdentifiers":{"createWorkspace(string,string,bool,string)":"e22f032f","deleteWorkspace(bytes32)":"5a5860d1","getMember(bytes32,address)":"b1d92cf6","getPublicWorkspaces()":"395edc2d","getUserWorkspaces(address)":"d7d19c4e","getWorkspace(bytes32)":"62b5a9b1","getWorkspaceMembers(bytes32)":"b997d960","isMember(bytes32,address)":"10ad56b3","joinPublicWorkspace(bytes32)":"c07e6fca","joinWithInviteCode(bytes32,string)":"4a77626d","leaveWorkspace(bytes32)":"701a52cc","owner()":"8da5cb5b","removeMember(bytes32,address)":"9a737486","renounceOwnership()":"715018a6","setInviteCode(bytes32,string)":"48113b60","setMemberRole(bytes32,address,uint8)":"8c10218f","transferOwnership(address)":"f2fde38b","transferOwnership(bytes32,address)":"ef5d6bbb","updateWorkspace(bytes32,string,string,bool)":"c017be28","verifyInviteCode(bytes32,string)":"1151397c","workspaceCount()":"91f8e4ca","workspaceMembers(bytes32,address)":"1ae0aa77","workspaces(bytes32)":"0acf878a"}}}}}