{"contracts/TaskEscrow.sol":{"TaskEscrow":{"abi":[{"inputs":[{"internalType":"address","name":"_ottToken","type":"address"},{"internalType":"address","name":"_feeRecipient","type":"address"}],"stateMutability":"nonpayable","type":"constructor"},{"inputs":[{"internalType":"address","name":"owner","type":"address"}],"name":"OwnableInvalidOwner","type":"error"},{"inputs":[{"internalType":"address","name":"account","type":"address"}],"name":"OwnableUnauthorizedAccount","type":"error"},{"inputs":[],"name":"ReentrancyGuardReentrantCall","type":"error"},{"inputs":[{"internalType":"address","name":"token","type":"address"}],"name":"SafeERC20FailedOperation","type":"error"},{"anonymous":false,"inputs":[{"indexed":true,"internalType":"address","name":"manager","type":"address"}],"name":"ManagerAdded","type":"event"},{"anonymous":false,"inputs":[{"indexed":true,"internalType":"address","name":"manager","type":"address"}],"name":"ManagerRemoved","type":"event"},{"anonymous":false,"inputs":[{"indexed":true,"internalType":"address","name":"previousOwner","type":"address"},{"indexed":true,"internalType":"address","name":"newOwner","type":"address"}],"name":"OwnershipTransferred","type":"event"},{"anonymous":false,"inputs":[{"indexed":true,"internalType":"bytes32","name":"taskId","type":"bytes32"},{"indexed":true,"internalType":"bytes32","name":"nodeId","type":"bytes32"}],"name":"TaskAssigned","type":"event"},{"anonymous":false,"inputs":[{"indexed":true,"internalType":"bytes32","name":"taskId","type":"bytes32"},{"indexed":false,"internalType":"bytes32","name":"resultHash","type":"bytes32"}],"name":"TaskCompleted","type":"event"},{"anonymous":false,"inputs":[{"indexed":true,"internalType":"bytes32","name":"taskId","type":"bytes32"},{"indexed":true,"internalType":"address","name":"requester","type":"address"},{"indexed":false,"internalType":"uint256","name":"amount","type":"uint256"}],"name":"TaskCreated","type":"event"},{"anonymous":false,"inputs":[{"indexed":true,"internalType":"bytes32","name":"taskId","type":"bytes32"},{"indexed":true,"internalType":"address","name":"disputer","type":"address"}],"name":"TaskDisputed","type":"event"},{"anonymous":false,"inputs":[{"indexed":true,"internalType":"bytes32","name":"taskId","type":"bytes32"},{"indexed":false,"internalType":"uint256","name":"amount","type":"uint256"}],"name":"TaskRefunded","type":"event"},{"anonymous":false,"inputs":[{"indexed":true,"internalType":"bytes32","name":"taskId","type":"bytes32"},{"indexed":true,"internalType":"address","name":"nodeOwner","type":"address"},{"indexed":false,"internalType":"uint256","name":"amount","type":"uint256"}],"name":"TaskReleased","type":"event"},{"inputs":[{"internalType":"address","name":"manager","type":"address"}],"name":"addManager","outputs":[],"stateMutability":"nonpayable","type":"function"},{"inputs":[{"internalType":"uint256","name":"","type":"uint256"}],"name":"allTaskIds","outputs":[{"internalType":"bytes32","name":"","type":"bytes32"}],"stateMutability":"view","type":"function"},{"inputs":[{"internalType":"bytes32","name":"taskId","type":"bytes32"},{"internalType":"bytes32","name":"nodeId","type":"bytes32"}],"name":"assignTask","outputs":[],"stateMutability":"nonpayable","type":"function"},{"inputs":[{"internalType":"bytes32","name":"taskId","type":"bytes32"}],"name":"cancelTask","outputs":[],"stateMutability":"nonpayable","type":"function"},{"inputs":[{"internalType":"bytes32","name":"taskId","type":"bytes32"},{"internalType":"bytes32","name":"resultHash","type":"bytes32"}],"name":"completeTask","outputs":[],"stateMutability":"nonpayable","type":"function"},{"inputs":[{"internalType":"bytes32","name":"taskId","type":"bytes32"},{"internalType":"uint256","name":"amount","type":"uint256"},{"internalType":"string","name":"description","type":"string"}],"name":"createTask","outputs":[],"stateMutability":"nonpayable","type":"function"},{"inputs":[{"internalType":"bytes32","name":"taskId","type":"bytes32"}],"name":"disputeTask","outputs":[],"stateMutability":"nonpayable","type":"function"},{"inputs":[],"name":"disputeTimeout","outputs":[{"internalType":"uint256","name":"","type":"uint256"}],"stateMutability":"view","type":"function"},{"inputs":[],"name":"feeRecipient","outputs":[{"internalType":"address","name":"","type":"address"}],"stateMutability":"view","type":"function"},{"inputs":[{"internalType":"bytes32","name":"taskId","type":"bytes32"}],"name":"getTask","outputs":[{"components":[{"internalType":"address","name":"requester","type":"address"},{"internalType":"bytes32","name":"nodeId","type":"bytes32"},{"internalType":"uint256","name":"amount","type":"uint256"},{"internalType":"uint256","name":"platformFee","type":"uint256"},{"internalType":"enum TaskEscrow.TaskStatus","name":"status","type":"uint8"},{"internalType":"bytes32","name":"resultHash","type":"bytes32"},{"internalType":"uint256","name":"createdAt","type":"uint256"},{"internalType":"uint256","name":"completedAt","type":"uint256"},{"internalType":"string","name":"description","type":"string"}],"internalType":"struct TaskEscrow.Task","name":"","type":"tuple"}],"stateMutability":"view","type":"function"},{"inputs":[],"name":"getTotalTasks","outputs":[{"internalType":"uint256","name":"","type":"uint256"}],"stateMutability":"view","type":"function"},{"inputs":[{"internalType":"address","name":"","type":"address"}],"name":"managers","outputs":[{"internalType":"bool","name":"","type":"bool"}],"stateMutability":"view","type":"function"},{"inputs":[],"name":"ottToken","outputs":[{"internalType":"contract IERC20","name":"","type":"address"}],"stateMutability":"view","type":"function"},{"inputs":[],"name":"owner","outputs":[{"internalType":"address","name":"","type":"address"}],"stateMutability":"view","type":"function"},{"inputs":[],"name":"platformFeePercent","outputs":[{"internalType":"uint256","name":"","type":"uint256"}],"stateMutability":"view","type":"function"},{"inputs":[{"internalType":"bytes32","name":"taskId","type":"bytes32"}],"name":"refundTask","outputs":[],"stateMutability":"nonpayable","type":"function"},{"inputs":[{"internalType":"bytes32","name":"taskId","type":"bytes32"},{"internalType":"address","name":"nodeOwner","type":"address"}],"name":"releasePayment","outputs":[],"stateMutability":"nonpayable","type":"function"},{"inputs":[{"internalType":"address","name":"manager","type":"address"}],"name":"removeManager","outputs":[],"stateMutability":"nonpayable","type":"function"},{"inputs":[],"name":"renounceOwnership","outputs":[],"stateMutability":"nonpayable","type":"function"},{"inputs":[{"internalType":"uint256","name":"_timeout","type":"uint256"}],"name":"setDisputeTimeout","outputs":[],"stateMutability":"nonpayable","type":"function"},{"inputs":[{"internalType":"address","name":"_feeRecipient","type":"address"}],"name":"setFeeRecipient","outputs":[],"stateMutability":"nonpayable","type":"function"},{"inputs":[{"internalType":"uint256","name":"_percent","type":"uint256"}],"name":"setPlatformFeePercent","outputs":[],"stateMutability":"nonpayable","type":"function"},{"inputs":[{"internalType":"bytes32","name":"","type":"bytes32"}],"name":"tasks","outputs":[{"internalType":"address","name":"requester","type":"address"},{"internalType":"bytes32","name":"nodeId","type":"bytes32"},{"internalType":"uint256","name":"amount","type":"uint256"},{"internalType":"uint256","name":"platformFee","type":"uint256"},{"internalType":"enum TaskEscrow.TaskStatus","name":"status","type":"uint8"},{"internalType":"bytes32","name":"resultHash","type":"bytes32"},{"internalType":"uint256","name":"createdAt","type":"uint256"},{"internalType":"uint256","name":"completedAt","type":"uint256"},{"internalType":"string","name":"description","type":"string"}],"stateMutability":"view","type":"function"},{"inputs":[{"internalType":"address","name":"newOwner","type":"address"}],"name":"transferOwnership","outputs":[],"stateMutability":"nonpayable","type":"function"}],"evm":{"bytecode":{"linkReferences":{},"object":"60a06040526005600255620151806003553480156200001d57600080fd5b5060405162001a7938038062001a7983398101604081905262000040916200010d565b33806200006757604051631e4fbdf760e01b81526000600482015260240160405180910390fd5b6200007281620000a0565b50600180556001600160a01b03918216608052600680546001600160a01b0319169190921617905562000145565b600080546001600160a01b038381166001600160a01b0319831681178455604051919092169283917f8be0079c531659141344cd1fd0a4f28419497f9722a3daafe3b4186f6b6457e09190a35050565b80516001600160a01b03811681146200010857600080fd5b919050565b600080604083850312156200012157600080fd5b6200012c83620000f0565b91506200013c60208401620000f0565b90509250929050565b6080516118f562000184600039600081816102b30152818161062a01528181610a2c01528181610e6801528181610eb801526111c601526118f56000f3fe608060405234801561001057600080fd5b50600436106101585760003560e01c8063ac18de43116100c3578063e1231d501161007c578063e1231d50146102d5578063e579f500146102e8578063e74b981b14610310578063ee8ca3b514610323578063f2fde38b14610336578063fdff9b4d1461034957600080fd5b8063ac18de4314610259578063bbacc5911461026c578063bd42cf9e1461027f578063c04c22a414610292578063cab230d21461029b578063cb1b4ac3146102ae57600080fd5b806376c3504b1161011557806376c3504b146101f357806381d223bb146102065780638c639a85146102195780638da5cb5b1461022257806393f22b41146102335780639bdd6de71461024657600080fd5b806315a290351461015d5780632a32c721146101865780632d06177a1461019b5780633c93b905146101ae57806346904840146101c0578063715018a6146101eb575b600080fd5b61017061016b366004611423565b61037c565b60405161017d91906114ba565b60405180910390f35b610199610194366004611423565b610504565b005b6101996101a936600461156a565b61069b565b6007545b60405190815260200161017d565b6006546101d3906001600160a01b031681565b6040516001600160a01b03909116815260200161017d565b6101996106ef565b6101b2610201366004611423565b610703565b61019961021436600461158c565b610724565b6101b260025481565b6000546001600160a01b03166101d3565b61019961024136600461158c565b610834565b6101996102543660046115ae565b610936565b61019961026736600461156a565b610bfd565b61019961027a366004611423565b610c4e565b61019961028d36600461162e565b610d8c565b6101b260035481565b6101996102a9366004611423565b610f38565b6101d37f000000000000000000000000000000000000000000000000000000000000000081565b6101996102e3366004611423565b610f96565b6102fb6102f6366004611423565b610fa3565b60405161017d9998979695949392919061165a565b61019961031e36600461156a565b611086565b610199610331366004611423565b6110b0565b61019961034436600461156a565b611233565b61036c61035736600461156a565b60056020526000908152604090205460ff1681565b604051901515815260200161017d565b6103ce6040805161012081018252600080825260208201819052918101829052606081018290529060808201908152602001600080191681526020016000815260200160008152602001606081525090565b60008281526004602081815260409283902083516101208101855281546001600160a01b031681526001820154928101929092526002810154938201939093526003830154606082015290820154909190608083019060ff1660058111156104385761043861143c565b60058111156104495761044961143c565b815260200160058201548152602001600682015481526020016007820154815260200160088201805461047b906116c2565b80601f01602080910402602001604051908101604052809291908181526020018280546104a7906116c2565b80156104f45780601f106104c9576101008083540402835291602001916104f4565b820191906000526020600020905b8154815290600101906020018083116104d757829003601f168201915b5050505050815250509050919050565b3360009081526005602052604090205460ff168061052c57506000546001600160a01b031633145b6105515760405162461bcd60e51b8152600401610548906116fc565b60405180910390fd5b61055961126e565b600081815260046020526040812090600482015460ff1660058111156105815761058161143c565b14806105a557506003600482015460ff1660058111156105a3576105a361143c565b145b6105f15760405162461bcd60e51b815260206004820152601960248201527f5461736b457363726f773a2063616e6e6f7420726566756e64000000000000006044820152606401610548565b6004818101805460ff191690911790556003810154600282015460009161061791611749565b8254909150610653906001600160a01b037f00000000000000000000000000000000000000000000000000000000000000008116911683611298565b827f1d484b7a6bc447c931d0601b4ac6eb78a8fc5698acc254f8ecec287c622afeee8260405161068591815260200190565b60405180910390a2505061069860018055565b50565b6106a36112fc565b6001600160a01b038116600081815260056020526040808220805460ff19166001179055517f3b4a40cccf2058c593542587329dd385be4f0b588db5471fbd9598e56dd7093a9190a250565b6106f76112fc565b6107016000611329565b565b6007818154811061071357600080fd5b600091825260209091200154905081565b3360009081526005602052604090205460ff168061074c57506000546001600160a01b031633145b6107685760405162461bcd60e51b8152600401610548906116fc565b60008281526004602052604090206001600482015460ff1660058111156107915761079161143c565b146107de5760405162461bcd60e51b815260206004820152601860248201527f5461736b457363726f773a206e6f742061737369676e656400000000000000006044820152606401610548565b6005810182905560048101805460ff1916600217905542600782015560405182815283907f6a3a17a2ee0f5a9660f62936a17b5adc124d313734df031f55ab6c55bac36cfa9060200160405180910390a2505050565b3360009081526005602052604090205460ff168061085c57506000546001600160a01b031633145b6108785760405162461bcd60e51b8152600401610548906116fc565b600082815260046020526040812090600482015460ff1660058111156108a0576108a061143c565b146108ed5760405162461bcd60e51b815260206004820152601a60248201527f5461736b457363726f773a20696e76616c6964207374617475730000000000006044820152606401610548565b600181810183905560048201805460ff19169091179055604051829084907f0e33bf1a30886cc1405c8423879e49b54556423267ba8af7b25def6eae84991990600090a3505050565b61093e61126e565b6000848152600460205260409020546001600160a01b0316156109a35760405162461bcd60e51b815260206004820152601760248201527f5461736b457363726f773a207461736b206578697374730000000000000000006044820152606401610548565b600083116109f35760405162461bcd60e51b815260206004820152601760248201527f5461736b457363726f773a207a65726f20616d6f756e740000000000000000006044820152606401610548565b6000606460025485610a059190611762565b610a0f9190611779565b90506000610a1d8286611749565b9050610a546001600160a01b037f000000000000000000000000000000000000000000000000000000000000000016333084611379565b60408051610120810182523381526000602082018190529181018790526060810184905290608082019081526020016000801b81526020014281526020016000815260200185858080601f016020809104026020016040519081016040528093929190818152602001838380828437600092018290525093909452505088815260046020818152604092839020855181546001600160a01b0319166001600160a01b03909116178155908501516001808301919091559285015160028201556060850151600382015560808501519181018054919450919260ff1990911690836005811115610b4557610b4561143c565b021790555060a0820151600582015560c0820151600682015560e082015160078201556101008201516008820190610b7d90826117ff565b5050600780546001810182556000919091527fa66cc928b5edb82af9bd49922954155ab7b0942694bea4ce44661d9a8736c6880187905550604051858152339087907f5fb74283f874d0f894d0de9c856a2a842137dc2c21c621e080065c7b797c00959060200160405180910390a35050610bf760018055565b50505050565b610c056112fc565b6001600160a01b038116600081815260056020526040808220805460ff19169055517fef69f7d97228658c92417be1b16b19058315de71fecb435d07b7d23728b6bd319190a250565b60008181526004602052604090205481906001600160a01b03163314610cb25760405162461bcd60e51b81526020600482015260196024820152782a30b9b5a2b9b1b937bb9d103737ba103932b8bab2b9ba32b960391b6044820152606401610548565b60008281526004602052604090206001600482015460ff166005811115610cdb57610cdb61143c565b1480610cff57506002600482015460ff166005811115610cfd57610cfd61143c565b145b610d4b5760405162461bcd60e51b815260206004820152601a60248201527f5461736b457363726f773a2063616e6e6f7420646973707574650000000000006044820152606401610548565b60048101805460ff19166003179055604051339084907f1d8cbd4296db81bac563255b4fc6b24eb172f06c1098ed8acb493914a95b526190600090a3505050565b3360009081526005602052604090205460ff1680610db457506000546001600160a01b031633145b610dd05760405162461bcd60e51b8152600401610548906116fc565b610dd861126e565b60008281526004602052604090206002600482015460ff166005811115610e0157610e0161143c565b14610e4e5760405162461bcd60e51b815260206004820152601960248201527f5461736b457363726f773a206e6f7420636f6d706c65746564000000000000006044820152606401610548565b60048101805460ff191660051790556002810154610e98907f00000000000000000000000000000000000000000000000000000000000000006001600160a01b0316908490611298565b600381015415610ee2576006546003820154610ee2916001600160a01b037f0000000000000000000000000000000000000000000000000000000000000000811692911690611298565b816001600160a01b0316837f8b944d078aaff6bf0f144fa81299120ad1f4628ff02d19e5a02cc5f9050bd4b68360020154604051610f2291815260200190565b60405180910390a350610f3460018055565b5050565b610f406112fc565b6014811115610f915760405162461bcd60e51b815260206004820152601860248201527f5461736b457363726f773a2066656520746f6f206869676800000000000000006044820152606401610548565b600255565b610f9e6112fc565b600355565b60046020819052600091825260409091208054600182015460028301546003840154948401546005850154600686015460078701546008880180546001600160a01b03909816999698959760ff90951695939492939192611003906116c2565b80601f016020809104026020016040519081016040528092919081815260200182805461102f906116c2565b801561107c5780601f106110515761010080835404028352916020019161107c565b820191906000526020600020905b81548152906001019060200180831161105f57829003601f168201915b5050505050905089565b61108e6112fc565b600680546001600160a01b0319166001600160a01b0392909216919091179055565b6110b861126e565b60008181526004602052604090205481906001600160a01b0316331461111c5760405162461bcd60e51b81526020600482015260196024820152782a30b9b5a2b9b1b937bb9d103737ba103932b8bab2b9ba32b960391b6044820152606401610548565b600082815260046020526040812090600482015460ff1660058111156111445761114461143c565b146111915760405162461bcd60e51b815260206004820152601960248201527f5461736b457363726f773a2063616e6e6f742063616e63656c000000000000006044820152606401610548565b6004818101805460ff19169091179055600381015460028201546000916111b791611749565b90506111ed6001600160a01b037f0000000000000000000000000000000000000000000000000000000000000000163383611298565b837f1d484b7a6bc447c931d0601b4ac6eb78a8fc5698acc254f8ecec287c622afeee8260405161121f91815260200190565b60405180910390a250505061069860018055565b61123b6112fc565b6001600160a01b03811661126557604051631e4fbdf760e01b815260006004820152602401610548565b61069881611329565b60026001540361129157604051633ee5aeb560e01b815260040160405180910390fd5b6002600155565b6040516001600160a01b038381166024830152604482018390526112f791859182169063a9059cbb906064015b604051602081830303815290604052915060e01b6020820180516001600160e01b0383818316178352505050506113b2565b505050565b6000546001600160a01b031633146107015760405163118cdaa760e01b8152336004820152602401610548565b600080546001600160a01b038381166001600160a01b0319831681178455604051919092169283917f8be0079c531659141344cd1fd0a4f28419497f9722a3daafe3b4186f6b6457e09190a35050565b6040516001600160a01b038481166024830152838116604483015260648201839052610bf79186918216906323b872dd906084016112c5565b600080602060008451602086016000885af1806113d5576040513d6000823e3d81fd5b50506000513d915081156113ed5780600114156113fa565b6001600160a01b0384163b155b15610bf757604051635274afe760e01b81526001600160a01b0385166004820152602401610548565b60006020828403121561143557600080fd5b5035919050565b634e487b7160e01b600052602160045260246000fd5b6006811061147057634e487b7160e01b600052602160045260246000fd5b9052565b6000815180845260005b8181101561149a5760208185018101518683018201520161147e565b506000602082860101526020601f19601f83011685010191505092915050565b602081526114d46020820183516001600160a01b03169052565b6020820151604082015260408201516060820152606082015160808201526000608083015161150660a0840182611452565b5060a083015160c083015260c083015160e083015260e0830151610100818185015280850151915050610120808185015250611546610140840182611474565b949350505050565b80356001600160a01b038116811461156557600080fd5b919050565b60006020828403121561157c57600080fd5b6115858261154e565b9392505050565b6000806040838503121561159f57600080fd5b50508035926020909101359150565b600080600080606085870312156115c457600080fd5b8435935060208501359250604085013567ffffffffffffffff808211156115ea57600080fd5b818701915087601f8301126115fe57600080fd5b81358181111561160d57600080fd5b88602082850101111561161f57600080fd5b95989497505060200194505050565b6000806040838503121561164157600080fd5b823591506116516020840161154e565b90509250929050565b6001600160a01b038a168152602081018990526040810188905260608101879052600061012061168d6080840189611452565b8660a08401528560c08401528460e0840152806101008401526116b281840185611474565b9c9b505050505050505050505050565b600181811c908216806116d657607f821691505b6020821081036116f657634e487b7160e01b600052602260045260246000fd5b50919050565b60208082526019908201527f5461736b457363726f773a206e6f742061206d616e6167657200000000000000604082015260600190565b634e487b7160e01b600052601160045260246000fd5b8082018082111561175c5761175c611733565b92915050565b808202811582820484141761175c5761175c611733565b60008261179657634e487b7160e01b600052601260045260246000fd5b500490565b634e487b7160e01b600052604160045260246000fd5b601f8211156112f757600081815260208120601f850160051c810160208610156117d85750805b601f850160051c820191505b818110156117f7578281556001016117e4565b505050505050565b815167ffffffffffffffff8111156118195761181961179b565b61182d8161182784546116c2565b846117b1565b602080601f831160018114611862576000841561184a5750858301515b600019600386901b1c1916600185901b1785556117f7565b600085815260208120601f198616915b8281101561189157888601518255948401946001909101908401611872565b50858210156118af5787850151600019600388901b60f8161c191681555b5050505050600190811b0190555056fea2646970667358221220967be2fa5958724391dfdaa9ae4dee3904a3a6ec1c76265308bc18ae69b3ab3264736f6c63430008140033","opcodes":"PUSH1 0xA0 PUSH1 0x40 MSTORE PUSH1 0x5 PUSH1 0x2 SSTORE PUSH3 0x15180 PUSH1 0x3 SSTORE CALLVALUE DUP1 ISZERO PUSH3 0x1D JUMPI PUSH1 0x0 DUP1 REVERT JUMPDEST POP PUSH1 0x40 MLOAD PUSH3 0x1A79 CODESIZE SUB DUP1 PUSH3 0x1A79 DUP4 CODECOPY DUP2 ADD PUSH1 0x40 DUP2 SWAP1 MSTORE PUSH3 0x40 SWAP2 PUSH3 0x10D JUMP JUMPDEST CALLER DUP1 PUSH3 0x67 JUMPI PUSH1 0x40 MLOAD PUSH4 0x1E4FBDF7 PUSH1 0xE0 SHL DUP2 MSTORE PUSH1 0x0 PUSH1 0x4 DUP3 ADD MSTORE PUSH1 0x24 ADD PUSH1 0x40 MLOAD DUP1 SWAP2 SUB SWAP1 REVERT JUMPDEST PUSH3 0x72 DUP2 PUSH3 0xA0 JUMP JUMPDEST POP PUSH1 0x1 DUP1 SSTORE PUSH1 0x1 PUSH1 0x1 PUSH1 0xA0 SHL SUB SWAP2 DUP3 AND PUSH1 0x80 MSTORE PUSH1 0x6 DUP1 SLOAD PUSH1 0x1 PUSH1 0x1 PUSH1 0xA0 SHL SUB NOT AND SWAP2 SWAP1 SWAP3 AND OR SWAP1 SSTORE PUSH3 0x145 JUMP JUMPDEST PUSH1 0x0 DUP1 SLOAD PUSH1 0x1 PUSH1 0x1 PUSH1 0xA0 SHL SUB DUP4 DUP2 AND PUSH1 0x1 PUSH1 0x1 PUSH1 0xA0 SHL SUB NOT DUP4 AND DUP2 OR DUP5 SSTORE PUSH1 0x40 MLOAD SWAP2 SWAP1 SWAP3 AND SWAP3 DUP4 SWAP2 PUSH32 0x8BE0079C531659141344CD1FD0A4F28419497F9722A3DAAFE3B4186F6B6457E0 SWAP2 SWAP1 LOG3 POP POP JUMP JUMPDEST DUP1 MLOAD PUSH1 0x1 PUSH1 0x1 PUSH1 0xA0 SHL SUB DUP2 AND DUP2 EQ PUSH3 0x108 JUMPI PUSH1 0x0 DUP1 REVERT JUMPDEST SWAP2 SWAP1 POP JUMP JUMPDEST PUSH1 0x0 DUP1 PUSH1 0x40 DUP4 DUP6 SUB SLT ISZERO PUSH3 0x121 JUMPI PUSH1 0x0 DUP1 REVERT JUMPDEST PUSH3 0x12C DUP4 PUSH3 0xF0 JUMP JUMPDEST SWAP2 POP PUSH3 0x13C PUSH1 0x20 DUP5 ADD PUSH3 0xF0 JUMP JUMPDEST SWAP1 POP SWAP3 POP SWAP3 SWAP1 POP JUMP JUMPDEST PUSH1 0x80 MLOAD PUSH2 0x18F5 PUSH3 0x184 PUSH1 0x0 CODECOPY PUSH1 0x0 DUP2 DUP2 PUSH2 0x2B3 ADD MSTORE DUP2 DUP2 PUSH2 0x62A ADD MSTORE DUP2 DUP2 PUSH2 0xA2C ADD MSTORE DUP2 DUP2 PUSH2 0xE68 ADD MSTORE DUP2 DUP2 PUSH2 0xEB8 ADD MSTORE PUSH2 0x11C6 ADD MSTORE PUSH2 0x18F5 PUSH1 0x0 RETURN INVALID PUSH1 0x80 PUSH1 0x40 MSTORE CALLVALUE DUP1 ISZERO PUSH2 0x10 JUMPI PUSH1 0x0 DUP1 REVERT JUMPDEST POP PUSH1 0x4 CALLDATASIZE LT PUSH2 0x158 JUMPI PUSH1 0x0 CALLDATALOAD PUSH1 0xE0 SHR DUP1 PUSH4 0xAC18DE43 GT PUSH2 0xC3 JUMPI DUP1 PUSH4 0xE1231D50 GT PUSH2 0x7C JUMPI DUP1 PUSH4 0xE1231D50 EQ PUSH2 0x2D5 JUMPI DUP1 PUSH4 0xE579F500 EQ PUSH2 0x2E8 JUMPI DUP1 PUSH4 0xE74B981B EQ PUSH2 0x310 JUMPI DUP1 PUSH4 0xEE8CA3B5 EQ PUSH2 0x323 JUMPI DUP1 PUSH4 0xF2FDE38B EQ PUSH2 0x336 JUMPI DUP1 PUSH4 0xFDFF9B4D EQ PUSH2 0x349 JUMPI PUSH1 0x0 DUP1 REVERT JUMPDEST DUP1 PUSH4 0xAC18DE43 EQ PUSH2 0x259 JUMPI DUP1 PUSH4 0xBBACC591 EQ PUSH2 0x26C JUMPI DUP1 PUSH4 0xBD42CF9E EQ PUSH2 0x27F JUMPI DUP1 PUSH4 0xC04C22A4 EQ PUSH2 0x292 JUMPI DUP1 PUSH4 0xCAB230D2 EQ PUSH2 0x29B JUMPI DUP1 PUSH4 0xCB1B4AC3 EQ PUSH2 0x2AE JUMPI PUSH1 0x0 DUP1 REVERT JUMPDEST DUP1 PUSH4 0x76C3504B GT PUSH2 0x115 JUMPI DUP1 PUSH4 0x76C3504B EQ PUSH2 0x1F3 JUMPI DUP1 PUSH4 0x81D223BB EQ PUSH2 0x206 JUMPI DUP1 PUSH4 0x8C639A85 EQ PUSH2 0x219 JUMPI DUP1 PUSH4 0x8DA5CB5B EQ PUSH2 0x222 JUMPI DUP1 PUSH4 0x93F22B41 EQ PUSH2 0x233 JUMPI DUP1 PUSH4 0x9BDD6DE7 EQ PUSH2 0x246 JUMPI PUSH1 0x0 DUP1 REVERT JUMPDEST DUP1 PUSH4 0x15A29035 EQ PUSH2 0x15D JUMPI DUP1 PUSH4 0x2A32C721 EQ PUSH2 0x186 JUMPI DUP1 PUSH4 0x2D06177A EQ PUSH2 0x19B JUMPI DUP1 PUSH4 0x3C93B905 EQ PUSH2 0x1AE JUMPI DUP1 PUSH4 0x46904840 EQ PUSH2 0x1C0 JUMPI DUP1 PUSH4 0x715018A6 EQ PUSH2 0x1EB JUMPI JUMPDEST PUSH1 0x0 DUP1 REVERT JUMPDEST PUSH2 0x170 PUSH2 0x16B CALLDATASIZE PUSH1 0x4 PUSH2 0x1423 JUMP JUMPDEST PUSH2 0x37C JUMP JUMPDEST PUSH1 0x40 MLOAD PUSH2 0x17D SWAP2 SWAP1 PUSH2 0x14BA JUMP JUMPDEST PUSH1 0x40 MLOAD DUP1 SWAP2 SUB SWAP1 RETURN JUMPDEST PUSH2 0x199 PUSH2 0x194 CALLDATASIZE PUSH1 0x4 PUSH2 0x1423 JUMP JUMPDEST PUSH2 0x504 JUMP JUMPDEST STOP JUMPDEST PUSH2 0x199 PUSH2 0x1A9 CALLDATASIZE PUSH1 0x4 PUSH2 0x156A JUMP JUMPDEST PUSH2 0x69B JUMP JUMPDEST PUSH1 0x7 SLOAD JUMPDEST PUSH1 0x40 MLOAD SWAP1 DUP2 MSTORE PUSH1 0x20 ADD PUSH2 0x17D JUMP JUMPDEST PUSH1 0x6 SLOAD PUSH2 0x1D3 SWAP1 PUSH1 0x1 PUSH1 0x1 PUSH1 0xA0 SHL SUB AND DUP2 JUMP JUMPDEST PUSH1 0x40 MLOAD PUSH1 0x1 PUSH1 0x1 PUSH1 0xA0 SHL SUB SWAP1 SWAP2 AND DUP2 MSTORE PUSH1 0x20 ADD PUSH2 0x17D JUMP JUMPDEST PUSH2 0x199 PUSH2 0x6EF JUMP JUMPDEST PUSH2 0x1B2 PUSH2 0x201 CALLDATASIZE PUSH1 0x4 PUSH2 0x1423 JUMP JUMPDEST PUSH2 0x703 JUMP JUMPDEST PUSH2 0x199 PUSH2 0x214 CALLDATASIZE PUSH1 0x4 PUSH2 0x158C JUMP JUMPDEST PUSH2 0x724 JUMP JUMPDEST PUSH2 0x1B2 PUSH1 0x2 SLOAD DUP2 JUMP JUMPDEST PUSH1 0x0 SLOAD PUSH1 0x1 PUSH1 0x1 PUSH1 0xA0 SHL SUB AND PUSH2 0x1D3 JUMP JUMPDEST PUSH2 0x199 PUSH2 0x241 CALLDATASIZE PUSH1 0x4 PUSH2 0x158C JUMP JUMPDEST PUSH2 0x834 JUMP JUMPDEST PUSH2 0x199 PUSH2 0x254 CALLDATASIZE PUSH1 0x4 PUSH2 0x15AE JUMP JUMPDEST PUSH2 0x936 JUMP JUMPDEST PUSH2 0x199 PUSH2 0x267 CALLDATASIZE PUSH1 0x4 PUSH2 0x156A JUMP JUMPDEST PUSH2 0xBFD JUMP JUMPDEST PUSH2 0x199 PUSH2 0x27A CALLDATASIZE PUSH1 0x4 PUSH2 0x1423 JUMP JUMPDEST PUSH2 0xC4E JUMP JUMPDEST PUSH2 0x199 PUSH2 0x28D CALLDATASIZE PUSH1 0x4 PUSH2 0x162E JUMP JUMPDEST PUSH2 0xD8C JUMP JUMPDEST PUSH2 0x1B2 PUSH1 0x3 SLOAD DUP2 JUMP JUMPDEST PUSH2 0x199 PUSH2 0x2A9 CALLDATASIZE PUSH1 0x4 PUSH2 0x1423 JUMP JUMPDEST PUSH2 0xF38 JUMP JUMPDEST PUSH2 0x1D3 PUSH32 0x0 DUP2 JUMP JUMPDEST PUSH2 0x199 PUSH2 0x2E3 CALLDATASIZE PUSH1 0x4 PUSH2 0x1423 JUMP JUMPDEST PUSH2 0xF96 JUMP JUMPDEST PUSH2 0x2FB PUSH2 0x2F6 CALLDATASIZE PUSH1 0x4 PUSH2 0x1423 JUMP JUMPDEST PUSH2 0xFA3 JUMP JUMPDEST PUSH1 0x40 MLOAD PUSH2 0x17D SWAP10 SWAP9 SWAP8 SWAP7 SWAP6 SWAP5 SWAP4 SWAP3 SWAP2 SWAP1 PUSH2 0x165A JUMP JUMPDEST PUSH2 0x199 PUSH2 0x31E CALLDATASIZE PUSH1 0x4 PUSH2 0x156A JUMP JUMPDEST PUSH2 0x1086 JUMP JUMPDEST PUSH2 0x199 PUSH2 0x331 CALLDATASIZE PUSH1 0x4 PUSH2 0x1423 JUMP JUMPDEST PUSH2 0x10B0 JUMP JUMPDEST PUSH2 0x199 PUSH2 0x344 CALLDATASIZE PUSH1 0x4 PUSH2 0x156A JUMP JUMPDEST PUSH2 0x1233 JUMP JUMPDEST PUSH2 0x36C PUSH2 0x357 CALLDATASIZE PUSH1 0x4 PUSH2 0x156A JUMP JUMPDEST PUSH1 0x5 PUSH1 0x20 MSTORE PUSH1 0x0 SWAP1 DUP2 MSTORE PUSH1 0x40 SWAP1 KECCAK256 SLOAD PUSH1 0xFF AND DUP2 JUMP JUMPDEST PUSH1 0x40 MLOAD SWAP1 ISZERO ISZERO DUP2 MSTORE PUSH1 0x20 ADD PUSH2 0x17D JUMP JUMPDEST PUSH2 0x3CE PUSH1 0x40 DUP1 MLOAD PUSH2 0x120 DUP2 ADD DUP3 MSTORE PUSH1 0x0 DUP1 DUP3 MSTORE PUSH1 0x20 DUP3 ADD DUP2 SWAP1 MSTORE SWAP2 DUP2 ADD DUP3 SWAP1 MSTORE PUSH1 0x60 DUP2 ADD DUP3 SWAP1 MSTORE SWAP1 PUSH1 0x80 DUP3 ADD SWAP1 DUP2 MSTORE PUSH1 0x20 ADD PUSH1 0x0 DUP1 NOT AND DUP2 MSTORE PUSH1 0x20 ADD PUSH1 0x0 DUP2 MSTORE PUSH1 0x20 ADD PUSH1 0x0 DUP2 MSTORE PUSH1 0x20 ADD PUSH1 0x60 DUP2 MSTORE POP SWAP1 JUMP JUMPDEST PUSH1 0x0 DUP3 DUP2 MSTORE PUSH1 0x4 PUSH1 0x20 DUP2 DUP2 MSTORE PUSH1 0x40 SWAP3 DUP4 SWAP1 KECCAK256 DUP4 MLOAD PUSH2 0x120 DUP2 ADD DUP6 MSTORE DUP2 SLOAD PUSH1 0x1 PUSH1 0x1 PUSH1 0xA0 SHL SUB AND DUP2 MSTORE PUSH1 0x1 DUP3 ADD SLOAD SWAP3 DUP2 ADD SWAP3 SWAP1 SWAP3 MSTORE PUSH1 0x2 DUP2 ADD SLOAD SWAP4 DUP3 ADD SWAP4 SWAP1 SWAP4 MSTORE PUSH1 0x3 DUP4 ADD SLOAD PUSH1 0x60 DUP3 ADD MSTORE SWAP1 DUP3 ADD SLOAD SWAP1 SWAP2 SWAP1 PUSH1 0x80 DUP4 ADD SWAP1 PUSH1 0xFF AND PUSH1 0x5 DUP2 GT ISZERO PUSH2 0x438 JUMPI PUSH2 0x438 PUSH2 0x143C JUMP JUMPDEST PUSH1 0x5 DUP2 GT ISZERO PUSH2 0x449 JUMPI PUSH2 0x449 PUSH2 0x143C JUMP JUMPDEST DUP2 MSTORE PUSH1 0x20 ADD PUSH1 0x5 DUP3 ADD SLOAD DUP2 MSTORE PUSH1 0x20 ADD PUSH1 0x6 DUP3 ADD SLOAD DUP2 MSTORE PUSH1 0x20 ADD PUSH1 0x7 DUP3 ADD SLOAD DUP2 MSTORE PUSH1 0x20 ADD PUSH1 0x8 DUP3 ADD DUP1 SLOAD PUSH2 0x47B SWAP1 PUSH2 0x16C2 JUMP JUMPDEST DUP1 PUSH1 0x1F ADD PUSH1 0x20 DUP1 SWAP2 DIV MUL PUSH1 0x20 ADD PUSH1 0x40 MLOAD SWAP1 DUP2 ADD PUSH1 0x40 MSTORE DUP1 SWAP3 SWAP2 SWAP1 DUP2 DUP2 MSTORE PUSH1 0x20 ADD DUP3 DUP1 SLOAD PUSH2 0x4A7 SWAP1 PUSH2 0x16C2 JUMP JUMPDEST DUP1 ISZERO PUSH2 0x4F4 JUMPI DUP1 PUSH1 0x1F LT PUSH2 0x4C9 JUMPI PUSH2 0x100 DUP1 DUP4 SLOAD DIV MUL DUP4 MSTORE SWAP2 PUSH1 0x20 ADD SWAP2 PUSH2 0x4F4 JUMP JUMPDEST DUP3 ADD SWAP2 SWAP1 PUSH1 0x0 MSTORE PUSH1 0x20 PUSH1 0x0 KECCAK256 SWAP1 JUMPDEST DUP2 SLOAD DUP2 MSTORE SWAP1 PUSH1 0x1 ADD SWAP1 PUSH1 0x20 ADD DUP1 DUP4 GT PUSH2 0x4D7 JUMPI DUP3 SWAP1 SUB PUSH1 0x1F AND DUP3 ADD SWAP2 JUMPDEST POP POP POP POP POP DUP2 MSTORE POP POP SWAP1 POP SWAP2 SWAP1 POP JUMP JUMPDEST CALLER PUSH1 0x0 SWAP1 DUP2 MSTORE PUSH1 0x5 PUSH1 0x20 MSTORE PUSH1 0x40 SWAP1 KECCAK256 SLOAD PUSH1 0xFF AND DUP1 PUSH2 0x52C JUMPI POP PUSH1 0x0 SLOAD PUSH1 0x1 PUSH1 0x1 PUSH1 0xA0 SHL SUB AND CALLER EQ JUMPDEST PUSH2 0x551 JUMPI PUSH1 0x40 MLOAD PUSH3 0x461BCD PUSH1 0xE5 SHL DUP2 MSTORE PUSH1 0x4 ADD PUSH2 0x548 SWAP1 PUSH2 0x16FC JUMP JUMPDEST PUSH1 0x40 MLOAD DUP1 SWAP2 SUB SWAP1 REVERT JUMPDEST PUSH2 0x559 PUSH2 0x126E JUMP JUMPDEST PUSH1 0x0 DUP2 DUP2 MSTORE PUSH1 0x4 PUSH1 0x20 MSTORE PUSH1 0x40 DUP2 KECCAK256 SWAP1 PUSH1 0x4 DUP3 ADD SLOAD PUSH1 0xFF AND PUSH1 0x5 DUP2 GT ISZERO PUSH2 0x581 JUMPI PUSH2 0x581 PUSH2 0x143C JUMP JUMPDEST EQ DUP1 PUSH2 0x5A5 JUMPI POP PUSH1 0x3 PUSH1 0x4 DUP3 ADD SLOAD PUSH1 0xFF AND PUSH1 0x5 DUP2 GT ISZERO PUSH2 0x5A3 JUMPI PUSH2 0x5A3 PUSH2 0x143C JUMP JUMPDEST EQ JUMPDEST PUSH2 0x5F1 JUMPI PUSH1 0x40 MLOAD PUSH3 0x461BCD PUSH1 0xE5 SHL DUP2 MSTORE PUSH1 0x20 PUSH1 0x4 DUP3 ADD MSTORE PUSH1 0x19 PUSH1 0x24 DUP3 ADD MSTORE PUSH32 0x5461736B457363726F773A2063616E6E6F7420726566756E6400000000000000 PUSH1 0x44 DUP3 ADD MSTORE PUSH1 0x64 ADD PUSH2 0x548 JUMP JUMPDEST PUSH1 0x4 DUP2 DUP2 ADD DUP1 SLOAD PUSH1 0xFF NOT AND SWAP1 SWAP2 OR SWAP1 SSTORE PUSH1 0x3 DUP2 ADD SLOAD PUSH1 0x2 DUP3 ADD SLOAD PUSH1 0x0 SWAP2 PUSH2 0x617 SWAP2 PUSH2 0x1749 JUMP JUMPDEST DUP3 SLOAD SWAP1 SWAP2 POP PUSH2 0x653 SWAP1 PUSH1 0x1 PUSH1 0x1 PUSH1 0xA0 SHL SUB PUSH32 0x0 DUP2 AND SWAP2 AND DUP4 PUSH2 0x1298 JUMP JUMPDEST DUP3 PUSH32 0x1D484B7A6BC447C931D0601B4AC6EB78A8FC5698ACC254F8ECEC287C622AFEEE DUP3 PUSH1 0x40 MLOAD PUSH2 0x685 SWAP2 DUP2 MSTORE PUSH1 0x20 ADD SWAP1 JUMP JUMPDEST PUSH1 0x40 MLOAD DUP1 SWAP2 SUB SWAP1 LOG2 POP POP PUSH2 0x698 PUSH1 0x1 DUP1 SSTORE JUMP JUMPDEST POP JUMP JUMPDEST PUSH2 0x6A3 PUSH2 0x12FC JUMP JUMPDEST PUSH1 0x1 PUSH1 0x1 PUSH1 0xA0 SHL SUB DUP2 AND PUSH1 0x0 DUP2 DUP2 MSTORE PUSH1 0x5 PUSH1 0x20 MSTORE PUSH1 0x40 DUP1 DUP3 KECCAK256 DUP1 SLOAD PUSH1 0xFF NOT AND PUSH1 0x1 OR SWAP1 SSTORE MLOAD PUSH32 0x3B4A40CCCF2058C593542587329DD385BE4F0B588DB5471FBD9598E56DD7093A SWAP2 SWAP1 LOG2 POP JUMP JUMPDEST PUSH2 0x6F7 PUSH2 0x12FC JUMP JUMPDEST PUSH2 0x701 PUSH1 0x0 PUSH2 0x1329 JUMP JUMPDEST JUMP JUMPDEST PUSH1 0x7 DUP2 DUP2 SLOAD DUP2 LT PUSH2 0x713 JUMPI PUSH1 0x0 DUP1 REVERT JUMPDEST PUSH1 0x0 SWAP2 DUP3 MSTORE PUSH1 0x20 SWAP1 SWAP2 KECCAK256 ADD SLOAD SWAP1 POP DUP2 JUMP JUMPDEST CALLER PUSH1 0x0 SWAP1 DUP2 MSTORE PUSH1 0x5 PUSH1 0x20 MSTORE PUSH1 0x40 SWAP1 KECCAK256 SLOAD PUSH1 0xFF AND DUP1 PUSH2 0x74C JUMPI POP PUSH1 0x0 SLOAD PUSH1 0x1 PUSH1 0x1 PUSH1 0xA0 SHL SUB AND CALLER EQ JUMPDEST PUSH2 0x768 JUMPI PUSH1 0x40 MLOAD PUSH3 0x461BCD PUSH1 0xE5 SHL DUP2 MSTORE PUSH1 0x4 ADD PUSH2 0x548 SWAP1 PUSH2 0x16FC JUMP JUMPDEST PUSH1 0x0 DUP3 DUP2 MSTORE PUSH1 0x4 PUSH1 0x20 MSTORE PUSH1 0x40 SWAP1 KECCAK256 PUSH1 0x1 PUSH1 0x4 DUP3 ADD SLOAD PUSH1 0xFF AND PUSH1 0x5 DUP2 GT ISZERO PUSH2 0x791 JUMPI PUSH2 0x791 PUSH2 0x143C JUMP JUMPDEST EQ PUSH2 0x7DE JUMPI PUSH1 0x40 MLOAD PUSH3 0x461BCD PUSH1 0xE5 SHL DUP2 MSTORE PUSH1 0x20 PUSH1 0x4 DUP3 ADD MSTORE PUSH1 0x18 PUSH1 0x24 DUP3 ADD MSTORE PUSH32 0x5461736B457363726F773A206E6F742061737369676E65640000000000000000 PUSH1 0x44 DUP3 ADD MSTORE PUSH1 0x64 ADD PUSH2 0x548 JUMP JUMPDEST PUSH1 0x5 DUP2 ADD DUP3 SWAP1 SSTORE PUSH1 0x4 DUP2 ADD DUP1 SLOAD PUSH1 0xFF NOT AND PUSH1 0x2 OR SWAP1 SSTORE TIMESTAMP PUSH1 0x7 DUP3 ADD SSTORE PUSH1 0x40 MLOAD DUP3 DUP2 MSTORE DUP4 SWAP1 PUSH32 0x6A3A17A2EE0F5A9660F62936A17B5ADC124D313734DF031F55AB6C55BAC36CFA SWAP1 PUSH1 0x20 ADD PUSH1 0x40 MLOAD DUP1 SWAP2 SUB SWAP1 LOG2 POP POP POP JUMP JUMPDEST CALLER PUSH1 0x0 SWAP1 DUP2 MSTORE PUSH1 0x5 PUSH1 0x20 MSTORE PUSH1 0x40 SWAP1 KECCAK256 SLOAD PUSH1 0xFF AND DUP1 PUSH2 0x85C JUMPI POP PUSH1 0x0 SLOAD PUSH1 0x1 PUSH1 0x1 PUSH1 0xA0 SHL SUB AND CALLER EQ JUMPDEST PUSH2 0x878 JUMPI PUSH1 0x40 MLOAD PUSH3 0x461BCD PUSH1 0xE5 SHL DUP2 MSTORE PUSH1 0x4 ADD PUSH2 0x548 SWAP1 PUSH2 0x16FC JUMP JUMPDEST PUSH1 0x0 DUP3 DUP2 MSTORE PUSH1 0x4 PUSH1 0x20 MSTORE PUSH1 0x40 DUP2 KECCAK256 SWAP1 PUSH1 0x4 DUP3 ADD SLOAD PUSH1 0xFF AND PUSH1 0x5 DUP2 GT ISZERO PUSH2 0x8A0 JUMPI PUSH2 0x8A0 PUSH2 0x143C JUMP JUMPDEST EQ PUSH2 0x8ED JUMPI PUSH1 0x40 MLOAD PUSH3 0x461BCD PUSH1 0xE5 SHL DUP2 MSTORE PUSH1 0x20 PUSH1 0x4 DUP3 ADD MSTORE PUSH1 0x1A PUSH1 0x24 DUP3 ADD MSTORE PUSH32 0x5461736B457363726F773A20696E76616C696420737461747573000000000000 PUSH1 0x44 DUP3 ADD MSTORE PUSH1 0x64 ADD PUSH2 0x548 JUMP JUMPDEST PUSH1 0x1 DUP2 DUP2 ADD DUP4 SWAP1 SSTORE PUSH1 0x4 DUP3 ADD DUP1 SLOAD PUSH1 0xFF NOT AND SWAP1 SWAP2 OR SWAP1 SSTORE PUSH1 0x40 MLOAD DUP3 SWAP1 DUP5 SWAP1 PUSH32 0xE33BF1A30886CC1405C8423879E49B54556423267BA8AF7B25DEF6EAE849919 SWAP1 PUSH1 0x0 SWAP1 LOG3 POP POP POP JUMP JUMPDEST PUSH2 0x93E PUSH2 0x126E JUMP JUMPDEST PUSH1 0x0 DUP5 DUP2 MSTORE PUSH1 0x4 PUSH1 0x20 MSTORE PUSH1 0x40 SWAP1 KECCAK256 SLOAD PUSH1 0x1 PUSH1 0x1 PUSH1 0xA0 SHL SUB AND ISZERO PUSH2 0x9A3 JUMPI PUSH1 0x40 MLOAD PUSH3 0x461BCD PUSH1 0xE5 SHL DUP2 MSTORE PUSH1 0x20 PUSH1 0x4 DUP3 ADD MSTORE PUSH1 0x17 PUSH1 0x24 DUP3 ADD MSTORE PUSH32 0x5461736B457363726F773A207461736B20657869737473000000000000000000 PUSH1 0x44 DUP3 ADD MSTORE PUSH1 0x64 ADD PUSH2 0x548 JUMP JUMPDEST PUSH1 0x0 DUP4 GT PUSH2 0x9F3 JUMPI PUSH1 0x40 MLOAD PUSH3 0x461BCD PUSH1 0xE5 SHL DUP2 MSTORE PUSH1 0x20 PUSH1 0x4 DUP3 ADD MSTORE PUSH1 0x17 PUSH1 0x24 DUP3 ADD MSTORE PUSH32 0x5461736B457363726F773A207A65726F20616D6F756E74000000000000000000 PUSH1 0x44 DUP3 ADD MSTORE PUSH1 0x64 ADD PUSH2 0x548 JUMP JUMPDEST PUSH1 0x0 PUSH1 0x64 PUSH1 0x2 SLOAD DUP6 PUSH2 0xA05 SWAP2 SWAP1 PUSH2 0x1762 JUMP JUMPDEST PUSH2 0xA0F SWAP2 SWAP1 PUSH2 0x1779 JUMP JUMPDEST SWAP1 POP PUSH1 0x0 PUSH2 0xA1D DUP3 DUP7 PUSH2 0x1749 JUMP JUMPDEST SWAP1 POP PUSH2 0xA54 PUSH1 0x1 PUSH1 0x1 PUSH1 0xA0 SHL SUB PUSH32 0x0 AND CALLER ADDRESS DUP5 PUSH2 0x1379 JUMP JUMPDEST PUSH1 0x40 DUP1 MLOAD PUSH2 0x120 DUP2 ADD DUP3 MSTORE CALLER DUP2 MSTORE PUSH1 0x0 PUSH1 0x20 DUP3 ADD DUP2 SWAP1 MSTORE SWAP2 DUP2 ADD DUP8 SWAP1 MSTORE PUSH1 0x60 DUP2 ADD DUP5 SWAP1 MSTORE SWAP1 PUSH1 0x80 DUP3 ADD SWAP1 DUP2 MSTORE PUSH1 0x20 ADD PUSH1 0x0 DUP1 SHL DUP2 MSTORE PUSH1 0x20 ADD TIMESTAMP DUP2 MSTORE PUSH1 0x20 ADD PUSH1 0x0 DUP2 MSTORE PUSH1 0x20 ADD DUP6 DUP6 DUP1 DUP1 PUSH1 0x1F ADD PUSH1 0x20 DUP1 SWAP2 DIV MUL PUSH1 0x20 ADD PUSH1 0x40 MLOAD SWAP1 DUP2 ADD PUSH1 0x40 MSTORE DUP1 SWAP4 SWAP3 SWAP2 SWAP1 DUP2 DUP2 MSTORE PUSH1 0x20 ADD DUP4 DUP4 DUP1 DUP3 DUP5 CALLDATACOPY PUSH1 0x0 SWAP3 ADD DUP3 SWAP1 MSTORE POP SWAP4 SWAP1 SWAP5 MSTORE POP POP DUP9 DUP2 MSTORE PUSH1 0x4 PUSH1 0x20 DUP2 DUP2 MSTORE PUSH1 0x40 SWAP3 DUP4 SWAP1 KECCAK256 DUP6 MLOAD DUP2 SLOAD PUSH1 0x1 PUSH1 0x1 PUSH1 0xA0 SHL SUB NOT AND PUSH1 0x1 PUSH1 0x1 PUSH1 0xA0 SHL SUB SWAP1 SWAP2 AND OR DUP2 SSTORE SWAP1 DUP6 ADD MLOAD PUSH1 0x1 DUP1 DUP4 ADD SWAP2 SWAP1 SWAP2 SSTORE SWAP3 DUP6 ADD MLOAD PUSH1 0x2 DUP3 ADD SSTORE PUSH1 0x60 DUP6 ADD MLOAD PUSH1 0x3 DUP3 ADD SSTORE PUSH1 0x80 DUP6 ADD MLOAD SWAP2 DUP2 ADD DUP1 SLOAD SWAP2 SWAP5 POP SWAP2 SWAP3 PUSH1 0xFF NOT SWAP1 SWAP2 AND SWAP1 DUP4 PUSH1 0x5 DUP2 GT ISZERO PUSH2 0xB45 JUMPI PUSH2 0xB45 PUSH2 0x143C JUMP JUMPDEST MUL OR SWAP1 SSTORE POP PUSH1 0xA0 DUP3 ADD MLOAD PUSH1 0x5 DUP3 ADD SSTORE PUSH1 0xC0 DUP3 ADD MLOAD PUSH1 0x6 DUP3 ADD SSTORE PUSH1 0xE0 DUP3 ADD MLOAD PUSH1 0x7 DUP3 ADD SSTORE PUSH2 0x100 DUP3 ADD MLOAD PUSH1 0x8 DUP3 ADD SWAP1 PUSH2 0xB7D SWAP1 DUP3 PUSH2 0x17FF JUMP JUMPDEST POP POP PUSH1 0x7 DUP1 SLOAD PUSH1 0x1 DUP2 ADD DUP3 SSTORE PUSH1 0x0 SWAP2 SWAP1 SWAP2 MSTORE PUSH32 0xA66CC928B5EDB82AF9BD49922954155AB7B0942694BEA4CE44661D9A8736C688 ADD DUP8 SWAP1 SSTORE POP PUSH1 0x40 MLOAD DUP6 DUP2 MSTORE CALLER SWAP1 DUP8 SWAP1 PUSH32 0x5FB74283F874D0F894D0DE9C856A2A842137DC2C21C621E080065C7B797C0095 SWAP1 PUSH1 0x20 ADD PUSH1 0x40 MLOAD DUP1 SWAP2 SUB SWAP1 LOG3 POP POP PUSH2 0xBF7 PUSH1 0x1 DUP1 SSTORE JUMP JUMPDEST POP POP POP POP JUMP JUMPDEST PUSH2 0xC05 PUSH2 0x12FC JUMP JUMPDEST PUSH1 0x1 PUSH1 0x1 PUSH1 0xA0 SHL SUB DUP2 AND PUSH1 0x0 DUP2 DUP2 MSTORE PUSH1 0x5 PUSH1 0x20 MSTORE PUSH1 0x40 DUP1 DUP3 KECCAK256 DUP1 SLOAD PUSH1 0xFF NOT AND SWAP1 SSTORE MLOAD PUSH32 0xEF69F7D97228658C92417BE1B16B19058315DE71FECB435D07B7D23728B6BD31 SWAP2 SWAP1 LOG2 POP JUMP JUMPDEST PUSH1 0x0 DUP2 DUP2 MSTORE PUSH1 0x4 PUSH1 0x20 MSTORE PUSH1 0x40 SWAP1 KECCAK256 SLOAD DUP2 SWAP1 PUSH1 0x1 PUSH1 0x1 PUSH1 0xA0 SHL SUB AND CALLER EQ PUSH2 0xCB2 JUMPI PUSH1 0x40 MLOAD PUSH3 0x461BCD PUSH1 0xE5 SHL DUP2 MSTORE PUSH1 0x20 PUSH1 0x4 DUP3 ADD MSTORE PUSH1 0x19 PUSH1 0x24 DUP3 ADD MSTORE PUSH25 0x2A30B9B5A2B9B1B937BB9D103737BA103932B8BAB2B9BA32B9 PUSH1 0x39 SHL PUSH1 0x44 DUP3 ADD MSTORE PUSH1 0x64 ADD PUSH2 0x548 JUMP JUMPDEST PUSH1 0x0 DUP3 DUP2 MSTORE PUSH1 0x4 PUSH1 0x20 MSTORE PUSH1 0x40 SWAP1 KECCAK256 PUSH1 0x1 PUSH1 0x4 DUP3 ADD SLOAD PUSH1 0xFF AND PUSH1 0x5 DUP2 GT ISZERO PUSH2 0xCDB JUMPI PUSH2 0xCDB PUSH2 0x143C JUMP JUMPDEST EQ DUP1 PUSH2 0xCFF JUMPI POP PUSH1 0x2 PUSH1 0x4 DUP3 ADD SLOAD PUSH1 0xFF AND PUSH1 0x5 DUP2 GT ISZERO PUSH2 0xCFD JUMPI PUSH2 0xCFD PUSH2 0x143C JUMP JUMPDEST EQ JUMPDEST PUSH2 0xD4B JUMPI PUSH1 0x40 MLOAD PUSH3 0x461BCD PUSH1 0xE5 SHL DUP2 MSTORE PUSH1 0x20 PUSH1 0x4 DUP3 ADD MSTORE PUSH1 0x1A PUSH1 0x24 DUP3 ADD MSTORE PUSH32 0x5461736B457363726F773A2063616E6E6F742064697370757465000000000000 PUSH1 0x44 DUP3 ADD MSTORE PUSH1 0x64 ADD PUSH2 0x548 JUMP JUMPDEST PUSH1 0x4 DUP2 ADD DUP1 SLOAD PUSH1 0xFF NOT AND PUSH1 0x3 OR SWAP1 SSTORE PUSH1 0x40 MLOAD CALLER SWAP1 DUP5 SWAP1 PUSH32 0x1D8CBD4296DB81BAC563255B4FC6B24EB172F06C1098ED8ACB493914A95B5261 SWAP1 PUSH1 0x0 SWAP1 LOG3 POP POP POP JUMP JUMPDEST CALLER PUSH1 0x0 SWAP1 DUP2 MSTORE PUSH1 0x5 PUSH1 0x20 MSTORE PUSH1 0x40 SWAP1 KECCAK256 SLOAD PUSH1 0xFF AND DUP1 PUSH2 0xDB4 JUMPI POP PUSH1 0x0 SLOAD PUSH1 0x1 PUSH1 0x1 PUSH1 0xA0 SHL SUB AND CALLER EQ JUMPDEST PUSH2 0xDD0 JUMPI PUSH1 0x40 MLOAD PUSH3 0x461BCD PUSH1 0xE5 SHL DUP2 MSTORE PUSH1 0x4 ADD PUSH2 0x548 SWAP1 PUSH2 0x16FC JUMP JUMPDEST PUSH2 0xDD8 PUSH2 0x126E JUMP JUMPDEST PUSH1 0x0 DUP3 DUP2 MSTORE PUSH1 0x4 PUSH1 0x20 MSTORE PUSH1 0x40 SWAP1 KECCAK256 PUSH1 0x2 PUSH1 0x4 DUP3 ADD SLOAD PUSH1 0xFF AND PUSH1 0x5 DUP2 GT ISZERO PUSH2 0xE01 JUMPI PUSH2 0xE01 PUSH2 0x143C JUMP JUMPDEST EQ PUSH2 0xE4E JUMPI PUSH1 0x40 MLOAD PUSH3 0x461BCD PUSH1 0xE5 SHL DUP2 MSTORE PUSH1 0x20 PUSH1 0x4 DUP3 ADD MSTORE PUSH1 0x19 PUSH1 0x24 DUP3 ADD MSTORE PUSH32 0x5461736B457363726F773A206E6F7420636F6D706C6574656400000000000000 PUSH1 0x44 DUP3 ADD MSTORE PUSH1 0x64 ADD PUSH2 0x548 JUMP JUMPDEST PUSH1 0x4 DUP2 ADD DUP1 SLOAD PUSH1 0xFF NOT AND PUSH1 0x5 OR SWAP1 SSTORE PUSH1 0x2 DUP2 ADD SLOAD PUSH2 0xE98 SWAP1 PUSH32 0x0 PUSH1 0x1 PUSH1 0x1 PUSH1 0xA0 SHL SUB AND SWAP1 DUP5 SWAP1 PUSH2 0x1298 JUMP JUMPDEST PUSH1 0x3 DUP2 ADD SLOAD ISZERO PUSH2 0xEE2 JUMPI PUSH1 0x6 SLOAD PUSH1 0x3 DUP3 ADD SLOAD PUSH2 0xEE2 SWAP2 PUSH1 0x1 PUSH1 0x1 PUSH1 0xA0 SHL SUB PUSH32 0x0 DUP2 AND SWAP3 SWAP2 AND SWAP1 PUSH2 0x1298 JUMP JUMPDEST DUP2 PUSH1 0x1 PUSH1 0x1 PUSH1 0xA0 SHL SUB AND DUP4 PUSH32 0x8B944D078AAFF6BF0F144FA81299120AD1F4628FF02D19E5A02CC5F9050BD4B6 DUP4 PUSH1 0x2 ADD SLOAD PUSH1 0x40 MLOAD PUSH2 0xF22 SWAP2 DUP2 MSTORE PUSH1 0x20 ADD SWAP1 JUMP JUMPDEST PUSH1 0x40 MLOAD DUP1 SWAP2 SUB SWAP1 LOG3 POP PUSH2 0xF34 PUSH1 0x1 DUP1 SSTORE JUMP JUMPDEST POP POP JUMP JUMPDEST PUSH2 0xF40 PUSH2 0x12FC JUMP JUMPDEST PUSH1 0x14 DUP2 GT ISZERO PUSH2 0xF91 JUMPI PUSH1 0x40 MLOAD PUSH3 0x461BCD PUSH1 0xE5 SHL DUP2 MSTORE PUSH1 0x20 PUSH1 0x4 DUP3 ADD MSTORE PUSH1 0x18 PUSH1 0x24 DUP3 ADD MSTORE PUSH32 0x5461736B457363726F773A2066656520746F6F20686967680000000000000000 PUSH1 0x44 DUP3 ADD MSTORE PUSH1 0x64 ADD PUSH2 0x548 JUMP JUMPDEST PUSH1 0x2 SSTORE JUMP JUMPDEST PUSH2 0xF9E PUSH2 0x12FC JUMP JUMPDEST PUSH1 0x3 SSTORE JUMP JUMPDEST PUSH1 0x4 PUSH1 0x20 DUP2 SWAP1 MSTORE PUSH1 0x0 SWAP2 DUP3 MSTORE PUSH1 0x40 SWAP1 SWAP2 KECCAK256 DUP1 SLOAD PUSH1 0x1 DUP3 ADD SLOAD PUSH1 0x2 DUP4 ADD SLOAD PUSH1 0x3 DUP5 ADD SLOAD SWAP5 DUP5 ADD SLOAD PUSH1 0x5 DUP6 ADD SLOAD PUSH1 0x6 DUP7 ADD SLOAD PUSH1 0x7 DUP8 ADD SLOAD PUSH1 0x8 DUP9 ADD DUP1 SLOAD PUSH1 0x1 PUSH1 0x1 PUSH1 0xA0 SHL SUB SWAP1 SWAP9 AND SWAP10 SWAP7 SWAP9 SWAP6 SWAP8 PUSH1 0xFF SWAP1 SWAP6 AND SWAP6 SWAP4 SWAP5 SWAP3 SWAP4 SWAP2 SWAP3 PUSH2 0x1003 SWAP1 PUSH2 0x16C2 JUMP JUMPDEST DUP1 PUSH1 0x1F ADD PUSH1 0x20 DUP1 SWAP2 DIV MUL PUSH1 0x20 ADD PUSH1 0x40 MLOAD SWAP1 DUP2 ADD PUSH1 0x40 MSTORE DUP1 SWAP3 SWAP2 SWAP1 DUP2 DUP2 MSTORE PUSH1 0x20 ADD DUP3 DUP1 SLOAD PUSH2 0x102F SWAP1 PUSH2 0x16C2 JUMP JUMPDEST DUP1 ISZERO PUSH2 0x107C JUMPI DUP1 PUSH1 0x1F LT PUSH2 0x1051 JUMPI PUSH2 0x100 DUP1 DUP4 SLOAD DIV MUL DUP4 MSTORE SWAP2 PUSH1 0x20 ADD SWAP2 PUSH2 0x107C JUMP JUMPDEST DUP3 ADD SWAP2 SWAP1 PUSH1 0x0 MSTORE PUSH1 0x20 PUSH1 0x0 KECCAK256 SWAP1 JUMPDEST DUP2 SLOAD DUP2 MSTORE SWAP1 PUSH1 0x1 ADD SWAP1 PUSH1 0x20 ADD DUP1 DUP4 GT PUSH2 0x105F JUMPI DUP3 SWAP1 SUB PUSH1 0x1F AND DUP3 ADD SWAP2 JUMPDEST POP POP POP POP POP SWAP1 POP DUP10 JUMP JUMPDEST PUSH2 0x108E PUSH2 0x12FC JUMP JUMPDEST PUSH1 0x6 DUP1 SLOAD PUSH1 0x1 PUSH1 0x1 PUSH1 0xA0 SHL SUB NOT AND PUSH1 0x1 PUSH1 0x1 PUSH1 0xA0 SHL SUB SWAP3 SWAP1 SWAP3 AND SWAP2 SWAP1 SWAP2 OR SWAP1 SSTORE JUMP JUMPDEST PUSH2 0x10B8 PUSH2 0x126E JUMP JUMPDEST PUSH1 0x0 DUP2 DUP2 MSTORE PUSH1 0x4 PUSH1 0x20 MSTORE PUSH1 0x40 SWAP1 KECCAK256 SLOAD DUP2 SWAP1 PUSH1 0x1 PUSH1 0x1 PUSH1 0xA0 SHL SUB AND CALLER EQ PUSH2 0x111C JUMPI PUSH1 0x40 MLOAD PUSH3 0x461BCD PUSH1 0xE5 SHL DUP2 MSTORE PUSH1 0x20 PUSH1 0x4 DUP3 ADD MSTORE PUSH1 0x19 PUSH1 0x24 DUP3 ADD MSTORE PUSH25 0x2A30B9B5A2B9B1B937BB9D103737BA103932B8BAB2B9BA32B9 PUSH1 0x39 SHL PUSH1 0x44 DUP3 ADD MSTORE PUSH1 0x64 ADD PUSH2 0x548 JUMP JUMPDEST PUSH1 0x0 DUP3 DUP2 MSTORE PUSH1 0x4 PUSH1 0x20 MSTORE PUSH1 0x40 DUP2 KECCAK256 SWAP1 PUSH1 0x4 DUP3 ADD SLOAD PUSH1 0xFF AND PUSH1 0x5 DUP2 GT ISZERO PUSH2 0x1144 JUMPI PUSH2 0x1144 PUSH2 0x143C JUMP JUMPDEST EQ PUSH2 0x1191 JUMPI PUSH1 0x40 MLOAD PUSH3 0x461BCD PUSH1 0xE5 SHL DUP2 MSTORE PUSH1 0x20 PUSH1 0x4 DUP3 ADD MSTORE PUSH1 0x19 PUSH1 0x24 DUP3 ADD MSTORE PUSH32 0x5461736B457363726F773A2063616E6E6F742063616E63656C00000000000000 PUSH1 0x44 DUP3 ADD MSTORE PUSH1 0x64 ADD PUSH2 0x548 JUMP JUMPDEST PUSH1 0x4 DUP2 DUP2 ADD DUP1 SLOAD PUSH1 0xFF NOT AND SWAP1 SWAP2 OR SWAP1 SSTORE PUSH1 0x3 DUP2 ADD SLOAD PUSH1 0x2 DUP3 ADD SLOAD PUSH1 0x0 SWAP2 PUSH2 0x11B7 SWAP2 PUSH2 0x1749 JUMP JUMPDEST SWAP1 POP PUSH2 0x11ED PUSH1 0x1 PUSH1 0x1 PUSH1 0xA0 SHL SUB PUSH32 0x0 AND CALLER DUP4 PUSH2 0x1298 JUMP JUMPDEST DUP4 PUSH32 0x1D484B7A6BC447C931D0601B4AC6EB78A8FC5698ACC254F8ECEC287C622AFEEE DUP3 PUSH1 0x40 MLOAD PUSH2 0x121F SWAP2 DUP2 MSTORE PUSH1 0x20 ADD SWAP1 JUMP JUMPDEST PUSH1 0x40 MLOAD DUP1 SWAP2 SUB SWAP1 LOG2 POP POP POP PUSH2 0x698 PUSH1 0x1 DUP1 SSTORE JUMP JUMPDEST PUSH2 0x123B PUSH2 0x12FC JUMP JUMPDEST PUSH1 0x1 PUSH1 0x1 PUSH1 0xA0 SHL SUB DUP2 AND PUSH2 0x1265 JUMPI PUSH1 0x40 MLOAD PUSH4 0x1E4FBDF7 PUSH1 0xE0 SHL DUP2 MSTORE PUSH1 0x0 PUSH1 0x4 DUP3 ADD MSTORE PUSH1 0x24 ADD PUSH2 0x548 JUMP JUMPDEST PUSH2 0x698 DUP2 PUSH2 0x1329 JUMP JUMPDEST PUSH1 0x2 PUSH1 0x1 SLOAD SUB PUSH2 0x1291 JUMPI PUSH1 0x40 MLOAD PUSH4 0x3EE5AEB5 PUSH1 0xE0 SHL DUP2 MSTORE PUSH1 0x4 ADD PUSH1 0x40 MLOAD DUP1 SWAP2 SUB SWAP1 REVERT JUMPDEST PUSH1 0x2 PUSH1 0x1 SSTORE JUMP JUMPDEST PUSH1 0x40 MLOAD PUSH1 0x1 PUSH1 0x1 PUSH1 0xA0 SHL SUB DUP4 DUP2 AND PUSH1 0x24 DUP4 ADD MSTORE PUSH1 0x44 DUP3 ADD DUP4 SWAP1 MSTORE PUSH2 0x12F7 SWAP2 DUP6 SWAP2 DUP3 AND SWAP1 PUSH4 0xA9059CBB SWAP1 PUSH1 0x64 ADD JUMPDEST PUSH1 0x40 MLOAD PUSH1 0x20 DUP2 DUP4 SUB SUB DUP2 MSTORE SWAP1 PUSH1 0x40 MSTORE SWAP2 POP PUSH1 0xE0 SHL PUSH1 0x20 DUP3 ADD DUP1 MLOAD PUSH1 0x1 PUSH1 0x1 PUSH1 0xE0 SHL SUB DUP4 DUP2 DUP4 AND OR DUP4 MSTORE POP POP POP POP PUSH2 0x13B2 JUMP JUMPDEST POP POP POP JUMP JUMPDEST PUSH1 0x0 SLOAD PUSH1 0x1 PUSH1 0x1 PUSH1 0xA0 SHL SUB AND CALLER EQ PUSH2 0x701 JUMPI PUSH1 0x40 MLOAD PUSH4 0x118CDAA7 PUSH1 0xE0 SHL DUP2 MSTORE CALLER PUSH1 0x4 DUP3 ADD MSTORE PUSH1 0x24 ADD PUSH2 0x548 JUMP JUMPDEST PUSH1 0x0 DUP1 SLOAD PUSH1 0x1 PUSH1 0x1 PUSH1 0xA0 SHL SUB DUP4 DUP2 AND PUSH1 0x1 PUSH1 0x1 PUSH1 0xA0 SHL SUB NOT DUP4 AND DUP2 OR DUP5 SSTORE PUSH1 0x40 MLOAD SWAP2 SWAP1 SWAP3 AND SWAP3 DUP4 SWAP2 PUSH32 0x8BE0079C531659141344CD1FD0A4F28419497F9722A3DAAFE3B4186F6B6457E0 SWAP2 SWAP1 LOG3 POP POP JUMP JUMPDEST PUSH1 0x40 MLOAD PUSH1 0x1 PUSH1 0x1 PUSH1 0xA0 SHL SUB DUP5 DUP2 AND PUSH1 0x24 DUP4 ADD MSTORE DUP4 DUP2 AND PUSH1 0x44 DUP4 ADD MSTORE PUSH1 0x64 DUP3 ADD DUP4 SWAP1 MSTORE PUSH2 0xBF7 SWAP2 DUP7 SWAP2 DUP3 AND SWAP1 PUSH4 0x23B872DD SWAP1 PUSH1 0x84 ADD PUSH2 0x12C5 JUMP JUMPDEST PUSH1 0x0 DUP1 PUSH1 0x20 PUSH1 0x0 DUP5 MLOAD PUSH1 0x20 DUP7 ADD PUSH1 0x0 DUP9 GAS CALL DUP1 PUSH2 0x13D5 JUMPI PUSH1 0x40 MLOAD RETURNDATASIZE PUSH1 0x0 DUP3 RETURNDATACOPY RETURNDATASIZE DUP2 REVERT JUMPDEST POP POP PUSH1 0x0 MLOAD RETURNDATASIZE SWAP2 POP DUP2 ISZERO PUSH2 0x13ED JUMPI DUP1 PUSH1 0x1 EQ ISZERO PUSH2 0x13FA JUMP JUMPDEST PUSH1 0x1 PUSH1 0x1 PUSH1 0xA0 SHL SUB DUP5 AND EXTCODESIZE ISZERO JUMPDEST ISZERO PUSH2 0xBF7 JUMPI PUSH1 0x40 MLOAD PUSH4 0x5274AFE7 PUSH1 0xE0 SHL DUP2 MSTORE PUSH1 0x1 PUSH1 0x1 PUSH1 0xA0 SHL SUB DUP6 AND PUSH1 0x4 DUP3 ADD MSTORE PUSH1 0x24 ADD PUSH2 0x548 JUMP JUMPDEST PUSH1 0x0 PUSH1 0x20 DUP3 DUP5 SUB SLT ISZERO PUSH2 0x1435 JUMPI PUSH1 0x0 DUP1 REVERT JUMPDEST POP CALLDATALOAD SWAP2 SWAP1 POP JUMP JUMPDEST PUSH4 0x4E487B71 PUSH1 0xE0 SHL PUSH1 0x0 MSTORE PUSH1 0x21 PUSH1 0x4 MSTORE PUSH1 0x24 PUSH1 0x0 REVERT JUMPDEST PUSH1 0x6 DUP2 LT PUSH2 0x1470 JUMPI PUSH4 0x4E487B71 PUSH1 0xE0 SHL PUSH1 0x0 MSTORE PUSH1 0x21 PUSH1 0x4 MSTORE PUSH1 0x24 PUSH1 0x0 REVERT JUMPDEST SWAP1 MSTORE JUMP JUMPDEST PUSH1 0x0 DUP2 MLOAD DUP1 DUP5 MSTORE PUSH1 0x0 JUMPDEST DUP2 DUP2 LT ISZERO PUSH2 0x149A JUMPI PUSH1 0x20 DUP2 DUP6 ADD DUP2 ADD MLOAD DUP7 DUP4 ADD DUP3 ADD MSTORE ADD PUSH2 0x147E JUMP JUMPDEST POP PUSH1 0x0 PUSH1 0x20 DUP3 DUP7 ADD ADD MSTORE PUSH1 0x20 PUSH1 0x1F NOT PUSH1 0x1F DUP4 ADD AND DUP6 ADD ADD SWAP2 POP POP SWAP3 SWAP2 POP POP JUMP JUMPDEST PUSH1 0x20 DUP2 MSTORE PUSH2 0x14D4 PUSH1 0x20 DUP3 ADD DUP4 MLOAD PUSH1 0x1 PUSH1 0x1 PUSH1 0xA0 SHL SUB AND SWAP1 MSTORE JUMP JUMPDEST PUSH1 0x20 DUP3 ADD MLOAD PUSH1 0x40 DUP3 ADD MSTORE PUSH1 0x40 DUP3 ADD MLOAD PUSH1 0x60 DUP3 ADD MSTORE PUSH1 0x60 DUP3 ADD MLOAD PUSH1 0x80 DUP3 ADD MSTORE PUSH1 0x0 PUSH1 0x80 DUP4 ADD MLOAD PUSH2 0x1506 PUSH1 0xA0 DUP5 ADD DUP3 PUSH2 0x1452 JUMP JUMPDEST POP PUSH1 0xA0 DUP4 ADD MLOAD PUSH1 0xC0 DUP4 ADD MSTORE PUSH1 0xC0 DUP4 ADD MLOAD PUSH1 0xE0 DUP4 ADD MSTORE PUSH1 0xE0 DUP4 ADD MLOAD PUSH2 0x100 DUP2 DUP2 DUP6 ADD MSTORE DUP1 DUP6 ADD MLOAD SWAP2 POP POP PUSH2 0x120 DUP1 DUP2 DUP6 ADD MSTORE POP PUSH2 0x1546 PUSH2 0x140 DUP5 ADD DUP3 PUSH2 0x1474 JUMP JUMPDEST SWAP5 SWAP4 POP POP POP POP JUMP JUMPDEST DUP1 CALLDATALOAD PUSH1 0x1 PUSH1 0x1 PUSH1 0xA0 SHL SUB DUP2 AND DUP2 EQ PUSH2 0x1565 JUMPI PUSH1 0x0 DUP1 REVERT JUMPDEST SWAP2 SWAP1 POP JUMP JUMPDEST PUSH1 0x0 PUSH1 0x20 DUP3 DUP5 SUB SLT ISZERO PUSH2 0x157C JUMPI PUSH1 0x0 DUP1 REVERT JUMPDEST PUSH2 0x1585 DUP3 PUSH2 0x154E JUMP JUMPDEST SWAP4 SWAP3 POP POP POP JUMP JUMPDEST PUSH1 0x0 DUP1 PUSH1 0x40 DUP4 DUP6 SUB SLT ISZERO PUSH2 0x159F JUMPI PUSH1 0x0 DUP1 REVERT JUMPDEST POP POP DUP1 CALLDATALOAD SWAP3 PUSH1 0x20 SWAP1 SWAP2 ADD CALLDATALOAD SWAP2 POP JUMP JUMPDEST PUSH1 0x0 DUP1 PUSH1 0x0 DUP1 PUSH1 0x60 DUP6 DUP8 SUB SLT ISZERO PUSH2 0x15C4 JUMPI PUSH1 0x0 DUP1 REVERT JUMPDEST DUP5 CALLDATALOAD SWAP4 POP PUSH1 0x20 DUP6 ADD CALLDATALOAD SWAP3 POP PUSH1 0x40 DUP6 ADD CALLDATALOAD PUSH8 0xFFFFFFFFFFFFFFFF DUP1 DUP3 GT ISZERO PUSH2 0x15EA JUMPI PUSH1 0x0 DUP1 REVERT JUMPDEST DUP2 DUP8 ADD SWAP2 POP DUP8 PUSH1 0x1F DUP4 ADD SLT PUSH2 0x15FE JUMPI PUSH1 0x0 DUP1 REVERT JUMPDEST DUP2 CALLDATALOAD DUP2 DUP2 GT ISZERO PUSH2 0x160D JUMPI PUSH1 0x0 DUP1 REVERT JUMPDEST DUP9 PUSH1 0x20 DUP3 DUP6 ADD ADD GT ISZERO PUSH2 0x161F JUMPI PUSH1 0x0 DUP1 REVERT JUMPDEST SWAP6 SWAP9 SWAP5 SWAP8 POP POP PUSH1 0x20 ADD SWAP5 POP POP POP JUMP JUMPDEST PUSH1 0x0 DUP1 PUSH1 0x40 DUP4 DUP6 SUB SLT ISZERO PUSH2 0x1641 JUMPI PUSH1 0x0 DUP1 REVERT JUMPDEST DUP3 CALLDATALOAD SWAP2 POP PUSH2 0x1651 PUSH1 0x20 DUP5 ADD PUSH2 0x154E JUMP JUMPDEST SWAP1 POP SWAP3 POP SWAP3 SWAP1 POP JUMP JUMPDEST PUSH1 0x1 PUSH1 0x1 PUSH1 0xA0 SHL SUB DUP11 AND DUP2 MSTORE PUSH1 0x20 DUP2 ADD DUP10 SWAP1 MSTORE PUSH1 0x40 DUP2 ADD DUP9 SWAP1 MSTORE PUSH1 0x60 DUP2 ADD DUP8 SWAP1 MSTORE PUSH1 0x0 PUSH2 0x120 PUSH2 0x168D PUSH1 0x80 DUP5 ADD DUP10 PUSH2 0x1452 JUMP JUMPDEST DUP7 PUSH1 0xA0 DUP5 ADD MSTORE DUP6 PUSH1 0xC0 DUP5 ADD MSTORE DUP5 PUSH1 0xE0 DUP5 ADD MSTORE DUP1 PUSH2 0x100 DUP5 ADD MSTORE PUSH2 0x16B2 DUP2 DUP5 ADD DUP6 PUSH2 0x1474 JUMP JUMPDEST SWAP13 SWAP12 POP POP POP POP POP POP POP POP POP POP POP POP JUMP JUMPDEST PUSH1 0x1 DUP2 DUP2 SHR SWAP1 DUP3 AND DUP1 PUSH2 0x16D6 JUMPI PUSH1 0x7F DUP3 AND SWAP2 POP JUMPDEST PUSH1 0x20 DUP3 LT DUP2 SUB PUSH2 0x16F6 JUMPI PUSH4 0x4E487B71 PUSH1 0xE0 SHL PUSH1 0x0 MSTORE PUSH1 0x22 PUSH1 0x4 MSTORE PUSH1 0x24 PUSH1 0x0 REVERT JUMPDEST POP SWAP2 SWAP1 POP JUMP JUMPDEST PUSH1 0x20 DUP1 DUP3 MSTORE PUSH1 0x19 SWAP1 DUP3 ADD MSTORE PUSH32 0x5461736B457363726F773A206E6F742061206D616E6167657200000000000000 PUSH1 0x40 DUP3 ADD MSTORE PUSH1 0x60 ADD SWAP1 JUMP JUMPDEST PUSH4 0x4E487B71 PUSH1 0xE0 SHL PUSH1 0x0 MSTORE PUSH1 0x11 PUSH1 0x4 MSTORE PUSH1 0x24 PUSH1 0x0 REVERT JUMPDEST DUP1 DUP3 ADD DUP1 DUP3 GT ISZERO PUSH2 0x175C JUMPI PUSH2 0x175C PUSH2 0x1733 JUMP JUMPDEST SWAP3 SWAP2 POP POP JUMP JUMPDEST DUP1 DUP3 MUL DUP2 ISZERO DUP3 DUP3 DIV DUP5 EQ OR PUSH2 0x175C JUMPI PUSH2 0x175C PUSH2 0x1733 JUMP JUMPDEST PUSH1 0x0 DUP3 PUSH2 0x1796 JUMPI PUSH4 0x4E487B71 PUSH1 0xE0 SHL PUSH1 0x0 MSTORE PUSH1 0x12 PUSH1 0x4 MSTORE PUSH1 0x24 PUSH1 0x0 REVERT JUMPDEST POP DIV SWAP1 JUMP JUMPDEST PUSH4 0x4E487B71 PUSH1 0xE0 SHL PUSH1 0x0 MSTORE PUSH1 0x41 PUSH1 0x4 MSTORE PUSH1 0x24 PUSH1 0x0 REVERT JUMPDEST PUSH1 0x1F DUP3 GT ISZERO PUSH2 0x12F7 JUMPI PUSH1 0x0 DUP2 DUP2 MSTORE PUSH1 0x20 DUP2 KECCAK256 PUSH1 0x1F DUP6 ADD PUSH1 0x5 SHR DUP2 ADD PUSH1 0x20 DUP7 LT ISZERO PUSH2 0x17D8 JUMPI POP DUP1 JUMPDEST PUSH1 0x1F DUP6 ADD PUSH1 0x5 SHR DUP3 ADD SWAP2 POP JUMPDEST DUP2 DUP2 LT ISZERO PUSH2 0x17F7 JUMPI DUP3 DUP2 SSTORE PUSH1 0x1 ADD PUSH2 0x17E4 JUMP JUMPDEST POP POP POP POP POP POP JUMP JUMPDEST DUP2 MLOAD PUSH8 0xFFFFFFFFFFFFFFFF DUP2 GT ISZERO PUSH2 0x1819 JUMPI PUSH2 0x1819 PUSH2 0x179B JUMP JUMPDEST PUSH2 0x182D DUP2 PUSH2 0x1827 DUP5 SLOAD PUSH2 0x16C2 JUMP JUMPDEST DUP5 PUSH2 0x17B1 JUMP JUMPDEST PUSH1 0x20 DUP1 PUSH1 0x1F DUP4 GT PUSH1 0x1 DUP2 EQ PUSH2 0x1862 JUMPI PUSH1 0x0 DUP5 ISZERO PUSH2 0x184A JUMPI POP DUP6 DUP4 ADD MLOAD JUMPDEST PUSH1 0x0 NOT PUSH1 0x3 DUP7 SWAP1 SHL SHR NOT AND PUSH1 0x1 DUP6 SWAP1 SHL OR DUP6 SSTORE PUSH2 0x17F7 JUMP JUMPDEST PUSH1 0x0 DUP6 DUP2 MSTORE PUSH1 0x20 DUP2 KECCAK256 PUSH1 0x1F NOT DUP7 AND SWAP2 JUMPDEST DUP3 DUP2 LT ISZERO PUSH2 0x1891 JUMPI DUP9 DUP7 ADD MLOAD DUP3 SSTORE SWAP5 DUP5 ADD SWAP5 PUSH1 0x1 SWAP1 SWAP2 ADD SWAP1 DUP5 ADD PUSH2 0x1872 JUMP JUMPDEST POP DUP6 DUP3 LT ISZERO PUSH2 0x18AF JUMPI DUP8 DUP6 ADD MLOAD PUSH1 0x0 NOT PUSH1 0x3 DUP9 SWAP1 SHL PUSH1 0xF8 AND SHR NOT AND DUP2 SSTORE JUMPDEST POP POP POP POP POP PUSH1 0x1 SWAP1 DUP2 SHL ADD SWAP1 SSTORE POP JUMP INVALID LOG2 PUSH5 0x6970667358 0x22 SLT KECCAK256 SWAP7 PUSH28 0xE2FA5958724391DFDAA9AE4DEE3904A3A6EC1C76265308BC18AE69B3 0xAB ORIGIN PUSH5 0x736F6C6343 STOP ADDMOD EQ STOP CALLER "},"methodIdentifiers":{"addManager(address)":"2d06177a","allTaskIds(uint256)":"76c3504b","assignTask(bytes32,bytes32)":"93f22b41","cancelTask(bytes32)":"ee8ca3b5","completeTask(bytes32,bytes32)":"81d223bb","createTask(bytes32,uint256,string)":"9bdd6de7","disputeTask(bytes32)":"bbacc591","disputeTimeout()":"c04c22a4","feeRecipient()":"46904840","getTask(bytes32)":"15a29035","getTotalTasks()":"3c93b905","managers(address)":"fdff9b4d","ottToken()":"cb1b4ac3","owner()":"8da5cb5b","platformFeePercent()":"8c639a85","refundTask(bytes32)":"2a32c721","releasePayment(bytes32,address)":"bd42cf9e","removeManager(address)":"ac18de43","renounceOwnership()":"715018a6","setDisputeTimeout(uint256)":"e1231d50","setFeeRecipient(address)":"e74b981b","setPlatformFeePercent(uint256)":"cab230d2","tasks(bytes32)":"e579f500","transferOwnership(address)":"f2fde38b"}}}}}