{"contracts/NodeRegistry.sol":{"NodeRegistry":{"abi":[{"inputs":[{"internalType":"address","name":"_ottToken","type":"address"}],"stateMutability":"nonpayable","type":"constructor"},{"inputs":[{"internalType":"address","name":"owner","type":"address"}],"name":"OwnableInvalidOwner","type":"error"},{"inputs":[{"internalType":"address","name":"account","type":"address"}],"name":"OwnableUnauthorizedAccount","type":"error"},{"inputs":[],"name":"ReentrancyGuardReentrantCall","type":"error"},{"inputs":[{"internalType":"address","name":"token","type":"address"}],"name":"SafeERC20FailedOperation","type":"error"},{"anonymous":false,"inputs":[{"indexed":true,"internalType":"bytes32","name":"nodeId","type":"bytes32"},{"indexed":false,"internalType":"uint256","name":"seconds_","type":"uint256"},{"indexed":false,"internalType":"uint256","name":"reward","type":"uint256"}],"name":"ComputeReported","type":"event"},{"anonymous":false,"inputs":[{"indexed":true,"internalType":"bytes32","name":"nodeId","type":"bytes32"}],"name":"NodeDeactivated","type":"event"},{"anonymous":false,"inputs":[{"indexed":true,"internalType":"bytes32","name":"nodeId","type":"bytes32"}],"name":"NodeReactivated","type":"event"},{"anonymous":false,"inputs":[{"indexed":true,"internalType":"bytes32","name":"nodeId","type":"bytes32"},{"indexed":true,"internalType":"address","name":"owner","type":"address"},{"indexed":false,"internalType":"uint256","name":"stake","type":"uint256"}],"name":"NodeRegistered","type":"event"},{"anonymous":false,"inputs":[{"indexed":true,"internalType":"address","name":"previousOwner","type":"address"},{"indexed":true,"internalType":"address","name":"newOwner","type":"address"}],"name":"OwnershipTransferred","type":"event"},{"anonymous":false,"inputs":[{"indexed":true,"internalType":"address","name":"reporter","type":"address"}],"name":"ReporterAdded","type":"event"},{"anonymous":false,"inputs":[{"indexed":true,"internalType":"address","name":"reporter","type":"address"}],"name":"ReporterRemoved","type":"event"},{"anonymous":false,"inputs":[{"indexed":true,"internalType":"bytes32","name":"nodeId","type":"bytes32"},{"indexed":true,"internalType":"address","name":"to","type":"address"},{"indexed":false,"internalType":"uint256","name":"amount","type":"uint256"}],"name":"RewardsClaimed","type":"event"},{"anonymous":false,"inputs":[{"indexed":true,"internalType":"bytes32","name":"nodeId","type":"bytes32"},{"indexed":false,"internalType":"uint256","name":"amount","type":"uint256"}],"name":"StakeAdded","type":"event"},{"anonymous":false,"inputs":[{"indexed":true,"internalType":"bytes32","name":"nodeId","type":"bytes32"},{"indexed":false,"internalType":"uint256","name":"amount","type":"uint256"}],"name":"StakeWithdrawn","type":"event"},{"inputs":[{"internalType":"address","name":"reporter","type":"address"}],"name":"addReporter","outputs":[],"stateMutability":"nonpayable","type":"function"},{"inputs":[{"internalType":"bytes32","name":"nodeId","type":"bytes32"},{"internalType":"uint256","name":"amount","type":"uint256"}],"name":"addStake","outputs":[],"stateMutability":"nonpayable","type":"function"},{"inputs":[{"internalType":"uint256","name":"","type":"uint256"}],"name":"allNodeIds","outputs":[{"internalType":"bytes32","name":"","type":"bytes32"}],"stateMutability":"view","type":"function"},{"inputs":[{"internalType":"address","name":"","type":"address"}],"name":"authorizedReporters","outputs":[{"internalType":"bool","name":"","type":"bool"}],"stateMutability":"view","type":"function"},{"inputs":[{"internalType":"bytes32","name":"nodeId","type":"bytes32"}],"name":"claimRewards","outputs":[],"stateMutability":"nonpayable","type":"function"},{"inputs":[{"internalType":"bytes32","name":"nodeId","type":"bytes32"}],"name":"deactivateNode","outputs":[],"stateMutability":"nonpayable","type":"function"},{"inputs":[{"internalType":"bytes32","name":"nodeId","type":"bytes32"}],"name":"getNode","outputs":[{"components":[{"internalType":"address","name":"owner","type":"address"},{"internalType":"uint256","name":"stakedAmount","type":"uint256"},{"internalType":"uint256","name":"pendingRewards","type":"uint256"},{"internalType":"uint256","name":"totalEarned","type":"uint256"},{"internalType":"uint256","name":"totalComputeSeconds","type":"uint256"},{"internalType":"uint256","name":"reputation","type":"uint256"},{"internalType":"uint256","name":"registeredAt","type":"uint256"},{"internalType":"uint256","name":"lastActiveAt","type":"uint256"},{"internalType":"bool","name":"isActive","type":"bool"},{"internalType":"bool","name":"isSlashed","type":"bool"},{"components":[{"internalType":"uint32","name":"cpuCores","type":"uint32"},{"internalType":"uint32","name":"memoryMb","type":"uint32"},{"internalType":"uint32","name":"gpuCount","type":"uint32"},{"internalType":"uint32","name":"gpuVramMb","type":"uint32"},{"internalType":"bool","name":"hasOllama","type":"bool"},{"internalType":"bool","name":"hasSandbox","type":"bool"}],"internalType":"struct NodeRegistry.Capabilities","name":"capabilities","type":"tuple"},{"internalType":"string","name":"endpoint","type":"string"}],"internalType":"struct NodeRegistry.Node","name":"","type":"tuple"}],"stateMutability":"view","type":"function"},{"inputs":[{"internalType":"address","name":"owner_","type":"address"}],"name":"getOwnerNodes","outputs":[{"internalType":"bytes32[]","name":"","type":"bytes32[]"}],"stateMutability":"view","type":"function"},{"inputs":[],"name":"getTotalNodes","outputs":[{"internalType":"uint256","name":"","type":"uint256"}],"stateMutability":"view","type":"function"},{"inputs":[{"internalType":"bytes32","name":"nodeId","type":"bytes32"}],"name":"isNodeEligible","outputs":[{"internalType":"bool","name":"","type":"bool"}],"stateMutability":"view","type":"function"},{"inputs":[],"name":"minStake","outputs":[{"internalType":"uint256","name":"","type":"uint256"}],"stateMutability":"view","type":"function"},{"inputs":[],"name":"ottToken","outputs":[{"internalType":"contract IERC20","name":"","type":"address"}],"stateMutability":"view","type":"function"},{"inputs":[],"name":"owner","outputs":[{"internalType":"address","name":"","type":"address"}],"stateMutability":"view","type":"function"},{"inputs":[{"internalType":"address","name":"","type":"address"},{"internalType":"uint256","name":"","type":"uint256"}],"name":"ownerNodes","outputs":[{"internalType":"bytes32","name":"","type":"bytes32"}],"stateMutability":"view","type":"function"},{"inputs":[{"internalType":"bytes32","name":"nodeId","type":"bytes32"}],"name":"reactivateNode","outputs":[],"stateMutability":"nonpayable","type":"function"},{"inputs":[{"components":[{"internalType":"uint32","name":"cpuCores","type":"uint32"},{"internalType":"uint32","name":"memoryMb","type":"uint32"},{"internalType":"uint32","name":"gpuCount","type":"uint32"},{"internalType":"uint32","name":"gpuVramMb","type":"uint32"},{"internalType":"bool","name":"hasOllama","type":"bool"},{"internalType":"bool","name":"hasSandbox","type":"bool"}],"internalType":"struct NodeRegistry.Capabilities","name":"capabilities","type":"tuple"},{"internalType":"string","name":"endpoint","type":"string"},{"internalType":"uint256","name":"stakeAmount","type":"uint256"}],"name":"registerNode","outputs":[{"internalType":"bytes32","name":"","type":"bytes32"}],"stateMutability":"nonpayable","type":"function"},{"inputs":[{"internalType":"address","name":"reporter","type":"address"}],"name":"removeReporter","outputs":[],"stateMutability":"nonpayable","type":"function"},{"inputs":[],"name":"renounceOwnership","outputs":[],"stateMutability":"nonpayable","type":"function"},{"inputs":[{"internalType":"bytes32","name":"nodeId","type":"bytes32"},{"internalType":"uint256","name":"computeSeconds","type":"uint256"}],"name":"reportCompute","outputs":[],"stateMutability":"nonpayable","type":"function"},{"inputs":[],"name":"rewardRate","outputs":[{"internalType":"uint256","name":"","type":"uint256"}],"stateMutability":"view","type":"function"},{"inputs":[{"internalType":"uint256","name":"_minStake","type":"uint256"}],"name":"setMinStake","outputs":[],"stateMutability":"nonpayable","type":"function"},{"inputs":[{"internalType":"uint256","name":"_rewardRate","type":"uint256"}],"name":"setRewardRate","outputs":[],"stateMutability":"nonpayable","type":"function"},{"inputs":[{"internalType":"address","name":"newOwner","type":"address"}],"name":"transferOwnership","outputs":[],"stateMutability":"nonpayable","type":"function"},{"inputs":[{"internalType":"bytes32","name":"nodeId","type":"bytes32"},{"components":[{"internalType":"uint32","name":"cpuCores","type":"uint32"},{"internalType":"uint32","name":"memoryMb","type":"uint32"},{"internalType":"uint32","name":"gpuCount","type":"uint32"},{"internalType":"uint32","name":"gpuVramMb","type":"uint32"},{"internalType":"bool","name":"hasOllama","type":"bool"},{"internalType":"bool","name":"hasSandbox","type":"bool"}],"internalType":"struct NodeRegistry.Capabilities","name":"capabilities","type":"tuple"}],"name":"updateCapabilities","outputs":[],"stateMutability":"nonpayable","type":"function"},{"inputs":[{"internalType":"bytes32","name":"nodeId","type":"bytes32"},{"internalType":"string","name":"endpoint","type":"string"}],"name":"updateEndpoint","outputs":[],"stateMutability":"nonpayable","type":"function"},{"inputs":[{"internalType":"bytes32","name":"nodeId","type":"bytes32"},{"internalType":"uint256","name":"amount","type":"uint256"}],"name":"withdrawStake","outputs":[],"stateMutability":"nonpayable","type":"function"}],"evm":{"bytecode":{"linkReferences":{},"object":"60a060405268056bc75e2d6310000060025566038d7ea4c680006003553480156200002957600080fd5b5060405162001ddc38038062001ddc8339810160408190526200004c91620000e5565b33806200007357604051631e4fbdf760e01b81526000600482015260240160405180910390fd5b6200007e8162000095565b50600180556001600160a01b031660805262000117565b600080546001600160a01b038381166001600160a01b0319831681178455604051919092169283917f8be0079c531659141344cd1fd0a4f28419497f9722a3daafe3b4186f6b6457e09190a35050565b600060208284031215620000f857600080fd5b81516001600160a01b03811681146200011057600080fd5b9392505050565b608051611c8d6200014f600039600081816103840152818161066501528181610a3001528181610af5015261117c0152611c8d6000f3fe608060405234801561001057600080fd5b506004361061018e5760003560e01c80638bc41246116100de578063a583497111610097578063c84654a811610071578063c84654a81461036c578063cb1b4ac31461037f578063dd8755f2146103a6578063f2fde38b146103b957600080fd5b8063a583497114610326578063acbfd09e14610339578063b59d3bea1461034c57600080fd5b80638bc41246146102a25780638c80fd90146102b55780638da5cb5b146102c85780639e447fc6146102ed578063a244439014610300578063a4b104b81461031357600080fd5b80635de5c2121161014b5780637790ddc6116101255780637790ddc6146102605780637851a0f4146102735780637b0a47ee1461028657806384251dc61461028f57600080fd5b80635de5c2121461023d57806363584ecd14610250578063715018a61461025857600080fd5b80630b55b348146101935780630fac2618146101a857806319dc5716146101bb578063375b3c0a146101ce5780633a41429a146101ea57806350c946fe1461021d575b600080fd5b6101a66101a1366004611495565b6103cc565b005b6101a66101b63660046114e1565b61042d565b6101a66101c93660046114e1565b610571565b6101d760025481565b6040519081526020015b60405180910390f35b61020d6101f836600461151f565b60066020526000908152604090205460ff1681565b60405190151581526020016101e1565b61023061022b36600461153a565b6106d4565b6040516101e19190611599565b6101a661024b36600461151f565b61091c565b6007546101d7565b6101a661096d565b6101a661026e36600461153a565b610981565b6101d76102813660046116b7565b610a9c565b6101d760035481565b6101a661029d366004611713565b610e3e565b6101a66102b036600461153a565b610e91565b6101a66102c336600461153a565b610f9b565b6000546001600160a01b03165b6040516001600160a01b0390911681526020016101e1565b6101a66102fb36600461153a565b610fa8565b6101a661030e36600461153a565b610fb5565b6101d7610321366004611740565b61102e565b6101d761033436600461153a565b61105f565b61020d61034736600461153a565b611080565b61035f61035a36600461151f565b6110c5565b6040516101e1919061176a565b6101a661037a3660046114e1565b611131565b6102d57f000000000000000000000000000000000000000000000000000000000000000081565b6101a66103b436600461151f565b611208565b6101a66103c736600461151f565b61125c565b6000838152600460205260409020546001600160a01b0316331461040b5760405162461bcd60e51b8152600401610402906117ae565b60405180910390fd5b6000838152600460205260409020600a01610427828483611869565b50505050565b3360009081526006602052604090205460ff168061045557506000546001600160a01b031633145b6104905760405162461bcd60e51b815260206004820152600c60248201526b2737ba103932b837b93a32b960a11b6044820152606401610402565b6000828152600460205260409020600881015460ff166104e45760405162461bcd60e51b815260206004820152600f60248201526e4e6f6465206e6f742061637469766560881b6044820152606401610402565b6000600354836104f49190611940565b90508082600201600082825461050a919061195d565b9250508190555082826004016000828254610525919061195d565b9091555050426007830155604080518481526020810183905285917fe81908488df376dab241bc0b86f37bc59ce308713e0ca1974deb29493862a182910160405180910390a250505050565b610579611297565b600082815260046020526040902080546001600160a01b031633146105b05760405162461bcd60e51b8152600401610402906117ae565b81816001015410156105f95760405162461bcd60e51b8152602060048201526012602482015271496e73756666696369656e74207374616b6560701b6044820152606401610402565b8181600101600082825461060d9190611970565b9091555050600254600182015410156106585760088101805460ff1916905560405183907f62b30865c6dddf92caa7594e1394397e7119c9947678e4faba379edb7c0ed6fc90600090a25b61068c6001600160a01b037f00000000000000000000000000000000000000000000000000000000000000001633846112c1565b827f80f371db73b1f2c178035e1597e63905a3394128bc8a687e663b27e8a6dc3234836040516106be91815260200190565b60405180910390a2506106d060018055565b5050565b6107656040805161018081018252600080825260208083018290528284018290526060808401839052608080850184905260a080860185905260c080870186905260e087018690526101008701869052610120870186905287519081018852858152938401859052958301849052908201839052810182905292830152906101408201908152602001606081525090565b60008281526004602081815260409283902083516101808101855281546001600160a01b03168152600182015481840152600282015481860152600382015460608083019190915293820154608080830191909152600583015460a080840191909152600684015460c080850191909152600785015460e0850152600885015460ff8082161515610100808801919091529091048116151561012086015288519182018952600986015463ffffffff80821684526401000000008204811698840198909852600160401b8104881699830199909952600160601b890490961696810196909652600160801b87048516151591860191909152600160881b909504909216151593830193909352610140810191909152600a8201805491929161016084019190610893906117e7565b80601f01602080910402602001604051908101604052809291908181526020018280546108bf906117e7565b801561090c5780601f106108e15761010080835404028352916020019161090c565b820191906000526020600020905b8154815290600101906020018083116108ef57829003601f168201915b5050505050815250509050919050565b610924611325565b6001600160a01b038116600081815260066020526040808220805460ff19169055517ff125aa5e6cb22c17ea0de4e1f86d2ff289ddd6a37e791b9ad29d0091cba06ac89190a250565b610975611325565b61097f6000611352565b565b610989611297565b600081815260046020526040902080546001600160a01b031633146109c05760405162461bcd60e51b8152600401610402906117ae565b6002810154806109ff5760405162461bcd60e51b815260206004820152600a6024820152694e6f207265776172647360b01b6044820152606401610402565b6000826002018190555080826003016000828254610a1d919061195d565b90915550610a5790506001600160a01b037f00000000000000000000000000000000000000000000000000000000000000001633836112c1565b604051818152339084907ffec539b3c42d74cd492c3ecf7966bf014b327beef98e935cdc3ec5e54a6901c79060200160405180910390a35050610a9960018055565b50565b6000610aa6611297565b600254821015610ae85760405162461bcd60e51b815260206004820152600d60248201526c5374616b6520746f6f206c6f7760981b6044820152606401610402565b610b1d6001600160a01b037f0000000000000000000000000000000000000000000000000000000000000000163330856113a2565b60088054906000610b2d83611983565b90915550506008546040516bffffffffffffffffffffffff193360601b1660208201524260348201526054810191909152600090607401604051602081830303815290604052805190602001209050604051806101800160405280336001600160a01b03168152602001848152602001600081526020016000815260200160008152602001612710815260200142815260200142815260200160011515815260200160001515815260200187803603810190610be991906119d2565b815260200186868080601f016020809104026020016040519081016040528093929190818152602001838380828437600092018290525093909452505083815260046020818152604092839020855181546001600160a01b0319166001600160a01b0390911617815585820151600182015585840151600282015560608087015160038301556080808801519483019490945560a080880151600584015560c0880151600684015560e08801516007840155610100808901516008850180546101208c015161ffff1990911692151561ff00191692909217911515909202179055610140880151805160098501805496830151988301519483015197830151929093015163ffffffff91821667ffffffffffffffff199097169690961764010000000098821698909802979097176fffffffffffffffff00000000000000001916600160401b9388169390930263ffffffff60601b191692909217600160601b96909516959095029390931761ffff60801b1916600160801b9315159390930260ff60881b191692909217600160881b9115159190910217909155610160830151909150600a820190610d9c9082611a77565b5050336000818152600560209081526040808320805460018082018355918552838520018790556007805491820181559093527fa66cc928b5edb82af9bd49922954155ab7b0942694bea4ce44661d9a8736c688909201859055905186815291925083917f11a7b6b912db49220c71a4c83b477f565c6b1319c7146faa80e15453fc185cb8910160405180910390a39050610e3660018055565b949350505050565b6000828152600460205260409020546001600160a01b03163314610e745760405162461bcd60e51b8152600401610402906117ae565b600082815260046020526040902081906009016104278282611b44565b600081815260046020526040902080546001600160a01b03163314610ec85760405162461bcd60e51b8152600401610402906117ae565b60025481600101541015610f0e5760405162461bcd60e51b815260206004820152600d60248201526c5374616b6520746f6f206c6f7760981b6044820152606401610402565b6008810154610100900460ff1615610f575760405162461bcd60e51b815260206004820152600c60248201526b139bd919481cdb185cda195960a21b6044820152606401610402565b60088101805460ff1916600117905542600782015560405182907f2b1bf495d62934b9fac0c071c5bf75863b0c4957da79692e4c206888ef7794c590600090a25050565b610fa3611325565b600255565b610fb0611325565b600355565b6000818152600460205260409020546001600160a01b03163314610feb5760405162461bcd60e51b8152600401610402906117ae565b600081815260046020526040808220600801805460ff191690555182917f62b30865c6dddf92caa7594e1394397e7119c9947678e4faba379edb7c0ed6fc91a250565b6005602052816000526040600020818154811061104a57600080fd5b90600052602060002001600091509150505481565b6007818154811061106f57600080fd5b600091825260209091200154905081565b6000818152600460205260408120600881015460ff1680156110ac57506008810154610100900460ff16155b80156110be5750600254816001015410155b9392505050565b6001600160a01b03811660009081526005602090815260409182902080548351818402810184019094528084526060939283018282801561112557602002820191906000526020600020905b815481526020019060010190808311611111575b50505050509050919050565b611139611297565b6000828152600460205260409020546001600160a01b0316331461116f5760405162461bcd60e51b8152600401610402906117ae565b6111a46001600160a01b037f0000000000000000000000000000000000000000000000000000000000000000163330846113a2565b600082815260046020526040812060010180548392906111c590849061195d565b909155505060405181815282907f3b15de13514518fa0748d88dd85871f44eccc587c2d80d51faaf99bed8e7aa939060200160405180910390a26106d060018055565b611210611325565b6001600160a01b038116600081815260066020526040808220805460ff19166001179055517f52824c4a4d431c73d6d24a91f775d722860111c6d30da30b0b21e062fb4c73659190a250565b611264611325565b6001600160a01b03811661128e57604051631e4fbdf760e01b815260006004820152602401610402565b610a9981611352565b6002600154036112ba57604051633ee5aeb560e01b815260040160405180910390fd5b6002600155565b6040516001600160a01b0383811660248301526044820183905261132091859182169063a9059cbb906064015b604051602081830303815290604052915060e01b6020820180516001600160e01b0383818316178352505050506113db565b505050565b6000546001600160a01b0316331461097f5760405163118cdaa760e01b8152336004820152602401610402565b600080546001600160a01b038381166001600160a01b0319831681178455604051919092169283917f8be0079c531659141344cd1fd0a4f28419497f9722a3daafe3b4186f6b6457e09190a35050565b6040516001600160a01b0384811660248301528381166044830152606482018390526104279186918216906323b872dd906084016112ee565b600080602060008451602086016000885af1806113fe576040513d6000823e3d81fd5b50506000513d91508115611416578060011415611423565b6001600160a01b0384163b155b1561042757604051635274afe760e01b81526001600160a01b0385166004820152602401610402565b60008083601f84011261145e57600080fd5b50813567ffffffffffffffff81111561147657600080fd5b60208301915083602082850101111561148e57600080fd5b9250929050565b6000806000604084860312156114aa57600080fd5b83359250602084013567ffffffffffffffff8111156114c857600080fd5b6114d48682870161144c565b9497909650939450505050565b600080604083850312156114f457600080fd5b50508035926020909101359150565b80356001600160a01b038116811461151a57600080fd5b919050565b60006020828403121561153157600080fd5b6110be82611503565b60006020828403121561154c57600080fd5b5035919050565b6000815180845260005b818110156115795760208185018101518683018201520161155d565b506000602082860101526020601f19601f83011685010191505092915050565b602081526115b36020820183516001600160a01b03169052565b602082015160408201526040820151606082015260608201516080820152608082015160a082015260a082015160c082015260c082015160e0820152600060e08301516101008181850152808501519150506101206116158185018315159052565b840151905061014061162a8482018315159052565b84015190506101606116858482018363ffffffff8082511683528060208301511660208401528060408301511660408401528060608301511660608401525060808101511515608083015260a0810151151560a08301525050565b840151610220848101529050610e36610240840182611553565b600060c082840312156116b157600080fd5b50919050565b60008060008061010085870312156116ce57600080fd5b6116d8868661169f565b935060c085013567ffffffffffffffff8111156116f457600080fd5b6117008782880161144c565b9598909750949560e00135949350505050565b60008060e0838503121561172657600080fd5b82359150611737846020850161169f565b90509250929050565b6000806040838503121561175357600080fd5b61175c83611503565b946020939093013593505050565b6020808252825182820181905260009190848201906040850190845b818110156117a257835183529284019291840191600101611786565b50909695505050505050565b6020808252600990820152682737ba1037bbb732b960b91b604082015260600190565b634e487b7160e01b600052604160045260246000fd5b600181811c908216806117fb57607f821691505b6020821081036116b157634e487b7160e01b600052602260045260246000fd5b601f82111561132057600081815260208120601f850160051c810160208610156118425750805b601f850160051c820191505b818110156118615782815560010161184e565b505050505050565b67ffffffffffffffff831115611881576118816117d1565b6118958361188f83546117e7565b8361181b565b6000601f8411600181146118c957600085156118b15750838201355b600019600387901b1c1916600186901b178355611923565b600083815260209020601f19861690835b828110156118fa57868501358255602094850194600190920191016118da565b50868210156119175760001960f88860031b161c19848701351681555b505060018560011b0183555b5050505050565b634e487b7160e01b600052601160045260246000fd5b80820281158282048414176119575761195761192a565b92915050565b808201808211156119575761195761192a565b818103818111156119575761195761192a565b6000600182016119955761199561192a565b5060010190565b63ffffffff81168114610a9957600080fd5b803561151a8161199c565b8015158114610a9957600080fd5b803561151a816119b9565b600060c082840312156119e457600080fd5b60405160c0810181811067ffffffffffffffff82111715611a0757611a076117d1565b6040528235611a158161199c565b81526020830135611a258161199c565b60208201526040830135611a388161199c565b6040820152611a49606084016119ae565b6060820152611a5a608084016119c7565b6080820152611a6b60a084016119c7565b60a08201529392505050565b815167ffffffffffffffff811115611a9157611a916117d1565b611aa581611a9f84546117e7565b8461181b565b602080601f831160018114611ada5760008415611ac25750858301515b600019600386901b1c1916600185901b178555611861565b600085815260208120601f198616915b82811015611b0957888601518255948401946001909101908401611aea565b5085821015611b275787850151600019600388901b60f8161c191681555b5050505050600190811b01905550565b60008135611957816119b9565b8135611b4f8161199c565b63ffffffff8116905081548163ffffffff1982161783556020840135611b748161199c565b67ffffffff000000008160201b169050808367ffffffffffffffff198416171784556040850135611ba48161199c565b6bffffffff00000000000000008160401b16846bffffffffffffffffffffffff198516178317178555505050506060820135611bdf8161199c565b815463ffffffff60601b1916606082901b63ffffffff60601b1617825550611c2a611c0c60808401611b37565b82805460ff60801b191691151560801b60ff60801b16919091179055565b6106d0611c3960a08401611b37565b82805460ff60881b191691151560881b60ff60881b1691909117905556fea2646970667358221220c2d9ae96790f145894bc55d098ec6cb7fa42d95ded1a3331ec1df7f7f84fd30e64736f6c63430008140033","opcodes":"PUSH1 0xA0 PUSH1 0x40 MSTORE PUSH9 0x56BC75E2D63100000 PUSH1 0x2 SSTORE PUSH7 0x38D7EA4C68000 PUSH1 0x3 SSTORE CALLVALUE DUP1 ISZERO PUSH3 0x29 JUMPI PUSH1 0x0 DUP1 REVERT JUMPDEST POP PUSH1 0x40 MLOAD PUSH3 0x1DDC CODESIZE SUB DUP1 PUSH3 0x1DDC DUP4 CODECOPY DUP2 ADD PUSH1 0x40 DUP2 SWAP1 MSTORE PUSH3 0x4C SWAP2 PUSH3 0xE5 JUMP JUMPDEST CALLER DUP1 PUSH3 0x73 JUMPI PUSH1 0x40 MLOAD PUSH4 0x1E4FBDF7 PUSH1 0xE0 SHL DUP2 MSTORE PUSH1 0x0 PUSH1 0x4 DUP3 ADD MSTORE PUSH1 0x24 ADD PUSH1 0x40 MLOAD DUP1 SWAP2 SUB SWAP1 REVERT JUMPDEST PUSH3 0x7E DUP2 PUSH3 0x95 JUMP JUMPDEST POP PUSH1 0x1 DUP1 SSTORE PUSH1 0x1 PUSH1 0x1 PUSH1 0xA0 SHL SUB AND PUSH1 0x80 MSTORE PUSH3 0x117 JUMP JUMPDEST PUSH1 0x0 DUP1 SLOAD PUSH1 0x1 PUSH1 0x1 PUSH1 0xA0 SHL SUB DUP4 DUP2 AND PUSH1 0x1 PUSH1 0x1 PUSH1 0xA0 SHL SUB NOT DUP4 AND DUP2 OR DUP5 SSTORE PUSH1 0x40 MLOAD SWAP2 SWAP1 SWAP3 AND SWAP3 DUP4 SWAP2 PUSH32 0x8BE0079C531659141344CD1FD0A4F28419497F9722A3DAAFE3B4186F6B6457E0 SWAP2 SWAP1 LOG3 POP POP JUMP JUMPDEST PUSH1 0x0 PUSH1 0x20 DUP3 DUP5 SUB SLT ISZERO PUSH3 0xF8 JUMPI PUSH1 0x0 DUP1 REVERT JUMPDEST DUP2 MLOAD PUSH1 0x1 PUSH1 0x1 PUSH1 0xA0 SHL SUB DUP2 AND DUP2 EQ PUSH3 0x110 JUMPI PUSH1 0x0 DUP1 REVERT JUMPDEST SWAP4 SWAP3 POP POP POP JUMP JUMPDEST PUSH1 0x80 MLOAD PUSH2 0x1C8D PUSH3 0x14F PUSH1 0x0 CODECOPY PUSH1 0x0 DUP2 DUP2 PUSH2 0x384 ADD MSTORE DUP2 DUP2 PUSH2 0x665 ADD MSTORE DUP2 DUP2 PUSH2 0xA30 ADD MSTORE DUP2 DUP2 PUSH2 0xAF5 ADD MSTORE PUSH2 0x117C ADD MSTORE PUSH2 0x1C8D PUSH1 0x0 RETURN INVALID PUSH1 0x80 PUSH1 0x40 MSTORE CALLVALUE DUP1 ISZERO PUSH2 0x10 JUMPI PUSH1 0x0 DUP1 REVERT JUMPDEST POP PUSH1 0x4 CALLDATASIZE LT PUSH2 0x18E JUMPI PUSH1 0x0 CALLDATALOAD PUSH1 0xE0 SHR DUP1 PUSH4 0x8BC41246 GT PUSH2 0xDE JUMPI DUP1 PUSH4 0xA5834971 GT PUSH2 0x97 JUMPI DUP1 PUSH4 0xC84654A8 GT PUSH2 0x71 JUMPI DUP1 PUSH4 0xC84654A8 EQ PUSH2 0x36C JUMPI DUP1 PUSH4 0xCB1B4AC3 EQ PUSH2 0x37F JUMPI DUP1 PUSH4 0xDD8755F2 EQ PUSH2 0x3A6 JUMPI DUP1 PUSH4 0xF2FDE38B EQ PUSH2 0x3B9 JUMPI PUSH1 0x0 DUP1 REVERT JUMPDEST DUP1 PUSH4 0xA5834971 EQ PUSH2 0x326 JUMPI DUP1 PUSH4 0xACBFD09E EQ PUSH2 0x339 JUMPI DUP1 PUSH4 0xB59D3BEA EQ PUSH2 0x34C JUMPI PUSH1 0x0 DUP1 REVERT JUMPDEST DUP1 PUSH4 0x8BC41246 EQ PUSH2 0x2A2 JUMPI DUP1 PUSH4 0x8C80FD90 EQ PUSH2 0x2B5 JUMPI DUP1 PUSH4 0x8DA5CB5B EQ PUSH2 0x2C8 JUMPI DUP1 PUSH4 0x9E447FC6 EQ PUSH2 0x2ED JUMPI DUP1 PUSH4 0xA2444390 EQ PUSH2 0x300 JUMPI DUP1 PUSH4 0xA4B104B8 EQ PUSH2 0x313 JUMPI PUSH1 0x0 DUP1 REVERT JUMPDEST DUP1 PUSH4 0x5DE5C212 GT PUSH2 0x14B JUMPI DUP1 PUSH4 0x7790DDC6 GT PUSH2 0x125 JUMPI DUP1 PUSH4 0x7790DDC6 EQ PUSH2 0x260 JUMPI DUP1 PUSH4 0x7851A0F4 EQ PUSH2 0x273 JUMPI DUP1 PUSH4 0x7B0A47EE EQ PUSH2 0x286 JUMPI DUP1 PUSH4 0x84251DC6 EQ PUSH2 0x28F JUMPI PUSH1 0x0 DUP1 REVERT JUMPDEST DUP1 PUSH4 0x5DE5C212 EQ PUSH2 0x23D JUMPI DUP1 PUSH4 0x63584ECD EQ PUSH2 0x250 JUMPI DUP1 PUSH4 0x715018A6 EQ PUSH2 0x258 JUMPI PUSH1 0x0 DUP1 REVERT JUMPDEST DUP1 PUSH4 0xB55B348 EQ PUSH2 0x193 JUMPI DUP1 PUSH4 0xFAC2618 EQ PUSH2 0x1A8 JUMPI DUP1 PUSH4 0x19DC5716 EQ PUSH2 0x1BB JUMPI DUP1 PUSH4 0x375B3C0A EQ PUSH2 0x1CE JUMPI DUP1 PUSH4 0x3A41429A EQ PUSH2 0x1EA JUMPI DUP1 PUSH4 0x50C946FE EQ PUSH2 0x21D JUMPI JUMPDEST PUSH1 0x0 DUP1 REVERT JUMPDEST PUSH2 0x1A6 PUSH2 0x1A1 CALLDATASIZE PUSH1 0x4 PUSH2 0x1495 JUMP JUMPDEST PUSH2 0x3CC JUMP JUMPDEST STOP JUMPDEST PUSH2 0x1A6 PUSH2 0x1B6 CALLDATASIZE PUSH1 0x4 PUSH2 0x14E1 JUMP JUMPDEST PUSH2 0x42D JUMP JUMPDEST PUSH2 0x1A6 PUSH2 0x1C9 CALLDATASIZE PUSH1 0x4 PUSH2 0x14E1 JUMP JUMPDEST PUSH2 0x571 JUMP JUMPDEST PUSH2 0x1D7 PUSH1 0x2 SLOAD DUP2 JUMP JUMPDEST PUSH1 0x40 MLOAD SWAP1 DUP2 MSTORE PUSH1 0x20 ADD JUMPDEST PUSH1 0x40 MLOAD DUP1 SWAP2 SUB SWAP1 RETURN JUMPDEST PUSH2 0x20D PUSH2 0x1F8 CALLDATASIZE PUSH1 0x4 PUSH2 0x151F JUMP JUMPDEST PUSH1 0x6 PUSH1 0x20 MSTORE PUSH1 0x0 SWAP1 DUP2 MSTORE PUSH1 0x40 SWAP1 KECCAK256 SLOAD PUSH1 0xFF AND DUP2 JUMP JUMPDEST PUSH1 0x40 MLOAD SWAP1 ISZERO ISZERO DUP2 MSTORE PUSH1 0x20 ADD PUSH2 0x1E1 JUMP JUMPDEST PUSH2 0x230 PUSH2 0x22B CALLDATASIZE PUSH1 0x4 PUSH2 0x153A JUMP JUMPDEST PUSH2 0x6D4 JUMP JUMPDEST PUSH1 0x40 MLOAD PUSH2 0x1E1 SWAP2 SWAP1 PUSH2 0x1599 JUMP JUMPDEST PUSH2 0x1A6 PUSH2 0x24B CALLDATASIZE PUSH1 0x4 PUSH2 0x151F JUMP JUMPDEST PUSH2 0x91C JUMP JUMPDEST PUSH1 0x7 SLOAD PUSH2 0x1D7 JUMP JUMPDEST PUSH2 0x1A6 PUSH2 0x96D JUMP JUMPDEST PUSH2 0x1A6 PUSH2 0x26E CALLDATASIZE PUSH1 0x4 PUSH2 0x153A JUMP JUMPDEST PUSH2 0x981 JUMP JUMPDEST PUSH2 0x1D7 PUSH2 0x281 CALLDATASIZE PUSH1 0x4 PUSH2 0x16B7 JUMP JUMPDEST PUSH2 0xA9C JUMP JUMPDEST PUSH2 0x1D7 PUSH1 0x3 SLOAD DUP2 JUMP JUMPDEST PUSH2 0x1A6 PUSH2 0x29D CALLDATASIZE PUSH1 0x4 PUSH2 0x1713 JUMP JUMPDEST PUSH2 0xE3E JUMP JUMPDEST PUSH2 0x1A6 PUSH2 0x2B0 CALLDATASIZE PUSH1 0x4 PUSH2 0x153A JUMP JUMPDEST PUSH2 0xE91 JUMP JUMPDEST PUSH2 0x1A6 PUSH2 0x2C3 CALLDATASIZE PUSH1 0x4 PUSH2 0x153A JUMP JUMPDEST PUSH2 0xF9B JUMP JUMPDEST PUSH1 0x0 SLOAD PUSH1 0x1 PUSH1 0x1 PUSH1 0xA0 SHL SUB AND JUMPDEST PUSH1 0x40 MLOAD PUSH1 0x1 PUSH1 0x1 PUSH1 0xA0 SHL SUB SWAP1 SWAP2 AND DUP2 MSTORE PUSH1 0x20 ADD PUSH2 0x1E1 JUMP JUMPDEST PUSH2 0x1A6 PUSH2 0x2FB CALLDATASIZE PUSH1 0x4 PUSH2 0x153A JUMP JUMPDEST PUSH2 0xFA8 JUMP JUMPDEST PUSH2 0x1A6 PUSH2 0x30E CALLDATASIZE PUSH1 0x4 PUSH2 0x153A JUMP JUMPDEST PUSH2 0xFB5 JUMP JUMPDEST PUSH2 0x1D7 PUSH2 0x321 CALLDATASIZE PUSH1 0x4 PUSH2 0x1740 JUMP JUMPDEST PUSH2 0x102E JUMP JUMPDEST PUSH2 0x1D7 PUSH2 0x334 CALLDATASIZE PUSH1 0x4 PUSH2 0x153A JUMP JUMPDEST PUSH2 0x105F JUMP JUMPDEST PUSH2 0x20D PUSH2 0x347 CALLDATASIZE PUSH1 0x4 PUSH2 0x153A JUMP JUMPDEST PUSH2 0x1080 JUMP JUMPDEST PUSH2 0x35F PUSH2 0x35A CALLDATASIZE PUSH1 0x4 PUSH2 0x151F JUMP JUMPDEST PUSH2 0x10C5 JUMP JUMPDEST PUSH1 0x40 MLOAD PUSH2 0x1E1 SWAP2 SWAP1 PUSH2 0x176A JUMP JUMPDEST PUSH2 0x1A6 PUSH2 0x37A CALLDATASIZE PUSH1 0x4 PUSH2 0x14E1 JUMP JUMPDEST PUSH2 0x1131 JUMP JUMPDEST PUSH2 0x2D5 PUSH32 0x0 DUP2 JUMP JUMPDEST PUSH2 0x1A6 PUSH2 0x3B4 CALLDATASIZE PUSH1 0x4 PUSH2 0x151F JUMP JUMPDEST PUSH2 0x1208 JUMP JUMPDEST PUSH2 0x1A6 PUSH2 0x3C7 CALLDATASIZE PUSH1 0x4 PUSH2 0x151F JUMP JUMPDEST PUSH2 0x125C JUMP JUMPDEST PUSH1 0x0 DUP4 DUP2 MSTORE PUSH1 0x4 PUSH1 0x20 MSTORE PUSH1 0x40 SWAP1 KECCAK256 SLOAD PUSH1 0x1 PUSH1 0x1 PUSH1 0xA0 SHL SUB AND CALLER EQ PUSH2 0x40B JUMPI PUSH1 0x40 MLOAD PUSH3 0x461BCD PUSH1 0xE5 SHL DUP2 MSTORE PUSH1 0x4 ADD PUSH2 0x402 SWAP1 PUSH2 0x17AE JUMP JUMPDEST PUSH1 0x40 MLOAD DUP1 SWAP2 SUB SWAP1 REVERT JUMPDEST PUSH1 0x0 DUP4 DUP2 MSTORE PUSH1 0x4 PUSH1 0x20 MSTORE PUSH1 0x40 SWAP1 KECCAK256 PUSH1 0xA ADD PUSH2 0x427 DUP3 DUP5 DUP4 PUSH2 0x1869 JUMP JUMPDEST POP POP POP POP JUMP JUMPDEST CALLER PUSH1 0x0 SWAP1 DUP2 MSTORE PUSH1 0x6 PUSH1 0x20 MSTORE PUSH1 0x40 SWAP1 KECCAK256 SLOAD PUSH1 0xFF AND DUP1 PUSH2 0x455 JUMPI POP PUSH1 0x0 SLOAD PUSH1 0x1 PUSH1 0x1 PUSH1 0xA0 SHL SUB AND CALLER EQ JUMPDEST PUSH2 0x490 JUMPI PUSH1 0x40 MLOAD PUSH3 0x461BCD PUSH1 0xE5 SHL DUP2 MSTORE PUSH1 0x20 PUSH1 0x4 DUP3 ADD MSTORE PUSH1 0xC PUSH1 0x24 DUP3 ADD MSTORE PUSH12 0x2737BA103932B837B93A32B9 PUSH1 0xA1 SHL PUSH1 0x44 DUP3 ADD MSTORE PUSH1 0x64 ADD PUSH2 0x402 JUMP JUMPDEST PUSH1 0x0 DUP3 DUP2 MSTORE PUSH1 0x4 PUSH1 0x20 MSTORE PUSH1 0x40 SWAP1 KECCAK256 PUSH1 0x8 DUP2 ADD SLOAD PUSH1 0xFF AND PUSH2 0x4E4 JUMPI PUSH1 0x40 MLOAD PUSH3 0x461BCD PUSH1 0xE5 SHL DUP2 MSTORE PUSH1 0x20 PUSH1 0x4 DUP3 ADD MSTORE PUSH1 0xF PUSH1 0x24 DUP3 ADD MSTORE PUSH15 0x4E6F6465206E6F7420616374697665 PUSH1 0x88 SHL PUSH1 0x44 DUP3 ADD MSTORE PUSH1 0x64 ADD PUSH2 0x402 JUMP JUMPDEST PUSH1 0x0 PUSH1 0x3 SLOAD DUP4 PUSH2 0x4F4 SWAP2 SWAP1 PUSH2 0x1940 JUMP JUMPDEST SWAP1 POP DUP1 DUP3 PUSH1 0x2 ADD PUSH1 0x0 DUP3 DUP3 SLOAD PUSH2 0x50A SWAP2 SWAP1 PUSH2 0x195D JUMP JUMPDEST SWAP3 POP POP DUP2 SWAP1 SSTORE POP DUP3 DUP3 PUSH1 0x4 ADD PUSH1 0x0 DUP3 DUP3 SLOAD PUSH2 0x525 SWAP2 SWAP1 PUSH2 0x195D JUMP JUMPDEST SWAP1 SWAP2 SSTORE POP POP TIMESTAMP PUSH1 0x7 DUP4 ADD SSTORE PUSH1 0x40 DUP1 MLOAD DUP5 DUP2 MSTORE PUSH1 0x20 DUP2 ADD DUP4 SWAP1 MSTORE DUP6 SWAP2 PUSH32 0xE81908488DF376DAB241BC0B86F37BC59CE308713E0CA1974DEB29493862A182 SWAP2 ADD PUSH1 0x40 MLOAD DUP1 SWAP2 SUB SWAP1 LOG2 POP POP POP POP JUMP JUMPDEST PUSH2 0x579 PUSH2 0x1297 JUMP JUMPDEST PUSH1 0x0 DUP3 DUP2 MSTORE PUSH1 0x4 PUSH1 0x20 MSTORE PUSH1 0x40 SWAP1 KECCAK256 DUP1 SLOAD PUSH1 0x1 PUSH1 0x1 PUSH1 0xA0 SHL SUB AND CALLER EQ PUSH2 0x5B0 JUMPI PUSH1 0x40 MLOAD PUSH3 0x461BCD PUSH1 0xE5 SHL DUP2 MSTORE PUSH1 0x4 ADD PUSH2 0x402 SWAP1 PUSH2 0x17AE JUMP JUMPDEST DUP2 DUP2 PUSH1 0x1 ADD SLOAD LT ISZERO PUSH2 0x5F9 JUMPI PUSH1 0x40 MLOAD PUSH3 0x461BCD PUSH1 0xE5 SHL DUP2 MSTORE PUSH1 0x20 PUSH1 0x4 DUP3 ADD MSTORE PUSH1 0x12 PUSH1 0x24 DUP3 ADD MSTORE PUSH18 0x496E73756666696369656E74207374616B65 PUSH1 0x70 SHL PUSH1 0x44 DUP3 ADD MSTORE PUSH1 0x64 ADD PUSH2 0x402 JUMP JUMPDEST DUP2 DUP2 PUSH1 0x1 ADD PUSH1 0x0 DUP3 DUP3 SLOAD PUSH2 0x60D SWAP2 SWAP1 PUSH2 0x1970 JUMP JUMPDEST SWAP1 SWAP2 SSTORE POP POP PUSH1 0x2 SLOAD PUSH1 0x1 DUP3 ADD SLOAD LT ISZERO PUSH2 0x658 JUMPI PUSH1 0x8 DUP2 ADD DUP1 SLOAD PUSH1 0xFF NOT AND SWAP1 SSTORE PUSH1 0x40 MLOAD DUP4 SWAP1 PUSH32 0x62B30865C6DDDF92CAA7594E1394397E7119C9947678E4FABA379EDB7C0ED6FC SWAP1 PUSH1 0x0 SWAP1 LOG2 JUMPDEST PUSH2 0x68C PUSH1 0x1 PUSH1 0x1 PUSH1 0xA0 SHL SUB PUSH32 0x0 AND CALLER DUP5 PUSH2 0x12C1 JUMP JUMPDEST DUP3 PUSH32 0x80F371DB73B1F2C178035E1597E63905A3394128BC8A687E663B27E8A6DC3234 DUP4 PUSH1 0x40 MLOAD PUSH2 0x6BE SWAP2 DUP2 MSTORE PUSH1 0x20 ADD SWAP1 JUMP JUMPDEST PUSH1 0x40 MLOAD DUP1 SWAP2 SUB SWAP1 LOG2 POP PUSH2 0x6D0 PUSH1 0x1 DUP1 SSTORE JUMP JUMPDEST POP POP JUMP JUMPDEST PUSH2 0x765 PUSH1 0x40 DUP1 MLOAD PUSH2 0x180 DUP2 ADD DUP3 MSTORE PUSH1 0x0 DUP1 DUP3 MSTORE PUSH1 0x20 DUP1 DUP4 ADD DUP3 SWAP1 MSTORE DUP3 DUP5 ADD DUP3 SWAP1 MSTORE PUSH1 0x60 DUP1 DUP5 ADD DUP4 SWAP1 MSTORE PUSH1 0x80 DUP1 DUP6 ADD DUP5 SWAP1 MSTORE PUSH1 0xA0 DUP1 DUP7 ADD DUP6 SWAP1 MSTORE PUSH1 0xC0 DUP1 DUP8 ADD DUP7 SWAP1 MSTORE PUSH1 0xE0 DUP8 ADD DUP7 SWAP1 MSTORE PUSH2 0x100 DUP8 ADD DUP7 SWAP1 MSTORE PUSH2 0x120 DUP8 ADD DUP7 SWAP1 MSTORE DUP8 MLOAD SWAP1 DUP2 ADD DUP9 MSTORE DUP6 DUP2 MSTORE SWAP4 DUP5 ADD DUP6 SWAP1 MSTORE SWAP6 DUP4 ADD DUP5 SWAP1 MSTORE SWAP1 DUP3 ADD DUP4 SWAP1 MSTORE DUP2 ADD DUP3 SWAP1 MSTORE SWAP3 DUP4 ADD MSTORE SWAP1 PUSH2 0x140 DUP3 ADD SWAP1 DUP2 MSTORE PUSH1 0x20 ADD PUSH1 0x60 DUP2 MSTORE POP SWAP1 JUMP JUMPDEST PUSH1 0x0 DUP3 DUP2 MSTORE PUSH1 0x4 PUSH1 0x20 DUP2 DUP2 MSTORE PUSH1 0x40 SWAP3 DUP4 SWAP1 KECCAK256 DUP4 MLOAD PUSH2 0x180 DUP2 ADD DUP6 MSTORE DUP2 SLOAD PUSH1 0x1 PUSH1 0x1 PUSH1 0xA0 SHL SUB AND DUP2 MSTORE PUSH1 0x1 DUP3 ADD SLOAD DUP2 DUP5 ADD MSTORE PUSH1 0x2 DUP3 ADD SLOAD DUP2 DUP7 ADD MSTORE PUSH1 0x3 DUP3 ADD SLOAD PUSH1 0x60 DUP1 DUP4 ADD SWAP2 SWAP1 SWAP2 MSTORE SWAP4 DUP3 ADD SLOAD PUSH1 0x80 DUP1 DUP4 ADD SWAP2 SWAP1 SWAP2 MSTORE PUSH1 0x5 DUP4 ADD SLOAD PUSH1 0xA0 DUP1 DUP5 ADD SWAP2 SWAP1 SWAP2 MSTORE PUSH1 0x6 DUP5 ADD SLOAD PUSH1 0xC0 DUP1 DUP6 ADD SWAP2 SWAP1 SWAP2 MSTORE PUSH1 0x7 DUP6 ADD SLOAD PUSH1 0xE0 DUP6 ADD MSTORE PUSH1 0x8 DUP6 ADD SLOAD PUSH1 0xFF DUP1 DUP3 AND ISZERO ISZERO PUSH2 0x100 DUP1 DUP9 ADD SWAP2 SWAP1 SWAP2 MSTORE SWAP1 SWAP2 DIV DUP2 AND ISZERO ISZERO PUSH2 0x120 DUP7 ADD MSTORE DUP9 MLOAD SWAP2 DUP3 ADD DUP10 MSTORE PUSH1 0x9 DUP7 ADD SLOAD PUSH4 0xFFFFFFFF DUP1 DUP3 AND DUP5 MSTORE PUSH5 0x100000000 DUP3 DIV DUP2 AND SWAP9 DUP5 ADD SWAP9 SWAP1 SWAP9 MSTORE PUSH1 0x1 PUSH1 0x40 SHL DUP2 DIV DUP9 AND SWAP10 DUP4 ADD SWAP10 SWAP1 SWAP10 MSTORE PUSH1 0x1 PUSH1 0x60 SHL DUP10 DIV SWAP1 SWAP7 AND SWAP7 DUP2 ADD SWAP7 SWAP1 SWAP7 MSTORE PUSH1 0x1 PUSH1 0x80 SHL DUP8 DIV DUP6 AND ISZERO ISZERO SWAP2 DUP7 ADD SWAP2 SWAP1 SWAP2 MSTORE PUSH1 0x1 PUSH1 0x88 SHL SWAP1 SWAP6 DIV SWAP1 SWAP3 AND ISZERO ISZERO SWAP4 DUP4 ADD SWAP4 SWAP1 SWAP4 MSTORE PUSH2 0x140 DUP2 ADD SWAP2 SWAP1 SWAP2 MSTORE PUSH1 0xA DUP3 ADD DUP1 SLOAD SWAP2 SWAP3 SWAP2 PUSH2 0x160 DUP5 ADD SWAP2 SWAP1 PUSH2 0x893 SWAP1 PUSH2 0x17E7 JUMP JUMPDEST DUP1 PUSH1 0x1F ADD PUSH1 0x20 DUP1 SWAP2 DIV MUL PUSH1 0x20 ADD PUSH1 0x40 MLOAD SWAP1 DUP2 ADD PUSH1 0x40 MSTORE DUP1 SWAP3 SWAP2 SWAP1 DUP2 DUP2 MSTORE PUSH1 0x20 ADD DUP3 DUP1 SLOAD PUSH2 0x8BF SWAP1 PUSH2 0x17E7 JUMP JUMPDEST DUP1 ISZERO PUSH2 0x90C JUMPI DUP1 PUSH1 0x1F LT PUSH2 0x8E1 JUMPI PUSH2 0x100 DUP1 DUP4 SLOAD DIV MUL DUP4 MSTORE SWAP2 PUSH1 0x20 ADD SWAP2 PUSH2 0x90C JUMP JUMPDEST DUP3 ADD SWAP2 SWAP1 PUSH1 0x0 MSTORE PUSH1 0x20 PUSH1 0x0 KECCAK256 SWAP1 JUMPDEST DUP2 SLOAD DUP2 MSTORE SWAP1 PUSH1 0x1 ADD SWAP1 PUSH1 0x20 ADD DUP1 DUP4 GT PUSH2 0x8EF JUMPI DUP3 SWAP1 SUB PUSH1 0x1F AND DUP3 ADD SWAP2 JUMPDEST POP POP POP POP POP DUP2 MSTORE POP POP SWAP1 POP SWAP2 SWAP1 POP JUMP JUMPDEST PUSH2 0x924 PUSH2 0x1325 JUMP JUMPDEST PUSH1 0x1 PUSH1 0x1 PUSH1 0xA0 SHL SUB DUP2 AND PUSH1 0x0 DUP2 DUP2 MSTORE PUSH1 0x6 PUSH1 0x20 MSTORE PUSH1 0x40 DUP1 DUP3 KECCAK256 DUP1 SLOAD PUSH1 0xFF NOT AND SWAP1 SSTORE MLOAD PUSH32 0xF125AA5E6CB22C17EA0DE4E1F86D2FF289DDD6A37E791B9AD29D0091CBA06AC8 SWAP2 SWAP1 LOG2 POP JUMP JUMPDEST PUSH2 0x975 PUSH2 0x1325 JUMP JUMPDEST PUSH2 0x97F PUSH1 0x0 PUSH2 0x1352 JUMP JUMPDEST JUMP JUMPDEST PUSH2 0x989 PUSH2 0x1297 JUMP JUMPDEST PUSH1 0x0 DUP2 DUP2 MSTORE PUSH1 0x4 PUSH1 0x20 MSTORE PUSH1 0x40 SWAP1 KECCAK256 DUP1 SLOAD PUSH1 0x1 PUSH1 0x1 PUSH1 0xA0 SHL SUB AND CALLER EQ PUSH2 0x9C0 JUMPI PUSH1 0x40 MLOAD PUSH3 0x461BCD PUSH1 0xE5 SHL DUP2 MSTORE PUSH1 0x4 ADD PUSH2 0x402 SWAP1 PUSH2 0x17AE JUMP JUMPDEST PUSH1 0x2 DUP2 ADD SLOAD DUP1 PUSH2 0x9FF JUMPI PUSH1 0x40 MLOAD PUSH3 0x461BCD PUSH1 0xE5 SHL DUP2 MSTORE PUSH1 0x20 PUSH1 0x4 DUP3 ADD MSTORE PUSH1 0xA PUSH1 0x24 DUP3 ADD MSTORE PUSH10 0x4E6F2072657761726473 PUSH1 0xB0 SHL PUSH1 0x44 DUP3 ADD MSTORE PUSH1 0x64 ADD PUSH2 0x402 JUMP JUMPDEST PUSH1 0x0 DUP3 PUSH1 0x2 ADD DUP2 SWAP1 SSTORE POP DUP1 DUP3 PUSH1 0x3 ADD PUSH1 0x0 DUP3 DUP3 SLOAD PUSH2 0xA1D SWAP2 SWAP1 PUSH2 0x195D JUMP JUMPDEST SWAP1 SWAP2 SSTORE POP PUSH2 0xA57 SWAP1 POP PUSH1 0x1 PUSH1 0x1 PUSH1 0xA0 SHL SUB PUSH32 0x0 AND CALLER DUP4 PUSH2 0x12C1 JUMP JUMPDEST PUSH1 0x40 MLOAD DUP2 DUP2 MSTORE CALLER SWAP1 DUP5 SWAP1 PUSH32 0xFEC539B3C42D74CD492C3ECF7966BF014B327BEEF98E935CDC3EC5E54A6901C7 SWAP1 PUSH1 0x20 ADD PUSH1 0x40 MLOAD DUP1 SWAP2 SUB SWAP1 LOG3 POP POP PUSH2 0xA99 PUSH1 0x1 DUP1 SSTORE JUMP JUMPDEST POP JUMP JUMPDEST PUSH1 0x0 PUSH2 0xAA6 PUSH2 0x1297 JUMP JUMPDEST PUSH1 0x2 SLOAD DUP3 LT ISZERO PUSH2 0xAE8 JUMPI PUSH1 0x40 MLOAD PUSH3 0x461BCD PUSH1 0xE5 SHL DUP2 MSTORE PUSH1 0x20 PUSH1 0x4 DUP3 ADD MSTORE PUSH1 0xD PUSH1 0x24 DUP3 ADD MSTORE PUSH13 0x5374616B6520746F6F206C6F77 PUSH1 0x98 SHL PUSH1 0x44 DUP3 ADD MSTORE PUSH1 0x64 ADD PUSH2 0x402 JUMP JUMPDEST PUSH2 0xB1D PUSH1 0x1 PUSH1 0x1 PUSH1 0xA0 SHL SUB PUSH32 0x0 AND CALLER ADDRESS DUP6 PUSH2 0x13A2 JUMP JUMPDEST PUSH1 0x8 DUP1 SLOAD SWAP1 PUSH1 0x0 PUSH2 0xB2D DUP4 PUSH2 0x1983 JUMP JUMPDEST SWAP1 SWAP2 SSTORE POP POP PUSH1 0x8 SLOAD PUSH1 0x40 MLOAD PUSH12 0xFFFFFFFFFFFFFFFFFFFFFFFF NOT CALLER PUSH1 0x60 SHL AND PUSH1 0x20 DUP3 ADD MSTORE TIMESTAMP PUSH1 0x34 DUP3 ADD MSTORE PUSH1 0x54 DUP2 ADD SWAP2 SWAP1 SWAP2 MSTORE PUSH1 0x0 SWAP1 PUSH1 0x74 ADD PUSH1 0x40 MLOAD PUSH1 0x20 DUP2 DUP4 SUB SUB DUP2 MSTORE SWAP1 PUSH1 0x40 MSTORE DUP1 MLOAD SWAP1 PUSH1 0x20 ADD KECCAK256 SWAP1 POP PUSH1 0x40 MLOAD DUP1 PUSH2 0x180 ADD PUSH1 0x40 MSTORE DUP1 CALLER PUSH1 0x1 PUSH1 0x1 PUSH1 0xA0 SHL SUB AND DUP2 MSTORE PUSH1 0x20 ADD DUP5 DUP2 MSTORE PUSH1 0x20 ADD PUSH1 0x0 DUP2 MSTORE PUSH1 0x20 ADD PUSH1 0x0 DUP2 MSTORE PUSH1 0x20 ADD PUSH1 0x0 DUP2 MSTORE PUSH1 0x20 ADD PUSH2 0x2710 DUP2 MSTORE PUSH1 0x20 ADD TIMESTAMP DUP2 MSTORE PUSH1 0x20 ADD TIMESTAMP DUP2 MSTORE PUSH1 0x20 ADD PUSH1 0x1 ISZERO ISZERO DUP2 MSTORE PUSH1 0x20 ADD PUSH1 0x0 ISZERO ISZERO DUP2 MSTORE PUSH1 0x20 ADD DUP8 DUP1 CALLDATASIZE SUB DUP2 ADD SWAP1 PUSH2 0xBE9 SWAP2 SWAP1 PUSH2 0x19D2 JUMP JUMPDEST DUP2 MSTORE PUSH1 0x20 ADD DUP7 DUP7 DUP1 DUP1 PUSH1 0x1F ADD PUSH1 0x20 DUP1 SWAP2 DIV MUL PUSH1 0x20 ADD PUSH1 0x40 MLOAD SWAP1 DUP2 ADD PUSH1 0x40 MSTORE DUP1 SWAP4 SWAP3 SWAP2 SWAP1 DUP2 DUP2 MSTORE PUSH1 0x20 ADD DUP4 DUP4 DUP1 DUP3 DUP5 CALLDATACOPY PUSH1 0x0 SWAP3 ADD DUP3 SWAP1 MSTORE POP SWAP4 SWAP1 SWAP5 MSTORE POP POP DUP4 DUP2 MSTORE PUSH1 0x4 PUSH1 0x20 DUP2 DUP2 MSTORE PUSH1 0x40 SWAP3 DUP4 SWAP1 KECCAK256 DUP6 MLOAD DUP2 SLOAD PUSH1 0x1 PUSH1 0x1 PUSH1 0xA0 SHL SUB NOT AND PUSH1 0x1 PUSH1 0x1 PUSH1 0xA0 SHL SUB SWAP1 SWAP2 AND OR DUP2 SSTORE DUP6 DUP3 ADD MLOAD PUSH1 0x1 DUP3 ADD SSTORE DUP6 DUP5 ADD MLOAD PUSH1 0x2 DUP3 ADD SSTORE PUSH1 0x60 DUP1 DUP8 ADD MLOAD PUSH1 0x3 DUP4 ADD SSTORE PUSH1 0x80 DUP1 DUP9 ADD MLOAD SWAP5 DUP4 ADD SWAP5 SWAP1 SWAP5 SSTORE PUSH1 0xA0 DUP1 DUP9 ADD MLOAD PUSH1 0x5 DUP5 ADD SSTORE PUSH1 0xC0 DUP9 ADD MLOAD PUSH1 0x6 DUP5 ADD SSTORE PUSH1 0xE0 DUP9 ADD MLOAD PUSH1 0x7 DUP5 ADD SSTORE PUSH2 0x100 DUP1 DUP10 ADD MLOAD PUSH1 0x8 DUP6 ADD DUP1 SLOAD PUSH2 0x120 DUP13 ADD MLOAD PUSH2 0xFFFF NOT SWAP1 SWAP2 AND SWAP3 ISZERO ISZERO PUSH2 0xFF00 NOT AND SWAP3 SWAP1 SWAP3 OR SWAP2 ISZERO ISZERO SWAP1 SWAP3 MUL OR SWAP1 SSTORE PUSH2 0x140 DUP9 ADD MLOAD DUP1 MLOAD PUSH1 0x9 DUP6 ADD DUP1 SLOAD SWAP7 DUP4 ADD MLOAD SWAP9 DUP4 ADD MLOAD SWAP5 DUP4 ADD MLOAD SWAP8 DUP4 ADD MLOAD SWAP3 SWAP1 SWAP4 ADD MLOAD PUSH4 0xFFFFFFFF SWAP2 DUP3 AND PUSH8 0xFFFFFFFFFFFFFFFF NOT SWAP1 SWAP8 AND SWAP7 SWAP1 SWAP7 OR PUSH5 0x100000000 SWAP9 DUP3 AND SWAP9 SWAP1 SWAP9 MUL SWAP8 SWAP1 SWAP8 OR PUSH16 0xFFFFFFFFFFFFFFFF0000000000000000 NOT AND PUSH1 0x1 PUSH1 0x40 SHL SWAP4 DUP9 AND SWAP4 SWAP1 SWAP4 MUL PUSH4 0xFFFFFFFF PUSH1 0x60 SHL NOT AND SWAP3 SWAP1 SWAP3 OR PUSH1 0x1 PUSH1 0x60 SHL SWAP7 SWAP1 SWAP6 AND SWAP6 SWAP1 SWAP6 MUL SWAP4 SWAP1 SWAP4 OR PUSH2 0xFFFF PUSH1 0x80 SHL NOT AND PUSH1 0x1 PUSH1 0x80 SHL SWAP4 ISZERO ISZERO SWAP4 SWAP1 SWAP4 MUL PUSH1 0xFF PUSH1 0x88 SHL NOT AND SWAP3 SWAP1 SWAP3 OR PUSH1 0x1 PUSH1 0x88 SHL SWAP2 ISZERO ISZERO SWAP2 SWAP1 SWAP2 MUL OR SWAP1 SWAP2 SSTORE PUSH2 0x160 DUP4 ADD MLOAD SWAP1 SWAP2 POP PUSH1 0xA DUP3 ADD SWAP1 PUSH2 0xD9C SWAP1 DUP3 PUSH2 0x1A77 JUMP JUMPDEST POP POP CALLER PUSH1 0x0 DUP2 DUP2 MSTORE PUSH1 0x5 PUSH1 0x20 SWAP1 DUP2 MSTORE PUSH1 0x40 DUP1 DUP4 KECCAK256 DUP1 SLOAD PUSH1 0x1 DUP1 DUP3 ADD DUP4 SSTORE SWAP2 DUP6 MSTORE DUP4 DUP6 KECCAK256 ADD DUP8 SWAP1 SSTORE PUSH1 0x7 DUP1 SLOAD SWAP2 DUP3 ADD DUP2 SSTORE SWAP1 SWAP4 MSTORE PUSH32 0xA66CC928B5EDB82AF9BD49922954155AB7B0942694BEA4CE44661D9A8736C688 SWAP1 SWAP3 ADD DUP6 SWAP1 SSTORE SWAP1 MLOAD DUP7 DUP2 MSTORE SWAP2 SWAP3 POP DUP4 SWAP2 PUSH32 0x11A7B6B912DB49220C71A4C83B477F565C6B1319C7146FAA80E15453FC185CB8 SWAP2 ADD PUSH1 0x40 MLOAD DUP1 SWAP2 SUB SWAP1 LOG3 SWAP1 POP PUSH2 0xE36 PUSH1 0x1 DUP1 SSTORE JUMP JUMPDEST SWAP5 SWAP4 POP POP POP POP JUMP JUMPDEST PUSH1 0x0 DUP3 DUP2 MSTORE PUSH1 0x4 PUSH1 0x20 MSTORE PUSH1 0x40 SWAP1 KECCAK256 SLOAD PUSH1 0x1 PUSH1 0x1 PUSH1 0xA0 SHL SUB AND CALLER EQ PUSH2 0xE74 JUMPI PUSH1 0x40 MLOAD PUSH3 0x461BCD PUSH1 0xE5 SHL DUP2 MSTORE PUSH1 0x4 ADD PUSH2 0x402 SWAP1 PUSH2 0x17AE JUMP JUMPDEST PUSH1 0x0 DUP3 DUP2 MSTORE PUSH1 0x4 PUSH1 0x20 MSTORE PUSH1 0x40 SWAP1 KECCAK256 DUP2 SWAP1 PUSH1 0x9 ADD PUSH2 0x427 DUP3 DUP3 PUSH2 0x1B44 JUMP JUMPDEST PUSH1 0x0 DUP2 DUP2 MSTORE PUSH1 0x4 PUSH1 0x20 MSTORE PUSH1 0x40 SWAP1 KECCAK256 DUP1 SLOAD PUSH1 0x1 PUSH1 0x1 PUSH1 0xA0 SHL SUB AND CALLER EQ PUSH2 0xEC8 JUMPI PUSH1 0x40 MLOAD PUSH3 0x461BCD PUSH1 0xE5 SHL DUP2 MSTORE PUSH1 0x4 ADD PUSH2 0x402 SWAP1 PUSH2 0x17AE JUMP JUMPDEST PUSH1 0x2 SLOAD DUP2 PUSH1 0x1 ADD SLOAD LT ISZERO PUSH2 0xF0E JUMPI PUSH1 0x40 MLOAD PUSH3 0x461BCD PUSH1 0xE5 SHL DUP2 MSTORE PUSH1 0x20 PUSH1 0x4 DUP3 ADD MSTORE PUSH1 0xD PUSH1 0x24 DUP3 ADD MSTORE PUSH13 0x5374616B6520746F6F206C6F77 PUSH1 0x98 SHL PUSH1 0x44 DUP3 ADD MSTORE PUSH1 0x64 ADD PUSH2 0x402 JUMP JUMPDEST PUSH1 0x8 DUP2 ADD SLOAD PUSH2 0x100 SWAP1 DIV PUSH1 0xFF AND ISZERO PUSH2 0xF57 JUMPI PUSH1 0x40 MLOAD PUSH3 0x461BCD PUSH1 0xE5 SHL DUP2 MSTORE PUSH1 0x20 PUSH1 0x4 DUP3 ADD MSTORE PUSH1 0xC PUSH1 0x24 DUP3 ADD MSTORE PUSH12 0x139BD919481CDB185CDA1959 PUSH1 0xA2 SHL PUSH1 0x44 DUP3 ADD MSTORE PUSH1 0x64 ADD PUSH2 0x402 JUMP JUMPDEST PUSH1 0x8 DUP2 ADD DUP1 SLOAD PUSH1 0xFF NOT AND PUSH1 0x1 OR SWAP1 SSTORE TIMESTAMP PUSH1 0x7 DUP3 ADD SSTORE PUSH1 0x40 MLOAD DUP3 SWAP1 PUSH32 0x2B1BF495D62934B9FAC0C071C5BF75863B0C4957DA79692E4C206888EF7794C5 SWAP1 PUSH1 0x0 SWAP1 LOG2 POP POP JUMP JUMPDEST PUSH2 0xFA3 PUSH2 0x1325 JUMP JUMPDEST PUSH1 0x2 SSTORE JUMP JUMPDEST PUSH2 0xFB0 PUSH2 0x1325 JUMP JUMPDEST PUSH1 0x3 SSTORE JUMP JUMPDEST PUSH1 0x0 DUP2 DUP2 MSTORE PUSH1 0x4 PUSH1 0x20 MSTORE PUSH1 0x40 SWAP1 KECCAK256 SLOAD PUSH1 0x1 PUSH1 0x1 PUSH1 0xA0 SHL SUB AND CALLER EQ PUSH2 0xFEB JUMPI PUSH1 0x40 MLOAD PUSH3 0x461BCD PUSH1 0xE5 SHL DUP2 MSTORE PUSH1 0x4 ADD PUSH2 0x402 SWAP1 PUSH2 0x17AE JUMP JUMPDEST PUSH1 0x0 DUP2 DUP2 MSTORE PUSH1 0x4 PUSH1 0x20 MSTORE PUSH1 0x40 DUP1 DUP3 KECCAK256 PUSH1 0x8 ADD DUP1 SLOAD PUSH1 0xFF NOT AND SWAP1 SSTORE MLOAD DUP3 SWAP2 PUSH32 0x62B30865C6DDDF92CAA7594E1394397E7119C9947678E4FABA379EDB7C0ED6FC SWAP2 LOG2 POP JUMP JUMPDEST PUSH1 0x5 PUSH1 0x20 MSTORE DUP2 PUSH1 0x0 MSTORE PUSH1 0x40 PUSH1 0x0 KECCAK256 DUP2 DUP2 SLOAD DUP2 LT PUSH2 0x104A JUMPI PUSH1 0x0 DUP1 REVERT JUMPDEST SWAP1 PUSH1 0x0 MSTORE PUSH1 0x20 PUSH1 0x0 KECCAK256 ADD PUSH1 0x0 SWAP2 POP SWAP2 POP POP SLOAD DUP2 JUMP JUMPDEST PUSH1 0x7 DUP2 DUP2 SLOAD DUP2 LT PUSH2 0x106F JUMPI PUSH1 0x0 DUP1 REVERT JUMPDEST PUSH1 0x0 SWAP2 DUP3 MSTORE PUSH1 0x20 SWAP1 SWAP2 KECCAK256 ADD SLOAD SWAP1 POP DUP2 JUMP JUMPDEST PUSH1 0x0 DUP2 DUP2 MSTORE PUSH1 0x4 PUSH1 0x20 MSTORE PUSH1 0x40 DUP2 KECCAK256 PUSH1 0x8 DUP2 ADD SLOAD PUSH1 0xFF AND DUP1 ISZERO PUSH2 0x10AC JUMPI POP PUSH1 0x8 DUP2 ADD SLOAD PUSH2 0x100 SWAP1 DIV PUSH1 0xFF AND ISZERO JUMPDEST DUP1 ISZERO PUSH2 0x10BE JUMPI POP PUSH1 0x2 SLOAD DUP2 PUSH1 0x1 ADD SLOAD LT ISZERO JUMPDEST SWAP4 SWAP3 POP POP POP JUMP JUMPDEST PUSH1 0x1 PUSH1 0x1 PUSH1 0xA0 SHL SUB DUP2 AND PUSH1 0x0 SWAP1 DUP2 MSTORE PUSH1 0x5 PUSH1 0x20 SWAP1 DUP2 MSTORE PUSH1 0x40 SWAP2 DUP3 SWAP1 KECCAK256 DUP1 SLOAD DUP4 MLOAD DUP2 DUP5 MUL DUP2 ADD DUP5 ADD SWAP1 SWAP5 MSTORE DUP1 DUP5 MSTORE PUSH1 0x60 SWAP4 SWAP3 DUP4 ADD DUP3 DUP3 DUP1 ISZERO PUSH2 0x1125 JUMPI PUSH1 0x20 MUL DUP3 ADD SWAP2 SWAP1 PUSH1 0x0 MSTORE PUSH1 0x20 PUSH1 0x0 KECCAK256 SWAP1 JUMPDEST DUP2 SLOAD DUP2 MSTORE PUSH1 0x20 ADD SWAP1 PUSH1 0x1 ADD SWAP1 DUP1 DUP4 GT PUSH2 0x1111 JUMPI JUMPDEST POP POP POP POP POP SWAP1 POP SWAP2 SWAP1 POP JUMP JUMPDEST PUSH2 0x1139 PUSH2 0x1297 JUMP JUMPDEST PUSH1 0x0 DUP3 DUP2 MSTORE PUSH1 0x4 PUSH1 0x20 MSTORE PUSH1 0x40 SWAP1 KECCAK256 SLOAD PUSH1 0x1 PUSH1 0x1 PUSH1 0xA0 SHL SUB AND CALLER EQ PUSH2 0x116F JUMPI PUSH1 0x40 MLOAD PUSH3 0x461BCD PUSH1 0xE5 SHL DUP2 MSTORE PUSH1 0x4 ADD PUSH2 0x402 SWAP1 PUSH2 0x17AE JUMP JUMPDEST PUSH2 0x11A4 PUSH1 0x1 PUSH1 0x1 PUSH1 0xA0 SHL SUB PUSH32 0x0 AND CALLER ADDRESS DUP5 PUSH2 0x13A2 JUMP JUMPDEST PUSH1 0x0 DUP3 DUP2 MSTORE PUSH1 0x4 PUSH1 0x20 MSTORE PUSH1 0x40 DUP2 KECCAK256 PUSH1 0x1 ADD DUP1 SLOAD DUP4 SWAP3 SWAP1 PUSH2 0x11C5 SWAP1 DUP5 SWAP1 PUSH2 0x195D JUMP JUMPDEST SWAP1 SWAP2 SSTORE POP POP PUSH1 0x40 MLOAD DUP2 DUP2 MSTORE DUP3 SWAP1 PUSH32 0x3B15DE13514518FA0748D88DD85871F44ECCC587C2D80D51FAAF99BED8E7AA93 SWAP1 PUSH1 0x20 ADD PUSH1 0x40 MLOAD DUP1 SWAP2 SUB SWAP1 LOG2 PUSH2 0x6D0 PUSH1 0x1 DUP1 SSTORE JUMP JUMPDEST PUSH2 0x1210 PUSH2 0x1325 JUMP JUMPDEST PUSH1 0x1 PUSH1 0x1 PUSH1 0xA0 SHL SUB DUP2 AND PUSH1 0x0 DUP2 DUP2 MSTORE PUSH1 0x6 PUSH1 0x20 MSTORE PUSH1 0x40 DUP1 DUP3 KECCAK256 DUP1 SLOAD PUSH1 0xFF NOT AND PUSH1 0x1 OR SWAP1 SSTORE MLOAD PUSH32 0x52824C4A4D431C73D6D24A91F775D722860111C6D30DA30B0B21E062FB4C7365 SWAP2 SWAP1 LOG2 POP JUMP JUMPDEST PUSH2 0x1264 PUSH2 0x1325 JUMP JUMPDEST PUSH1 0x1 PUSH1 0x1 PUSH1 0xA0 SHL SUB DUP2 AND PUSH2 0x128E JUMPI PUSH1 0x40 MLOAD PUSH4 0x1E4FBDF7 PUSH1 0xE0 SHL DUP2 MSTORE PUSH1 0x0 PUSH1 0x4 DUP3 ADD MSTORE PUSH1 0x24 ADD PUSH2 0x402 JUMP JUMPDEST PUSH2 0xA99 DUP2 PUSH2 0x1352 JUMP JUMPDEST PUSH1 0x2 PUSH1 0x1 SLOAD SUB PUSH2 0x12BA JUMPI PUSH1 0x40 MLOAD PUSH4 0x3EE5AEB5 PUSH1 0xE0 SHL DUP2 MSTORE PUSH1 0x4 ADD PUSH1 0x40 MLOAD DUP1 SWAP2 SUB SWAP1 REVERT JUMPDEST PUSH1 0x2 PUSH1 0x1 SSTORE JUMP JUMPDEST PUSH1 0x40 MLOAD PUSH1 0x1 PUSH1 0x1 PUSH1 0xA0 SHL SUB DUP4 DUP2 AND PUSH1 0x24 DUP4 ADD MSTORE PUSH1 0x44 DUP3 ADD DUP4 SWAP1 MSTORE PUSH2 0x1320 SWAP2 DUP6 SWAP2 DUP3 AND SWAP1 PUSH4 0xA9059CBB SWAP1 PUSH1 0x64 ADD JUMPDEST PUSH1 0x40 MLOAD PUSH1 0x20 DUP2 DUP4 SUB SUB DUP2 MSTORE SWAP1 PUSH1 0x40 MSTORE SWAP2 POP PUSH1 0xE0 SHL PUSH1 0x20 DUP3 ADD DUP1 MLOAD PUSH1 0x1 PUSH1 0x1 PUSH1 0xE0 SHL SUB DUP4 DUP2 DUP4 AND OR DUP4 MSTORE POP POP POP POP PUSH2 0x13DB JUMP JUMPDEST POP POP POP JUMP JUMPDEST PUSH1 0x0 SLOAD PUSH1 0x1 PUSH1 0x1 PUSH1 0xA0 SHL SUB AND CALLER EQ PUSH2 0x97F JUMPI PUSH1 0x40 MLOAD PUSH4 0x118CDAA7 PUSH1 0xE0 SHL DUP2 MSTORE CALLER PUSH1 0x4 DUP3 ADD MSTORE PUSH1 0x24 ADD PUSH2 0x402 JUMP JUMPDEST PUSH1 0x0 DUP1 SLOAD PUSH1 0x1 PUSH1 0x1 PUSH1 0xA0 SHL SUB DUP4 DUP2 AND PUSH1 0x1 PUSH1 0x1 PUSH1 0xA0 SHL SUB NOT DUP4 AND DUP2 OR DUP5 SSTORE PUSH1 0x40 MLOAD SWAP2 SWAP1 SWAP3 AND SWAP3 DUP4 SWAP2 PUSH32 0x8BE0079C531659141344CD1FD0A4F28419497F9722A3DAAFE3B4186F6B6457E0 SWAP2 SWAP1 LOG3 POP POP JUMP JUMPDEST PUSH1 0x40 MLOAD PUSH1 0x1 PUSH1 0x1 PUSH1 0xA0 SHL SUB DUP5 DUP2 AND PUSH1 0x24 DUP4 ADD MSTORE DUP4 DUP2 AND PUSH1 0x44 DUP4 ADD MSTORE PUSH1 0x64 DUP3 ADD DUP4 SWAP1 MSTORE PUSH2 0x427 SWAP2 DUP7 SWAP2 DUP3 AND SWAP1 PUSH4 0x23B872DD SWAP1 PUSH1 0x84 ADD PUSH2 0x12EE JUMP JUMPDEST PUSH1 0x0 DUP1 PUSH1 0x20 PUSH1 0x0 DUP5 MLOAD PUSH1 0x20 DUP7 ADD PUSH1 0x0 DUP9 GAS CALL DUP1 PUSH2 0x13FE JUMPI PUSH1 0x40 MLOAD RETURNDATASIZE PUSH1 0x0 DUP3 RETURNDATACOPY RETURNDATASIZE DUP2 REVERT JUMPDEST POP POP PUSH1 0x0 MLOAD RETURNDATASIZE SWAP2 POP DUP2 ISZERO PUSH2 0x1416 JUMPI DUP1 PUSH1 0x1 EQ ISZERO PUSH2 0x1423 JUMP JUMPDEST PUSH1 0x1 PUSH1 0x1 PUSH1 0xA0 SHL SUB DUP5 AND EXTCODESIZE ISZERO JUMPDEST ISZERO PUSH2 0x427 JUMPI PUSH1 0x40 MLOAD PUSH4 0x5274AFE7 PUSH1 0xE0 SHL DUP2 MSTORE PUSH1 0x1 PUSH1 0x1 PUSH1 0xA0 SHL SUB DUP6 AND PUSH1 0x4 DUP3 ADD MSTORE PUSH1 0x24 ADD PUSH2 0x402 JUMP JUMPDEST PUSH1 0x0 DUP1 DUP4 PUSH1 0x1F DUP5 ADD SLT PUSH2 0x145E JUMPI PUSH1 0x0 DUP1 REVERT JUMPDEST POP DUP2 CALLDATALOAD PUSH8 0xFFFFFFFFFFFFFFFF DUP2 GT ISZERO PUSH2 0x1476 JUMPI PUSH1 0x0 DUP1 REVERT JUMPDEST PUSH1 0x20 DUP4 ADD SWAP2 POP DUP4 PUSH1 0x20 DUP3 DUP6 ADD ADD GT ISZERO PUSH2 0x148E JUMPI PUSH1 0x0 DUP1 REVERT JUMPDEST SWAP3 POP SWAP3 SWAP1 POP JUMP JUMPDEST PUSH1 0x0 DUP1 PUSH1 0x0 PUSH1 0x40 DUP5 DUP7 SUB SLT ISZERO PUSH2 0x14AA JUMPI PUSH1 0x0 DUP1 REVERT JUMPDEST DUP4 CALLDATALOAD SWAP3 POP PUSH1 0x20 DUP5 ADD CALLDATALOAD PUSH8 0xFFFFFFFFFFFFFFFF DUP2 GT ISZERO PUSH2 0x14C8 JUMPI PUSH1 0x0 DUP1 REVERT JUMPDEST PUSH2 0x14D4 DUP7 DUP3 DUP8 ADD PUSH2 0x144C JUMP JUMPDEST SWAP5 SWAP8 SWAP1 SWAP7 POP SWAP4 SWAP5 POP POP POP POP JUMP JUMPDEST PUSH1 0x0 DUP1 PUSH1 0x40 DUP4 DUP6 SUB SLT ISZERO PUSH2 0x14F4 JUMPI PUSH1 0x0 DUP1 REVERT JUMPDEST POP POP DUP1 CALLDATALOAD SWAP3 PUSH1 0x20 SWAP1 SWAP2 ADD CALLDATALOAD SWAP2 POP JUMP JUMPDEST DUP1 CALLDATALOAD PUSH1 0x1 PUSH1 0x1 PUSH1 0xA0 SHL SUB DUP2 AND DUP2 EQ PUSH2 0x151A JUMPI PUSH1 0x0 DUP1 REVERT JUMPDEST SWAP2 SWAP1 POP JUMP JUMPDEST PUSH1 0x0 PUSH1 0x20 DUP3 DUP5 SUB SLT ISZERO PUSH2 0x1531 JUMPI PUSH1 0x0 DUP1 REVERT JUMPDEST PUSH2 0x10BE DUP3 PUSH2 0x1503 JUMP JUMPDEST PUSH1 0x0 PUSH1 0x20 DUP3 DUP5 SUB SLT ISZERO PUSH2 0x154C JUMPI PUSH1 0x0 DUP1 REVERT JUMPDEST POP CALLDATALOAD SWAP2 SWAP1 POP JUMP JUMPDEST PUSH1 0x0 DUP2 MLOAD DUP1 DUP5 MSTORE PUSH1 0x0 JUMPDEST DUP2 DUP2 LT ISZERO PUSH2 0x1579 JUMPI PUSH1 0x20 DUP2 DUP6 ADD DUP2 ADD MLOAD DUP7 DUP4 ADD DUP3 ADD MSTORE ADD PUSH2 0x155D JUMP JUMPDEST POP PUSH1 0x0 PUSH1 0x20 DUP3 DUP7 ADD ADD MSTORE PUSH1 0x20 PUSH1 0x1F NOT PUSH1 0x1F DUP4 ADD AND DUP6 ADD ADD SWAP2 POP POP SWAP3 SWAP2 POP POP JUMP JUMPDEST PUSH1 0x20 DUP2 MSTORE PUSH2 0x15B3 PUSH1 0x20 DUP3 ADD DUP4 MLOAD PUSH1 0x1 PUSH1 0x1 PUSH1 0xA0 SHL SUB AND SWAP1 MSTORE JUMP JUMPDEST PUSH1 0x20 DUP3 ADD MLOAD PUSH1 0x40 DUP3 ADD MSTORE PUSH1 0x40 DUP3 ADD MLOAD PUSH1 0x60 DUP3 ADD MSTORE PUSH1 0x60 DUP3 ADD MLOAD PUSH1 0x80 DUP3 ADD MSTORE PUSH1 0x80 DUP3 ADD MLOAD PUSH1 0xA0 DUP3 ADD MSTORE PUSH1 0xA0 DUP3 ADD MLOAD PUSH1 0xC0 DUP3 ADD MSTORE PUSH1 0xC0 DUP3 ADD MLOAD PUSH1 0xE0 DUP3 ADD MSTORE PUSH1 0x0 PUSH1 0xE0 DUP4 ADD MLOAD PUSH2 0x100 DUP2 DUP2 DUP6 ADD MSTORE DUP1 DUP6 ADD MLOAD SWAP2 POP POP PUSH2 0x120 PUSH2 0x1615 DUP2 DUP6 ADD DUP4 ISZERO ISZERO SWAP1 MSTORE JUMP JUMPDEST DUP5 ADD MLOAD SWAP1 POP PUSH2 0x140 PUSH2 0x162A DUP5 DUP3 ADD DUP4 ISZERO ISZERO SWAP1 MSTORE JUMP JUMPDEST DUP5 ADD MLOAD SWAP1 POP PUSH2 0x160 PUSH2 0x1685 DUP5 DUP3 ADD DUP4 PUSH4 0xFFFFFFFF DUP1 DUP3 MLOAD AND DUP4 MSTORE DUP1 PUSH1 0x20 DUP4 ADD MLOAD AND PUSH1 0x20 DUP5 ADD MSTORE DUP1 PUSH1 0x40 DUP4 ADD MLOAD AND PUSH1 0x40 DUP5 ADD MSTORE DUP1 PUSH1 0x60 DUP4 ADD MLOAD AND PUSH1 0x60 DUP5 ADD MSTORE POP PUSH1 0x80 DUP2 ADD MLOAD ISZERO ISZERO PUSH1 0x80 DUP4 ADD MSTORE PUSH1 0xA0 DUP2 ADD MLOAD ISZERO ISZERO PUSH1 0xA0 DUP4 ADD MSTORE POP POP JUMP JUMPDEST DUP5 ADD MLOAD PUSH2 0x220 DUP5 DUP2 ADD MSTORE SWAP1 POP PUSH2 0xE36 PUSH2 0x240 DUP5 ADD DUP3 PUSH2 0x1553 JUMP JUMPDEST PUSH1 0x0 PUSH1 0xC0 DUP3 DUP5 SUB SLT ISZERO PUSH2 0x16B1 JUMPI PUSH1 0x0 DUP1 REVERT JUMPDEST POP SWAP2 SWAP1 POP JUMP JUMPDEST PUSH1 0x0 DUP1 PUSH1 0x0 DUP1 PUSH2 0x100 DUP6 DUP8 SUB SLT ISZERO PUSH2 0x16CE JUMPI PUSH1 0x0 DUP1 REVERT JUMPDEST PUSH2 0x16D8 DUP7 DUP7 PUSH2 0x169F JUMP JUMPDEST SWAP4 POP PUSH1 0xC0 DUP6 ADD CALLDATALOAD PUSH8 0xFFFFFFFFFFFFFFFF DUP2 GT ISZERO PUSH2 0x16F4 JUMPI PUSH1 0x0 DUP1 REVERT JUMPDEST PUSH2 0x1700 DUP8 DUP3 DUP9 ADD PUSH2 0x144C JUMP JUMPDEST SWAP6 SWAP9 SWAP1 SWAP8 POP SWAP5 SWAP6 PUSH1 0xE0 ADD CALLDATALOAD SWAP5 SWAP4 POP POP POP POP JUMP JUMPDEST PUSH1 0x0 DUP1 PUSH1 0xE0 DUP4 DUP6 SUB SLT ISZERO PUSH2 0x1726 JUMPI PUSH1 0x0 DUP1 REVERT JUMPDEST DUP3 CALLDATALOAD SWAP2 POP PUSH2 0x1737 DUP5 PUSH1 0x20 DUP6 ADD PUSH2 0x169F JUMP JUMPDEST SWAP1 POP SWAP3 POP SWAP3 SWAP1 POP JUMP JUMPDEST PUSH1 0x0 DUP1 PUSH1 0x40 DUP4 DUP6 SUB SLT ISZERO PUSH2 0x1753 JUMPI PUSH1 0x0 DUP1 REVERT JUMPDEST PUSH2 0x175C DUP4 PUSH2 0x1503 JUMP JUMPDEST SWAP5 PUSH1 0x20 SWAP4 SWAP1 SWAP4 ADD CALLDATALOAD SWAP4 POP POP POP JUMP JUMPDEST PUSH1 0x20 DUP1 DUP3 MSTORE DUP3 MLOAD DUP3 DUP3 ADD DUP2 SWAP1 MSTORE PUSH1 0x0 SWAP2 SWAP1 DUP5 DUP3 ADD SWAP1 PUSH1 0x40 DUP6 ADD SWAP1 DUP5 JUMPDEST DUP2 DUP2 LT ISZERO PUSH2 0x17A2 JUMPI DUP4 MLOAD DUP4 MSTORE SWAP3 DUP5 ADD SWAP3 SWAP2 DUP5 ADD SWAP2 PUSH1 0x1 ADD PUSH2 0x1786 JUMP JUMPDEST POP SWAP1 SWAP7 SWAP6 POP POP POP POP POP POP JUMP JUMPDEST PUSH1 0x20 DUP1 DUP3 MSTORE PUSH1 0x9 SWAP1 DUP3 ADD MSTORE PUSH9 0x2737BA1037BBB732B9 PUSH1 0xB9 SHL PUSH1 0x40 DUP3 ADD MSTORE PUSH1 0x60 ADD SWAP1 JUMP JUMPDEST PUSH4 0x4E487B71 PUSH1 0xE0 SHL PUSH1 0x0 MSTORE PUSH1 0x41 PUSH1 0x4 MSTORE PUSH1 0x24 PUSH1 0x0 REVERT JUMPDEST PUSH1 0x1 DUP2 DUP2 SHR SWAP1 DUP3 AND DUP1 PUSH2 0x17FB JUMPI PUSH1 0x7F DUP3 AND SWAP2 POP JUMPDEST PUSH1 0x20 DUP3 LT DUP2 SUB PUSH2 0x16B1 JUMPI PUSH4 0x4E487B71 PUSH1 0xE0 SHL PUSH1 0x0 MSTORE PUSH1 0x22 PUSH1 0x4 MSTORE PUSH1 0x24 PUSH1 0x0 REVERT JUMPDEST PUSH1 0x1F DUP3 GT ISZERO PUSH2 0x1320 JUMPI PUSH1 0x0 DUP2 DUP2 MSTORE PUSH1 0x20 DUP2 KECCAK256 PUSH1 0x1F DUP6 ADD PUSH1 0x5 SHR DUP2 ADD PUSH1 0x20 DUP7 LT ISZERO PUSH2 0x1842 JUMPI POP DUP1 JUMPDEST PUSH1 0x1F DUP6 ADD PUSH1 0x5 SHR DUP3 ADD SWAP2 POP JUMPDEST DUP2 DUP2 LT ISZERO PUSH2 0x1861 JUMPI DUP3 DUP2 SSTORE PUSH1 0x1 ADD PUSH2 0x184E JUMP JUMPDEST POP POP POP POP POP POP JUMP JUMPDEST PUSH8 0xFFFFFFFFFFFFFFFF DUP4 GT ISZERO PUSH2 0x1881 JUMPI PUSH2 0x1881 PUSH2 0x17D1 JUMP JUMPDEST PUSH2 0x1895 DUP4 PUSH2 0x188F DUP4 SLOAD PUSH2 0x17E7 JUMP JUMPDEST DUP4 PUSH2 0x181B JUMP JUMPDEST PUSH1 0x0 PUSH1 0x1F DUP5 GT PUSH1 0x1 DUP2 EQ PUSH2 0x18C9 JUMPI PUSH1 0x0 DUP6 ISZERO PUSH2 0x18B1 JUMPI POP DUP4 DUP3 ADD CALLDATALOAD JUMPDEST PUSH1 0x0 NOT PUSH1 0x3 DUP8 SWAP1 SHL SHR NOT AND PUSH1 0x1 DUP7 SWAP1 SHL OR DUP4 SSTORE PUSH2 0x1923 JUMP JUMPDEST PUSH1 0x0 DUP4 DUP2 MSTORE PUSH1 0x20 SWAP1 KECCAK256 PUSH1 0x1F NOT DUP7 AND SWAP1 DUP4 JUMPDEST DUP3 DUP2 LT ISZERO PUSH2 0x18FA JUMPI DUP7 DUP6 ADD CALLDATALOAD DUP3 SSTORE PUSH1 0x20 SWAP5 DUP6 ADD SWAP5 PUSH1 0x1 SWAP1 SWAP3 ADD SWAP2 ADD PUSH2 0x18DA JUMP JUMPDEST POP DUP7 DUP3 LT ISZERO PUSH2 0x1917 JUMPI PUSH1 0x0 NOT PUSH1 0xF8 DUP9 PUSH1 0x3 SHL AND SHR NOT DUP5 DUP8 ADD CALLDATALOAD AND DUP2 SSTORE JUMPDEST POP POP PUSH1 0x1 DUP6 PUSH1 0x1 SHL ADD DUP4 SSTORE JUMPDEST POP POP POP POP POP JUMP JUMPDEST PUSH4 0x4E487B71 PUSH1 0xE0 SHL PUSH1 0x0 MSTORE PUSH1 0x11 PUSH1 0x4 MSTORE PUSH1 0x24 PUSH1 0x0 REVERT JUMPDEST DUP1 DUP3 MUL DUP2 ISZERO DUP3 DUP3 DIV DUP5 EQ OR PUSH2 0x1957 JUMPI PUSH2 0x1957 PUSH2 0x192A JUMP JUMPDEST SWAP3 SWAP2 POP POP JUMP JUMPDEST DUP1 DUP3 ADD DUP1 DUP3 GT ISZERO PUSH2 0x1957 JUMPI PUSH2 0x1957 PUSH2 0x192A JUMP JUMPDEST DUP2 DUP2 SUB DUP2 DUP2 GT ISZERO PUSH2 0x1957 JUMPI PUSH2 0x1957 PUSH2 0x192A JUMP JUMPDEST PUSH1 0x0 PUSH1 0x1 DUP3 ADD PUSH2 0x1995 JUMPI PUSH2 0x1995 PUSH2 0x192A JUMP JUMPDEST POP PUSH1 0x1 ADD SWAP1 JUMP JUMPDEST PUSH4 0xFFFFFFFF DUP2 AND DUP2 EQ PUSH2 0xA99 JUMPI PUSH1 0x0 DUP1 REVERT JUMPDEST DUP1 CALLDATALOAD PUSH2 0x151A DUP2 PUSH2 0x199C JUMP JUMPDEST DUP1 ISZERO ISZERO DUP2 EQ PUSH2 0xA99 JUMPI PUSH1 0x0 DUP1 REVERT JUMPDEST DUP1 CALLDATALOAD PUSH2 0x151A DUP2 PUSH2 0x19B9 JUMP JUMPDEST PUSH1 0x0 PUSH1 0xC0 DUP3 DUP5 SUB SLT ISZERO PUSH2 0x19E4 JUMPI PUSH1 0x0 DUP1 REVERT JUMPDEST PUSH1 0x40 MLOAD PUSH1 0xC0 DUP2 ADD DUP2 DUP2 LT PUSH8 0xFFFFFFFFFFFFFFFF DUP3 GT OR ISZERO PUSH2 0x1A07 JUMPI PUSH2 0x1A07 PUSH2 0x17D1 JUMP JUMPDEST PUSH1 0x40 MSTORE DUP3 CALLDATALOAD PUSH2 0x1A15 DUP2 PUSH2 0x199C JUMP JUMPDEST DUP2 MSTORE PUSH1 0x20 DUP4 ADD CALLDATALOAD PUSH2 0x1A25 DUP2 PUSH2 0x199C JUMP JUMPDEST PUSH1 0x20 DUP3 ADD MSTORE PUSH1 0x40 DUP4 ADD CALLDATALOAD PUSH2 0x1A38 DUP2 PUSH2 0x199C JUMP JUMPDEST PUSH1 0x40 DUP3 ADD MSTORE PUSH2 0x1A49 PUSH1 0x60 DUP5 ADD PUSH2 0x19AE JUMP JUMPDEST PUSH1 0x60 DUP3 ADD MSTORE PUSH2 0x1A5A PUSH1 0x80 DUP5 ADD PUSH2 0x19C7 JUMP JUMPDEST PUSH1 0x80 DUP3 ADD MSTORE PUSH2 0x1A6B PUSH1 0xA0 DUP5 ADD PUSH2 0x19C7 JUMP JUMPDEST PUSH1 0xA0 DUP3 ADD MSTORE SWAP4 SWAP3 POP POP POP JUMP JUMPDEST DUP2 MLOAD PUSH8 0xFFFFFFFFFFFFFFFF DUP2 GT ISZERO PUSH2 0x1A91 JUMPI PUSH2 0x1A91 PUSH2 0x17D1 JUMP JUMPDEST PUSH2 0x1AA5 DUP2 PUSH2 0x1A9F DUP5 SLOAD PUSH2 0x17E7 JUMP JUMPDEST DUP5 PUSH2 0x181B JUMP JUMPDEST PUSH1 0x20 DUP1 PUSH1 0x1F DUP4 GT PUSH1 0x1 DUP2 EQ PUSH2 0x1ADA JUMPI PUSH1 0x0 DUP5 ISZERO PUSH2 0x1AC2 JUMPI POP DUP6 DUP4 ADD MLOAD JUMPDEST PUSH1 0x0 NOT PUSH1 0x3 DUP7 SWAP1 SHL SHR NOT AND PUSH1 0x1 DUP6 SWAP1 SHL OR DUP6 SSTORE PUSH2 0x1861 JUMP JUMPDEST PUSH1 0x0 DUP6 DUP2 MSTORE PUSH1 0x20 DUP2 KECCAK256 PUSH1 0x1F NOT DUP7 AND SWAP2 JUMPDEST DUP3 DUP2 LT ISZERO PUSH2 0x1B09 JUMPI DUP9 DUP7 ADD MLOAD DUP3 SSTORE SWAP5 DUP5 ADD SWAP5 PUSH1 0x1 SWAP1 SWAP2 ADD SWAP1 DUP5 ADD PUSH2 0x1AEA JUMP JUMPDEST POP DUP6 DUP3 LT ISZERO PUSH2 0x1B27 JUMPI DUP8 DUP6 ADD MLOAD PUSH1 0x0 NOT PUSH1 0x3 DUP9 SWAP1 SHL PUSH1 0xF8 AND SHR NOT AND DUP2 SSTORE JUMPDEST POP POP POP POP POP PUSH1 0x1 SWAP1 DUP2 SHL ADD SWAP1 SSTORE POP JUMP JUMPDEST PUSH1 0x0 DUP2 CALLDATALOAD PUSH2 0x1957 DUP2 PUSH2 0x19B9 JUMP JUMPDEST DUP2 CALLDATALOAD PUSH2 0x1B4F DUP2 PUSH2 0x199C JUMP JUMPDEST PUSH4 0xFFFFFFFF DUP2 AND SWAP1 POP DUP2 SLOAD DUP2 PUSH4 0xFFFFFFFF NOT DUP3 AND OR DUP4 SSTORE PUSH1 0x20 DUP5 ADD CALLDATALOAD PUSH2 0x1B74 DUP2 PUSH2 0x199C JUMP JUMPDEST PUSH8 0xFFFFFFFF00000000 DUP2 PUSH1 0x20 SHL AND SWAP1 POP DUP1 DUP4 PUSH8 0xFFFFFFFFFFFFFFFF NOT DUP5 AND OR OR DUP5 SSTORE PUSH1 0x40 DUP6 ADD CALLDATALOAD PUSH2 0x1BA4 DUP2 PUSH2 0x199C JUMP JUMPDEST PUSH12 0xFFFFFFFF0000000000000000 DUP2 PUSH1 0x40 SHL AND DUP5 PUSH12 0xFFFFFFFFFFFFFFFFFFFFFFFF NOT DUP6 AND OR DUP4 OR OR DUP6 SSTORE POP POP POP POP PUSH1 0x60 DUP3 ADD CALLDATALOAD PUSH2 0x1BDF DUP2 PUSH2 0x199C JUMP JUMPDEST DUP2 SLOAD PUSH4 0xFFFFFFFF PUSH1 0x60 SHL NOT AND PUSH1 0x60 DUP3 SWAP1 SHL PUSH4 0xFFFFFFFF PUSH1 0x60 SHL AND OR DUP3 SSTORE POP PUSH2 0x1C2A PUSH2 0x1C0C PUSH1 0x80 DUP5 ADD PUSH2 0x1B37 JUMP JUMPDEST DUP3 DUP1 SLOAD PUSH1 0xFF PUSH1 0x80 SHL NOT AND SWAP2 ISZERO ISZERO PUSH1 0x80 SHL PUSH1 0xFF PUSH1 0x80 SHL AND SWAP2 SWAP1 SWAP2 OR SWAP1 SSTORE JUMP JUMPDEST PUSH2 0x6D0 PUSH2 0x1C39 PUSH1 0xA0 DUP5 ADD PUSH2 0x1B37 JUMP JUMPDEST DUP3 DUP1 SLOAD PUSH1 0xFF PUSH1 0x88 SHL NOT AND SWAP2 ISZERO ISZERO PUSH1 0x88 SHL PUSH1 0xFF PUSH1 0x88 SHL AND SWAP2 SWAP1 SWAP2 OR SWAP1 SSTORE JUMP INVALID LOG2 PUSH5 0x6970667358 0x22 SLT KECCAK256 0xC2 0xD9 0xAE SWAP7 PUSH26 0xF145894BC55D098EC6CB7FA42D95DED1A3331EC1DF7F7F84FD3 0xE PUSH5 0x736F6C6343 STOP ADDMOD EQ STOP CALLER "},"methodIdentifiers":{"addReporter(address)":"dd8755f2","addStake(bytes32,uint256)":"c84654a8","allNodeIds(uint256)":"a5834971","authorizedReporters(address)":"3a41429a","claimRewards(bytes32)":"7790ddc6","deactivateNode(bytes32)":"a2444390","getNode(bytes32)":"50c946fe","getOwnerNodes(address)":"b59d3bea","getTotalNodes()":"63584ecd","isNodeEligible(bytes32)":"acbfd09e","minStake()":"375b3c0a","ottToken()":"cb1b4ac3","owner()":"8da5cb5b","ownerNodes(address,uint256)":"a4b104b8","reactivateNode(bytes32)":"8bc41246","registerNode((uint32,uint32,uint32,uint32,bool,bool),string,uint256)":"7851a0f4","removeReporter(address)":"5de5c212","renounceOwnership()":"715018a6","reportCompute(bytes32,uint256)":"0fac2618","rewardRate()":"7b0a47ee","setMinStake(uint256)":"8c80fd90","setRewardRate(uint256)":"9e447fc6","transferOwnership(address)":"f2fde38b","updateCapabilities(bytes32,(uint32,uint32,uint32,uint32,bool,bool))":"84251dc6","updateEndpoint(bytes32,string)":"0b55b348","withdrawStake(bytes32,uint256)":"19dc5716"}}}}}