{
  "_format": "hh-sol-artifact-1",
  "contractName": "TaskEscrow",
  "sourceName": "contracts/TaskEscrow.sol",
  "abi": [
    {
      "inputs": [
        {
          "internalType": "address",
          "name": "_ottToken",
          "type": "address"
        },
        {
          "internalType": "address",
          "name": "_feeRecipient",
          "type": "address"
        }
      ],
      "stateMutability": "nonpayable",
      "type": "constructor"
    },
    {
      "inputs": [
        {
          "internalType": "address",
          "name": "owner",
          "type": "address"
        }
      ],
      "name": "OwnableInvalidOwner",
      "type": "error"
    },
    {
      "inputs": [
        {
          "internalType": "address",
          "name": "account",
          "type": "address"
        }
      ],
      "name": "OwnableUnauthorizedAccount",
      "type": "error"
    },
    {
      "inputs": [],
      "name": "ReentrancyGuardReentrantCall",
      "type": "error"
    },
    {
      "inputs": [
        {
          "internalType": "address",
          "name": "token",
          "type": "address"
        }
      ],
      "name": "SafeERC20FailedOperation",
      "type": "error"
    },
    {
      "anonymous": false,
      "inputs": [
        {
          "indexed": true,
          "internalType": "address",
          "name": "manager",
          "type": "address"
        }
      ],
      "name": "ManagerAdded",
      "type": "event"
    },
    {
      "anonymous": false,
      "inputs": [
        {
          "indexed": true,
          "internalType": "address",
          "name": "manager",
          "type": "address"
        }
      ],
      "name": "ManagerRemoved",
      "type": "event"
    },
    {
      "anonymous": false,
      "inputs": [
        {
          "indexed": true,
          "internalType": "address",
          "name": "previousOwner",
          "type": "address"
        },
        {
          "indexed": true,
          "internalType": "address",
          "name": "newOwner",
          "type": "address"
        }
      ],
      "name": "OwnershipTransferred",
      "type": "event"
    },
    {
      "anonymous": false,
      "inputs": [
        {
          "indexed": true,
          "internalType": "bytes32",
          "name": "taskId",
          "type": "bytes32"
        },
        {
          "indexed": true,
          "internalType": "bytes32",
          "name": "nodeId",
          "type": "bytes32"
        }
      ],
      "name": "TaskAssigned",
      "type": "event"
    },
    {
      "anonymous": false,
      "inputs": [
        {
          "indexed": true,
          "internalType": "bytes32",
          "name": "taskId",
          "type": "bytes32"
        },
        {
          "indexed": false,
          "internalType": "bytes32",
          "name": "resultHash",
          "type": "bytes32"
        }
      ],
      "name": "TaskCompleted",
      "type": "event"
    },
    {
      "anonymous": false,
      "inputs": [
        {
          "indexed": true,
          "internalType": "bytes32",
          "name": "taskId",
          "type": "bytes32"
        },
        {
          "indexed": true,
          "internalType": "address",
          "name": "requester",
          "type": "address"
        },
        {
          "indexed": false,
          "internalType": "uint256",
          "name": "amount",
          "type": "uint256"
        }
      ],
      "name": "TaskCreated",
      "type": "event"
    },
    {
      "anonymous": false,
      "inputs": [
        {
          "indexed": true,
          "internalType": "bytes32",
          "name": "taskId",
          "type": "bytes32"
        },
        {
          "indexed": true,
          "internalType": "address",
          "name": "disputer",
          "type": "address"
        }
      ],
      "name": "TaskDisputed",
      "type": "event"
    },
    {
      "anonymous": false,
      "inputs": [
        {
          "indexed": true,
          "internalType": "bytes32",
          "name": "taskId",
          "type": "bytes32"
        },
        {
          "indexed": false,
          "internalType": "uint256",
          "name": "amount",
          "type": "uint256"
        }
      ],
      "name": "TaskRefunded",
      "type": "event"
    },
    {
      "anonymous": false,
      "inputs": [
        {
          "indexed": true,
          "internalType": "bytes32",
          "name": "taskId",
          "type": "bytes32"
        },
        {
          "indexed": true,
          "internalType": "address",
          "name": "nodeOwner",
          "type": "address"
        },
        {
          "indexed": false,
          "internalType": "uint256",
          "name": "amount",
          "type": "uint256"
        }
      ],
      "name": "TaskReleased",
      "type": "event"
    },
    {
      "inputs": [
        {
          "internalType": "address",
          "name": "manager",
          "type": "address"
        }
      ],
      "name": "addManager",
      "outputs": [],
      "stateMutability": "nonpayable",
      "type": "function"
    },
    {
      "inputs": [
        {
          "internalType": "uint256",
          "name": "",
          "type": "uint256"
        }
      ],
      "name": "allTaskIds",
      "outputs": [
        {
          "internalType": "bytes32",
          "name": "",
          "type": "bytes32"
        }
      ],
      "stateMutability": "view",
      "type": "function"
    },
    {
      "inputs": [
        {
          "internalType": "bytes32",
          "name": "taskId",
          "type": "bytes32"
        },
        {
          "internalType": "bytes32",
          "name": "nodeId",
          "type": "bytes32"
        }
      ],
      "name": "assignTask",
      "outputs": [],
      "stateMutability": "nonpayable",
      "type": "function"
    },
    {
      "inputs": [
        {
          "internalType": "bytes32",
          "name": "taskId",
          "type": "bytes32"
        }
      ],
      "name": "cancelTask",
      "outputs": [],
      "stateMutability": "nonpayable",
      "type": "function"
    },
    {
      "inputs": [
        {
          "internalType": "bytes32",
          "name": "taskId",
          "type": "bytes32"
        },
        {
          "internalType": "bytes32",
          "name": "resultHash",
          "type": "bytes32"
        }
      ],
      "name": "completeTask",
      "outputs": [],
      "stateMutability": "nonpayable",
      "type": "function"
    },
    {
      "inputs": [
        {
          "internalType": "bytes32",
          "name": "taskId",
          "type": "bytes32"
        },
        {
          "internalType": "uint256",
          "name": "amount",
          "type": "uint256"
        },
        {
          "internalType": "string",
          "name": "description",
          "type": "string"
        }
      ],
      "name": "createTask",
      "outputs": [],
      "stateMutability": "nonpayable",
      "type": "function"
    },
    {
      "inputs": [
        {
          "internalType": "bytes32",
          "name": "taskId",
          "type": "bytes32"
        }
      ],
      "name": "disputeTask",
      "outputs": [],
      "stateMutability": "nonpayable",
      "type": "function"
    },
    {
      "inputs": [],
      "name": "disputeTimeout",
      "outputs": [
        {
          "internalType": "uint256",
          "name": "",
          "type": "uint256"
        }
      ],
      "stateMutability": "view",
      "type": "function"
    },
    {
      "inputs": [],
      "name": "feeRecipient",
      "outputs": [
        {
          "internalType": "address",
          "name": "",
          "type": "address"
        }
      ],
      "stateMutability": "view",
      "type": "function"
    },
    {
      "inputs": [
        {
          "internalType": "bytes32",
          "name": "taskId",
          "type": "bytes32"
        }
      ],
      "name": "getTask",
      "outputs": [
        {
          "components": [
            {
              "internalType": "address",
              "name": "requester",
              "type": "address"
            },
            {
              "internalType": "bytes32",
              "name": "nodeId",
              "type": "bytes32"
            },
            {
              "internalType": "uint256",
              "name": "amount",
              "type": "uint256"
            },
            {
              "internalType": "uint256",
              "name": "platformFee",
              "type": "uint256"
            },
            {
              "internalType": "enum TaskEscrow.TaskStatus",
              "name": "status",
              "type": "uint8"
            },
            {
              "internalType": "bytes32",
              "name": "resultHash",
              "type": "bytes32"
            },
            {
              "internalType": "uint256",
              "name": "createdAt",
              "type": "uint256"
            },
            {
              "internalType": "uint256",
              "name": "completedAt",
              "type": "uint256"
            },
            {
              "internalType": "string",
              "name": "description",
              "type": "string"
            }
          ],
          "internalType": "struct TaskEscrow.Task",
          "name": "",
          "type": "tuple"
        }
      ],
      "stateMutability": "view",
      "type": "function"
    },
    {
      "inputs": [],
      "name": "getTotalTasks",
      "outputs": [
        {
          "internalType": "uint256",
          "name": "",
          "type": "uint256"
        }
      ],
      "stateMutability": "view",
      "type": "function"
    },
    {
      "inputs": [
        {
          "internalType": "address",
          "name": "",
          "type": "address"
        }
      ],
      "name": "managers",
      "outputs": [
        {
          "internalType": "bool",
          "name": "",
          "type": "bool"
        }
      ],
      "stateMutability": "view",
      "type": "function"
    },
    {
      "inputs": [],
      "name": "ottToken",
      "outputs": [
        {
          "internalType": "contract IERC20",
          "name": "",
          "type": "address"
        }
      ],
      "stateMutability": "view",
      "type": "function"
    },
    {
      "inputs": [],
      "name": "owner",
      "outputs": [
        {
          "internalType": "address",
          "name": "",
          "type": "address"
        }
      ],
      "stateMutability": "view",
      "type": "function"
    },
    {
      "inputs": [],
      "name": "platformFeePercent",
      "outputs": [
        {
          "internalType": "uint256",
          "name": "",
          "type": "uint256"
        }
      ],
      "stateMutability": "view",
      "type": "function"
    },
    {
      "inputs": [
        {
          "internalType": "bytes32",
          "name": "taskId",
          "type": "bytes32"
        }
      ],
      "name": "refundTask",
      "outputs": [],
      "stateMutability": "nonpayable",
      "type": "function"
    },
    {
      "inputs": [
        {
          "internalType": "bytes32",
          "name": "taskId",
          "type": "bytes32"
        },
        {
          "internalType": "address",
          "name": "nodeOwner",
          "type": "address"
        }
      ],
      "name": "releasePayment",
      "outputs": [],
      "stateMutability": "nonpayable",
      "type": "function"
    },
    {
      "inputs": [
        {
          "internalType": "address",
          "name": "manager",
          "type": "address"
        }
      ],
      "name": "removeManager",
      "outputs": [],
      "stateMutability": "nonpayable",
      "type": "function"
    },
    {
      "inputs": [],
      "name": "renounceOwnership",
      "outputs": [],
      "stateMutability": "nonpayable",
      "type": "function"
    },
    {
      "inputs": [
        {
          "internalType": "uint256",
          "name": "_timeout",
          "type": "uint256"
        }
      ],
      "name": "setDisputeTimeout",
      "outputs": [],
      "stateMutability": "nonpayable",
      "type": "function"
    },
    {
      "inputs": [
        {
          "internalType": "address",
          "name": "_feeRecipient",
          "type": "address"
        }
      ],
      "name": "setFeeRecipient",
      "outputs": [],
      "stateMutability": "nonpayable",
      "type": "function"
    },
    {
      "inputs": [
        {
          "internalType": "uint256",
          "name": "_percent",
          "type": "uint256"
        }
      ],
      "name": "setPlatformFeePercent",
      "outputs": [],
      "stateMutability": "nonpayable",
      "type": "function"
    },
    {
      "inputs": [
        {
          "internalType": "bytes32",
          "name": "",
          "type": "bytes32"
        }
      ],
      "name": "tasks",
      "outputs": [
        {
          "internalType": "address",
          "name": "requester",
          "type": "address"
        },
        {
          "internalType": "bytes32",
          "name": "nodeId",
          "type": "bytes32"
        },
        {
          "internalType": "uint256",
          "name": "amount",
          "type": "uint256"
        },
        {
          "internalType": "uint256",
          "name": "platformFee",
          "type": "uint256"
        },
        {
          "internalType": "enum TaskEscrow.TaskStatus",
          "name": "status",
          "type": "uint8"
        },
        {
          "internalType": "bytes32",
          "name": "resultHash",
          "type": "bytes32"
        },
        {
          "internalType": "uint256",
          "name": "createdAt",
          "type": "uint256"
        },
        {
          "internalType": "uint256",
          "name": "completedAt",
          "type": "uint256"
        },
        {
          "internalType": "string",
          "name": "description",
          "type": "string"
        }
      ],
      "stateMutability": "view",
      "type": "function"
    },
    {
      "inputs": [
        {
          "internalType": "address",
          "name": "newOwner",
          "type": "address"
        }
      ],
      "name": "transferOwnership",
      "outputs": [],
      "stateMutability": "nonpayable",
      "type": "function"
    }
  ],
  "bytecode": "0x60a06040526005600255620151806003553480156200001d57600080fd5b5060405162001a7938038062001a7983398101604081905262000040916200010d565b33806200006757604051631e4fbdf760e01b81526000600482015260240160405180910390fd5b6200007281620000a0565b50600180556001600160a01b03918216608052600680546001600160a01b0319169190921617905562000145565b600080546001600160a01b038381166001600160a01b0319831681178455604051919092169283917f8be0079c531659141344cd1fd0a4f28419497f9722a3daafe3b4186f6b6457e09190a35050565b80516001600160a01b03811681146200010857600080fd5b919050565b600080604083850312156200012157600080fd5b6200012c83620000f0565b91506200013c60208401620000f0565b90509250929050565b6080516118f562000184600039600081816102b30152818161062a01528181610a2c01528181610e6801528181610eb801526111c601526118f56000f3fe608060405234801561001057600080fd5b50600436106101585760003560e01c8063ac18de43116100c3578063e1231d501161007c578063e1231d50146102d5578063e579f500146102e8578063e74b981b14610310578063ee8ca3b514610323578063f2fde38b14610336578063fdff9b4d1461034957600080fd5b8063ac18de4314610259578063bbacc5911461026c578063bd42cf9e1461027f578063c04c22a414610292578063cab230d21461029b578063cb1b4ac3146102ae57600080fd5b806376c3504b1161011557806376c3504b146101f357806381d223bb146102065780638c639a85146102195780638da5cb5b1461022257806393f22b41146102335780639bdd6de71461024657600080fd5b806315a290351461015d5780632a32c721146101865780632d06177a1461019b5780633c93b905146101ae57806346904840146101c0578063715018a6146101eb575b600080fd5b61017061016b366004611423565b61037c565b60405161017d91906114ba565b60405180910390f35b610199610194366004611423565b610504565b005b6101996101a936600461156a565b61069b565b6007545b60405190815260200161017d565b6006546101d3906001600160a01b031681565b6040516001600160a01b03909116815260200161017d565b6101996106ef565b6101b2610201366004611423565b610703565b61019961021436600461158c565b610724565b6101b260025481565b6000546001600160a01b03166101d3565b61019961024136600461158c565b610834565b6101996102543660046115ae565b610936565b61019961026736600461156a565b610bfd565b61019961027a366004611423565b610c4e565b61019961028d36600461162e565b610d8c565b6101b260035481565b6101996102a9366004611423565b610f38565b6101d37f000000000000000000000000000000000000000000000000000000000000000081565b6101996102e3366004611423565b610f96565b6102fb6102f6366004611423565b610fa3565b60405161017d9998979695949392919061165a565b61019961031e36600461156a565b611086565b610199610331366004611423565b6110b0565b61019961034436600461156a565b611233565b61036c61035736600461156a565b60056020526000908152604090205460ff1681565b604051901515815260200161017d565b6103ce6040805161012081018252600080825260208201819052918101829052606081018290529060808201908152602001600080191681526020016000815260200160008152602001606081525090565b60008281526004602081815260409283902083516101208101855281546001600160a01b031681526001820154928101929092526002810154938201939093526003830154606082015290820154909190608083019060ff1660058111156104385761043861143c565b60058111156104495761044961143c565b815260200160058201548152602001600682015481526020016007820154815260200160088201805461047b906116c2565b80601f01602080910402602001604051908101604052809291908181526020018280546104a7906116c2565b80156104f45780601f106104c9576101008083540402835291602001916104f4565b820191906000526020600020905b8154815290600101906020018083116104d757829003601f168201915b5050505050815250509050919050565b3360009081526005602052604090205460ff168061052c57506000546001600160a01b031633145b6105515760405162461bcd60e51b8152600401610548906116fc565b60405180910390fd5b61055961126e565b600081815260046020526040812090600482015460ff1660058111156105815761058161143c565b14806105a557506003600482015460ff1660058111156105a3576105a361143c565b145b6105f15760405162461bcd60e51b815260206004820152601960248201527f5461736b457363726f773a2063616e6e6f7420726566756e64000000000000006044820152606401610548565b6004818101805460ff191690911790556003810154600282015460009161061791611749565b8254909150610653906001600160a01b037f00000000000000000000000000000000000000000000000000000000000000008116911683611298565b827f1d484b7a6bc447c931d0601b4ac6eb78a8fc5698acc254f8ecec287c622afeee8260405161068591815260200190565b60405180910390a2505061069860018055565b50565b6106a36112fc565b6001600160a01b038116600081815260056020526040808220805460ff19166001179055517f3b4a40cccf2058c593542587329dd385be4f0b588db5471fbd9598e56dd7093a9190a250565b6106f76112fc565b6107016000611329565b565b6007818154811061071357600080fd5b600091825260209091200154905081565b3360009081526005602052604090205460ff168061074c57506000546001600160a01b031633145b6107685760405162461bcd60e51b8152600401610548906116fc565b60008281526004602052604090206001600482015460ff1660058111156107915761079161143c565b146107de5760405162461bcd60e51b815260206004820152601860248201527f5461736b457363726f773a206e6f742061737369676e656400000000000000006044820152606401610548565b6005810182905560048101805460ff1916600217905542600782015560405182815283907f6a3a17a2ee0f5a9660f62936a17b5adc124d313734df031f55ab6c55bac36cfa9060200160405180910390a2505050565b3360009081526005602052604090205460ff168061085c57506000546001600160a01b031633145b6108785760405162461bcd60e51b8152600401610548906116fc565b600082815260046020526040812090600482015460ff1660058111156108a0576108a061143c565b146108ed5760405162461bcd60e51b815260206004820152601a60248201527f5461736b457363726f773a20696e76616c6964207374617475730000000000006044820152606401610548565b600181810183905560048201805460ff19169091179055604051829084907f0e33bf1a30886cc1405c8423879e49b54556423267ba8af7b25def6eae84991990600090a3505050565b61093e61126e565b6000848152600460205260409020546001600160a01b0316156109a35760405162461bcd60e51b815260206004820152601760248201527f5461736b457363726f773a207461736b206578697374730000000000000000006044820152606401610548565b600083116109f35760405162461bcd60e51b815260206004820152601760248201527f5461736b457363726f773a207a65726f20616d6f756e740000000000000000006044820152606401610548565b6000606460025485610a059190611762565b610a0f9190611779565b90506000610a1d8286611749565b9050610a546001600160a01b037f000000000000000000000000000000000000000000000000000000000000000016333084611379565b60408051610120810182523381526000602082018190529181018790526060810184905290608082019081526020016000801b81526020014281526020016000815260200185858080601f016020809104026020016040519081016040528093929190818152602001838380828437600092018290525093909452505088815260046020818152604092839020855181546001600160a01b0319166001600160a01b03909116178155908501516001808301919091559285015160028201556060850151600382015560808501519181018054919450919260ff1990911690836005811115610b4557610b4561143c565b021790555060a0820151600582015560c0820151600682015560e082015160078201556101008201516008820190610b7d90826117ff565b5050600780546001810182556000919091527fa66cc928b5edb82af9bd49922954155ab7b0942694bea4ce44661d9a8736c6880187905550604051858152339087907f5fb74283f874d0f894d0de9c856a2a842137dc2c21c621e080065c7b797c00959060200160405180910390a35050610bf760018055565b50505050565b610c056112fc565b6001600160a01b038116600081815260056020526040808220805460ff19169055517fef69f7d97228658c92417be1b16b19058315de71fecb435d07b7d23728b6bd319190a250565b60008181526004602052604090205481906001600160a01b03163314610cb25760405162461bcd60e51b81526020600482015260196024820152782a30b9b5a2b9b1b937bb9d103737ba103932b8bab2b9ba32b960391b6044820152606401610548565b60008281526004602052604090206001600482015460ff166005811115610cdb57610cdb61143c565b1480610cff57506002600482015460ff166005811115610cfd57610cfd61143c565b145b610d4b5760405162461bcd60e51b815260206004820152601a60248201527f5461736b457363726f773a2063616e6e6f7420646973707574650000000000006044820152606401610548565b60048101805460ff19166003179055604051339084907f1d8cbd4296db81bac563255b4fc6b24eb172f06c1098ed8acb493914a95b526190600090a3505050565b3360009081526005602052604090205460ff1680610db457506000546001600160a01b031633145b610dd05760405162461bcd60e51b8152600401610548906116fc565b610dd861126e565b60008281526004602052604090206002600482015460ff166005811115610e0157610e0161143c565b14610e4e5760405162461bcd60e51b815260206004820152601960248201527f5461736b457363726f773a206e6f7420636f6d706c65746564000000000000006044820152606401610548565b60048101805460ff191660051790556002810154610e98907f00000000000000000000000000000000000000000000000000000000000000006001600160a01b0316908490611298565b600381015415610ee2576006546003820154610ee2916001600160a01b037f0000000000000000000000000000000000000000000000000000000000000000811692911690611298565b816001600160a01b0316837f8b944d078aaff6bf0f144fa81299120ad1f4628ff02d19e5a02cc5f9050bd4b68360020154604051610f2291815260200190565b60405180910390a350610f3460018055565b5050565b610f406112fc565b6014811115610f915760405162461bcd60e51b815260206004820152601860248201527f5461736b457363726f773a2066656520746f6f206869676800000000000000006044820152606401610548565b600255565b610f9e6112fc565b600355565b60046020819052600091825260409091208054600182015460028301546003840154948401546005850154600686015460078701546008880180546001600160a01b03909816999698959760ff90951695939492939192611003906116c2565b80601f016020809104026020016040519081016040528092919081815260200182805461102f906116c2565b801561107c5780601f106110515761010080835404028352916020019161107c565b820191906000526020600020905b81548152906001019060200180831161105f57829003601f168201915b5050505050905089565b61108e6112fc565b600680546001600160a01b0319166001600160a01b0392909216919091179055565b6110b861126e565b60008181526004602052604090205481906001600160a01b0316331461111c5760405162461bcd60e51b81526020600482015260196024820152782a30b9b5a2b9b1b937bb9d103737ba103932b8bab2b9ba32b960391b6044820152606401610548565b600082815260046020526040812090600482015460ff1660058111156111445761114461143c565b146111915760405162461bcd60e51b815260206004820152601960248201527f5461736b457363726f773a2063616e6e6f742063616e63656c000000000000006044820152606401610548565b6004818101805460ff19169091179055600381015460028201546000916111b791611749565b90506111ed6001600160a01b037f0000000000000000000000000000000000000000000000000000000000000000163383611298565b837f1d484b7a6bc447c931d0601b4ac6eb78a8fc5698acc254f8ecec287c622afeee8260405161121f91815260200190565b60405180910390a250505061069860018055565b61123b6112fc565b6001600160a01b03811661126557604051631e4fbdf760e01b815260006004820152602401610548565b61069881611329565b60026001540361129157604051633ee5aeb560e01b815260040160405180910390fd5b6002600155565b6040516001600160a01b038381166024830152604482018390526112f791859182169063a9059cbb906064015b604051602081830303815290604052915060e01b6020820180516001600160e01b0383818316178352505050506113b2565b505050565b6000546001600160a01b031633146107015760405163118cdaa760e01b8152336004820152602401610548565b600080546001600160a01b038381166001600160a01b0319831681178455604051919092169283917f8be0079c531659141344cd1fd0a4f28419497f9722a3daafe3b4186f6b6457e09190a35050565b6040516001600160a01b038481166024830152838116604483015260648201839052610bf79186918216906323b872dd906084016112c5565b600080602060008451602086016000885af1806113d5576040513d6000823e3d81fd5b50506000513d915081156113ed5780600114156113fa565b6001600160a01b0384163b155b15610bf757604051635274afe760e01b81526001600160a01b0385166004820152602401610548565b60006020828403121561143557600080fd5b5035919050565b634e487b7160e01b600052602160045260246000fd5b6006811061147057634e487b7160e01b600052602160045260246000fd5b9052565b6000815180845260005b8181101561149a5760208185018101518683018201520161147e565b506000602082860101526020601f19601f83011685010191505092915050565b602081526114d46020820183516001600160a01b03169052565b6020820151604082015260408201516060820152606082015160808201526000608083015161150660a0840182611452565b5060a083015160c083015260c083015160e083015260e0830151610100818185015280850151915050610120808185015250611546610140840182611474565b949350505050565b80356001600160a01b038116811461156557600080fd5b919050565b60006020828403121561157c57600080fd5b6115858261154e565b9392505050565b6000806040838503121561159f57600080fd5b50508035926020909101359150565b600080600080606085870312156115c457600080fd5b8435935060208501359250604085013567ffffffffffffffff808211156115ea57600080fd5b818701915087601f8301126115fe57600080fd5b81358181111561160d57600080fd5b88602082850101111561161f57600080fd5b95989497505060200194505050565b6000806040838503121561164157600080fd5b823591506116516020840161154e565b90509250929050565b6001600160a01b038a168152602081018990526040810188905260608101879052600061012061168d6080840189611452565b8660a08401528560c08401528460e0840152806101008401526116b281840185611474565b9c9b505050505050505050505050565b600181811c908216806116d657607f821691505b6020821081036116f657634e487b7160e01b600052602260045260246000fd5b50919050565b60208082526019908201527f5461736b457363726f773a206e6f742061206d616e6167657200000000000000604082015260600190565b634e487b7160e01b600052601160045260246000fd5b8082018082111561175c5761175c611733565b92915050565b808202811582820484141761175c5761175c611733565b60008261179657634e487b7160e01b600052601260045260246000fd5b500490565b634e487b7160e01b600052604160045260246000fd5b601f8211156112f757600081815260208120601f850160051c810160208610156117d85750805b601f850160051c820191505b818110156117f7578281556001016117e4565b505050505050565b815167ffffffffffffffff8111156118195761181961179b565b61182d8161182784546116c2565b846117b1565b602080601f831160018114611862576000841561184a5750858301515b600019600386901b1c1916600185901b1785556117f7565b600085815260208120601f198616915b8281101561189157888601518255948401946001909101908401611872565b50858210156118af5787850151600019600388901b60f8161c191681555b5050505050600190811b0190555056fea2646970667358221220967be2fa5958724391dfdaa9ae4dee3904a3a6ec1c76265308bc18ae69b3ab3264736f6c63430008140033",
  "linkReferences": {},
  "deployedLinkReferences": {}
}